:020000040000fa
:080000000c01040000000000e7
:020000040000fa
:1002000000000000000000000000000000000000ee
:100210000000000000000000cf91200080ff2000bf
:100220000001880000000000050007000c00070026
:10023000da120200000000000040da000000fe00b8
:100240004440a900800220000000e00003003200ca
:1002500000002000a00188004440a8000000060023
:1002600080372100010020001600370062004000a6
:10027000e0804800910188009001ba0062004000cf
:10028000e0804800910188009002ba0062004000be
:10029000e08048000002eb006028e10005003a0021
:1002a0008301e90007003300038009000059eb00d7
:1002b000040037006128e100010032000082eb00f9
:1002c00005000700910188001001ba000200e0005b
:1002d000e6ff3a00000005009101880080027800e6
:1002e00062004000e08048003559ba008301e9000f
:1002f000080032002559ba008301e90005003200e8
:100300000400e000f4ff320015d9ba008301e900cf
:10031000f1ff3a0000000600889fbe0080047800cc
:1003200001007800020478008901780011002000a3
:100330000f00070089007800880f5000010032008c
:100340008000eb00010078004f04be0000000600b2
:100350000000fa004fb99700e88157008182200021
:10036000c01820005a0007000080fa0000000600b4
:10037000e4874700889fbe008a9fbe008c9fbe0016
:100380008e1f780081bf9f00820078008304780070
:10039000000778000fb997000116b8008c057800a7
:1003a0000001eb000c00e000420032000101780087
:1003b0008fb997000300e0003e0032000c00e0001f
:1003c0002e003200c900900069009000808f50001c
:1003d0000400390009007800f20007000000e00086
:1003e0002600350019a8a300060032000b01780092
:1003f000a10020000e0078002f0107000005780002
:10040000010037000005eb000b0478000a00e00053
:10041000020032000e0055000004e8006900900060
:10042000c901900003005000880f50000200310005
:100430000005eb0000047800080178008e007800c9
:10044000030078002501070008074700888555004c
:100450004900900008004000c00498000a00e00035
:100460000400320009007800230107000000e000ca
:1004700002003a000b00e000d2ff3a0019b8a300d6
:1004800002003200090078001b01070000c02000b4
:10049000190060000200320049009000e00498005a
:1004a0000b0056008fb99700110009000380d80097
:1004b00000017800020078004f0778004f06be0068
:1004c0004f05be004f04be004f00b1000000060003
:1004d0006200fa00889fbe008a9fbe000004be0032
:1004e00002057800830078006a8057003e0107000b
:1004f000f88f9f0089979f000000eb00909f9f005e
:100500001a80fb008005fb000000ea00cf04de003b
:100510000904780050022000808f550001003a0045
:100520000904e9000800e0000c0034000f90970077
:10053000080178008a007800ff8997000300010015
:1005400080979f008080eb000000e0009000320068
:100550001f98970008004000909f9f0009054500e4
:1005600050022000808f5500040032000b00e00094
:10057000e3ff3a009f989700850037000000eb00ea
:10058000f0979f00e0979f00d0979f00c0979f0033
:10059000b0979f00a0979f00b09f9f000900370071
:1005a000a08a2000008050000000d000018b2000b5
:1005b00001004000bf98970090807000b19f9f009d
:1005c0000a05e8009a00fb00a08a20000801070045
:1005d000800078000000e000f1ff3a00a0c2b30004
:1005e0009a4f10000e003a003fb897000080e900d3
:1005f000b0bf9f0010007800a09f9f000000e000a7
:1006000005003d000000ea00a09f9f003f98970072
:100610000020a000b09f9f000a05e80011003700ed
:10062000a19f9f000b003700af989700f0ff2700b5
:10063000808f5000060032006a09b9001a00fb00e2
:100640000200400001fd2f0001004000a09f9f001c
:100650000a05e8001a00fb00ed0007000000e000ba
:10066000f1ff3a00e0c2b3009a4f100003003200dd
:100670000080eb00809f9f001c003700a0c2b300e9
:10068000da4f100007003a003fb897000080e900f9
:10069000b0bf9f0010007800809f9f000a05e8000f
:1006a000120037000000eb00809f9f000b00370016
:1006b0008f989700f0ff2700808f500006003200cf
:1006c0006a09b9001a00fb000200400001fd2f007a
:1006d00001004000809f9f000a05e8001a00fb000f
:1006e000cb0007000000e000f1ff3a009a00fb0099
:1006f000408d2000be0007008040eb000000e000bd
:1007000001003200ba407800817f9f0080c6b300ac
:1007100080cf500004003a009acf100002003a0047
:1007200066405000070037008f789700c0c6b300be
:1007300080cf500005003a009acf100003003a0025
:1007400065404000807f9f000a05e800a0fb2f0065
:10075000008447003a01fb0088017800ea805700d6
:1007600060f92f000f004000af0007000000e0001c
:1007700006003a008800780060f92f000f00400062
:100780002f0207000000e0005dff3d008080eb00cd
:10079000010078004f05be004f04be000080fa0043
:1007a00000000600889fbe0000047800c001900091
:1007b000600090008000eb00808f51003b0039000a
:1007c000180178002000290000006100e20f5000ad
:1007d00009003200020078000090a0000200e00052
:1007e000020035000020240000007100000c780099
:1007f0008080eb002d003700010026000100610021
:10080000810f500008003a0038009000808f51009e
:100810000500390008007800370007008080eb00f1
:100820000000e00021003a0000c020001800600035
:1008300017003a006002200008004000a804900061
:10084000808f540012003a000020200003030700ac
:1008500080007800200498000000e00005003a00c5
:1008600029049800490498000900e8003004980021
:10087000060037001860a000400498000020b00077
:1008800030049800410c9800510c98002a0307008e
:1008900028009000500498003800900060049800f0
:1008a00000002600180c70008000eb0001007800aa
:1008b0004f04be00000006000200e0000500320008
:1008c00090cf1000040032000000e8000201e900af
:1008d000fbff3a000000eb000000060080017800fa
:1008e0000200e00003003200b15978000201e90083
:1008f000fdff3a0000000600889fbe00000478005b
:100900000000e0000f003a006044b8000800d0008a
:1009100081872000608078000000e0000400320041
:10092000f5ff07000000e00001003d008084eb00bf
:100930000804e80009007800e70f540028003c0094
:10094000f2ff370010d8a30024003200a00490006a
:1009500040009000808f54000b00310009015000ce
:10096000384090000000fb00890078003c0407003c
:100970000000e00011003400808444004800900032
:10098000808f5400f5ff3900280090004004980043
:100990009800780000c02000008060000200320053
:1009a000a804900001003700b804900001e8a300fb
:1009b000090032006904980008003700a800900080
:1009c0004104980061049800510c98001890a00010
:1009d0000080eb0002003700590c98000000eb008b
:1009e0004f04be0000000600010878000000060069
:1009f00090cf1000050032001004e00001003a0022
:100a000000000500d0cf1000fbff3a0000000600f8
:100a10000003b100030035009000b10001003c006c
:100a20001000050000000500889fbe008a1f7800a6
:100a30000004780001027800024578008304780001
:100a40000200fb00cf80de005002b1000180b10047
:100a500032052000820f5000e08f58006b013e00ed
:100a6000006001006301370068013700670137004b
:100a70006601370065013700640137006301370004
:100a80006201370061013700600137005f01370004
:100a90005e0137005d0137005c0137005b01370004
:100aa0005a01370059013700580137005701370004
:100ab0005601370055013700540137005301370004
:100ac0005201370051013700500137004f01370004
:100ad0004e0137004d0137004c0137004b01370004
:100ae0004a01370049013700480137004701370004
:100af0004601370045013700440137004301370004
:100b00004201370041013700400137003f01370003
:100b10003e0137003d0137003c013700210137001d
:100b20003a01370039013700380137003701370003
:100b300081003700350137003401370033013700b9
:100b40003201370031013700300137002f01370003
:100b50002e0137002d0137002c013700150037001a
:100b60001c00370029013700280137002701370012
:100b70002601370017003700240137002301370012
:100b80002201370021013700c20037006a00370018
:100b9000f50037001d0137001c0137000101370047
:100ba0001a013700640037001801370017013700b9
:100bb000610037006e01440012007800808141001e
:100bc0009480e900010a78000009e8009149780062
:100bd0001701370028619000c0c6b300804f510054
:100be0000a003a009400780064805000000a7800ff
:100bf0001000be004f89de00cf91de000002be0073
:100c000002037800820378001600370010c7b30093
:100c1000804f510003003a00140178006800510031
:100c20000500370094007800a0c6b300804f510043
:100c300005003a0068805000000a78003002be00cb
:100c40002003be00070037000180e900000a780099
:100c50001000780000027800cfa2de0005037800c3
:100c600086037800049cbe000694be00a860900035
:100c700080c6b30080cf50000f00320020c6b30002
:100c800080cf500006003a00184078000000fb00ba
:100c9000cf80de0001017800820178000a00370071
:100ca00040c7b30080cf50000300320066404000d0
:100cb00080cf500006003a0018007800cf80de0098
:100cc0000101780082017800009cbe000294be0001
:100cd0003800be002801be00e00f5000e08f580031
:100ce000e00f5900e08f590004003d006e01440000
:100cf00092007800d0c2b3000c00370008109000ba
:100d00000018a300040032006e0144009200780035
:100d1000b0c2b300050037000008a300580032003d
:100d20006e0144009200780000c2b30080f47800a5
:100d30000109e8005200370028619000c0c6b300e6
:100d4000804f510006003a00940078006480500003
:100d5000000a78001002be006033b80016003700a9
:100d600010c7b300804f510003003a00140178000f
:100d7000680051000500370094007800a0c6b30059
:100d8000804f510005003a0068805000000a78004a
:100d90003002be002003be00070037000180e900da
:100da000000a78001000780000027800050020009a
:100db0000600200007002000049cbe000694be0030
:100dc000a860900080c6b30080cf50000f003200b2
:100dd00020c6b30080cf500006003a0018407800cb
:100de0000080fb0001002000020020000300200022
:100df0000a00370040c7b30080cf50000300320024
:100e00006640400080cf500006003a00180078008d
:100e1000010020000200200003002000009cbe0012
:100e20000294be00081090000038a30014003200a5
:100e30003800be002801be00e00f5000e08f5800cf
:100e4000e00f5900e08f59000d00320080c7b30059
:100e5000804f55000300320080c5b300804f55001d
:100e600007003a006e0044009000780002c3b3000f
:100e700082f478008100e8008af478000108e80034
:100e80007800900000804400600498008a40780058
:100e900041003700286090008000fb00c006200061
:100ea000808f5000230032000a003c006400500094
:100eb000808f50002600320004003c006600500085
:100ec000808f50000b00320021003700a006200068
:100ed0000500370040072000808f50001c003200c2
:100ee0001b003c0063005000808f50000700320060
:100ef000170037001480e900000a7800100078001d
:100f0000485c900008487800490037001480e900e8
:100f1000000a78001002780068089000cf80de0098
:100f20000101780082017800009abe000292be00a2
:100f30003f0037001480e900000a780010017800b3
:100f400068089000cf80de000089be0038003700be
:100f50001480e900000a780010007800680c900006
:100f600008087800320037001480e900000a780091
:100f700010007800cf80de00010178008201780047
:100f8000009cbe000294be007800900000804400e7
:100f90006004980081c7b30008007800aa01070028
:100fa000230037001480e900000a78001000780060
:100fb00060049800580990000200e00002003d0023
:100fc00053020700090037008000eb003afe0700db
:100fd000800078000000e00003003200680090000c
:100fe000008050000100370058089000100c980055
:100ff0000f0037006e0144009200780050c2b30029
:1010000080f178000109e80009003700ee00440093
:1010100011007800808144000a4278008008e800ce
:101020000a04e00001003a0054c2b3008449780089
:101030000000eb004f0578004f04be0000000600e2
:101040000400fa00889fbe008a9fbe008c1f7800b3
:10105000000478000106780070089000f800900005
:10106000010050008808900001005000980890008e
:1010700001005000a808900001005000b80890003e
:1010800001005000c80890008105500000022200b5
:1010900090bf9f0000032300a0bf9f000810900096
:1010a0000028a30018003a000b00e00016003400ee
:1010b0000b0578008a047800e20f55000100360025
:1010c000290020000900e0000c00340058009000c6
:1010d000c801900009017800ee805700030001006c
:1010e000500498008080eb000000e0009c0032007b
:1010f0006808900009004000600c98000905550040
:101100004240a900ebff3c00780190000200e000a3
:101110000c00340058009000c80190008c0078004a
:1011200003000100500498008080eb000000e00004
:101130008b00320068089000f80090000100400029
:10114000600c9800080890000000e00016003400d1
:10115000000578008a047800e20f5500010036008f
:10116000290020000900e0000c0034005800900025
:10117000c801900009017800ec80570003000100cd
:10118000500498008080eb000000e0007400320002
:101190006808900009004000600c9800090555009f
:1011a0004240a900ebff3c00180990000200e0005b
:1011b0000c003400e800900058009000c801900036
:1011c00003000100500498008080eb000000e00064
:1011d0006300320068089000980890000100400009
:1011e000600c9800280890000000e0001600340011
:1011f000000578008a047800e20f550001003600ef
:10120000290020000900e0000c0034005800900084
:10121000c801900009017800ec805700030001002c
:10122000500498008080eb000000e0004c00320089
:101230006808900009004000600c980009055500fe
:101240004240a900ebff3c00380990000200e0009a
:101250000e003400e80090001808900080804000e4
:1012600058009000c801900003000100500498004d
:101270008080eb000000e000390032006808900038
:10128000b808900001004000600c980048089000e9
:101290000000e00016003400000578008a047800a1
:1012a000e20f550001003600290020000900e0008f
:1012b0000c00340058009000c8019000090178002b
:1012c000ec80570003000100500498008080eb0080
:1012d0000000e00022003200680890000900400091
:1012e000600c9800090555004240a900ebff3c0046
:1012f000081090000028a300180032000b00e00046
:10130000160034000b0578008a047800e20f5500bf
:1013100001003600290020000900e0000c00340024
:1013200058009000c801900009017800ee80570035
:1013300003000100500498008080eb000000e000f2
:10134000070032006808900009004000600c980017
:10135000090555004240a900ebff3c008000eb006e
:10136000010078004f0678004f05be004f04be0014
:101370000080fa0000000600889fbe00800478000c
:1013800041468000010078000100e0000a003a00b8
:10139000a18c2000ca08e2001c0032001100780075
:1013a000908f5400140036008080e8001100e000a7
:1013b000faff3a00150037001100e0000600320085
:1013c00011017800928f54000b0036008280e800f3
:1013d0001100e000faff3a0010017800a18c200013
:1013e00050468000820f5000080032001100780043
:1013f000908f540002003e00010078001500370075
:101400008080e800910f1100f8ff3a0068468000e4
:10141000890f5400010031000904780008007800a9
:1014200042010700000178000000e00005003a00da
:101430000000eb00890f5400060032000804d100c0
:10144000f3ff370008197800020078003e0107001a
:10145000cbff37004f04be0000000600881f780055
:10146000630440000800a1000001eb00800f54005d
:1014700022003600e30f540001003e004800200027
:1014800008007800bcff0700800078000001eb0036
:101490000000e0001900320010017800920178008d
:1014a00064805100880f500003003100120090004a
:1014b00080087800070037000800410080087800a5
:1014c0001202900014009800110078000888510062
:1014d00008097800910078000100e0000400320063
:1014e000110090008180e8000000e00001003a0057
:1014f0008000eb00414688000281e800020078008d
:101500004f04780000000600881f78008800200043
:101510000800d00081872000608078000000e00093
:10152000010032000a0007000804e900f8ff370054
:1015300040a820003d013700d048e20003003a00f7
:10154000fbff070020c0b300d0e8b7000000060092
:10155000889fbe0000047800e7fc07008004780044
:101560001868a3000200320028009000f60007006f
:101570000000eb0020049800384090000004e000d8
:10158000050035000000fb00560107000000e000e8
:10159000010032008084eb00181090000000e00091
:1015a00008003200580107000000e000010032008e
:1015b0008084eb0018109000e30007000000eb00af
:1015c000101498001878a3000e0032008000eb0081
:1015d0000100d0008287200002004000900f14001c
:1015e000060032008100e800e78f5000f8ff360067
:1015f00008007800d4000700100037000008eb0056
:10160000fbff3700000ceb0000c0eb0030449800fb
:101610006002200008004000200498004004980068
:1016200050049800400c980060049800500c9800fa
:101630007004980076004400000c980009007800bf
:101640004f04be00000006006f02b000889fbe007d
:101650008a9fbe008c9fbe008e1f78008006780097
:1016600090892000b0b79f0080c5b30080cf5000a4
:101670000200320082882000b2b79f008300200061
:10168000c3b79f00f0c6b30080cf50000a003200fd
:101690006940400080cf500005003200a4002000c7
:1016a000c4b79f0080c5b30080cf500002003a004d
:1016b00000012000c0b79f008e0120003d04be0045
:1016c0002d05be0040c6b30080cf5000030032009d
:1016d0006540400080cf50000a003a00e00f5400ff
:1016e000e08f5c00e00f5d00e08f5d0005003d00d5
:1016f0000800be000a01be00310107000205be005d
:101700000004be00e00f5400e08f5c00e00f5d00bd
:10171000e08f5d0003003a005d0890000000e000eb
:101720000c0032007e012000cfb09700010278004b
:10173000cfa2de0005037800860378000800be0013
:101740000a01be00b40107003fb297006440780070
:10175000d0e79f004fb09700cf80de0001017800f6
:1017600082017800d0b79f00e1b79f00f2b79f00d9
:1017700083bf9f000203be000002be000800be003f
:101780000a01be009d010700809ebe008296be0039
:10179000e00f5000e08f5800e00f5900e08f590033
:1017a000220034000e00e000200034003d00be00a6
:1017b0002d01be005fb29700efb297007fb3970094
:1017c0008fbb9700980107000205be000004be0011
:1017d0000e07e900e1fc2f008f8040000106470062
:1017e0005fb29700efb297007fb397008fbb97006f
:1017f0000800be000a01be00280207001d001000fc
:101800003fb19700624e7800889ebe008a96be0067
:10181000e00f5400e08f5c00e00f5d00e08f5d00a2
:10182000020034000e00e000e0ff3c00cfb1970062
:10183000e88f510010003a000d1090000038a3000e
:101840000d003200f70f570006003e00e4fc2f00a9
:101850000e024200e4c07f0000c3b30080cf5000fe
:10186000050032000e07e90000c3b300e1fc2f00c1
:101870008e80400080f07f0078011700920e980063
:101880006d009000e3fc2f008f8141008e804100ad
:1018900012fc07001d0e90005d089000800f56009e
:1018a00006003d000c005000800e98000d109000c6
:1018b0000040a100801698000f0037000000e000f3
:1018c0000d003d000d10900074006000f00f5000fe
:1018d00009003a007d089000fd00900001005000d2
:1018e0008d089000010050000c0750004240a900f4
:1018f000010034008e0e98004f0778004f06be009e
:101900004f05be004f04be006f02b100000006008c
:10191000800078001004e000020032005104e00072
:10192000feff3a0000805000000006000000e000ca
:10193000030034007d000700e10f400001003a0081
:101940000000eb00000006000000e000360032005e
:101950000081e90012027800e30f520032003600e5
:101960000408a30030003a00514680000100e00066
:1019700002003200810f510003003100010878009d
:10198000524688001d003700810178001100900048
:101990000000e00008003200820f50000600310015
:1019a00080017800100090000000e000020032008a
:1019b000820f5000faff3900930078000180410047
:1019c000800f510018003900820f500003003a00c8
:1019d00084894000030178000800370093009000dc
:1019e0000100e0000300320004004100808f50003d
:1019f0000d003900110198009201980092009000aa
:101a00000100e0000800320092017800030041006c
:101a1000810f500004003a00c828ef0010894100ef
:101a200010009000100198000000060000017800ee
:101a3000000020000000e0000800320000008000ec
:101a40000000e000050032000000e900000088000e
:101a50000000d0000100800002b078000000060005
:101a60000a00fa0080017800e20f500012003e00e8
:101a70000c02e200030035001422ef0000002800f1
:101a80000c22b7000f42ab0001003a000f42a80041
:101a9000820178000200e0000f0032000f22ab004c
:101aa000feff3a003100fb00801088008301e9004e
:101ab000faff3a000800370030002000b0bf9f0056
:101ac000c3bf9f00d1bf9f00e2bf9f006a80570045
:101ad00000c0da006fb99700020078000080fa00b9
:101ae000000006000a00fa0011002000b1bf9f00ac
:101af000c0bf9f006a80570000c0da004fb897004f
:101b00000080fa00000006000a00fa0051002000e0
:101b1000b1bf9f00c0bf9f006a80570000c0da00bd
:101b20005fb897000080fa0000000600889fbe00a2
:101b300080047800d208e20005003a000000eb00c3
:101b4000100007008080eb000000e0000a00350074
:101b500098468000880078000900e0000600320006
:101b600009004400070007008080eb000000e0004f
:101b70000100350088007800010078004f04be00a5
:101b800000000600800078000001eb000000e0008b
:101b900003003a00c08d2000904688000600370000
:101ba000c0912000808f500002003e0091468800c6
:101bb000010037000081eb00020078000000060001
:101bc00060001000e080180060011900e081190039
:101bd00000000600881f7800000478005001be0055
:101be0004000be000000420081804a0002014b001c
:101bf00083814b00009cbe000294be00dc00070005
:101c000003003100480090000000e8004004980004
:101c10004f04780000000600889fbe000004780092
:101c20008004eb005001be004000be00d000070061
:101c30000100310019002000040050008580580088
:101c40000601590087815900009cbe000294be0025
:101c50004800900009005000400498004f04be0066
:101c6000000006001200fa00889fbe008a9fbe0096
:101c70008c1f78000205be000004be00f4b79f0070
:101c800085bf9f0096bf9f00a7bf9f000000eb008d
:101c9000e0b79f00d0b79f00c0b79f00b0b79f00cc
:101ca000a0b79f000006eb005fb197006fb09700f0
:101cb0008000d0000000e00015003d00e1b79f006b
:101cc000010078000200e00001003d000000a000db
:101cd000ac00070001003d000000a000af000700bd
:101ce00001003d000000a000b200070001003d001f
:101cf0000000a0008100070001003d000000a000de
:101d0000b20007007c805700b2ff070014003700c4
:101d1000e1b79f00010078000200e00001003d00f3
:101d20000000a0009700070001003d000000a00097
:101d30009a00070001003d000000a0009d00070080
:101d400001003d000000a0006c00070001003d0004
:101d50000000a0009d0007007c805700aeff070038
:101d60006fb097000000e000070035001000200071
:101d7000010020006011b800080470008984700020
:101d80000a0571008b8571000c06e800f003200045
:101d9000800f5600c4ff34006fb097000000e000d1
:101da00006003d007fb297008fba97001fbb9700d7
:101db000afbb97007c80570086ff07000802be007b
:101dc0000a03be006fa897000000e00004003a007c
:101dd0002fb29700bfb297004fb39700dfb39700c1
:101de0000400be000601be004f0678004f05be008d
:101df0004f04be000080fa0000000600881f780033
:101e000018002000881f780096ff07008f87e900e0
:101e10004f04780000000600801feb0091ff0700d0
:101e20008f87e900000006000800fa00889fbe00c6
:101e30008a9fbe008c1f78006e00070005003d00e1
:101e400043000700300007000c003d00330007008e
:101e50000b003700e00f5200e08f5a00e00f5b00ec
:101e6000e08f5b0006003d000400be000601be00de
:101e700053ff07000205be000004be001c00200046
:101e80002c000700ddff07000c00e000010032001d
:101e90004bff07004f0678004f05be004f04be0001
:101ea0000080fa00000006000800fa00889fbe00cb
:101eb0008a9fbe008c1f78004e00070002003d0084
:101ec0001c002000220007000f00070001003d0059
:101ed0001200070017000700cfff07000c00e0000a
:101ee0000100320036ff07004f0678004f05be00a4
:101ef0004f04be000080fa000000060090b79f006b
:101f00000100d00080b79f00e00f5400e08f5c001c
:101f1000e00f5d00e08f5d00000006000800be00dd
:101f20000a01be0026ff07000205be000004be0035
:101f3000000006000802be000a03be005fb0970062
:101f4000efb097007fb197008fb9970000000600af
:101f50001bff07000100070000000600b0b79f004c
:101f6000c1b79f00d2b79f00e3b79f0000000600f3
:101f70000400e1000588e1000690e1000798e10017
:101f800000000600c0b79f000200d000b0b79f005d
:101f9000afb097000100e00000000600b0b79f005e
:101fa0000100d000a0b79f009fb097000100e000a3
:101fb00000000600a0b79f000100d00090b79f006e
:101fc0008fb097000100e0000000060080b79f007e
:101fd0000804d0008984d2000a85d2008b85d20003
:101fe0005fb29700efb297007fb397008fbb970067
:101ff00000000600d9ff07000605be000404be006d
:102000000006eb00e00f5000e08f5800e00f590091
:10201000e08f590000000600889fbe008a9fbe0026
:102020008c9fbe000404b8000506b8008904460071
:1020300060854e000606b8000a054600e0854e00a1
:102040000706b8008b054600040eb8008904460058
:102050000a854e00050eb8000a0546008b854e0025
:10206000060eb8008b0546000416b8000a054600a7
:102070008b854e000516b8008b054600041eb8007f
:102080008b0546000800be000a01be004f06be00d8
:102090004f05be004f04be00000006000800fa0015
:1020a000889fbe008a9fbe00170007000605be007d
:1020b0000404be00e00f5200e08f5a00e00f5b0006
:1020c000e08f5b0008003d000400be000601be007a
:1020d000bbfe07000205be000004be000f000700a3
:1020e000b7fe0700080007000802be000a03be0092
:1020f0000a000700c8ff07004f05be004f04be00de
:102100000080fa0000000600e0b79f00f1b79f00d2
:1021100082bf9f0093bf9f00000006006fb0970032
:10212000ffb097000fb997009fb997000000060015
:102130000200fa00000f78001e0fe9000080eb009b
:102140009e0f1000fcff3a000080fa00000006001d
:102150000400fa000040eb00004f78000040eb0064
:10216000204798002e409000e74f500017003c0099
:10217000d202a800d4c2bf000080fb006100600052
:10218000e10f500003003a0000c8b3001e4f70007a
:10219000010037001e74a1001e80fb000000d1006a
:1021a000004f7800d202a900da02a8002003200024
:1021b000dfff0700da02a900d402a8002e40900039
:1021c0000040e80020479800e6ff37001e80fb0033
:1021d0000080fa00000006000000fa00da02a90000
:1021e000da22a900da22a80020032000d0ff07008d
:1021f0000080fa00000006000000fa002003200022
:10220000cbff0700da02a900da22a900da22a8002f
:102210000080fa00000006000200fa00004f78007b
:102220000040eb00104798001e409000e74f500020
:1022300013003e00d402a9001e80fb006100600074
:102240000000e00002003200d402a80001003700c4
:10225000d402a9001e80fb000000d100004f7800ce
:10226000da02a90020032000b1ff0700da02a8006b
:102270001e4090000040e80010479800eaff370039
:102280000080fa00000006000200fa00004f78000b
:1022900011479800d0ff0700e0cfb3001e40600058
:1022a000ddff07001e409000dbff0700d2ff0700a4
:1022b0000080fa00000006000200fa00004f7800db
:1022c000c5ff07001e4078000004a000d2ff0700f1
:1022d0009fff070010479800c7ff07001e409000af
:1022e0000080fb000080fa00000006000200fa00f7
:1022f0008040eb00e0c8b300e3ff070001cab30071
:1023000000c9b300e0ff070000c8b300eaff070000
:10231000004f78009e4078000174a10000c8b3000f
:10232000d9ff07000080fa00000006000000fa0054
:102330000040eb00080007000040eb002100070010
:1023400012c0b3008040eb00c0c0b30038000700eb
:102350000080fa00000006000400fa00004f780038
:102360001e80fb00a2002000110009000280d8009e
:10237000204798002e4090008080fb00a0002000a5
:102380000088b900304798009e4078003e40900099
:1023900000c05000104798002e4090008080fb0045
:1023a000000120000088b900804078001e409000a5
:1023b00080c0400000c8b300b3ff07000080fa00ef
:1023c000000006000400fa00004f78001e80fb00a9
:1023d000a2002000110009000280d80020479800c8
:1023e0002e4090008080fb00a00020000088b900f3
:1023f000304798009e4078003e40900000c050005a
:10240000104798002e4090008080fb0000012000c3
:102410000088b900804078001e40900080c04000d5
:1024200020c8b30098ff07000080fa0000000600f3
:102430000600fa00004f78001147980022479800e4
:102440001e80fb00a2002000110009000280d800bd
:10245000404798004e4090008080fb00a000200084
:102460000088b900504798009e4078005e40900078
:1024700000c05000304798004e4090008080fb0024
:10248000000120000088b900804078003e409000a4
:1024900000c04000504798001e4090008080fb0024
:1024a000000220000088b900804078005e40900063
:1024b00001404000504798002e4090000004e0008a
:1024c00004003a0000c8b300de40900000c04000a5
:1024d00050479800de40900040c8b3006aff0700f4
:1024e0000080fa00000006000200fa003aff070030
:1024f00010c8b30048ff070015ff0700004f780021
:102500003dff07001e80fb000080fa00000006006f
:10251000801f78000000fa008520a900901080003c
:10252000cee8b7000080fa004f00780000400600b7
:102530000000fa008540a9000080fa000040060073
:102540000400fa0000c8b3005bff07000074a1009c
:10255000bce8b70020c8b30057ff07000074a10013
:10256000bde8b70040c8b30053ff0700104798000c
:102570001e40900020479800004f78001e409000b9
:102580000080fb004700de0061406000c3e8b70048
:102590001e80fb004500de0061406000c2e8b7001d
:1025a0002e409000f043b200bee8b7000080fa0071
:1025b000000006000200fa000000eb00c0168800d0
:1025c0000000eb00301688000000eb009016880039
:1025d0001300070045ff070054ff0700d8ff07005e
:1025e000bcc8bf000080fb00801f7800bdc8bf00d2
:1025f0000080fb00801f7800bec8bf000080fb0089
:10260000801f780040362900801f780050f70700af
:10261000e88757004006200018000700efff37004a
:102620000000fa000c02a900c120200091407800af
:1026300090cfb30000c060000ce2b7000ca2a9006c
:1026400070062000a01088000ec2bf00f043b20048
:102650000ee2b7000fe2a8000d42a8000de2a800ac
:102660000f42a8008540a9008520a9008d40a80040
:102670008d20a8000080fa00000006000400fa0087
:10268000000f78001e0fe9000080eb009e0f100085
:102690000b0032000000eb00100798009e00900035
:1026a000c0c72000808f5000f6ff3e000060fe0093
:1026b0001e0090000000e80010079800f7ff3700a8
:0826c0000080fa000000060092
:020000040000fa
:100008003c1400003c1400003c1400003c140000a8
:100018003c1400003c1400003c1400003c14000098
:100028003c1400003c1400003c1400003c14000088
:100038003c1400003c1400003c1400003c14000078
:100048003c14000088120000981200003c140000c4
:100058003c1400003c1400003c1400003c14000058
:100068003c1400003c1400003c1400003c14000048
:100078003c1400003c1400003c1400003c14000038
:100088003c1400003c1400003c1400003c14000028
:100098003c1400003c1400003c1400003c14000018
:1000a8003c1400003c1400003c1400003c14000008
:1000b8003c1400003c1400003c1400003c140000f8
:1000c8003c1400003c1400003c1400003c140000e8
:1000d8003c1400003c1400003c1400003c140000d8
:1000e8003c1400003c1400003c1400003c140000c8
:0800f8003c1400003c14000060
:020000040000fa
:100108003c1400003c1400003c1400003c140000a7
:100118003c1400003c1400003c1400003c14000097
:100128003c1400003c1400003c1400003c14000087
:100138003c1400003c1400003c1400003c14000077
:100148003c14000088120000981200003c140000c3
:100158003c1400003c1400003c1400003c14000057
:100168003c1400003c1400003c1400003c14000047
:100178003c1400003c1400003c1400003c14000037
:100188003c1400003c1400003c1400003c14000027
:100198003c1400003c1400003c1400003c14000017
:1001a8003c1400003c1400003c1400003c14000007
:1001b8003c1400003c1400003c1400003c140000f7
:1001c8003c1400003c1400003c1400003c140000e7
:1001d8003c1400003c1400003c1400003c140000d7
:1001e8003c1400003c1400003c1400003c140000c7
:0801f8003c1400003c1400005f
:020000040000fa
:1026c800484800003a250000782000004d4d0000e1
:1026d8003a25000078200000535300003a250000f6
:0826e800780d00000a0000005b
:020000040000fa
:1026f000ce0800000200000002000000ff00000001
:10270000bc0800000c0000000000000000080000f1
:102710008800000002000000010000000026080000
:1027200027082600082608002608260008160800a4
:102730000000000000000000000000000000000099
:10274000000000000000000000000000000208007f
:1027500001014e00084f08004e084e00084e0800c8
:102760004e083e00080000000000000000000000cd
:102770000000000000000000000000000000000059
:1027800000000200080202007608770008760800c0
:102790007608760008760800660800000000000051
:1027a0000000000000000000000000000000000029
:1027b0000000000000000000000828000850080089
:1027c0000000000000000000000000000000000009
:1027d000aa0800001200000002000000202b2d00bb
:1027e0002330000001000200000400000800100077
:1027f00000000000d40800000800000002000000f3
:10280000686a6c00747a4c0000000000c808000080
:1028100006000000020000000000000000000200ae
:10282000d00800000200000000000000880800003e
:102830002200000002000000303132003334350045
:102840003637380039616200636465006600300025
:1028500031323300343536003738390041424300d5
:102860004445460000000000d208000002000000bd
:08287000000000000000000060
:020000040000fa
:042878000000fe005e
:00000001FF
