:020000040000fa
:080000000001040000000000f3
:020000040000fa
:100200006f8520000eff20000e0188000000000016
:100210000c00070020ce2000010020001100070084
:10022000000020000000e000020032000000020098
:10023000000000000a080200000000000040da0090
:100240000000fe004440a900000020000000e00083
:100250000300320000002000a00188004440a800f4
:100260000000060091018800800078000000eb008b
:1002700015003700e280400032a0b4009101ba00be
:10028000e280400032a0b4009102ba00e280400057
:1002900032a0b4000002eb00472bde00f507b200ed
:1002a000602ce10004003a000059eb008301e900f2
:1002b000fdff3e00040037006128e100010032002c
:1002c0000082eb00040007001101ba000200e00008
:1002d000e8ff3a00000006003159ba008301e90046
:1002e0000c0032002159ba008301e90008003200f5
:1002f0000400e00003003a00e280400032a0b400b5
:10030000f5ff370011d9ba008301e900faff3a007e
:100310008100e800e180400032a0b4000000060047
:100320000040da000000fe006011b800150137003f
:10033000889fbe008a9fbe008c1f78004001070086
:100340004701330003866c006450e1002400320052
:100350006420e100270032006150e10022003200f9
:100360006120e100210032008b854200eb07b100e3
:100370000134b800003ab8000804420089844a00f9
:10038000013ab8000030b8008880400009014a00f6
:100390000400330000004000818048000201490051
:1003a0008b05e900c909dd008301700001003200fe
:1003b00013002000c814de004814dd004709de00e9
:1003c0001200b200c808de00088470003401070083
:1003d00001f0a1000cf0a70001f0a00029013700f6
:1003e0006120e1002b0132000801be000200be00c6
:1003f000f7ff37006150e100fcff3a0025013700ac
:100400000001be004c0107000470a70003f0a1002a
:1004100003f8a30013003a006509b1001000320090
:10042000090035006928e1000200350001002800bc
:100430000000050000004000818048008502e900be
:10044000fcff3a0000000600f88f4200050035006e
:100450008100d1000080d3008502e800fcff3a0053
:10046000000006008000eb000000050003f0a20081
:10047000889fbe008a9fbe008c1f7800f000070096
:10048000f70033006450e1004f0032006420e100c7
:100490005200320003826c0007003b000905d000c7
:1004a0000306d000820f54000c065d0002003900e4
:1004b0000200320089017800030678008582550029
:1004c00004003d000003fd008103fd008502ea00f9
:1004d0008b854200840f720002003b006000100018
:1004e000e08018006011b8000005eb007a28e100f8
:1004f0000a00390006007800c75ddd00f707b2008a
:10050000878075002d003700828171000a01780014
:10051000610560008180d1000080d3008502e90080
:10052000f9ff3b00060440008784480002003b00be
:1005300060041400e0841c000988a3000700320056
:100540008a81710082817100610164008904d10097
:100550000884d3008b05e800170037000978a30052
:1005600013003a000b00e000130034008b05e90093
:100570000804440089844c000a4474000978a300ec
:100580000d003a000b00e000070034008b05e90085
:100590000804440089844c0001003a000b0020004c
:1005a0000978a300f7ff32000001eb0002003700da
:1005b000828171000a017800b90007000cf0a700e1
:1005c00001f0a000af0037006420e10002003a0013
:1005d000838f6c00af0033000801be000200be0034
:1005e000a80037000001be00d30007000470a70078
:1005f00003f0a1006509b100160032000d003500be
:100600006828e10006003500f0ff2f00f1ff270009
:100610000300e00013003b0001002800000005007b
:1006200000004000818048008502e900fcff3a009c
:1006300008003700f88f420002003c008000eb0009
:10064000000005008100d1000080d3008502e80091
:10065000fcff3a000300e00002003b0060001000d5
:10066000e0801800000006004f89de00820178005b
:10067000c6003700889fbe008a9fbe008c1f78008e
:100680006f0007007600330003866c006450e100c1
:100690002e0032006420e100330032006150e1009e
:1006a0002f0032006120e1003100320085855500c5
:1006b000eb07b00009002000080420000500370007
:1006c0000804440089844c000a00310006034300fa
:1006d00087834b000001530081815b00f8ff3300ea
:1006e0000203be000800a0000804440089844c00f6
:1006f000f6ff3900c639dd008301730001003200c6
:10070000130020008904d1000884d3000998a300b5
:10071000050032000800a7000300a0008904d100f2
:100720000884d3008b05e8008904d1000884d30035
:100730000001eb000281d2005900070001f0a10086
:100740000cf0a70001f0a0004e0037006420e1008b
:10075000500032000801be000200be00f7ff370063
:100760006120e1004b0032006000b800f3ff370069
:100770000000200001f82700f0ff370014002000df
:1007800092003700889fbe008a9fbe0000827000e2
:100790000402710004827100260032000004be00d1
:1007a0000200be006011b8006b0920009502200015
:1007b0000182cf000a0039000541b1000082cf005c
:1007c000070039000541b1000982cf00040039005b
:1007d0000541b1000882cf00010039000541b10098
:1007e00005425200120032000a003b008281710073
:1007f000610164008100d1000080d3008984d300ae
:100800000884d3008b05e8000442e800f7ff3a00b3
:10081000070037000804440089844c0000004800a9
:10082000818048008b05e9000442e900f9ff3a00a5
:100830001b0007004f05be004f04be00000006006d
:100840000004be003c0007000003be000405be001b
:100850000200be0038000700844f7500000006004b
:100860000200be006450e100050036006420e10093
:10087000020036000968a30001003a000800be002b
:100880000160a0004f0678004f05be004f04be0077
:1008900000000600f0ff2f00f1ff2700f9ff3700ee
:1008a00081002000618055000b003d000b002000fe
:1008b00061fe2f000100e1001d0034008281710003
:1008c000610164008904d1000884d3000000e800bd
:1008d000faff3a007100200061006400030070001c
:1008e000020060000900320061044400e0844c0012
:1008f0000988a500050032008b05e8006808e100c2
:1009000002003a008904d1000884d300f20f2000cd
:100910000258e10005003d00c75ddd00f907b200a7
:100920008980750008007800000006000bf8270099
:100930008b00780000000500c70ade00f107b20056
:10094000f50fb20008003200e1cf42000200320091
:100950000170a00024000500810f7000010032002a
:100960000408050044000500810f700002003a00f1
:10097000140005008502e9000000400081c0480025
:10098000fcff3b000170a00024000500881f7800d8
:10099000030478000300e00007003d006000100041
:1009a000e080180060011900e081190002003b009e
:1009b00001f02d000300370072ff070008f0a700c8
:1009c00001f0a0004f04780000000600889fbe00e0
:1009d0008a9fbe00841f780099ff07004f007800af
:1009e00011003300f0ff2f00838f6c0006003b00e6
:1009f000040565000a00a7000800370009f0a600fa
:100a00001000200008003700820f5400838f5c0024
:100a1000030039001000200001003e00000020000b
:100a200009f0a7000000ea004f05be004f04be0019
:100a30000000e0000000060002003700c10a80004c
:100a4000011878005a61ab00fcff3a000000060074
:100a500002003700e10a8000011878005e61ab00f7
:100a6000fcff3a00000006000080fb000000400090
:100a700001282000610078000000060088e0a9003d
:100a80008960a900e7016000cc19dd003205800013
:100a9000f1ff2800010161000301710032058800a7
:100aa000000178000207b2004811dd004305800014
:100ab00081806100828070004105880068016000cb
:100ac0004311de00610161004711dd0081048000f7
:100ad0000170a10082807000810488000008b200cb
:100ae0004700de00610060004b00dd0081048000f3
:100af00001b0a10080807000810488000000060021
:100b000061016100530e80000300a1008281710029
:100b1000530e88000000e90000004000621d200024
:100b20000131780000000600200e8800310e880098
:100b3000430e8800540e8800020e88000000060054
:100b40008620a900670160004411dd00e3048000f5
:100b5000f1f82f008180610082807000e10488003c
:100b6000680060004300de0061006000800040001b
:100b7000700480000010a100010070007004880063
:100b800000000600d00a8800000006008640a90088
:100b9000670160004811dd00e3048000f18f2f0041
:100ba0008180610082807000e1048800680060003c
:100bb000c300de00e1806000c208dd007004800038
:100bc0000020a100010070007004880000000600f1
:100bd000f00a8800000006003015880000000600ba
:100be0008560a900670160004c11dd00c30480002e
:100bf000f1ff28008180610082807000c1048800bc
:100c000068006000c300de00e1806000cb08dd000a
:100c10006004800000b0a100010070006004880042
:100c2000000006004315880054158800221588002e
:100c30001115880000158800620060000115800011
:100c40000110a100808070000115880000000600de
:020000040000fa
:0200000401f009
:04000000febf00003f
:020000040000fa
:0200000401f009
:04000400ff7f00007a
:020000040000fa
:0200000401f009
:04000800fcff0000f9
:020000040000fa
:0200000401f009
:04001400ffff0000ea
:020000040000fa
:1000080090010000900100009001000090010000a4
:100018009001000090010000900100009001000094
:100028009001000090010000900100009001000084
:100038009001000090010000900100009001000074
:10004800900100009001000090010000900700005e
:100058009001000090010000900100009001000054
:1000680090010000740600000007000090010000e5
:100078009001000090010000900100009001000034
:100088009001000090010000900100009001000024
:100098009001000090010000900100009001000014
:1000a8009001000090010000900100009001000004
:1000b80090010000900100009001000090010000f4
:1000c80090010000900100009001000090010000e4
:1000d80090010000900100009001000090010000d4
:1000e80090010000900100009001000090010000c4
:0800f8009001000090010000de
:020000040000fa
:1001080090010000900100009001000090010000a3
:100118009001000090010000900100009001000093
:100128009001000090010000900100009001000083
:100138009001000090010000900100009001000073
:10014800900100009001000090010000900700005d
:100158009001000090010000900100009001000053
:1001680090010000740600000007000090010000e4
:100178009001000090010000900100009001000033
:100188009001000090010000900100009001000023
:100198009001000090010000900100009001000013
:1001a8009001000090010000900100009001000003
:1001b80090010000900100009001000090010000f3
:1001c80090010000900100009001000090010000e3
:1001d80090010000900100009001000090010000d3
:1001e80090010000900100009001000090010000c3
:0801f8009001000090010000dd
:020000040000fa
:100c50000200fa00881f7800004f78000044eb0083
:100c60000900370000000000000000000000000044
:100c70000000000000000000000000000000000074
:100c8000000000000844e8009e4f5400f5ff3900c2
:100c90004f0478000080fa00000006000200fa000d
:100ca000881f7800000f78000004eb00090037006f
:100cb000a0cfb300e6ff0700a0cfb300e4ff07001a
:100cc000a0cfb300e2ff0700a0cfb300e0ff070012
:100cd0000804e8009e0f5400f5ff39004f04780027
:100ce0000080fa00000006003600f800809fbe0079
:100cf000829fbe00849fbe00869fbe003400f80025
:100d000000002000a00188000000fa0040168000ca
:100d100070006000e00f500003003200a08320004c
:100d200045ff07001d00370040168000700060007e
:100d3000e00f500019003a00e08320003eff07005a
:100d4000f1418000d04180000080500010428800b6
:100d5000104280000100200073fd0700d27b2300b9
:100d60006338230072fd07000200200003102400f6
:100d70006ffd070030428800414288003042800009
:100d800041428000024022004397240068fd070092
:100d90009bfd070000007800704288008620a900b3
:100da0007142800010622000808f500003003600e6
:100db00012c8bf0004e8b700090037007142800084
:100dc00050592000808f500003003e0013c8bf0020
:100dd00004e8b7000200370011c8bf0004e8b700fc
:100de0000080fa003400f9004f03be004f02be003d
:100df0004f01be004f00be003600f9000040060063
:100e00003600f800809fbe00829fbe00849fbe0017
:100e1000869fbe003400f80000002000a00188007a
:100e20000000fa00411680000002200000806000ef
:100e3000e00f500003003200c083200004ff0700d1
:100e40001e00370041168000000220000080600074
:100e5000e00f500019003a0000842000fcfe07005b
:100e600001428000e0418000008050002042880064
:100e700020428000010020002bfd0700d27b2300d0
:100e8000633823002afd070002002000031024001d
:100e900027fd0700504288006142880050428000d0
:100ea00061428000024022004397240020fd070099
:100eb00053fd070000007800804288008640a900aa
:100ec0008142800010622000808f500003003600b5
:100ed00015c8bf0036e8b70009003700814280001e
:100ee00050592000808f500003003e0014c8bf00fe
:100ef00036e8b7000200370011c8bf0036e8b70077
:100f00000080fa003400f9004f03be004f02be001b
:100f10004f01be004f00be003600f9000040060041
:100f20003600f800809fbe00829fbe00849fbe00f6
:100f3000869fbe003400f80000002000a001880059
:100f40000000fa000000eb00c040880010c0b300b1
:100f5000c5fe0700d0408800b04080000000e800d7
:100f6000b0408800e1408000c04080000080400028
:100f7000e0408800f1408000d040800000804000c8
:100f8000f0408800b0408000f40f500018003a0094
:100f9000e1408000400120000001780011000900bc
:100fa0008200d800cf80de00028220000089be00cf
:100fb0000000eb00e0408800f1408000400120008c
:100fc00000017800110009008200d800cf80de0007
:100fd0000282200020019800310198000000eb00ff
:100fe000f04088000000eb00b040880023020700ba
:100ff0008560a9000080fa003400f9004f03be00ac
:101000004f02be004f01be004f00be003600f90087
:10101000004006000000fa003a00070091000700b7
:101020006500070010c8bf00e14f500001003a0002
:101030007e000700401f200018ff070080162100d7
:1010400031282400304088004140880010c8bf008b
:10105000e14f50001e003a0041802000914078008e
:1010600012c8bf0080cf500011003a00104080002d
:101070000000e8001040880011408000f0a52e001c
:10108000808f5000070036000000eb001040880001
:1010900010c0b30000e8b700dc82a900d602a900a6
:1010a000070037000040eb0000e8b70004003700fd
:1010b0000000eb00104088000040eb0000e8b700a3
:1010c00000c8bf00e04f5000e3ff320008003700c7
:1010d000dc82a900d602a90010c0b30000e8b70066
:1010e00003003700f7010700100207006a0007003d
:1010f00000c8bf00e04f5000faff3a000080fa003d
:10110000000006000000fa00a802a800a862a800db
:10111000a882a800a8a2a8000080eb0030168800d2
:101120000080eb00601688000000eb00901688003d
:1011300000102000c016880040168000610060008a
:10114000e00f50000300320010c0b30010e8b700f9
:10115000020037000040eb0010e8b70010c8bf00e5
:10116000e14f50000b003a000040eb0011e8b700df
:1011700010c0b30012e8b70020c0b30013e8b700f6
:1011800030c0b30014e8b70040c0b30015e8b700a2
:1011900001003700a6010700e4010700dc82a80077
:1011a000dca2a800d602a800d622a900da02a90073
:1011b0000080fa00000006000a00fa0000f02f008c
:1011c0002efe07000041eb008000eb001000200025
:1011d0004bfe07000041eb008000eb0020002000e8
:1011e00047fe0700f0ff2700000f78000000eb002b
:1011f00010079800000028002007980080fb2000be
:101200003007980020002000400798004e02900010
:10121000be0190002e0190009e0090001e007800fc
:1012200041fe07000080fa00000006000000fa00fe
:1012300090ff2f0042fe070090f12f0051fe0700a3
:1012400090ff2f0051fe070090f12f0060fe070075
:1012500013e1a8001281a80012a1a9000080fa00e1
:10126000000006000000fa0000fe2f005afe0700f2
:10127000e0ff2f005afe07000082eb00d3ff2f0093
:10128000f2052e0081cc2000f0cf2d0065fe070076
:101290000080fa00000006000800fa0010c8bf0035
:1012a000e04f500082003a006101070012c8bf0001
:1012b000e04f500029003a00dca2a800d622a90085
:1012c00014c8bf00e04f50000b003a00804180007e
:1012d0000041eb00800078001000200008fe0700ad
:1012e000704180000041eb00800078002000200069
:1012f00003fe07004c01370015c8bf00e04f500047
:101300000b003a00704180000041eb008000780043
:1013100010002000fafd0700804180000041eb0032
:101320008000780020002000f5fd07003e01370016
:10133000704180000041eb00800078001000200028
:10134000effd0700704180000041eb008000780055
:1013500020002000eafd07003301370013c8bf005a
:10136000e04f500029003a00dca2a900d622a800d4
:1013700014c8bf00e04f50000b003a0080418000cd
:101380000041eb008000780010002000dcfd070029
:10139000704180000041eb008000780020002000b8
:1013a000d7fd07002001370015c8bf00e04f5000ef
:1013b0000b003a00704180000041eb008000780093
:1013c00010002000cefd0700804180000041eb00ae
:1013d0008000780020002000c9fd070012013700be
:1013e000704180000041eb00800078001000200078
:1013f000c3fd0700704180000041eb0080007800d1
:1014000020002000befd07000701370014c8bf0000
:10141000e04f50000d003a00dca2a800d622a80040
:10142000704180000041eb00800078001000200037
:10143000b3fd0700704180000041eb0080007800a0
:1014400020002000aefd0700f700370015c8bf00e0
:10145000e04f50000d003a00dca2a900d622a900fe
:10146000704180000041eb008000780010002000f7
:10147000a3fd0700704180000041eb008000780070
:10148000200020009efd0700e70037000041eb0030
:101490008000eb001000200099fd07000041eb00e8
:1014a0008000eb002000200095fd0700de003700e3
:1014b00080428000010020009bfb07000002be006c
:1014c00030408000414080000001be000400be00aa
:1014d00097fb070002e82f00f37b2400e3fb0700e3
:1014e00040fc0700008fbe00704280000100200019
:1014f0008dfb07000002be003040800041408000ac
:101500000001be000400be0089fb070002e82f00b6
:10151000f37b2400d5fb070032fc0700200798006e
:1015200031079800e0ff2700010020001e01be00e7
:10153000800f5100818f590006003c0020002800d8
:10154000f1ff2f001e01be00800f5100818f590056
:1015500003003d00f0ff2700504088000a003700dc
:101560001e00be00e00f5000e08f580004003d0058
:101570001e0078000000ea0050408800020037009a
:101580001e007800504088002e019000be0190009f
:10159000e0ff270001002000800f5100818f5900db
:1015a00007003c002e019000be01900020002800a2
:1015b000f1ff2f00800f5100818f590003003d0083
:1015c000f0ff2700604088000b0037002e009000dd
:1015d000be009000e00f5000e08f580004003d0076
:1015e0002e0090000000ea006040880002003700f2
:1015f0002e009000604088004180200091407800db
:1016000012c8bf0080cf50002b003a00dca2a80017
:10161000d622a900618320009140780014c8bf0041
:1016200080cf50000a003a000041eb0001f0270093
:101630001000200032fd0700604080000041eb00f8
:1016400080007800200020002dfd07007600370084
:10165000618320009140780015c8bf0080cf500002
:101660000a003a00604080000041eb0080007800f2
:101670001000200022fd07000041eb0001f02700d0
:10168000200020001efd070067003700604080003a
:101690000041eb00800078001000200018fd0700da
:1016a000604080000041eb008000780020002000b6
:1016b00013fd07005c003700418020009140780056
:1016c00013c8bf0080cf50002b003a00dca2a90055
:1016d000d622a800618320009140780014c8bf0082
:1016e00080cf50000a003a000041eb0001f02700d3
:1016f0001000200002fd0700604080000041eb0068
:101700008000780020002000fdfc07004600370024
:10171000618320009140780015c8bf0080cf500041
:101720000a003a00604080000041eb008000780031
:1017300010002000f2fc07000041eb0001f0270040
:1017400020002000eefc07003700370060408000da
:101750000041eb008000780010002000e8fc07004a
:10176000604080000041eb008000780020002000f5
:10177000e3fc07002c0037006183200091407800d3
:1017800014c8bf0080cf50000d003a00dca2a800b2
:10179000d622a800504080000041eb008000780075
:1017a00010002000d6fc0700504080000041eb00f4
:1017b0008000780020002000d1fc07001a003700cc
:1017c000618320009140780015c8bf0080cf500091
:1017d0000d003a00dca2a900d622a90050408000ea
:1017e0000041eb008000780010002000c4fc0700de
:1017f000504080000041eb00800078002000200075
:10180000bffc0700080037000041eb008000eb0040
:1018100010002000bafc07000041eb008000eb0044
:1018200020002000b6fc07000080fa00000006003f
:101830000000fa00701680004f00de0000407800c3
:1018400012e8b700701680004d00de0061406000b5
:1018500013e8b700701680004e00de0061406000a3
:1018600014e8b700d01680004800de006140600038
:1018700015e8b7000080fa00000006000000fa003a
:1018800000822000b00090002000900076fb07004e
:10189000020020000348240076fb0700020020001d
:1018a000030a2400a2fa0700220b290053e82300b0
:1018b00070fb070040418800514188000080fa0019
:1018c000000006000000fa00881f780040418000f8
:1018d0005141800018c0b300020020000310240012
:1018e000a6fb0700e00f5000010034000044eb00ad
:1018f000e04f540008003200a04280000000e800e1
:10190000a0428800a0428000e90f50000400360089
:10191000da02a800020037000000eb00a0428800b5
:101920004f0478000080fa00000006000000fa0072
:101930004016800068006000e00f500010003a0080
:101940000040eb0052e8b70053c8bf00e14f500021
:10195000070036000040eb002ce8b700f0ff230042
:1019600070418800f0ff2500804188001300370097
:1019700053c8bf000040e80053e8b7000f0037002d
:101980000040eb0053e8b70052c8bf00e14f5000e1
:101990000700360010c0b3002ce8b700008021001b
:1019a0007041880000d0210080418800030037008a
:1019b00052c8bf000040e80052e8b7000080fa00bb
:0419c000000006001d
:020000040000fa
:1019c40032080000240000000000000000080000ad
:1019d40032000000020000000000000000000000cf
:1019e40000000000000000000000000000000000f3
:1019f40000000000000000000000000000000000e3
:101a040000000000000000000000000000000000d2
:101a1400c841000000ff3f00ff5f0000000000001d
:00000001FF
