:020000040000fa
:080000000001040000000000f3
:020000040000fa
:100200000f89200000792200000188000000000012
:100210000a00070011000700000020000000e000b5
:10022000020032000000020000000000360202005e
:10023000000000000040da000000fe004440a90079
:10024000000020000000e000030032000000200059
:10025000a00188004440a80000000600e02820001b
:10026000010020001500370062004000e0804800d7
:10027000910188009001ba0062004000e0804800cf
:10028000910188009002ba0062004000e0804800be
:100290000002eb006028e10004003a000059eb0086
:1002a0008301e900fdff3e00040037006128e10002
:1002b000010032000082eb00050007009101880078
:1002c0001001ba000200e000e7ff3a00000005005c
:1002d000910188008002780062004000e0804800c0
:1002e0003559ba008301e900080032002559ba00e7
:1002f0008301e900050032000400e000f4ff320051
:1003000015d9ba008301e900f1ff3a0000000600a8
:020000040000fa
:0200000401f009
:04000000f6ff000007
:020000040000fa
:0200000401f009
:04000400ff7f00007a
:020000040000fa
:0200000401f009
:04000800fcff0000f9
:020000040000fa
:0200000401f009
:04001400ffff0000ea
:020000040000fa
:10000800b2020000b2020000b2020000b202000018
:10001800b2020000b2020000b2020000b202000008
:10002800b2020000b2020000b2020000b2020000f8
:10003800b2020000b2020000b2020000b2020000e8
:10004800b2020000b2020000b2020000b2020000d8
:10005800b2020000b2020000b2020000b2020000c8
:10006800b2020000b2020000b2020000b2020000b8
:10007800b2020000b2020000b2020000b2020000a8
:10008800b2020000b2020000b2020000b202000098
:10009800b2020000b2020000b2020000b202000088
:1000a800b2020000b2020000b2020000b202000078
:1000b800b2020000b2020000b2020000b202000068
:1000c800b2020000b2020000b2020000b202000058
:1000d800b2020000b2020000b2020000b202000048
:1000e800b2020000b2020000b2020000b202000038
:0800f800b2020000b202000098
:020000040000fa
:10010800b2020000b2020000b2020000b202000017
:10011800b2020000b2020000b2020000b202000007
:10012800b2020000b2020000b2020000b2020000f7
:10013800b2020000b2020000b2020000b2020000e7
:10014800b2020000b2020000b2020000b2020000d7
:10015800b2020000b2020000b2020000b2020000c7
:10016800b2020000b2020000b2020000b2020000b7
:10017800b2020000b2020000b2020000b2020000a7
:10018800b2020000b2020000b2020000b202000097
:10019800b2020000b2020000b2020000b202000087
:1001a800b2020000b2020000b2020000b202000077
:1001b800b2020000b2020000b2020000b202000067
:1001c800b2020000b2020000b2020000b202000057
:1001d800b2020000b2020000b2020000b202000047
:1001e800b2020000b2020000b2020000b202000037
:0801f800b2020000b202000097
:020000040000fa
:100310003200f800900188006118e100040032000a
:100320007018e10002003200f0ff2f0003003700d8
:100330003119ba008301e900fdff3a003200f900eb
:1003400000000600849fbe004220a900440424004f
:100350006110e1000a003200540424007010e10032
:100360000700320064042400f5ff2f000510e100af
:1003700003003200f0ff2f004f02be000000060015
:100380003200f800203b8800113b8800043b8800c5
:100390004200f800000e20004220b7005005200067
:1003a000303b8800a00a2000303b880061e7a800ad
:1003b000000000000000000061e7af00feff370012
:1003c0000000eb004200f9003200f9004f02be00cd
:1003d00000000600841f78004220a9004400240089
:1003e0006118e10006003200540024007018e1009a
:1003f000030032004f027800f0ff2f0000000600db
:100400003200f80091018800821f78003019bb008b
:100410008301e900fdff3a00213b88004f0178008d
:10042000123b8800043b88004200f800000e2000c8
:100430004220b70050052000303b8800a00a200071
:10044000303b880061e7a8000000000000000000c9
:1004500061e7af00feff37000000eb004200f9004b
:100460003200f9004f027800000006000400fa0094
:100470000000eb00000f78000201200001002f00b7
:10048000f0072000afff0700000f780002012000f6
:1004900001012f00f0072000aaff0700000f7800dd
:1004a0000201200001022f00f0072000a5ff070035
:1004b000000f78000201200001032f00f007200048
:1004c000a0ff0700000f78000000eb001007980065
:1004d0000d0037001e0090008000780000002f0003
:1004e00000804000000178000e80e800130020002a
:1004f000f1072000b7ff0700000f78001e009000f2
:100500000000e800100798009e009000f003200013
:0c051000808f5000efff3400ffff370029
:020000040000fa
:10051c0050080000200000000200000030003100f4
:10052c000032000033003400003500003600370084
:10053c000038000039004100004200004300440034
:10054c00004500004600000070080000200000007c
:08055c00000000000000000097
:020000040000fa
:040564000000fe0095
:020000040000fa
:0200000400fffb
:10e00000000000000100000002000000030000000a
:10e0100004000000050000000600000007000000ea
:10e0200008000000090000000a0000000b000000ca
:10e030000c0000000d0000000e0000000f000000aa
:00000001FF
