:020000040000fa
:080000000001040000000000f3
:020000040000fa
:100200004f8c20000eff20000e018800000000002f
:100210000c000700209520000100200011000700bd
:10022000000020000000e000020032000000020098
:100230000000000014030200000000000040da008b
:100240000000fe004440a900000020000000e00083
:100250000300320000002000a00188004440a800f4
:100260000000060091018800800078000000eb008b
:1002700015003700e280400032a0b4009101ba00be
:10028000e280400032a0b4009102ba00e280400057
:1002900032a0b4000002eb00472bde00f507b200ed
:1002a000602ce10004003a000059eb008301e900f2
:1002b000fdff3e00040037006128e100010032002c
:1002c0000082eb00040007001101ba000200e00008
:1002d000e8ff3a00000006003159ba008301e90046
:1002e0000c0032002159ba008301e90008003200f5
:1002f0000400e00003003a00e280400032a0b400b5
:10030000f5ff370011d9ba008301e900faff3a007e
:100310008100e800e180400032a0b4000000060047
:100320003600f800809fbe00829fbe00849fbe0002
:10033000869fbe003400f80000002000a001880065
:100340000000fa000040eb0088030700904288009c
:1003500010c0b30085030700a042880020c0b3008e
:1003600082030700b0428800804280000000e8005d
:1003700080428800c142800090428000008040009e
:10038000c0428800d1428000a0428000008040002e
:10039000d0428800e1428000b042800000804000ee
:1003a000e042880080428000ea0f500022003a00bc
:1003b000c1428000a0002000000178001100090067
:1003c0008200d800cf80de00f04288000143880020
:1003d0000000eb00c0428800d1428000a000200055
:1003e00000017800110009008200d800cf80de00f3
:1003f00010438800214388000000eb00d0428800b1
:10040000e1428000a00020000001780011000900f6
:100410008200d800cf80de0030438800414388004e
:100420000000eb00e04288000000eb008042880002
:1004300010002000704388008560a9000080fa0049
:100440003400f9004f03be004f02be004f01be0052
:100450004f00be003600f900004006003600f800ec
:10046000809fbe00829fbe00849fbe00869fbe000c
:100470003400f80000002000a00188000000fa000d
:100480000000eb003e0307008460a9000080fa0032
:100490003400f9004f03be004f02be004f01be0002
:1004a0004f00be003600f900004006003600f8009c
:1004b000809fbe00829fbe00849fbe00869fbe00bc
:1004c000881f78003400f80000002000a001880098
:1004d0000000fa000000eb002b03070084e0a900f5
:1004e000f04580000000e800f045880000468000ec
:1004f0000000e80000468800104680000000e80088
:1005000010468800f1458000301f2000808f500089
:100510000a0036000000eb00f0458800b2c8bf00ba
:10052000e04f500003003a0010c0b300b2e8b7003b
:10053000020037000040eb00b2e8b700114680002f
:10054000900f2000808f50000a0036000000eb0062
:100550001046880094c8bf00e04f500003003a00e6
:1005600010c0b30094e8b700020037000040eb0071
:1005700094e8b7000146800070252000808f50006d
:10058000200036000000eb0000468800a0458000f7
:100590000000e800a045880000448000114480006d
:1005a00018c0b30002002400e364240067010700c0
:1005b000e00f500001003d000044eb00e04f54000c
:1005c0000e003200b04480000000e800b044880013
:1005d000b144800070252000808f50000900360053
:1005e00010c0b30098e8b7000000eb00b0448800ea
:1005f0000000eb00a0458800020037000000eb007f
:10060000b04488000080fa003400f9004f047800fc
:100610004f03be004f02be004f01be004f00be00a0
:100620003600f900004006000000fa00250007002f
:10063000170007002a00070000002000010a24001c
:10064000104588002145880080382100e04488005a
:1006500000402000604388000100370000000000d7
:10066000504380000000e800504388007043800041
:10067000e10f5000f9ff3a000000eb0070438800e2
:100680009c0007007400070026000700f4ff3700f5
:100690000000fa0000fe2f00bd020700e0ff2f005f
:1006a000bd0207000082eb0083ff2f00f2052e0041
:1006b00081cc2000f0cf2d00c80207000080fa0096
:1006c000000006000000fa00d202a900d222a90010
:1006d000d402a900d422a9000080fa00000006007c
:1006e0000000fa00b0ff2f00c70207000000eb0077
:1006f000a3020700811a260090f82f00d0020700fd
:10070000b0ff2f00d20207000000eb009e0207009e
:10071000811a2600d0f82f00de0207000080fa00c0
:10072000000006000000fa00881f780000448000e6
:100730001144800018c0b30002002600a366240004
:1007400002010700e00f500001003d000044eb00f3
:10075000e04f540023003200b0458000c1458000c6
:1007600061004000e0804800b0458800c145880035
:10077000b2458000c345800070a92300010020001d
:10078000800f5100818f59003000360080a923006e
:1007900001002000b0458800c1458800006a28009b
:1007a00011002000d0458800e1458800d402a9004e
:1007b0000000000000000000b2c8bf0061406000ff
:1007c0000080fb006100600000004000a216800075
:1007d000d1ff2f008100610000807000a01688000a
:1007e0001a0037006000b800b0458800c145880095
:1007f000d0458000e1458000e00f5000e08f5800b8
:1008000011003200d0458000e145800061005000b9
:10081000e0805800d0458800e1458800b2c8bf009c
:10082000614060000080fb0061006000000040004b
:10083000a2168000d1ff2f008100610000807000af
:10084000a0168800010037007d0007004f047800e3
:100850000080fa00000006000000fa00881f7800ff
:10086000c4438000d5438000604480007144800010
:1008700018c0b3000001be000400be00b5000700b0
:10088000e00f5000010034000044eb00e04f540042
:1008900004003200c0438000d143800060448800df
:1008a00071448800c4438000d543800080448000a8
:1008b0009144800018c0b3000001be000400be00d7
:1008c000a2000700e00f500001003d000044eb00d3
:1008d000e04f540004003200c0438000d143800048
:1008e00080448800914488004f0478000080fa001a
:1008f000000006000000fa00f04280000143800082
:10090000960007000200200003482400960007001c
:1009100002002400c3592400d50007003045880098
:100920004145880010438000214380008b00070070
:1009300002002000034824008b000700020024006e
:10094000c3592400ca00070050458800614588004b
:1009500030438000414380008000070002002000f7
:10096000034824008000070002002400c35924002b
:10097000bf00070070458800814588003045800031
:100980004145800002002000030a2400b80007004f
:10099000a0438800b1438800504580006145800035
:1009a00022e42e00a3092400b1000700e0438800e0
:1009b000f1438800704580008145800002002000de
:1009c00003f02300680007002044880031448800b9
:1009d000a0438000b14380007293280013f82300e5
:1009e000a30007006266260063302400d5000700dc
:1009f000c0438800d1438800e0438000f143800079
:100a0000a20a2600c3f8230099000700e27a240016
:100a1000432a2400ca0007000044880011448800cb
:100a200020448000314480006011b800c5000700f8
:100a300040448800514488000080fa00000006000d
:100a40000000fa00881f78000044800011448000f4
:100a500018c0b30002002000a34724003d00070097
:100a6000e00f5000010034000044eb00e04f540060
:100a70000d003200804380009143800061004000ff
:100a8000e08048008043880091438800d402a90098
:100a90000000000000000000d422a90000000000b7
:100aa0000000000024003700004480001144800052
:100ab00018c0b30002002200b36424002300070022
:100ac000e00f500001003d000044eb00e04f5400f7
:100ad0000d0032008043800091438000610040009f
:100ae000e08048008043880091438800d402a90038
:100af0000000000000000000d422a9000000000057
:100b0000000000000c003700f04480000145800028
:100b100061004000e0804800f04488000145880002
:100b2000d402a8000000000000000000d422a800a9
:100b300000000000000000004f0478000080fa0070
:100b4000000006000040da000000fe00f4ff2f0065
:100b5000d900370014002000d70037004f89de008d
:100b600082017800ef003700889fbe008a9fbe0098
:100b70008c1f7800fb0007000201330003866c0025
:100b80006450e1002e0032006420e10033003200a6
:100b90006150e1002f0032006120e100310032009d
:100ba00085855500eb07b0000900200008042000ef
:100bb000050037000804440089844c000a00310015
:100bc0000603430087834b000001530081815b00d3
:100bd000f8ff33000203be000800a0000804440030
:100be00089844c00f6ff3900c639dd0083017300ab
:100bf00001003200130020008904d1000884d300d2
:100c00000998a300050032000800a7000300a00017
:100c10008904d1000884d3008b05e8008904d10041
:100c20000884d3000001eb000281d200e500070038
:100c300001f0a1000cf0a70001f0a000da003700dd
:100c40006420e100dc0032000801be000200be00aa
:100c5000f7ff37006120e100d70032006000b800e4
:100c6000f3ff37000000200001f82700f0ff3700f5
:100c7000889fbe008a9fbe008c1f7800b9000700c5
:100c8000c000330003866c006450e1002400320091
:100c90006420e100270032006150e10022003200b0
:100ca0006120e100210032008b854200eb07b1009a
:100cb0000134b800003ab8000804420089844a00b0
:100cc000013ab8000030b8008880400009014a00ad
:100cd0000400330000004000818048000201490008
:100ce0008b05e900c909dd008301700001003200b5
:100cf00013002000c814de004814dd004709de00a0
:100d00001200b200c808de0008847000ad000700c1
:100d100001f0a1000cf0a70001f0a000a200370034
:100d20006120e100a40032000801be000200be0004
:100d3000f7ff37006150e100fcff3a009e003700ea
:100d400003f0a200889fbe008a9fbe008c1f78001f
:100d5000840007008b0033006450e1004f00320034
:100d60006420e1005200320003826c0007003b0067
:100d70000905d0000306d000820f54000c065d0068
:100d80000200390002003200890178000306780071
:100d90008582550004003d000003fd008103fd0035
:100da0008502ea008b854200840f720002003b003e
:100db00060001000e08018006011b8000005eb0032
:100dc0007a28e1000a00390006007800c75ddd00de
:100dd000f707b200878075002d003700828171000f
:100de0000a017800610560008180d1000080d30095
:100df0008502e900f9ff3b000604400087844800b3
:100e000002003b0060041400e0841c000988a30079
:100e1000070032008a8171008281710061016400e3
:100e20008904d1000884d3008b05e800170037003f
:100e30000978a30013003a000b00e000130034000f
:100e40008b05e9000804440089844c000a447400be
:100e50000978a3000d003a000b00e0000700340001
:100e60008b05e9000804440089844c0001003a0025
:100e70000b0020000978a300f7ff32000001eb000f
:100e800002003700828171000a0178004d000700de
:100e90000cf0a70001f0a000430037006420e1003f
:100ea00002003a00838f6c00430033000801be004b
:100eb0000200be003c003700889fbe008a9fbe0033
:100ec000841f7800270007004f00780011003300ce
:100ed000f0ff2f00838f6c0006003b0004056500c7
:100ee0000a00a7000800370009f0a6001000200043
:100ef00008003700820f5400838f5c000300390024
:100f00001000200001003e000000200009f0a700b2
:100f10000000ea004f05be004f04be000000e000e4
:100f200000000600881f7800030478000300e0003a
:100f300007003d0060001000e0801800600119000b
:100f4000e081190002003b0001f02d000300370092
:100f50004200070008f0a70001f0a0004f0478004d
:100f6000000006000004be006b0007000003be0086
:100f70000405be000200be0067000700844f750034
:100f8000000006000200be006450e10005003600cb
:100f90006420e100020036000968a30001003a0065
:100fa0000800be000160a0004f0678004f05be009b
:100fb0004f04be0000000600f0ff2f00f1ff2700e5
:100fc000f9ff370081002000618055000b003d00d3
:100fd0000b00200061fe2f000100e1001d00340025
:100fe00082817100610164008904d1000884d3000a
:100ff0000000e800faff3a00710020006100640080
:101000000300700002006000090032006104440027
:10101000e0844c000988a500050032008b05e8003b
:101020006808e10002003a008904d1000884d30076
:10103000f20f20000258e10005003d00c75ddd0011
:10104000f907b200898075000800780000000600ea
:101050000bf827008b00780000000500889fbe0079
:101060008a9fbe0000827000040271000482710039
:10107000260032000004be000200be006011b8006d
:101080006b092000950220000182cf000a00390080
:101090000541b1000082cf00070039000541b100d1
:1010a0000982cf00040039000541b1000882cf0059
:1010b000010039000541b100054252001200320022
:1010c0000a003b0082817100610164008100d1004f
:1010d0000080d3008984d3000884d3008b05e80006
:1010e0000442e800f7ff3a00070037000804440014
:1010f00089844c0000004800818048008b05e9008d
:101100000442e900f9ff3a00aeff07004f05be00b8
:101110004f04be0000000600c70ade00f107b2005f
:10112000f50fb20008003200e1cf420002003200a9
:101130000170a00024000500810f70000100320042
:101140000408050044000500810f700002003a0009
:10115000140005008502e9000000400081c048003d
:10116000fcff3b000170a000240005000080fb0094
:101170000000400001282000610078000000060007
:1011800000088800000006005008880000000600e3
:1011900030158800000006008560a9006701600026
:1011a0004c11dd00c3048000f1ff28008180610044
:1011b00082807000c104880068006000c300de0007
:1011c000e1806000cb08dd006004800000b0a10079
:1011d00001007000600488000000060043158800cc
:1011e0005415880022158800111588000015880004
:1011f00062006000011580000110a1008080700075
:1012000001158800000006008460a90067016000e5
:101210004c11dd00a3048000f1ff280081806100f3
:1012200082807000a1048800680060006104800072
:101230000130a10080807000610488000000060079
:101240000021ef0011088800200888000000060037
:1012500084e0a900670160004c11dd00b304800048
:10126000f1ff28008180610082807000b104880055
:1012700068006000c300de00e1806000c708dd0098
:10128000600480000070a10001007000600488000c
:10129000000006000a21ef0071088800900888000d
:0412a0000000060044
:020000040000fa
:0200000401f009
:04000000febf00003f
:020000040000fa
:0200000401f009
:04000400ff7f00007a
:020000040000fa
:0200000401f009
:04000800fcff0000f9
:020000040000fa
:0200000401f009
:04001400ffff0000ea
:020000040000fa
:10000800a2050000a2050000a2050000a20500004c
:10001800a2050000a2050000a2050000a20500003c
:10002800a2050000a2050000a20500002e020000a3
:10003800a2050000a2050000a2050000560200006b
:10004800a2050000a2050000a20500009001000022
:10005800a2050000a2050000a2050000a2050000fc
:10006800a2050000a2050000a2050000a2050000ec
:10007800a2050000a2050000a2050000a2050000dc
:10008800a2050000a2050000a2050000a2050000cc
:10009800a2050000a2050000a2050000a2050000bc
:1000a800a2050000a2050000a2050000a2050000ac
:1000b800a2050000a2050000a2050000a20500009c
:1000c800a2050000a2050000a2050000a20500008c
:1000d800a2050000a2050000a2050000a20500007c
:1000e800a2050000a2050000a2050000a20500006c
:0800f800a2050000a2050000b2
:020000040000fa
:10010800a2050000a2050000a2050000a20500004b
:10011800a2050000a2050000a2050000a20500003b
:10012800a2050000a2050000a20500002e020000a2
:10013800a2050000a2050000a2050000560200006a
:10014800a2050000a2050000a20500009001000021
:10015800a2050000a2050000a2050000a2050000fb
:10016800a2050000a2050000a2050000a2050000eb
:10017800a2050000a2050000a2050000a2050000db
:10018800a2050000a2050000a2050000a2050000cb
:10019800a2050000a2050000a2050000a2050000bb
:1001a800a2050000a2050000a2050000a2050000ab
:1001b800a2050000a2050000a2050000a20500009b
:1001c800a2050000a2050000a2050000a20500008b
:1001d800a2050000a2050000a2050000a20500007b
:1001e800a2050000a2050000a2050000a20500006b
:0801f800a2050000a2050000b1
:020000040000fa
:1012a4009a0800002a000000000000005008000016
:1012b4004a000000020000000000000000000000de
:1012c400000000000000000000000000000000001a
:1012d400000000000000000000000000000000000a
:1012e40000000000000000000000000000000000fa
:1012f40000000000000000000000000000000000ea
:10130400000000000000000000409c0046000000b7
:1013140000000000000000000000000000000000c9
:00000001FF
