:020000040000fa
:080000000001040000000000f3
:020000040000fa
:100200000f9b20000eff20000e0188000000000060
:100210000c000700801622000100200011000700da
:10022000000020000000e000020032000000020098
:10023000000000003c0d0200000000000040da0059
:100240000000fe004440a900400520000000e0003e
:100250000300320000002000a00188004440a800f4
:100260000000060091018800800078000000eb008b
:1002700015003700e280400032a0b4009101ba00be
:10028000e280400032a0b4009102ba00e280400057
:1002900032a0b4000002eb00472bde00f507b200ed
:1002a000602ce10004003a000059eb008301e900f2
:1002b000fdff3e00040037006128e100010032002c
:1002c0000082eb00040007001101ba000200e00008
:1002d000e8ff3a00000006003159ba008301e90046
:1002e0000c0032002159ba008301e90008003200f5
:1002f0000400e00003003a00e280400032a0b400b5
:10030000f5ff370011d9ba008301e900faff3a007e
:100310008100e800e180400032a0b4000000060047
:100320000040da000000fe003200f8009101880071
:100330008002780062004000e08048003549ba0041
:100340003204e0000410a700100032008301e9002d
:100350000e0032002549ba003204e0000410a70064
:100360000a0032008301e900080032000408a300fb
:10037000eeff320015c9ba003204e0000410a700f5
:10038000020032008301e900e8ff3a003200f90080
:10039000000006003200f800910188000008bb0050
:1003a000410424006210e100040032000002200039
:1003b0000010e1000a003a0051042400013b8800cb
:1003c0000500fc0051052000313b8800a10a2000f7
:1003d000313b880061e7a800000000000000000039
:1003e0003200f900000006003200f800600424002a
:1003f000003b8800f2ff37003200f80091018800ce
:1004000041002400013b88000208bb00ecff3700dc
:100410003200f8009101880051002400013b88005f
:10042000030120003218bb008301e900fdff3a0000
:10043000e3ff3700f4ff2f0007013700140020000e
:10044000050137004f89de00820178001d01370069
:10045000889fbe008a9fbe008c1f7800290107007c
:100460003001330003866c006450e1002e0032003e
:100470006420e100330032006150e1002f003200bf
:100480006120e1003100320085855500eb07b000a6
:10049000090020000804200005003700080444007b
:1004a00089844c000a0031000603430087834b0017
:1004b0000001530081815b00f8ff33000203be009e
:1004c0000800a0000804440089844c00f6ff3900ad
:1004d000c639dd00830173000100320013002000e3
:1004e0008904d1000884d3000998a30005003200d4
:1004f0000800a7000300a0008904d1000884d300ed
:100500008b05e8008904d1000884d3000001eb00ca
:100510000281d2001301070001f0a1000cf0a70036
:1005200001f0a000080137006420e1000a01320058
:100530000801be000200be00f7ff37006120e100a5
:10054000050132006000b800f3ff37000000200012
:1005500001f82700f0ff3700889fbe008a9fbe0089
:100560008c1f7800e7000700ee00330003866c0064
:100570006450e100240032006420e10027003200d2
:100580006150e100220032006120e10021003200d0
:100590008b854200eb07b1000134b800003ab80087
:1005a0000804420089844a00013ab8000030b800cb
:1005b0008880400009014a00040033000000400028
:1005c00081804800020149008b05e900c909dd006e
:1005d000830170000100320013002000c814de0007
:1005e0004814dd004709de001200b200c808de0032
:1005f00008847000db00070001f0a1000cf0a700e8
:1006000001f0a000d00037006120e100d2003200ec
:100610000801be000200be00f7ff37006150e10094
:10062000fcff3a00cc00370003f0a200889fbe0018
:100630008a9fbe008c1f7800b2000700b90033000b
:100640006450e1004f0032006420e10052003200ab
:1006500003826c0007003b000905d0000306d000b0
:10066000820f54000c065d000200390002003200c7
:1006700089017800030678008582550004003d005a
:100680000003fd008103fd008502ea008b85420026
:10069000840f720002003b0060001000e080180030
:1006a0006011b8000005eb007a28e1000a0039006b
:1006b00006007800c75ddd00f707b200878075008f
:1006c0002d003700828171000a0178006105600009
:1006d0008180d1000080d3008502e900f9ff3b0052
:1006e000060440008784480002003b0060041400b8
:1006f000e0841c000988a300070032008a81710091
:1007000082817100610164008904d1000884d300f2
:100710008b05e800170037000978a30013003a00a2
:100720000b00e000130034008b05e90008044400ce
:1007300089844c000a4474000978a3000d003a0033
:100740000b00e000070034008b05e90008044400ba
:1007500089844c0001003a000b0020000978a300b6
:10076000f7ff32000001eb000200370082817100c8
:100770000a0178007b0007000cf0a70001f0a00040
:10078000710037006420e10002003a00838f6c00a2
:10079000710033000801be000200be006a0037008d
:1007a0000001be00950007000470a70003f0a1003f
:1007b00003f8a30013003a006509b10010003200ed
:1007c000090035006928e100020035000100280019
:1007d0000000050000004000818048008502e9001b
:1007e000fcff3a0000000600f88f420005003500cb
:1007f0008100d1000080d3008502e800fcff3a00b0
:10080000000006008000eb00000005006022b80038
:10081000060220000000d0008180d2000482d200b5
:100820008582d2000000a0000202520083825a009a
:10083000030031000202420083824a000000a1004e
:100840000603e900f3ff3a0000000600efff07008f
:100850000400be0000000600889fbe008a9fbe0004
:10086000841f7800270007004f0078001100330034
:10087000f0ff2f00838f6c0006003b00040565002d
:100880000a00a7000800370009f0a60010002000a9
:1008900008003700820f5400838f5c00030039008a
:1008a0001000200001003e000000200009f0a70019
:1008b0000000ea004f05be004f04be000000e0004b
:1008c00000000600881f7800030478000300e000a1
:1008d00007003d0060001000e08018006001190072
:1008e000e081190002003b0001f02d0003003700f9
:1008f0005700070008f0a70001f0a0004f0478009f
:10090000000006000004be003c0007000003be001b
:100910000405be000200be0038000700844f7500c9
:10092000000006000200be006450e1000500360031
:100930006420e100020036000968a30001003a00cb
:100940000800be000160a0004f0678004f05be0001
:100950004f04be0000000600f0ff2f00f1ff27004b
:10096000f9ff370081002000618055000b003d0039
:100970000b00200061fe2f000100e1001d0034008b
:1009800082817100610164008904d1000884d30070
:100990000000e800faff3a007100200061006400e6
:1009a000030070000200600009003200610444008e
:1009b000e0844c000988a500050032008b05e800a2
:1009c0006808e10002003a008904d1000884d300dd
:1009d000f20f20000258e10005003d00c75ddd0078
:1009e000f907b20089807500080078000000060051
:1009f0000bf827008b00780000000500c70ade0016
:100a0000f107b200f50fb20008003200e1cf42005a
:100a1000020032000170a00024000500810f700068
:100a2000010032000408050044000500810f700039
:100a300002003a00140005008502e90000004000b1
:100a400081c04800fcff3b000170a00024000500ad
:100a5000889fbe008a9fbe00008270000402710061
:100a600004827100260032000004be000200be00b5
:100a70006011b8006b092000950220000182cf00b0
:100a80000a0039000541b1000082cf00070039009b
:100a90000541b1000982cf00040039000541b100d1
:100aa0000882cf00010039000541b1000542520023
:100ab000120032000a003b00828171006101640073
:100ac0008100d1000080d3008984d3000884d30042
:100ad0008b05e8000442e800f7ff3a000700370002
:100ae0000804440089844c000000480081804800cc
:100af0008b05e9000442e900f9ff3a0099ff07007d
:100b00004f05be004f04be00000006000080fb0041
:100b1000000040000128200061007800000006006d
:100b20000008880000000600500888000000060049
:100b300030158800000006008560a900670160008c
:100b40004c11dd00c3048000f1ff280081806100aa
:100b500082807000c104880068006000c300de006d
:100b6000e1806000cb08dd006004800000b0a100df
:100b70000100700060048800000006004315880032
:100b8000541588002215880011158800001588006a
:100b900062006000011580000110a10080807000db
:100ba00001158800000006008460a900670160004c
:100bb0004c11dd00a3048000f1ff2800818061005a
:100bc00082807000a10488006800600061048000d9
:100bd0000130a100808070006104880000000600e0
:100be0000021ef001108880020088800000006009e
:100bf00084e0a900670160004c11dd00b3048000af
:100c0000f1ff28008180610082807000b1048800bb
:100c100068006000c300de00e1806000c708dd00fe
:100c2000600480000070a100010070006004880072
:100c3000000006000a21ef00710888009008880073
:040c400000000600aa
:020000040000fa
:0200000401f009
:04000000febf00003f
:020000040000fa
:0200000401f009
:04000400ff7f00007a
:020000040000fa
:0200000401f009
:04000800fcff0000f9
:020000040000fa
:0200000401f009
:04001400ffff0000ea
:020000040000fa
:1000080090010000900100009001000090010000a4
:100018009001000090010000900100009001000094
:10002800900100009001000090010000f40b000016
:100038009001000090010000900100001e0c0000db
:10004800900100009001000090010000560b000094
:100058009001000090010000900100009001000054
:100068009001000090010000900100009001000044
:100078009001000090010000900100009001000034
:100088009001000090010000900100009001000024
:100098009001000090010000900100009001000014
:1000a8009001000090010000900100009001000004
:1000b80090010000900100009001000090010000f4
:1000c80090010000900100009001000090010000e4
:1000d80090010000900100009001000090010000d4
:1000e80090010000900100009001000090010000c4
:0800f8009001000090010000de
:020000040000fa
:1001080090010000900100009001000090010000a3
:100118009001000090010000900100009001000093
:10012800900100009001000090010000f40b000015
:100138009001000090010000900100001e0c0000da
:10014800900100009001000090010000560b000093
:100158009001000090010000900100009001000053
:100168009001000090010000900100009001000043
:100178009001000090010000900100009001000033
:100188009001000090010000900100009001000023
:100198009001000090010000900100009001000013
:1001a8009001000090010000900100009001000003
:1001b80090010000900100009001000090010000f3
:1001c80090010000900100009001000090010000e3
:1001d80090010000900100009001000090010000d3
:1001e80090010000900100009001000090010000c3
:0801f8009001000090010000dd
:020000040000fa
:100c4400101100001111000020640000a8ec000045
:100c540040870000063500000e0000000000000080
:100c6400303000002e3000005b5600005d20000094
:100c7400302e0000305b0000415d00002d43000079
:100c84000020000020200000202000002020000080
:100c94002020000020200000202000005b570000de
:100ca4005d000000545300003a20000020200000a2
:100cb400202000002020000020200000205b0000f5
:100cc4004e5d00000045000052520000434e0000fb
:100cd400543a0000202000002020000020200000c2
:080ce4005b4e00005d00000002
:020000040000fa
:100cec000200fa00000f78000040eb0000e8b700ab
:100cfc000040eb0001e8b7000040eb0002e8b70051
:100d0c000040eb0003e8b7006500370030332000eb
:100d1c009e007800808f50000600360000c8bf008f
:100d2c000040e80000e8b700c0cc2f001e0f4000c8
:100d3c005b003700100520009e007800808f50006b
:100d4c0013003600303320009e007800808f500056
:100d5c000f003e0001c8bf00e84f500004003c00eb
:100d6c0001c8bf000040e80001e8b70005003700eb
:100d7c0000c8bf000040e80000e8b7000040eb00ee
:100d8c0001e8b700e0fa2f001e0f400044003700c6
:100d9c001e007800e80f50001c00360010052000e3
:100dac009e007800808f500018003e0002c8bf00e3
:100dbc00e84f500004003c0002c8bf000040e800af
:100dcc0002e8b7000e0037000040eb0002e8b70065
:100ddc0001c8bf00e84f500004003c0001c8bf0030
:100dec000040e80001e8b7000500370000c8bf006c
:100dfc000040e80000e8b7000040eb0001e8b70055
:100e0c001e007800690f5000250037001e00780086
:100e1c00e00f5000220032001e007800e80f500056
:100e2c001f003e0003c8bf00e84f500004003c0008
:100e3c0003c8bf000040e80003e8b7001700370004
:100e4c000040eb0003e8b70002c8bf00e84f5000b9
:100e5c0004003c0002c8bf000040e80002e8b700f4
:100e6c000e0037000040eb0002e8b70001c8bf00dd
:100e7c00e84f500004003c0001c8bf000040e800ef
:100e8c0001e8b7000500370000c8bf000040e800cb
:100e9c0000e8b7000040eb0001e8b7001e0fe900c6
:100eac001e007800e00f500098ff3a0000c8bf0009
:100ebc000043b00000e8b70001c8bf000043b00019
:100ecc0001e8b70002c8bf000043b00002e8b70059
:100edc0003c8bf000043b00003e8b7000080fa006d
:100eec00000006000400fa00008fbe000040eb007a
:100efc0004e8b7000040eb0005e8b7000040eb0049
:100f0c0006e8b7000040eb0007e8b7000040eb0034
:100f1c0008e8b700b5003700f0702200010020008f
:100f2c001e01be00800f5100818f59000800360051
:100f3c0004c8bf000040e80004e8b700008f2d0093
:100f4c00f1ff2f001e0f40005e974800a7003700ee
:100f5c00703e2000010020001e01be00800f5100d9
:100f6c00818f590017003600f0702200010020001c
:100f7c001e01be00800f5100818f590011003e00f0
:100f8c0005c8bf00e84f500004003c0005c8bf0076
:100f9c000040e80005e8b7000500370004c8bf00b2
:100fac000040e80004e8b7000040eb0005e8b7009b
:100fbc0080c12f00f1ff2f001e0f40005e974800ec
:100fcc008a00370030062000010020001e01be0000
:100fdc00800f5100818f590020003600703e200098
:100fec00010020001e01be00800f5100818f5900ae
:100ffc001a003e0006c8bf00e84f500004003c0039
:10100c0006c8bf000040e80006e8b7000e00370035
:10101c000040eb0006e8b70005c8bf00e84f5000e1
:10102c0004003c0005c8bf000040e80005e8b7001c
:10103c000500370004c8bf000040e80004e8b70012
:10104c000040eb0005e8b700c0f92f00f1ff2f00be
:10105c001e0f40005e974800640037001e01be0062
:10106c009000200001002000800f5100818f59005a
:10107c002900360030062000010020001e01be00b1
:10108c00800f5100818f590023003e0007c8bf001c
:10109c00e84f500004003c0007c8bf000040e800c7
:1010ac0007e8b700170037000040eb0007e8b7006f
:1010bc0006c8bf00e84f500004003c0006c8bf0043
:1010cc000040e80006e8b7000e0037000040eb00d7
:1010dc0006e8b70005c8bf00e84f500004003c000c
:1010ec0005c8bf000040e80005e8b7000500370060
:1010fc0004c8bf000040e80004e8b7000040eb0063
:10110c0005e8b70060ff2f00f1ff2f001e0f400015
:10111c005e974800350037001e00be00e00f5000ff
:10112c00e08f5800310032001e01be0090002000fc
:10113c0001002000800f5100818f59002b003e00d0
:10114c0008c8bf00e84f500004003c0008c8bf00ae
:10115c000040e80008e8b700200037000040eb0032
:10116c0008e8b70007c8bf00e84f500004003c0077
:10117c0007c8bf000040e80007e8b70017003700b9
:10118c000040eb0007e8b70006c8bf00e84f50006e
:10119c0004003c0006c8bf000040e80006e8b700a9
:1011ac000e0037000040eb0006e8b70005c8bf0092
:1011bc00e84f500004003c0005c8bf000040e800a8
:1011cc0005e8b7000500370004c8bf000040e80080
:1011dc0004e8b7000040eb0005e8b7000080eb0026
:1011ec008080eb001e0f40005e9748001e00be0082
:1011fc00e00f5000e08f580047ff3a0004c8bf00d2
:10120c000043b00004e8b70005c8bf000043b000bd
:10121c0005e8b70006c8bf000043b00006e8b700f9
:10122c0007c8bf000043b00007e8b70008c8bf00fc
:10123c000043b00008e8b7000080fa000000060088
:10124c000400fa00204798002e409000004f7800d0
:10125c00e116800000ff2f00808060001e417800a6
:10126c000280fb004400de00004078000080fb00a0
:10127c006f00600000807000e0168800c1168000ce
:10128c0000ff2f0000806000c0168800ca82a900f1
:10129c00caa2a8005000200001002000ef000700a7
:1012ac00caa2a9005000200001002000eb0007009a
:1012bc00e116800000ff2f00808060002e4090001f
:1012cc000080fb006f00600000807000e01688005a
:1012dc00ca82a900caa2a800500020000100200068
:1012ec00de000700caa2a900c0168000f000b300ff
:1012fc00c01688000080fa00000006000200fa0008
:10130c00004f7800803e200001002000d300070031
:10131c00ca62a9001e407800c9ff07000080fa00cd
:10132c00000006000200fa00004f7800803e20000a
:10133c0001002000c9000700ca62a8001e40780006
:10134c00bfff07000080fa00000006000200fa0050
:10135c00004f78001e407800f2ff07000080fa0072
:10136c00000006000200fa00004f780011479800b8
:10137c0000c8b3001e407000804078001e409000f2
:10138c000080fb004600dd000040780000c07000cb
:10139c00daff07000080fa00000006000a00fa00dd
:1013ac0030079800014f9800124f9800a080200041
:1013bc00000f78009e0078003e009000000c0700a3
:1013cc009e4890000e489000e6ff07000000eb00de
:1013dc00100798000d0037001e0078009000780070
:1013ec00210798001e8fe8001e009000e10f5000ae
:1013fc00030034002e00900000407800d3ff07005b
:10140c001e0090000000e800100798001e009000dd
:10141c00e30f5000f0ff34000080fa0000000600db
:10142c000600fa00100798004147980052479800b0
:10143c000040eb00004f7800de4090004e409000e2
:10144c00c8ff0700070037009e4078000180fb00b2
:10145c009e0090000080400010407800bbff070009
:10146c001e4fe8009e4078000180fb009e0090001b
:10147c000080400010407800e04f5000f2ff3a002e
:10148c000080fa00000006000400fa00000f78004b
:10149c0021479800324798001e007800e00f50005a
:1014ac0001003d001e0fea001e007800cf80de0018
:1014bc008cfe070005c8bf00a4ff070006c8bf00cc
:1014cc00a2ff070007c8bf00a0ff070008c8bf00a5
:1014dc009eff07000080fa00000006000000fa00e2
:1014ec00f0ff2f00010020005c000700f0ff2f0030
:1014fc000100200059000700f0ff2f000100200020
:10150c0056000700f0ff2f000100200053000700d9
:10151c00e116800000ff2f00008060003000b30057
:10152c00e0168800c116800000ff2f0000806000cc
:10153c00c0168800ca82a900caa2a80050002000c8
:10154c000100200045000700caa2a900f0ff2f00ef
:10155c000100200041000700e116800000ff2f0071
:10156c00008060003000b300e0168800caa2a8001a
:10157c00500020000100200038000700caa2a9007a
:10158c00e116800000ff2f00008060003000b300e7
:10159c00e0168800c116800000ff2f00008060005c
:1015ac00c0168800ca82a90050002000010020004b
:1015bc002a000700caa2a800500020000100200049
:1015cc0026000700caa2a900400620000100200046
:1015dc0022000700e116800000ff2f000080600051
:1015ec000010a000e0168800caa2a800500020003d
:1015fc000100200019000700caa2a90080c2b30094
:10160c003eff070060c0b3003cff0700c0c0b30042
:10161c003aff070010c0b30038ff070000c8b30042
:10162c0036ff07000080fa00000006000000fa00f8
:10163c0020c0b30031ff07000080fa000000060054
:10164c000000fa0020c0b3002cff070010c0b3004c
:10165c002aff07000080fa00000006000400fa00d0
:10166c00008fbe00000000001e0090001e007000e5
:10167c008000ea00008070004f00de00004078001f
:10168c000081eb008081eb001e0f41005e9749004a
:10169c00e04f5000f4ff3a000080fa000000060012
:1016ac003600f800809fbe00829fbe00849fbe0063
:1016bc00869fbe003400f80000002000a0018800c6
:1016cc000000fa000040eb000dfd070060488800a8
:1016dc0010c0b3000afd07007048880020c0b3009a
:1016ec0007fd070080488800504880000000e80093
:1016fc00504888009148800060488000008040007d
:10170c0090488800a148800070488000008040000c
:10171c00a0488800b14880008048800000804000cc
:10172c00b048880050488000ea0f500022003a0070
:10173c0091488000a00020000001780011000900f1
:10174c008200d800cf80de00c0488800d1488800d5
:10175c000000eb0090488800a1488000a000200009
:10176c0000017800110009008200d800cf80de0053
:10177c00e0488800f14888000000eb00a048880091
:10178c00b1488000a0002000000178001100090081
:10179c008200d800cf80de00004988001149880003
:1017ac000000eb00b04888000000eb0050488800b7
:1017bc0010002000404988008560a9000080fa00d4
:1017cc003400f9004f03be004f02be004f01be00b3
:1017dc004f00be003600f900004006003600f8004d
:1017ec00809fbe00829fbe00849fbe00869fbe006d
:1017fc003400f80000002000a00188000000fa006e
:10180c000000eb00c3fc07008460a9008104070002
:10181c000080fa003400f9004f03be004f02be00f6
:10182c004f01be004f00be003600f900004006001c
:10183c003600f800809fbe00829fbe00849fbe00d1
:10184c00869fbe00881f78003400f800000020003e
:10185c00a00188000000fa000000eb00affc0700bc
:10186c0084e0a900104880000000e80010488800bf
:10187c00204880000000e8002048880030488000a4
:10188c000000e80030488800404880000000e80074
:10189c00404888001148800010032000808f5000c1
:1018ac00040036000000eb001048880010c0b300a4
:1018bc005de9b70021488000703e2000808f500009
:1018cc002d0036000000eb00204888002ac8bf001d
:1018dc00e04f500003003a0010c0b3002ae8b700f4
:1018ec00020037000040eb002ae8b700a6c9bf0091
:1018fc0000c0ea00a6e9b700fa030700a7c9bf00b9
:10190c000040e800a7e9b700524c8000634c80000f
:10191c001000200001002000800f5100818f590021
:10192c000f003200404d8000514d8000610050008e
:10193c00e0805800404d8800514d8800404d80009b
:10194c00514d8000e00f5000e08f580004003a0029
:10195c000084230001002000404d8800514d880078
:10196c00604d8000714d800061004000e0804800b7
:10197c00604d8800714d880041488000301f200068
:10198c00808f50000c0036000000eb0040488800af
:10199c004ec9bf00e04f500003003a0010c0b30026
:1019ac004ee9b700020037000040eb004ee9b700eb
:1019bc0010c0b3005ce9b70031488000703e2000d5
:1019cc00808f5000200036000000eb00304888006b
:1019dc00604180000000e80060418800d049800030
:1019ec00e149800018c0b30002002500c365240043
:1019fc008dfa0700e00f500001003d000044eb00a1
:101a0c00e04f54000e003200804a80000000e800d5
:101a1c00804a8800814a800070252000808f500009
:101a2c000900360010c0b30052e9b7000000eb000b
:101a3c00804a88000000eb006041880002003700fb
:101a4c000000eb00804a88000080fa003400f900a6
:101a5c004f0478004f03be004f02be004f01be0082
:101a6c004f00be003600f900004006000000fa00ee
:101a7c005b0007004d0007006a00070097fe070097
:101a8c000b06070000002000010a2400d04088004b
:101a9c00e140880080382100a040880000402000f0
:101aac0030498800e6fe07000041eb008040eb0067
:101abc00206328005afe070012c0b3008040eb00e0
:101acc003064280056fe0700204980000000e80022
:101adc0020498800cf030700df050700404980003c
:101aec00e10f500007003a000000eb00404988006d
:101afc00d1000700a90007005b0007007c0107006c
:101b0c00480207005dc9bf00e14f500002003a00d7
:101b1c000040eb005de9b7009a0507003f040700a1
:101b2c005cc9bf00e14f50001e003a000040eb00c2
:101b3c005ce9b700a5c9bf00e14f500009003a00ad
:101b4c000041eb0031c0b3004085200034fe07009b
:101b5c0012c0b300b1c0b300f085200030fe070006
:101b6c00100037000041eb008040eb00e0832000c8
:101b7c002bfe07000041eb0081c0b3003084200035
:101b8c0027fe07000041eb00f1c0b3007084200079
:101b9c0023fe070012c0b30031c0b30090842000b4
:101bac001ffe07000c060700c7ff37000000fa00f5
:101bbc0000fe2f00dbfb0700e0ff2f00dbfb070024
:101bcc000082eb0083ff2f00f2052e0081cc200059
:101bdc00f0cf2d00e6fb07000080fa0000000600a5
:101bec000000fa00d202a900d222a900d802a90052
:101bfc00d822a900d842a900d862a900c662a900bf
:101c0c00c682a900c6a2a900d882a800d8a2a900a1
:101c1c00d402a900d422a900daa2a9000080fa00fb
:101c2c00000006000000fa00b0ff2f00dbfb0700ed
:101c3c000000eb00b7fb07000164200090f82f00b8
:101c4c00e4fb0700b0ff2f00e6fb07000000eb00f1
:101c5c00b2fb070001e82300d0f82f00f2fb0700cd
:101c6c000080fa00000006000000fa00881f7800cf
:101c7c00d0498000e149800018c0b3000200270061
:101c8c0083672400e8f90700e00f500001003d00d5
:101c9c000044eb00e04f540023003200d04780009a
:101cac00e147800061004000e0804800d047880098
:101cbc00e1478800d2478000e347800070a92300e9
:101ccc0001002000800f5100818f59003000360038
:101cdc0080a9230001002000d0478800e14788003c
:101cec00006a280011002000f04788000148880095
:101cfc00d402a90000000000000000002ac8bf00a8
:101d0c00614060000080fb0061006000000040004a
:101d1c00a2168000d1ff2f008100610000807000ae
:101d2c00a01688001a0037006000b800d047880061
:101d3c00e1478800f047800001488000e00f500028
:101d4c00e08f580011003200f047800001488000fd
:101d5c0061005000e0805800f0478800014888007e
:101d6c002ac8bf00614060000080fb006100600079
:101d7c0000004000a2168000d1ff2f0081006100fe
:101d8c0000807000a0168800010037007d0007005d
:101d9c004f0478000080fa00000006000000fa00f2
:101dac00881f780094498000a5498000304a800043
:101dbc00414a800018c0b3000001be000400be0000
:101dcc009bf90700e00f5000010034000044eb00c9
:101ddc00e04f54000400320090498000a14980007b
:101dec00304a8800414a880094498000a549800007
:101dfc00504a8000614a800018c0b3000001be0048
:101e0c000400be0088f90700e00f500001003d00ff
:101e1c000044eb00e04f5400040032009049800075
:101e2c00a1498000504a8800614a88004f0478001c
:101e3c000080fa00000006000000fa00c048800094
:101e4c00d14880007cf907000200200003482400e0
:101e5c007cf9070002002400c3592400bbf90700d9
:101e6c00f040880001418800e0488000f148800083
:101e7c0071f90700020020000348240071f90700e3
:101e8c0002002400c3592400b0f907001041880057
:101e9c0021418800004980001149800066f9070043
:101eac00020020000348240066f907000200240009
:101ebc00c3592400a5f9070030418800414188002e
:101ecc00f04080000141800002002000030a240041
:101edc009ef90700704988008149880010418000f4
:101eec002141800022e42e00a309240097f9070069
:101efc00b0498800c14988003041800041418000d0
:101f0c00f0498800014a88007049800081498000ae
:101f1c007293280013f823008cf9070062662600e0
:101f2c0063302400bef9070090498800a14988005d
:101f3c00b0498000c1498000a20a2600c3f82300e2
:101f4c0082f90700e27a2400432a2400b3f907003f
:101f5c00d0498800e1498800f0498000014a80009e
:101f6c003233230033f7230078f907006011b800ef
:101f7c00abf90700104a8800214a88000080fa005b
:101f8c00000006000000fa00881f7800d04980008d
:101f9c00e149800018c0b30002002000a3472400d0
:101fac0023f90700e00f5000010034000044eb005f
:101fbc00e04f54000d003200504980006149800010
:101fcc0061004000e0804800504988006149880069
:101fdc00d402a9000000000000000000d422a900d7
:101fec00000000000000000024003700d0498000f1
:101ffc00e149800018c0b30002002300936524005f
:10200c0009f90700e00f500001003d000044eb000f
:10201c00e04f54000d0032005049800061498000af
:10202c0061004000e0804800504988006149880008
:10203c00d402a9000000000000000000d422a90076
:10204c0000000000000000000c003700b0408000d1
:10205c00c140800061004000e0804800b040880032
:10206c00c1408800d402a80000000000000000005d
:10207c00d422a80000000000000000004f047800eb
:10208c000080fa00000006000600fa0040479800a5
:10209c004e4090008080fb00a000200000017800e2
:1020ac00110009008280d800004f78001e40780093
:1020bc006a00b9000000780010479800ce409000ec
:1020cc001e40900000c05000204798001e40780031
:1020dc00410020008100dd002e40900000c0400037
:1020ec00104798001e4090000080fa000000060087
:1020fc000600fa00881f78006000b80010079800ee
:10210c0021079800104a8000214a8000100798008f
:10211c0021079800f04b8000014c8000104c880087
:10212c00214c8800d04b8000e14b8000f04b8800a4
:10213c00014c8800b04b8000c14b8000d04b880014
:10214c00e14b8800904b8000a14b8000b04b880085
:10215c00c14b8800704b8000814b8000904b8800f5
:10216c00a14b8800504b8000614b8000704b880065
:10217c00814b8800304b8000414b8000504b8800d5
:10218c00614b8800104b8000214b8000304b880045
:10219c00414b8800f04a8000014b8000104b8800b6
:1021ac00214b88001e009000ae009000f04a880081
:1021bc00014b88000040eb00004f78000d00370009
:1021cc009e4078000180fb00c200dd00e0952000fd
:1021dc00008040001000be000001be001e009000f8
:1021ec00ae0090000ef90700100798002107980028
:1021fc001e4fe8001e407800e94f5000f0ff3600fb
:10220c0002002000031224001e009000ae0090007b
:10221c008cf8070010079800210798001e0090000a
:10222c00ae009000304c8800414c880090498000f2
:10223c00a1498000f226210033a82300c3f807002f
:10224c00050107003ee8b70090498000a1498000d5
:10225c00f226210033a82300bcf807003301070045
:10226c003fe8b700e0c2b30040e8b70090498000f7
:10227c00a1498000f226210033a82300b3f80700ff
:10228c005801070041e8b7000040eb0042e8b700f6
:10229c00104a8000214a800018c0b30002002000c0
:1022ac000312240060f80700e00f500001003d000d
:1022bc000044eb00e04f54000300320030c4b30084
:1022cc0047e8b70016003700104a8000214a80000a
:1022dc0018c0b3000200200003122c0054f80700b1
:1022ec00e00f5000010034000044eb00e04f5400bc
:1022fc000600320040c4b30047e8b7006000b800e5
:10230c00304c8800414c88000500370020c5b300d4
:10231c0047e8b7006000b800304c8800414c88009a
:10232c000040eb0048e8b700304c8000414c800086
:10233c00f226210033a8230084f80700fb000700d5
:10234c0043e8b700e0c2b30044e8b700304c80006b
:10235c00414c8000f226210033a823007bf80700b3
:10236c002001070045e8b7000040eb0046e8b70045
:10237c00c04a8000d14a80007204070049e8b700c7
:10238c00c04a8000d14a8000920407004ae8b70096
:10239c00c04a8000d14a8000c00407004be8b70057
:1023ac00c04a8000d14a8000f90407004ce8b7000d
:1023bc00c04a8000d14a80003d0507004de8b700b7
:1023cc00c04a8000d14a80008c0507004ee8b70057
:1023dc00c04a8000d14a8000e60507004fe8b700ec
:1023ec00c04a8000d14a80004b06070050e8b70075
:1023fc00c04a8000d14a8000bb06070051e8b700f4
:10240c00c04a8000d14a80003607070052e8b70066
:10241c000040eb0053e8b7004f0478000080fa004e
:10242c00000006000000fa00704c8000814c800017
:10243c004404070054e8b700704c8000814c8000c5
:10244c006404070055e8b700704c8000814c800094
:10245c009204070056e8b700704c8000814c800055
:10246c00cb04070057e8b700704c8000814c80000b
:10247c000f05070058e8b700704c8000814c8000b5
:10248c005e05070059e8b700704c8000814c800055
:10249c00b80507005ae8b700704c8000814c8000ea
:1024ac001d0607005be8b700704c8000814c800073
:1024bc008d0607005ce8b700704c8000814c8000f2
:1024cc00080707005de8b7000040eb005ee8b700c6
:1024dc00504c8000614c8000830607005fe8b70019
:1024ec00504c8000614c8000fe06070060e8b7008d
:1024fc000040eb0061e8b7000080fa000000060025
:10250c000600fa00881f7800100798002107980031
:10251c0018c0b30002002400c36124001e00900008
:10252c00ae009000c0f70700e00f500001003d0026
:10253c000044eb00e04f54000b003a0018c0b3000d
:10254c0002002000a34724001e009000ae00900063
:10255c00b7f70700e00f5000010035000044eb0016
:10256c00e04f54000300320000c2b300004f78006b
:10257c000900370002002000a34724001e00900031
:10258c00ae009000aff7070082f80700004078001b
:10259c0001c3b300014f40001e4078004f04780087
:1025ac000080fa00000006000800fa0020079800de
:1025bc00310798002e009000be00900075f80700bf
:1025cc00000f7800300620009e007800808f5000ad
:1025dc0005003e0000022000000f78001e0078006d
:1025ec00004078001a003700703e20009e007800f2
:1025fc00808f5000070036009e007800803e20003f
:10260c0000017800110009008280d8008000fd00d4
:10261c00000f7800300620009e007800808f50005c
:10262c00060036009e00780040062000000178006d
:10263c00110009008280d800000f78001e0078007d
:10264c00004078000043b000204798002e409000d6
:10265c000080fa00000006000800fa00200798002d
:10266c00310798002e009000be00900049f807003a
:10267c00000f78001e007800e90f500005003e00a6
:10268c0000022000000f78001e0078000040780047
:10269c0024003700703e20009e007800808f500090
:1026ac00070036009e007800803e20000001780074
:1026bc00110009008280d8008000fd00000f780016
:1026cc00300620009e007800808f500007003600f6
:1026dc009e007800400620000001780011000900df
:1026ec008280d8008000fd00000f78001e0078006a
:1026fc00e90f5000060036009e007800a000200074
:10270c0000017800110009008280d800000f7800c9
:10271c001e007800004078000043b000204798006d
:10272c002e4090000080fa00000006000800fa001d
:10273c0020079800310798002e009000be009000f2
:10274c0014f80700000f7800703e20009e007800ff
:10275c00808f5000070036009e007800803e2000dd
:10276c0000017800110009008280d8008000fd0073
:10277c00000f7800300620009e007800808f5000fb
:10278c00070036009e00780040062000000178000b
:10279c00110009008280d8008000fd00000f780035
:1027ac001e007800e90f5000070036009e007800ec
:1027bc00a000200000017800110009008280d800e0
:1027cc008000fd00000f78001e00780000407800ab
:1027dc000043b000204798002e4090000080fa0083
:1027ec00000006000800fa00200798003107980046
:1027fc0002002000031224002e009000be00900066
:10280c0052f7070020079800310798002e0090001f
:10281c00be009000dff70700000f7800f070220078
:10282c009e007800808f5000070036009e007800d4
:10283c000071220000017800110009008280d8008c
:10284c008000fd00000f7800703e20009e00780094
:10285c00808f5000070036009e007800803e2000dc
:10286c0000017800110009008280d8008000fd0072
:10287c00000f7800300620009e007800808f5000fa
:10288c00070036009e00780040062000000178000a
:10289c00110009008280d8008000fd00000f780034
:1028ac001e007800e90f5000070036009e007800eb
:1028bc00a000200000017800110009008280d800df
:1028cc008000fd00000f78001e00780000407800aa
:1028dc000043b000204798002e4090000080fa0082
:1028ec00000006000000fa00889fbe00104a80001d
:1028fc00214a800018c0b3000200200003122400fb
:10290c00c9f60700e00f500001003d000044eb0049
:10291c00e04f54003c00320090498000a1498000f7
:10292c00f226210033a8230008f707000004be009c
:10293c00304c8000414c8000f226210033a823004b
:10294c0002f707000001be000800be00fff60700fa
:10295c000200200013562400baf607000002be0045
:10296c00a04a8000b14a80000001be000400be00f5
:10297c002bf70700a04a8800b14a8800a04a8000c3
:10298c00b14a800018c0b3000200200003f82300f5
:10299c00a5f60700e00f500001003d000044eb00dd
:1029ac00e04f540018003200a04a8000b14a800069
:1029bc0078f707000001be00c04a8000d14a8000b1
:1029cc000200400083804800c04a8800d14a880039
:1029dc006000b800a04a8800b14a8800c24a800052
:1029ec00d34a8000e07f2200b1e62e00800f510018
:1029fc00818f590004003600f07f2200b1e62e00d2
:102a0c00c04a8800d14a88004f04be000080fa00fa
:102a1c00000006000400fa00c04780000000e80037
:102a2c00c0478800c1478000f0702200808f5000a2
:102a3c00130036000000eb00c0478800704c80008b
:102a4c00814c800061004000e0804800704c8800a0
:102a5c00814c8800724c8000834c8000e07f220007
:102a6c00b1e62e00800f5100818f59000400360012
:102a7c00f07f2200b1e62e00704c8800814c88005b
:102a8c0080a92b00c1ed2f00008fbe001e01be00df
:102a9c00806725004123210002004000838048000c
:102aac00008fbe001e01be00103184002131840055
:102abc00800f5100818f590006003200504c80006d
:102acc00614c800061004000e0804800504c880060
:102adc00614c880080a92b00c1ed2f00008fbe0037
:102aec001e01be0080982a00b1dc2e0002004000be
:102afc0083804800008fbe001e01be003031840070
:102b0c0041318400800f5100818f59000600320042
:102b1c00504c8000614c800061004000e080480017
:102b2c00504c8800614c880080a92b00c1ed2f000f
:102b3c00008fbe001e00be00826725000289b9000e
:102b4c0002017800432321000382b900840178003c
:102b5c0003014100836725000300b8000101410017
:102b6c0082007800008fbe001e01be005031840030
:102b7c0061318400800f5100818f590006003200b2
:102b8c00504c8000614c800061004000e0804800a7
:102b9c00504c8800614c880080a92b00c1ed2f009f
:102bac00008fbe001e00be0082672500432321005b
:102bbc0013f70700008fbe001e01be0070318400a9
:102bcc0081318400800f5100818f59000600320042
:102bdc00504c8000614c800061004000e080480057
:102bec00504c8800614c8800524c8000634c800033
:102bfc002006200001002000800f5100818f590019
:102c0c00040036003006200001002000504c8800e3
:102c1c00614c88000080fa00000006000000fa00f9
:102c2c00a5c9bf00e04f50000e003200a7c9bf007d
:102c3c00f34f50000b0036000040eb00a5e9b70045
:102c4c007ffa07000041eb008040eb002063280076
:102c5c00f3f9070012c0b3008040eb003064280089
:102c6c00eff907000080fa00000006000000fa00ef
:102c7c00a5c9bf000080fb006101b9000080eb001a
:102c8c008080eb000200400083804800520020004e
:102c9c0003002000820f5000838f58006d003e000f
:102cac0000600100050037001500370025003700d3
:102cbc00350037004500370055003700504c800078
:102ccc00614c800022c0b30065000700a099200071
:102cdc000041eb0041c0b300d1f907003043800044
:102cec0041438000a2c0b3005d000700a099200002
:102cfc0012c0b30061c0b300c9f907005600370019
:102d0c001043800021438000a2c0b3005400070090
:102d1c00a09920000041eb0061c0b300c0f907008e
:102d2c005043800061438000a2c0b3004c000700f8
:102d3c00a099200012c0b30061c0b300b8f907001d
:102d4c00450037007043800081438000a2c0b3006f
:102d5c0043000700a09920000041eb0061c0b300c4
:102d6c00aff9070090438000a1438000a2c0b300dc
:102d7c003b000700a099200012c0b30061c0b30053
:102d8c00a7f9070034003700b0438000c14380002e
:102d9c00a2c0b30032000700a09920000041eb0054
:102dac0061c0b3009ef90700d0438000e14380006e
:102dbc00a2c0b3002a000700a099200012c0b300e3
:102dcc0061c0b30096f9070023003700f043800080
:102ddc0001448000a2c0b30021000700a09920008c
:102dec000041eb0061c0b3008df907001044800076
:102dfc0021448000a2c0b30019000700a099200054
:102e0c0012c0b30061c0b30085f90700120037008f
:102e1c003044800041448000a2c0b3001000070081
:102e2c00a09920000041eb0061c0b3007cf90700c1
:102e3c00904c8000a14c8000a2c0b3000800070099
:102e4c00a099200012c0b30061c0b30074f9070050
:102e5c0001003700000000000080fa0000000600ae
:102e6c000600fa00008fbe00424798001e00be000c
:102e7c0002a02c00a3b9230061f6070000407800e3
:102e8c000043b0009ae9b7001e00be0002a02c005f
:102e9c00a3b923006af60700008fbe001e00be0017
:102eac0002102e00535f200055f6070000407800fa
:102ebc000043b0009be9b7001e00be0002102e00bc
:102ecc00535f20005ef60700008fbe001e00be00a0
:102edc00026829008309200049f6070000407800a9
:102eec000043b0009ce9b7001e00be000268290038
:102efc008309200052f60700008fbe001e00be00a2
:102f0c0002242400f30020003df607000040780066
:102f1c000043b0009de9b7001e00be00022424004f
:102f2c00f300200046f60700008fbe001e00be0016
:102f3c00026a28001300200031f6070000407800d8
:102f4c000043b0009ee9b7001e00be00026a2800d4
:102f5c00130020003af60700008fbe001e00be00d2
:102f6c00027122000300200025f6070000407800c3
:102f7c000043b0009fe9b7001e00be0002712200a2
:102f8c00030020002ef60700008fbe001e00be00be
:102f9c00823e20000300200019f607000040780054
:102fac000043b000a0e9b7001e00be00823e200026
:102fbc000300200022f60700008fbe001e00be009a
:102fcc0042062000030020000df6070000407800a8
:102fdc000043b000a1e9b7001e00be00420620006d
:102fec000300200016f60700008fbe001e00be0076
:102ffc00a20020000300200001f60700004078002a
:10300c000043b000a2e9b7001e00be00a2002000e1
:10301c00030020000af60700008fbe001e00780097
:10302c00004078000043b000a3e9b7004e40900088
:10303c000080fb006101b9000080eb008080eb0098
:10304c000200400083804800920020000300200012
:10305c00820f5000838f580047003e000060010033
:10306c00090037000d003700130037001b00370034
:10307c001d0037001f0037002100370023003700e8
:10308c002500370039003700a3c9bf009ae9b70003
:10309c000040eb009be9b70038003700a2c9bf0025
:1030ac009ae9b700a3c9bf009be9b7000040eb0049
:1030bc009ce9b70031003700a1c9bf009ae9b700fd
:1030cc00a2c9bf009be9b700a3c9bf009ce9b70028
:1030dc000040eb009de9b700280037000040eb00f2
:1030ec009ee9b700250037000040eb009fe9b700d0
:1030fc00220037000040eb00a0e9b7001f003700aa
:10310c000040eb00a1e9b7001c0037000040eb00c9
:10311c00a2e9b700190037009bc9bf009ae9b700b4
:10312c009cc9bf009be9b7009dc9bf009ce9b700d3
:10313c009ec9bf009de9b7009fc9bf009ee9b700bb
:10314c00a0c9bf009fe9b700a1c9bf00a0e9b700a3
:10315c00a2c9bf00a1e9b700a3c9bf00a2e9b7008b
:10316c000040eb00a3e9b700040037000040eb007f
:10317c00a4e9b70001003700000000000080fa004d
:10318c00000006000000fa00d016800070006000fd
:10319c00e00f50002c003a00b1478000b012200024
:1031ac00808f5000240036000000eb00b0478800f0
:1031bc000040eb00a7e9b700a5c9bf000080fb00e9
:1031cc00e00f500003003200e10f50000d00320000
:1031dc001f00370010c0b300a5e9b70018f90700ad
:1031ec000041eb008040eb00406528008cf80700a4
:1031fc0012c0b3008040eb005066280088f807002e
:10320c00130037000040eb00a5e9b7000cf90700ec
:10321c000041eb008040eb002063280080f80700a1
:10322c0012c0b3008040eb00306428007cf807002b
:10323c000000000006003700b04780000000e800e6
:10324c00b0478800020037000000eb00b047880050
:10325c000080fa00000006000000fa00424d8000d9
:10326c00534d80004000200001002000800f5100d1
:10327c00818f59000b003e00a6c9bf006140600061
:10328c000080fb00610060004500dd00d21680006c
:10329c00f1fd2f008100610000807000d0168800c5
:1032ac0001003700daa2a9000080fa000000060035
:1032bc000000fa0000c02f00f107200050448800e5
:1032cc006144880000c22f00f10720007044880080
:1032dc008144880000c42f00f1072000904488002e
:1032ec00a144880050448000614480000002eb003f
:1032fc00030220006289200008f40700704480005b
:10330c00814480000002eb0003022000628b20004d
:10331c0002f4070090448000a14480000002eb00fe
:10332c0003022000628d2000fcf30700c0448000e3
:10333c0001002000504c8800614c8800504c8000eb
:10334c00614c8000e00f5000e08f580004003a0000
:10335c001000200001002000504c8800614c8800b7
:10336c00d045800001002000704c8800814c880002
:10337c00c045800001002000c001dd0002002000db
:10338c00704c8000814c80000000710081807100c5
:10339c00704c8800814c8800d046800001002000d1
:1033ac00c04a8800d14a8800c04680000100200035
:1033bc00c001dd0002002000c04a8000d14a80001c
:1033cc000000710081807100c04a8800d14a8800d9
:1033dc000080fa00000006000000fa00624d800038
:1033ec00734d8000b003200001002000800f5100bd
:1033fc00818f5900510036006000b800604d880084
:10340c00714d8800504c8000614c800000007800a9
:10341c00c044880070448000814480000202200077
:10342c00d9f30700013b80000000280000806000f9
:10343c00e00f5000fbff3a006289200050448000ee
:10344c0061448000eff30700013b8000000028007e
:10345c0000806000e00f5000fbff3a00704c8000d1
:10346c00814c800000007800d0458800704c8000b2
:10347c00814c80004008de00010020000000780034
:10348c00c045880070448000814480000202200006
:10349c00bdf30700013b80000000280000806000a5
:1034ac00e00f5000fbff3a00628b2000704480005c
:1034bc0081448000d3f30700013b8000000028000a
:1034cc0000806000e00f5000fbff3a00c04a800013
:1034dc00d14a800000007800d0468800c04a8000a5
:1034ec00d14a80004008de00010020000000780076
:1034fc00c046880090448000a14480000202200055
:10350c00a1f30700013b8000000028000080600050
:10351c00e00f5000fbff3a00628d200090448000c9
:10352c00a1448000b7f30700013b80000000280095
:10353c0000806000e00f5000fbff3a000080fa00b2
:10354c00000006000a00fa003007980041079800b6
:10355c003e009000ce009000008fbe000080220044
:10356c00b1e62e001e01be00800f5100818f590064
:10357c0006003100f09f2c00a1b923001e01be00f3
:10358c00800f5100818f590006003e000002200080
:10359c0001002000008fbe001e0078000040780063
:1035ac000a0037001e00be0002a02c00a3b92300a5
:1035bc0093f40700008fbe001e00780000407800d6
:1035cc000043b000404798004e4090000080fa0045
:1035dc00000006000a00fa00300798004107980026
:1035ec003e009000ce009000008fbe00f00f2e0029
:1035fc00515f20001e01be00800f5100818f5900c9
:10360c0006003e000002200001002000008fbe00da
:10361c001e007800004078001e003700f09f2c0040
:10362c00a1b923001e01be00800f5100818f5900eb
:10363c00050036001e00be0002a02c00a3b923001a
:10364c007ff40700008fbe00f00f2e00515f2000aa
:10365c001e01be00800f5100818f590006003600fc
:10366c001e00be0002102e00535f200064f4070001
:10367c00008fbe00020037006000b800008fbe0053
:10368c001e007800004078000043b00040479800ce
:10369c004e4090000080fa00000006000a00fa007c
:1036ac0030079800410798003e009000ce00900033
:1036bc00008fbe00f0672900810920001e01be00aa
:1036cc00800f5100818f590006003e00000220003f
:1036dc0001002000008fbe001e0078000040780022
:1036ec0029003700f09f2c00a1b923001e01be0059
:1036fc00800f5100818f5900050036001e00be005e
:10370c0002a02c00a3b923004df40700008fbe00cb
:10371c00f00f2e00515f20001e01be00800f5100e3
:10372c00818f5900050036001e00be0002102e00cd
:10373c00535f200042f40700008fbe00f0672900a1
:10374c00810920001e01be00800f5100818f59009d
:10375c00060036001e00be00026829008309200006
:10376c0027f40700008fbe00020037006000b8008d
:10377c00008fbe001e007800004078000043b000af
:10378c00404798004e4090000080fa000000060070
:10379c000a00fa0030079800410798003e0090009c
:1037ac00ce009000008fbe00f0232400f10020001a
:1037bc001e01be00800f5100818f590006003e0093
:1037cc000002200001002000008fbe001e007800c7
:1037dc000040780034003700f09f2c00a1b9230082
:1037ec001e01be00800f5100818f5900050036006c
:1037fc001e00be0002a02c00a3b9230010f4070089
:10380c00008fbe00f00f2e00515f20001e01be0085
:10381c00800f5100818f5900050036001e00be003c
:10382c0002102e00535f200005f40700008fbe002d
:10383c00f0672900810920001e01be00800f510095
:10384c00818f5900050036001e00be000268290059
:10385c0083092000faf30700008fbe00f023240038
:10386c00f10020001e01be00800f5100818f590015
:10387c00060036001e00be0002242400f3002000c7
:10388c00dff30700008fbe00020037006000b800b5
:10389c00008fbe001e007800004078000043b0008e
:1038ac00404798004e4090000080fa00000006004f
:1038bc000a00fa0030079800410798003e0090007b
:1038cc00ce009000008fbe00f0692800110020008f
:1038dc001e01be00800f5100818f590006003e0072
:1038ec000002200001002000008fbe001e007800a6
:1038fc00004078003f003700f09f2c00a1b9230056
:10390c001e01be00800f5100818f5900050036004a
:10391c001e00be0002a02c00a3b92300c8f30700b0
:10392c00008fbe00f00f2e00515f20001e01be0064
:10393c00800f5100818f5900050036001e00be001b
:10394c0002102e00535f2000bdf30700008fbe0055
:10395c00f0672900810920001e01be00800f510074
:10396c00818f5900050036001e00be000268290038
:10397c0083092000b2f30700008fbe00f02324005f
:10398c00f10020001e01be00800f5100818f5900f4
:10399c00050036001e00be0002242400f3002000a7
:1039ac00a7f30700008fbe00f0692800110020006b
:1039bc001e01be00800f5100818f59000600360099
:1039cc001e00be00026a2800130020008cf30700c2
:1039dc00008fbe00020037006000b800008fbe00f0
:1039ec001e007800004078000043b000404798006b
:1039fc004e4090000080fa00000006000a00fa0019
:103a0c0030079800410798003e009000ce009000cf
:103a1c00008fbe00f0702200010020001e01be00cd
:103a2c00800f5100818f590006003e0000022000db
:103a3c0001002000008fbe001e00780000407800be
:103a4c004a003700f09f2c00a1b923001e01be00d4
:103a5c00800f5100818f5900050036001e00be00fa
:103a6c0002a02c00a3b9230075f30700008fbe0041
:103a7c00f00f2e00515f20001e01be00800f510080
:103a8c00818f5900050036001e00be0002102e006a
:103a9c00535f20006af30700008fbe00f067290017
:103aac00810920001e01be00800f5100818f59003a
:103abc00050036001e00be000268290083092000a4
:103acc005ff30700008fbe00f0232400f1002000fc
:103adc001e01be00800f5100818f59000500360079
:103aec001e00be0002242400f300200054f3070043
:103afc00008fbe00f0692800110020001e01be00de
:103b0c00800f5100818f5900050036001e00be0049
:103b1c00026a28001300200049f30700008fbe0042
:103b2c00f0702200010020001e01be00800f510029
:103b3c00818f5900060036001e00be000271220063
:103b4c00030020002ef30700008fbe000200370098
:103b5c006000b800008fbe001e00780000407800a6
:103b6c000043b000404798004e4090000080fa009f
:103b7c00000006000a00fa00300798004107980080
:103b8c003e009000ce009000008fbe00703e2000e2
:103b9c00010020001e01be00800f5100818f5900d2
:103bac0006003e000002200001002000008fbe0035
:103bbc001e0078000040780055003700f09f2c0064
:103bcc00a1b923001e01be00800f5100818f590046
:103bdc00050036001e00be0002a02c00a3b9230075
:103bec0017f30700008fbe00f00f2e00515f20006e
:103bfc001e01be00800f5100818f59000500360058
:103c0c001e00be0002102e00535f20000cf30700b4
:103c1c00008fbe00f0672900810920001e01be0044
:103c2c00800f5100818f5900050036001e00be0028
:103c3c00026829008309200001f30700008fbe00f1
:103c4c00f0232400f10020001e01be00800f510063
:103c5c00818f5900050036001e00be00022424008e
:103c6c00f3002000f6f20700008fbe00f069280078
:103c7c00110020001e01be00800f5100818f5900e1
:103c8c00050036001e00be00026a2800130020004a
:103c9c00ebf20700008fbe00f07022000100200044
:103cac001e01be00800f5100818f590005003600a7
:103cbc001e00be000271220003002000e0f207008b
:103ccc00008fbe00703e2000010020001e01be00cf
:103cdc00800f5100818f5900060036001e00be0077
:103cec00823e200003002000c5f20700008fbe00ba
:103cfc00020037006000b800008fbe001e00780084
:103d0c00004078000043b000404798004e409000bf
:103d1c000080fa00000006000a00fa003007980044
:103d2c00410798003e009000ce009000008fbe002e
:103d3c0030062000010020001e01be00800f510043
:103d4c00818f590006003e00000220000100200077
:103d5c00008fbe001e007800004078006000370025
:103d6c00f09f2c00a1b923001e01be00800f510052
:103d7c00818f5900050036001e00be0002a02c00e9
:103d8c00a3b92300aef20700008fbe00f00f2e0087
:103d9c00515f20001e01be00800f5100818f590021
:103dac00050036001e00be0002102e00535f2000de
:103dbc00a3f20700008fbe00f067290081092000e4
:103dcc001e01be00800f5100818f59000500360086
:103ddc001e00be00026829008309200098f207002b
:103dec00008fbe00f0232400f10020001e01be0055
:103dfc00800f5100818f5900050036001e00be0057
:103e0c0002242400f30020008df20700008fbe0076
:103e1c00f0692800110020001e01be00800f510027
:103e2c00818f5900050036001e00be00026a280072
:103e3c001300200082f20700008fbe00f0702200f9
:103e4c00010020001e01be00800f5100818f59001f
:103e5c00050036001e00be00027122000300200087
:103e6c0077f20700008fbe00703e2000010020009a
:103e7c001e01be00800f5100818f590005003600d5
:103e8c001e00be00823e2000030020006cf20700e2
:103e9c00008fbe0030062000010020001e01be0075
:103eac00800f5100818f5900060036001e00be00a5
:103ebc00420620000300200051f20700008fbe00d4
:103ecc00020037006000b800008fbe001e007800b2
:103edc00004078000043b000404798004e409000ee
:103eec000080fa00000006000a00fa003007980073
:103efc00410798003e009000ce009000008fbe005d
:103f0c001e01be009000200001002000800f510017
:103f1c00818f590006003e000002200001002000a5
:103f2c00008fbe001e007800004078006b00370048
:103f3c00f09f2c00a1b923001e01be00800f510080
:103f4c00818f5900050036001e00be0002a02c0017
:103f5c00a3b923003af20700008fbe00f00f2e0029
:103f6c00515f20001e01be00800f5100818f59004f
:103f7c00050036001e00be0002102e00535f20000c
:103f8c002ff20700008fbe00f06729008109200086
:103f9c001e01be00800f5100818f590005003600b4
:103fac001e00be00026829008309200024f20700cd
:103fbc00008fbe00f0232400f10020001e01be0083
:103fcc00800f5100818f5900050036001e00be0085
:103fdc0002242400f300200019f20700008fbe0019
:103fec00f0692800110020001e01be00800f510056
:103ffc00818f5900050036001e00be00026a2800a1
:10400c00130020000ef20700008fbe00f07022009b
:10401c00010020001e01be00800f5100818f59004d
:10402c00050036001e00be000271220003002000b5
:10403c0003f20700008fbe00703e2000010020003c
:10404c001e01be00800f5100818f59000500360003
:10405c001e00be00823e200003002000f8f1070085
:10406c00008fbe0030062000010020001e01be00a3
:10407c00800f5100818f5900050036001e00be00d4
:10408c004206200003002000edf10700008fbe0067
:10409c001e01be009000200001002000800f510086
:1040ac00818f5900060036001e00be00a2002000c1
:1040bc0003002000d2f10700008fbe000200370081
:1040cc006000b800008fbe001e0078000040780031
:1040dc000043b000404798004e4090000080fa002a
:1040ec00000006000a00fa0030079800410798000b
:1040fc003e009000ce009000008fbe00f09f2c0080
:10410c00a1b923001e01be00800f5100818f590000
:10411c00050036001e00be0002a02c00a3b923002f
:10412c00c7f10700008fbe00f00f2e00515f20007a
:10413c001e01be00800f5100818f59000500360012
:10414c001e00be0002102e00535f2000bcf10700c1
:10415c00008fbe00f0672900810920001e01be00ff
:10416c00800f5100818f5900050036001e00be00e3
:10417c000268290083092000b1f10700008fbe00fe
:10418c00f0232400f10020001e01be00800f51001e
:10419c00818f5900050036001e00be000224240049
:1041ac00f3002000a6f10700008fbe00f069280084
:1041bc00110020001e01be00800f5100818f59009c
:1041cc00050036001e00be00026a28001300200005
:1041dc009bf10700008fbe00f07022000100200050
:1041ec001e01be00800f5100818f59000500360062
:1041fc001e00be00027122000300200090f1070097
:10420c00008fbe00703e2000010020001e01be0089
:10421c00800f5100818f5900050036001e00be0032
:10422c00823e20000300200085f10700008fbe00b5
:10423c0030062000010020001e01be00800f51003e
:10424c00818f5900050036001e00be00420620007a
:10425c00030020007af10700008fbe001e01be0093
:10426c009000200001002000800f5100818f590028
:10427c00050036001e00be00a20020000300200036
:10428c006ff10700008fbe001e00be00e00f500053
:10429c00e08f580003003a006000b800008fbe00a9
:1042ac0001003700000000001e007800004078007c
:1042bc000043b000404798004e4090000080fa0048
:0442cc0000000600e8
:020000040000fa
:1042d000000800000a010000000000000a090000b8
:1042e000a600000002000000000000000000000026
:1042f00000000000000000000000000000000000be
:1043000000000000000000000000000000000000ad
:10431000000000000000000000000000000000009d
:10432000000000000000000000000000000000008d
:10433000000000000000000000409c00460000005b
:10434000000000000000000000000000000000006d
:10435000000000000000000000000000000000005d
:10436000000000000000000000000000000000004d
:10437000000000000000000000000000000000003d
:10438000000000000000000000000000000000002d
:10439000000001000000000000000000000000001c
:1043a0000000550000aa000000000000000000000e
:1043b00000000000000000000000050000000000f8
:0c43c000000000000000000000000000f1
:020000040000fa
:1043cc00829fbe00849fbe00869fbe000603200015
:1043dc0045002000f2002000820160004400de0055
:1043ec006918e10001003400e781410006824100b8
:1043fc00841f78008502e900f7ff3a004f0078002f
:10440c00801878004f007800801878004f007800f2
:10441c00801878004f007800801878008100b10077
:10442c004f03be004f02be004f01be00000006004d
:020000040000fa
:0200000400fffb
:10f8000000000000000000000000000000000000f8
:10f8100000000000000000000000000000000000e8
:10f8200000000000000000000000000000000000d8
:10f8300000000000000000000000000000000000c8
:020000040000fa
:0200000400fffb
:10f8400000000000000000000000000000000000b8
:10f8500000000000000000000000000000000000a8
:10f860000000000000000000000000000000000098
:10f870000000000000000000000000000000000088
:020000040000fa
:0200000400fffb
:10f880000000000000000000000000000000000078
:10f890000000000000000000000000000000000068
:10f8a0000000000000000000000000000000000058
:10f8b0000000000000000000000000000000000048
:00000001FF
