:020000040000fa
:080000000001040000000000f3
:020000040000fa
:100200002f8220000eff20000e0188000000000059
:100210000c000700a0b3200001002000110007001f
:10022000000020000000e000020032000000020098
:1002300000000000d0070200000000000040da00cb
:100240000000fe004440a900200120000000e00062
:100250000300320000002000a00188004440a800f4
:100260000000060091018800800078000000eb008b
:1002700015003700e280400032a0b4009101ba00be
:10028000e280400032a0b4009102ba00e280400057
:1002900032a0b4000002eb00472bde00f507b200ed
:1002a000602ce10004003a000059eb008301e900f2
:1002b000fdff3e00040037006128e100010032002c
:1002c0000082eb00040007001101ba000200e00008
:1002d000e8ff3a00000006003159ba008301e90046
:1002e0000c0032002159ba008301e90008003200f5
:1002f0000400e00003003a00e280400032a0b400b5
:10030000f5ff370011d9ba008301e900faff3a007e
:100310008100e800e180400032a0b4000000060047
:080320000040da000000fe00bd
:020000040000fa
:0200000401f009
:04000000febf00003f
:020000040000fa
:0200000401f009
:04000400ff7f00007a
:020000040000fa
:0200000401f009
:04000800fcff0000f9
:020000040000fa
:0200000401f009
:04001400ffff0000ea
:020000040000fa
:1000080090010000900100009001000090010000a4
:100018009001000090010000900100009001000094
:100028009001000090010000900100009001000084
:100038009001000090010000900100009001000074
:1000480090010000620700007c070000900100009a
:100058009001000090010000900100009001000054
:100068008606000090010000900100009001000049
:10007800900100009001000090010000f2060000cd
:100088009001000090010000900100009001000024
:100098009001000090010000900100009001000014
:1000a8009001000090010000900100009001000004
:1000b80090010000900100009001000090010000f4
:1000c80090010000900100009001000090010000e4
:1000d80090010000900100009001000090010000d4
:1000e80090010000900100009001000090010000c4
:0800f8009001000090010000de
:020000040000fa
:1001080090010000900100009001000090010000a3
:100118009001000090010000900100009001000093
:100128009001000090010000900100009001000083
:100138009001000090010000900100009001000073
:1001480090010000620700007c0700009001000099
:100158009001000090010000900100009001000053
:100168008606000090010000900100009001000048
:10017800900100009001000090010000f2060000cc
:100188009001000090010000900100009001000023
:100198009001000090010000900100009001000013
:1001a8009001000090010000900100009001000003
:1001b80090010000900100009001000090010000f3
:1001c80090010000900100009001000090010000e3
:1001d80090010000900100009001000090010000d3
:1001e80090010000900100009001000090010000c3
:0801f8009001000090010000dd
:020000040000fa
:1003280048480000204d00004d20000053530000b5
:1003380000200000203a0000202000003a200000a1
:040348002000000091
:020000040000fa
:10034c000200fa00000f78000040eb0000e8b70054
:10035c000040eb0001e8b7000040eb0002e8b700fa
:10036c000040eb0003e8b700650037003033200095
:10037c009e007800808f50000600360000c8bf0039
:10038c000040e80000e8b700c0cc2f001e0f400072
:10039c005b003700100520009e007800808f500015
:1003ac0013003600303320009e007800808f500000
:1003bc000f003e0001c8bf00e84f500004003c0095
:1003cc0001c8bf000040e80001e8b7000500370095
:1003dc0000c8bf000040e80000e8b7000040eb0098
:1003ec0001e8b700e0fa2f001e0f40004400370070
:1003fc001e007800e80f50001c003600100520008d
:10040c009e007800808f500018003e0002c8bf008c
:10041c00e84f500004003c0002c8bf000040e80058
:10042c0002e8b7000e0037000040eb0002e8b7000e
:10043c0001c8bf00e84f500004003c0001c8bf00d9
:10044c000040e80001e8b7000500370000c8bf0015
:10045c000040e80000e8b7000040eb0001e8b700fe
:10046c001e007800690f5000250037001e00780030
:10047c00e00f5000220032001e007800e80f500000
:10048c001f003e0003c8bf00e84f500004003c00b2
:10049c0003c8bf000040e80003e8b70017003700ae
:1004ac000040eb0003e8b70002c8bf00e84f500063
:1004bc0004003c0002c8bf000040e80002e8b7009e
:1004cc000e0037000040eb0002e8b70001c8bf0087
:1004dc00e84f500004003c0001c8bf000040e80099
:1004ec0001e8b7000500370000c8bf000040e80075
:1004fc0000e8b7000040eb0001e8b7001e0fe90070
:10050c001e007800e00f500098ff3a0000c8bf00b2
:10051c000043b00000e8b70001c8bf000043b000c2
:10052c0001e8b70002c8bf000043b00002e8b70002
:10053c0003c8bf000043b00003e8b7000080fa0016
:10054c00000006000400fa00008fbe000040eb0023
:10055c0004e8b7000040eb0005e8b7000040eb00f2
:10056c0006e8b7000040eb0007e8b7000040eb00de
:10057c0008e8b700b5003700f07022000100200039
:10058c001e01be00800f5100818f590008003600fb
:10059c0004c8bf000040e80004e8b700008f2d003d
:1005ac00f1ff2f001e0f40005e974800a700370098
:1005bc00703e2000010020001e01be00800f510083
:1005cc00818f590017003600f070220001002000c6
:1005dc001e01be00800f5100818f590011003e009a
:1005ec0005c8bf00e84f500004003c0005c8bf0020
:1005fc000040e80005e8b7000500370004c8bf005c
:10060c000040e80004e8b7000040eb0005e8b70044
:10061c0080c12f00f1ff2f001e0f40005e97480095
:10062c008a00370030062000010020001e01be00a9
:10063c00800f5100818f590020003600703e200041
:10064c00010020001e01be00800f5100818f590057
:10065c001a003e0006c8bf00e84f500004003c00e2
:10066c0006c8bf000040e80006e8b7000e003700df
:10067c000040eb0006e8b70005c8bf00e84f50008b
:10068c0004003c0005c8bf000040e80005e8b700c6
:10069c000500370004c8bf000040e80004e8b700bc
:1006ac000040eb0005e8b700c0f92f00f1ff2f0068
:1006bc001e0f40005e974800640037001e01be000c
:1006cc009000200001002000800f5100818f590004
:1006dc002900360030062000010020001e01be005b
:1006ec00800f5100818f590023003e0007c8bf00c6
:1006fc00e84f500004003c0007c8bf000040e80071
:10070c0007e8b700170037000040eb0007e8b70018
:10071c0006c8bf00e84f500004003c0006c8bf00ec
:10072c000040e80006e8b7000e0037000040eb0080
:10073c0006e8b70005c8bf00e84f500004003c00b5
:10074c0005c8bf000040e80005e8b7000500370009
:10075c0004c8bf000040e80004e8b7000040eb000c
:10076c0005e8b70060ff2f00f1ff2f001e0f4000bf
:10077c005e974800350037001e00be00e00f5000a9
:10078c00e08f5800310032001e01be0090002000a6
:10079c0001002000800f5100818f59002b003e007a
:1007ac0008c8bf00e84f500004003c0008c8bf0058
:1007bc000040e80008e8b700200037000040eb00dc
:1007cc0008e8b70007c8bf00e84f500004003c0021
:1007dc0007c8bf000040e80007e8b7001700370063
:1007ec000040eb0007e8b70006c8bf00e84f500018
:1007fc0004003c0006c8bf000040e80006e8b70053
:10080c000e0037000040eb0006e8b70005c8bf003b
:10081c00e84f500004003c0005c8bf000040e80051
:10082c0005e8b7000500370004c8bf000040e80029
:10083c0004e8b7000040eb0005e8b7000080eb00cf
:10084c008080eb001e0f40005e9748001e00be002b
:10085c00e00f5000e08f580047ff3a0004c8bf007b
:10086c000043b00004e8b70005c8bf000043b00067
:10087c0005e8b70006c8bf000043b00006e8b700a3
:10088c0007c8bf000043b00007e8b70008c8bf00a6
:10089c000043b00008e8b7000080fa000000060032
:1008ac000400fa00204798002e409000004f78007a
:1008bc00e116800000ff2f00808060001e41780050
:1008cc000280fb004400de00004078000080fb004a
:1008dc006f00600000807000e0168800c116800078
:1008ec0000ff2f0000806000c0168800ca22a900fb
:1008fc00ca42a8004001200001002000ef000700c0
:10090c00ca42a9004001200001002000eb000700b2
:10091c00e116800000ff2f00808060002e409000c8
:10092c000080fb006f00600000807000e016880003
:10093c00ca22a900ca42a8004001200001002000e0
:10094c00de000700ca42a900c0168000f000b30008
:10095c00c01688000080fa00000006000200fa00b1
:10096c00004f78000071220001002000d300070026
:10097c00ca02a9001e407800c9ff07000080fa00d7
:10098c00000006000200fa00004f780000712200ff
:10099c0001002000c9000700ca02a8001e40780010
:1009ac00bfff07000080fa00000006000200fa00fa
:1009bc00004f78001e407800f2ff07000080fa001c
:1009cc00000006000200fa00004f78001147980062
:1009dc0000c8b3001e407000804078001e4090009c
:1009ec000080fb004600dd000040780000c0700075
:1009fc00daff07000080fa00000006000a00fa0087
:100a0c0030079800014f9800124f9800a0802000ea
:100a1c00000f78009e0078003e009000f602070060
:100a2c009e4890000e489000e6ff07000000eb0087
:100a3c00100798000d0037001e0078009000780019
:100a4c00210798001e8fe8001e009000e10f500057
:100a5c00030034002e00900000407800d3ff070004
:100a6c001e0090000000e800100798001e00900087
:100a7c00e30f5000f0ff34000080fa000000060085
:100a8c000600fa001007980041479800524798005a
:100a9c000040eb00004f7800de4090004e4090008c
:100aac00c8ff0700070037009e4078000180fb005c
:100abc009e0090000080400010407800bbff0700b3
:100acc001e4fe8009e4078000180fb009e009000c5
:100adc000080400010407800e04f5000f2ff3a00d8
:100aec000080fa00000006000400fa00000f7800f5
:100afc0021479800324798001e007800e00f500004
:100b0c0001003d001e0fea001e007800cf80de00c1
:100b1c008cfe070005c8bf00a4ff070006c8bf0075
:100b2c00a2ff070007c8bf00a0ff070008c8bf004e
:100b3c009eff07000080fa00000006000000fa008b
:100b4c00f0ff2f00010020005c000700f0ff2f00d9
:100b5c000100200059000700f0ff2f0001002000c9
:100b6c0056000700f0ff2f00010020005300070083
:100b7c00e116800000ff2f00008060003000b30001
:100b8c00e0168800c116800000ff2f000080600076
:100b9c00c0168800ca22a900ca42a8004001200041
:100bac000100200045000700ca42a900f0ff2f00f9
:100bbc000100200041000700e116800000ff2f001b
:100bcc00008060003000b300e0168800ca42a80024
:100bdc00400120000100200038000700ca42a90093
:100bec00e116800000ff2f00008060003000b30091
:100bfc00e0168800c116800000ff2f000080600006
:100c0c00c0168800ca22a900500020000100200054
:100c1c002a000700ca42a800400120000100200061
:100c2c0026000700ca42a90000192000010020007c
:100c3c0022000700e116800000ff2f0000806000fa
:100c4c000010a000e0168800ca42a8004001200055
:100c5c000100200019000700ca42a90080c2b3009d
:100c6c003eff070060c0b3003cff0700c0c0b300ec
:100c7c003aff070010c0b30038ff070000c8b300ec
:100c8c0036ff07000080fa00000006000000fa00a2
:100c9c0020c0b30031ff07000080fa0000000600fe
:100cac000000fa0020c0b3002cff070010c0b300f6
:100cbc002aff07000080fa00000006000400fa007a
:100ccc00008fbe00000000001e0090001e0070008f
:100cdc008000ea00008070004f00de0000407800c9
:100cec000081eb008081eb001e0f41005e974900f4
:100cfc00e04f5000f4ff3a000080fa0000000600bc
:100d0c003600f800809fbe00829fbe00849fbe000c
:100d1c00869fbe003400f80000002000a00188006f
:100d2c000400fa008600a90013c8bf0030479800e1
:100d3c003e4090006f4f60003e4090000080fb00f2
:100d4c004400de00104798001e407800e94f500028
:100d5c00060036001e4090000040e8001047980046
:100d6c000040eb00004f7800010037001e4fe800f8
:100d7c001e4090006a00b900000078000040780026
:100d8c001e40400020479800ae409000b0c3b30016
:100d9c0080cf5000040036000040eb0013e8b70091
:100dac000040eb00204798002e4090009c0107006b
:100dbc000040eb007f0107000080fa003400f900ce
:100dcc004f03be004f02be004f01be004f00be00dd
:100ddc003600f900004006003600f800809fbe0087
:100dec00829fbe00849fbe00869fbe003400f80028
:100dfc0000002000a00188000400fa0086e0a90091
:100e0c0014c8bf00304798003e4090006f4f600000
:100e1c003e4090000080fb004400de000040780063
:100e2c0063406000104798001e407800e94f500066
:100e3c00060036001e4090000040e8001047980065
:100e4c000040eb00004f7800010037001e4fe80017
:100e5c001e4090006a00b900000078000040780045
:100e6c001e404000204798002e409000f74f500045
:100e7c00020036000040eb002047980091812000d2
:100e8c009140780018c8bf0001417800804078007c
:100e9c002e4090007d0107000080fa003400f9001c
:100eac004f03be004f02be004f01be004f00be00fc
:100ebc003600f90000400600801f78003400f8006e
:100ecc0000002000a00188000000fa008520a90085
:100edc00901080000040780020e8b7000080fa00f5
:100eec003400f9004f007800004006003400f80090
:100efc00881f780008002000a80188004f047800a3
:100f0c000000fa008540a9000080fa003400f900c6
:100f1c00004006000400fa0000c8b300fd00070002
:100f2c000074a10012e8b70020c8b300f900070054
:100f3c000074a10013e8b70040c8b300f500070027
:100f4c00004f78001e407800104798009e4090009b
:100f5c00214798009e4078000180fb004700de008e
:100f6c000040780019e8b7002e4090000080fb008c
:100f7c004500de00004078006140600018e8b700d2
:100f8c001e409000f043b20014e8b7000080fa0055
:100f9c00000006000000fa000000eb00c0168800fc
:100fac000000eb00301688003000200090168800fe
:100fbc000080eb00401588002b0007004100070063
:100fcc00defe0700df00070035ff07000041eb00e5
:100fdc008040eb0040192800a9fe070012c0b300a6
:100fec008040eb00d0192800a5fe0700dd02a90007
:100ffc000100370000000000c6ff070014c8bf0046
:10100c000080fb0012c0b3008040eb007bfe0700a9
:10101c0013c8bf000080fb0012c0b30031c0b30086
:10102c0076fe070012c8bf000080fb0012c0b300a0
:10103c0061c0b30071fe07001000200035000700ee
:10104c0014c8bf00e94f500002003a00dd02a800ae
:10105c00e9ff370014c8bf00f84f5000e5ff3a0015
:10106c00dd02a900e4ff37000000fa000c02a90021
:10107c006110800090ff2f000080600060108800dd
:10108c000ca2a90070062000a0108800711080002e
:10109c00f0f32f0000806000701088000fe2a800b1
:1010ac000d42a8000de2a8000f42a8008540a9003f
:1010bc008520a9008d40a8008d20a8000080fa0092
:1010cc00000006000000fa008e00a800e104800079
:1010dc0080ff2f00008060003000b300e004880027
:1010ec008600a9008220a9008ee0a800f1048000ef
:1010fc00f0ff280080806000000024000080700059
:10110c00f004880086e0a9008220a9000080fa0083
:10111c00000006000400fa001007980009003700d0
:10112c000000eb00000f7800020037000060fe00aa
:10113c001e0fe800e01320009e007800808f500006
:10114c00faff36001e0090008000ea001e0090009e
:10115c00008070004f00de00004078009e00900080
:10116c008100e90011079800e04f5000ecff3a00b5
:10117c000080fa00000006000200fa00000f780060
:10118c00000000001e00ea001e0070004f00de0090
:10119c00004078001e0fe900e04f5000f9ff3a00c4
:1011ac000080fa00000006000200fa000040eb008c
:1011bc00004f78000040eb001047980016003700f5
:1011cc00c682a8004016800070006000e00f50003e
:1011dc000300320000c8b3001e4f7000010037003e
:1011ec001e74a1009e4078000180fb000000d1001d
:1011fc00004f7800c682a900ca62a8002003200014
:10120c00ddff0700ca62a900ca82a8001e40900038
:10121c000040e800104798001e409000e74f500037
:10122c00e7ff34001e4078000080fa000000060042
:10123c000000fa00ca62a900caa2a900caa2a800aa
:10124c0020032000ccff07000080fa0000000600fd
:10125c000000fa0020032000c7ff0700ca62a900a3
:10126c00caa2a900caa2a8000080fa0000000600c9
:10127c000400fa00204798000040eb00004f780073
:10128c0013003700ca82a9002e4090000080fb009a
:10129c006100600000407800e04f50000200320016
:1012ac00ca82a80001003700ca82a9002e40900013
:1012bc000080fb000000d10020479800ca62a90002
:1012cc0020032000acff0700ca62a8001e4fe800f4
:1012dc001e407800e74f5000eaff36000080fa000d
:1012ec00000006000200fa00004f78001147980039
:1012fc00cfff0700e0cfb3001e406000dcff07000b
:10130c001e409000daff0700d1ff07000080fa00b2
:10131c00000006000400fa0020479800c4ff0700f4
:10132c002e4090000004a000d1ff07009eff070094
:10133c00004f7800c6ff07001e4078000080fa00be
:10134c00000006000200fa008040eb00e0c8b30089
:10135c00e4ff070051cab30000c9b300e1ff070066
:10136c0000c8b300ebff0700004f78001e40780068
:10137c000074a1008040780000c8b300d9ff0700ba
:10138c000080fa00000006000000fa000040eb00ac
:10139c00080007000040eb002100070012c0b3005a
:1013ac008040eb00c0c0b300380007000080fa009a
:1013bc00000006000600fa00404798004e409000de
:1013cc008080fb00a00020000001780011000900c3
:1013dc008280d800004f78001e4078006a00b90067
:1013ec000000780010479800ce4090001e409000fe
:1013fc0000c05000204798001e407800410020009b
:10140c008100dd002e40900000c04000804078003c
:10141c0000c8b300b3ff07000080fa00000006000c
:10142c000600fa00404798004e4090008080fb0078
:10143c00a000200000017800110009008280d80073
:10144c00004f78001e4078006a00b9000000780058
:10145c0010479800ce4090001e40900000c05000f5
:10146c00204798001e407800410020008100dd00dc
:10147c002e40900000c040008040780020c8b3008f
:10148c0098ff07000080fa00000006000800fa0030
:10149c004047980051479800624798004e40900092
:1014ac008080fb00a00020000001780011000900e2
:1014bc008280d800004f78001e4078006a00b90086
:1014cc000000780010479800ce4090001e4090001d
:1014dc0000c05000204798001e40780041002000ba
:1014ec008100dd002e40900000c0400010479800a5
:1014fc009e40900040c8b3007aff07000080fa00bd
:10150c00000006000600fa00404798004e4090008c
:10151c008080fb00a0002000000178001100090071
:10152c008280d800004f78001e4078006a00b90015
:10153c000000780010479800ce4090001e409000ac
:10154c0000c05000204798001e4078004100200049
:10155c008100dd002e40900000c040001047980034
:10156c009e40900040c8b3005eff07000080fa0068
:10157c00000006000000fa000040eb0012e8b70083
:10158c000040eb0013e8b7000040eb0014e8b70094
:10159c000040eb0018e8b7000040eb0019e8b7007a
:1015ac0012c8bf0083ff070013c8bf009cff0700d1
:1015bc0092812000124178008181200091407800b6
:1015cc0014c8bf00b1ff07000080fa00000006003d
:1015dc000200fa0016ff070010c8b30024ff070032
:1015ec00f1fe0700004f780019ff07001e4078003d
:1015fc000080fa0000000600829fbe00849fbe009f
:10160c00869fbe000603200045002000f20020004b
:10161c00820160004400de006918e1000100340022
:10162c00e781410006824100841f78008502e900b1
:10163c00f7ff3a004f007800801878004f007800d0
:10164c00801878004f007800801878004f007800e0
:10165c00801878008100b1004f03be004f02be001d
:08166c004f01be000000060062
:020000040000fa
:101674000008000020000000000000002008000016
:101684000200000002000000ff0000000000000053
:00000001FF
