:020000040000fa
:080000000001040000000000f3
:020000040000fa
:10020000af8420000eff20000e01880000000000d7
:100210000c000700408920000100200011000700a9
:10022000000020000000e000020032000000020098
:100230000000000008040200000000000040da0096
:100240000000fe004440a900000020000000e00083
:100250000300320000002000a00188004440a800f4
:100260000000060091018800800078000000eb008b
:1002700015003700e280400032a0b4009101ba00be
:10028000e280400032a0b4009102ba00e280400057
:1002900032a0b4000002eb00472bde00f507b200ed
:1002a000602ce10004003a000059eb008301e900f2
:1002b000fdff3e00040037006128e100010032002c
:1002c0000082eb00040007001101ba000200e00008
:1002d000e8ff3a00000006003159ba008301e90046
:1002e0000c0032002159ba008301e90008003200f5
:1002f0000400e00003003a00e280400032a0b400b5
:10030000f5ff370011d9ba008301e900faff3a007e
:100310008100e800e180400032a0b4000000060047
:1003200000000000000000000040da000000fe00b5
:100330000080fb00000040000128200061007800e0
:1003400000000600500888000000060061016100fe
:10035000530e80000300a10082817100530e8800bb
:100360000000e90000004000621d2000013178001b
:100370000000060088e0a9008960a900e70160008c
:10038000cc19dd0032058000f1ff28000101610079
:100390000301710032058800000178000207b200f5
:1003a0004811dd004305800081806100828070007b
:1003b00041058800680160004311de0061016100b1
:1003c0004711dd00810480000170a100828070006f
:1003d000810488000008b2004700de006100600070
:1003e0004b00dd008104800001b0a100808070001e
:1003f0008104880000000600200e8800310e88006d
:10040000430e8800540e8800020e8800000006008b
:1004100030158800000006008560a90067016000b3
:100420004c11dd00c3048000f1ff280081806100d1
:1004300082807000c104880068006000c300de0094
:10044000e1806000cb08dd006004800000b0a10006
:100450000100700060048800000006004315880059
:100460005415880022158800111588000015880091
:1004700062006000011580000110a1008080700002
:10048000011588000000060084e0a90067016000f3
:100490004c11dd00b3048000f1ff28008180610071
:1004a00082807000b104880068006000c300de0034
:1004b000e1806000c708dd00600480000070a100da
:1004c0000100700060048800000006000a21ef00af
:0c04d000710888009008880000000600f9
:020000040000fa
:0200000401f009
:04000000febf00003f
:020000040000fa
:0200000401f009
:04000400ff7f00007a
:020000040000fa
:0200000401f009
:04000800fcff0000f9
:020000040000fa
:0200000401f009
:04001400ffff0000ea
:020000040000fa
:100008009401000094010000940100009401000094
:100018009401000094010000940100009401000084
:100028009401000094010000940100009401000074
:1000380094010000940100009401000056030000a0
:10004800940100009401000094010000de02000009
:100058009401000094010000940100009401000044
:1000680094010000ba020000cc02000094010000d4
:100078009401000094010000940100009401000024
:100088009401000094010000940100009401000014
:100098009401000094010000940100009401000004
:1000a80094010000940100009401000094010000f4
:1000b80094010000940100009401000094010000e4
:1000c80094010000940100009401000094010000d4
:1000d80094010000940100009401000094010000c4
:1000e80094010000940100009401000094010000b4
:0800f8009401000094010000d6
:020000040000fa
:100108009401000094010000940100009401000093
:100118009401000094010000940100009401000083
:100128009401000094010000940100009401000073
:10013800940100009401000094010000560300009f
:10014800940100009401000094010000de02000008
:100158009401000094010000940100009401000043
:1001680094010000ba020000cc02000094010000d3
:100178009401000094010000940100009401000023
:100188009401000094010000940100009401000013
:100198009401000094010000940100009401000003
:1001a80094010000940100009401000094010000f3
:1001b80094010000940100009401000094010000e3
:1001c80094010000940100009401000094010000d3
:1001d80094010000940100009401000094010000c3
:1001e80094010000940100009401000094010000b3
:0801f8009401000094010000d5
:020000040000fa
:1004dc000200fa00881f7800004f78000044eb00ff
:1004ec0009003700000000000000000000000000c0
:1004fc0000000000000000000000000000000000f0
:10050c00000000000844e8009e4f5400f5ff39003d
:10051c004f0478000080fa00000006000200fa0088
:10052c00881f7800000f78000004eb0009003700ea
:10053c00a0cfb300e6ff0700a0cfb300e4ff070095
:10054c00a0cfb300e2ff0700a0cfb300e0ff07008d
:10055c000804e8009e0f5400f5ff39004f047800a2
:10056c000080fa00000006003400f800881f7800b4
:10057c0008002000a80188004f0478000000fa0051
:10058c000080fa003400f900004006003400f80046
:10059c00881f780008002000a80188004f0478000c
:1005ac000000fa000080fa003400f9000040060058
:1005bc003600f800809fbe00829fbe00849fbe0064
:1005cc00869fbe003400f80000002000a0018800c7
:1005dc000000fa000000eb001040880010c0b300cf
:1005ec0050ff070020408800004080000000e80019
:1005fc0000408800314080001040800000804000a6
:10060c003040880041408000204080000080400045
:10061c004040880000408000f40f500017003a0062
:10062c0031408000400120000001780011000900d9
:10063c008200d800cf80de00a28020000089be009e
:10064c000000eb0030408800414080004001200059
:10065c0000017800110009008200d800cf80de0074
:10066c00a280200020019800310198000000eb00ce
:10067c00404088000000eb00004088008560a90025
:10068c000080fa003400f9004f03be004f02be0098
:10069c004f01be004f00be003600f90000400600be
:1006ac003600f800809fbe00829fbe00849fbe0073
:1006bc00869fbe003400f80000002000a0018800d6
:1006cc000200fa000040eb00004f78000000eb0045
:1006dc0019ff070084e0a9006602070000428000b1
:1006ec000000e8000042880000428000e90f500042
:1006fc00050036000000eb0000428800104280002c
:10070c000000e8001042880010428000e90f500001
:10071c00060036000000eb001042880020428000ea
:10072c000000e800204288002102070020428000df
:10073c00e90f50000b0036000000eb00204288004f
:10074c00304280000000e800304288001dc8bf0025
:10075c00e14f500003003a0048c8bf000040e800d9
:10076c0048e8b700d70007001dc8bf00e14f500094
:10077c0015003a0001428000500020000001780072
:10078c00110009008280d8008000fd00004f780025
:10079c001e407800e24f500002003600da22a90019
:1007ac0001003700da22a80048c8bf00e24f500011
:1007bc000c0036000040eb0048e8b70010c0b30056
:1007cc001ee8b700070037000040eb00004f780030
:1007dc00da22a9000040eb0048e8b7000040eb002b
:1007ec001ee8b7000080fa003400f9004f03be0089
:1007fc004f02be004f01be004f00be003600f90094
:10080c00004006000000fa00140007002400070056
:10081c00204b2000000001000040eb008f0007007f
:10082c000041eb008000eb0020002000c4fe07001c
:10083c000041eb008000eb0030002000c0fe070000
:10084c004f000700b9000700fe0007004801070031
:10085c0038010700e8010700f9ff37000000fa0033
:10086c00a802a800a822a800a842a800a862a80074
:10087c00a882a800a8a2a8000080eb00301688006f
:10088c000080eb00601688000000eb0090168800da
:10089c0040002000c01688000080fa00000006000e
:1008ac000a00fa0000f02f00affe07000041eb0039
:1008bc008000eb0010002000a1fe07000041eb00bf
:1008cc008000eb00200020009dfe07000041eb00a3
:1008dc008000eb003000200099fe0700f0ff27009d
:1008ec00000f78000000eb001007980000002800b3
:1008fc002007980080fe2000300798002000200080
:10090c00400798004e029000be0190002e0190000e
:10091c009e0090001e007800b4fe07000080fa00d4
:10092c00000006000000fa0000fe2f00b5fe0700d4
:10093c00e0ff2f00b5fe07000082eb00d3ff2f0075
:10094c00f2052e0081cc2000f0cf2d00c0fe070058
:10095c000080fa00000006000000fa00b0ff2f0033
:10096c00c6fe07000000eb0073fe070001e8230041
:10097c00d0f82f00d2fe07000080fa00000006001d
:10098c000000fa004016800064006000e00f500088
:10099c00100032000000eb00e0418800f1418000c3
:1009ac0030062000808f50000600360010c0b300c7
:1009bc002a000700d422a90010c0b30018e8b70021
:1009cc0024003700f04180000000e800f04188006e
:1009dc00200037004016800068006000e00f5000d7
:1009ec00160032000000eb00f041880020c8bf0068
:1009fc00e04f50000e003a00e1418000300620002c
:100a0c00808f50000600360010c0b30013000700a2
:100a1c00d422a80010c0b30018e8b7000d003700ae
:100a2c00e04180000000e800e04188000900370048
:100a3c000040eb0009000700060037000000eb0047
:100a4c00f04188000000eb00e04188000040eb0022
:100a5c0018e8b7000080fa00000006000400fa0055
:100a6c00204798000040eb00004f78002e4090008b
:100a7c00e14f500009003a00d402a9000040eb00fd
:100a8c00004f7800010037001e4fe8001e40780030
:100a9c00ea4f5000fcff360008003700d402a800d3
:100aac000040eb00004f7800010037001e4fe800bb
:100abc001e407800ea4f5000fcff36000080fa0020
:100acc00000006000000fa00d04180000000e800a1
:100adc00d041880018c8bf00e14f5000030032001d
:100aec0028c8bf00e14f500009003a00d0418000f7
:100afc00e10f500002003a00da02a80009003700aa
:100b0c000000eb00d0418800da02a9000500370094
:100b1c00da02a9000000eb00d04188000040eb0095
:100b2c00ceff07000080fa00000006000000fa006b
:100b3c004016800070006000e00f50001a00320078
:100b4c000000eb00b041880022c8bf00e04f50000d
:100b5c000b003a00c0418000fd0f5000040036002d
:100b6c00db02a80010c0b30019e8b700330037004f
:100b7c00c04180000000e800c04188002f00370011
:100b8c000000eb0020418800204180000041eb0078
:100b9c008000780020002000e9fd07000040eb00f9
:100bac0019e8b7002500370041168000000220002c
:100bbc0000806000e00f50001a0032000000eb00d3
:100bcc00c041880021c8bf00e04f50000b003a0024
:100bdc00b0418000fd0f500004003600db02a9007c
:100bec0010c0b30019e8b70014003700b041800002
:100bfc000000e800b0418800100037000000eb0056
:100c0c0020418800204180000041eb0080007800ea
:100c1c0020002000cafd07000040eb0019e8b700d7
:100c2c00060037000000eb00c04188000000eb001c
:100c3c00b04188000040eb0019e8b7000080fa00d2
:100c4c00000006000200fa000000eb00000f780024
:100c5c0019c8bf00e14f50000300320023c8bf0089
:100c6c00e14f50000f003a002141800000002200ab
:100c7c00808f500003003e00204180000000e800ff
:100c8c002041880021418000f0ff210000804000bd
:100c9c000041eb008000780020002000a8fd070038
:100cac000b00370020418000e00f500003003200a1
:100cbc00204180000000e900204188002041800094
:100ccc000041eb0080007800200020009cfd070014
:100cdc000080fa00000006000000fa0040168000b8
:100cec0061006000e00f50000c0032000000eb00cf
:100cfc008041880090418000fd0f500003003600b9
:100d0c0010c0b3001be8b70008003700904180000a
:100d1c000000e80090418800040037000000eb0060
:100d2c00904188000000eb00804188000080fa00b0
:100d3c00000006000000fa001ac8bf00e14f500086
:100d4c0005003a000041eb00f1ff210030002000cb
:100d5c007bfd0700040037000041eb008000eb0036
:100d6c003000200076fd07000080fa00000006002d
:100d7c000000fa001bc8bf000080fb00cf80de0023
:100d8c006200200003002000820f5000838f580067
:100d9c007a003e0000600100060037000b003700af
:100dac001f00370026003700380037006e00370070
:100dbc00740037000040eb002ee8b700c6ff0700b8
:100dcc000040eb001fe8b70077003700da82a8007c
:100ddc002ec8bf00e04f500007003a0010c0b3000f
:100dec002ee8b70010c0b3001ae8b70010c0b3006b
:100dfc001ce8b7006c0037001cc8bf00e04f500067
:100e0c0062003a000040eb002ee8b7000040eb0017
:100e1c001ae8b70020c0b3001be8b7006200370027
:100e2c0010c0b3001de8b7001ec8bf00e14f500052
:100e3c0058003a0030c0b3001be8b7005a00370026
:100e4c00da82a9002ec8bf00e04f500005003a001e
:100e5c0010c0b3002ee8b70010c0b3001ae8b700fa
:100e6c00510037001fc8bf00e14f50004b003a0043
:100e7c000040eb002ee8b7000040eb001ae8b7008a
:100e8c0040c0b3001be8b700470037002ec8bf00b6
:100e9c00e04f50000f003a0010c0b3002ee8b7002e
:100eac0010c0b300edfe0700d422a80020c0b30090
:100ebc0087fd0700db02a90020c0b30084fd0700fa
:100ecc0010c0b30028e8b70010c0b30023e8b70087
:100edc003500370020c8bf00e14f500004003a0035
:100eec000040eb0028e8b7000040eb00dbfe0700f9
:100efc0021c8bf00e14f500009003a000040eb0050
:100f0c0023e8b7000000eb0020418800204180005e
:100f1c000041eb00800078002000200008fd070055
:100f2c0028c8bf000080fb000000e9004f00de0075
:100f3c008040780023c8bf000080fb000000e9005f
:100f4c004f00de000040780000c06000e04f500011
:100f5c00140032000040eb002ee8b70050c0b30084
:100f6c001be8b700100037000040eb001de8b7008d
:100f7c000040eb001be8b7000b003700000000003e
:100f8c0009003700000000000700370000000000d7
:100f9c0005003700000000000300370000000000cf
:100fac0001003700000000000080fa00000006007d
:100fbc000000fa001cc8bf00e14f50000c003a00c2
:100fcc002dc8bf000040e8002de8b700d1822000fa
:100fdc009140780000c4b30080cf5000040034006e
:100fec000040eb002de8b7000040eb001ce8b70018
:100ffc000080fa00000006000000fa004016800095
:10100c0062006000e00f50000d003200da82a9008f
:10101c0050418000fd0f5000050036000041eb00f0
:10102c00f1ff210030002000c5fc07000f00370045
:10103c00504180000000e800504188000b00370050
:10104c000000eb00504188002cc8bf00e14f50005d
:10105c0006003a000040eb002ce8b7000041eb0022
:10106c008000eb0030002000b5fc07000080fa0087
:10107c00000006000000fa00711680000000280035
:10108c0000806000e00f50000300320010c0b3007d
:10109c001fe8b700020037000040eb001fe8b70064
:1010ac00711680000000220000806000e00f5000ec
:1010bc000300320010c0b30020e8b7000200370074
:1010cc000040eb0020e8b7007116800000002400ff
:1010dc0000806000e00f50000300320010c0b3002d
:1010ec0021e8b700020037000040eb0021e8b70010
:1010fc00d016800064006000e00f50000300320046
:10110c0010c0b30022e8b700020037000040eb002b
:0c111c0022e8b7000080fa000000060086
:020000040000fa
:10112800260800002400000000000000000800005d
:10113800260000000200000000000000000000007f
:101148000000000000000000000000000000000097
:101158000000ff003fff4f000000000000000000fb
:101168000000000000000000000000000000000077
:00000001FF
