:020000040000fa
:080000000001040000000000f3
:020000040000fa
:100200008fa420000eff20000e01880000000000d7
:100210000c000700002f2200010020001100070041
:10022000000020000000e000020032000000020098
:1002300000000000f2210200000000000040da008f
:100240000000fe004440a900400620000000e0003d
:100250000300320000002000a00188004440a800f4
:100260000000060091018800800078000000eb008b
:1002700015003700e280400032a0b4009101ba00be
:10028000e280400032a0b4009102ba00e280400057
:1002900032a0b4000002eb00472bde00f507b200ed
:1002a000602ce10004003a000059eb008301e900f2
:1002b000fdff3e00040037006128e100010032002c
:1002c0000082eb00040007001101ba000200e00008
:1002d000e8ff3a00000006003159ba008301e90046
:1002e0000c0032002159ba008301e90008003200f5
:1002f0000400e00003003a00e280400032a0b400b5
:10030000f5ff370011d9ba008301e900faff3a007e
:100310008100e800e180400032a0b4000000060047
:100320000040da000000fe0000c0da000000060015
:100330000a00fa00e20f500021003e003052800017
:10034000e10f5000060032000500200004002000ec
:100350000300200000002000e08f520004003a005b
:100360004521200004212000e3202000c02020009f
:10037000060028009003630002003a00870a780014
:1003800010087300004020001300600001003a00d4
:1003900013a0a00002007800060037009302780046
:1003a0000510b200fdff3200b102fb00050a780023
:1003b0000000e900e00f5000f8ff3a0008003700a5
:1003c00033002000b3bf9f00c0bf9f00d1bf9f007c
:1003d000e2bf9f006a805700d3ff07006fb9970004
:1003e000020078000080fa0000000600889fbe002e
:1003f0008a9fbe008c1f7800da000700e1003300fe
:1004000003866c006450e100240032006420e100a7
:10041000270032006150e100220032006120e1003b
:10042000210032008b854200eb07b1000134b80097
:10043000003ab8000804420089844a00013ab80032
:100440000030b8008880400009014a0004003300f1
:100450000000400081804800020149008b05e9004e
:10046000c909dd0083017000010032001300200083
:10047000c814de004814dd004709de001200b20097
:10048000c808de0008847000ce00070001f0a1005b
:100490000cf0a70001f0a000c30037006120e100cc
:1004a000c50032000801be000200be00f7ff3700a1
:1004b0006150e100fcff3a00bf00370003f0a200ea
:1004c000889fbe008a9fbe008c1f7800a500070091
:1004d000ac0033006450e1004f0032006420e100c2
:1004e0005200320003826c0007003b000905d00077
:1004f0000306d000820f54000c065d000200390094
:1005000002003200890178000306780085825500d8
:1005100004003d000003fd008103fd008502ea00a8
:100520008b854200840f720002003b0060001000c7
:10053000e08018006011b8000005eb007a28e100a7
:100540000a00390006007800c75ddd00f707b20039
:10055000878075002d003700828171000a017800c4
:10056000610560008180d1000080d3008502e90030
:10057000f9ff3b00060440008784480002003b006e
:1005800060041400e0841c000988a3000700320006
:100590008a81710082817100610164008904d10047
:1005a0000884d3008b05e800170037000978a30002
:1005b00013003a000b00e000130034008b05e90043
:1005c0000804440089844c000a4474000978a3009c
:1005d0000d003a000b00e000070034008b05e90035
:1005e0000804440089844c0001003a000b002000fc
:1005f0000978a300f7ff32000001eb00020037008a
:10060000828171000a0178006e0007000cf0a700db
:1006100001f0a000640037006420e10002003a000d
:10062000838f6c00640033000801be000200be002e
:100630005d003700f4ff2f00880037001400200011
:1006400086003700a000070092bd2500e3ed2300df
:1006500066ff3700889fbe008a9fbe008c1f78000f
:10066000400007004700330003866c006450e1003f
:100670002e0032006420e100330032006150e100be
:100680002f0032006120e1003100320085855500e5
:10069000eb07b00009002000080420000500370027
:1006a0000804440089844c000a003100060343001a
:1006b00087834b000001530081815b00f8ff33000a
:1006c0000203be000800a0000804440089844c0016
:1006d000f6ff3900c639dd008301730001003200e6
:1006e000130020008904d1000884d3000998a300d6
:1006f000050032000800a7000300a0008904d10013
:100700000884d3008b05e8008904d1000884d30055
:100710000001eb000281d2002a00070001f0a100d5
:100720000cf0a70001f0a0001f0037006420e100da
:10073000210032000801be000200be00f7ff3700b2
:100740006120e1001c0032006000b800f3ff3700b8
:100750000000200001f82700f0ff37006011b8000a
:10076000b00037000004be00dd0007000003be003b
:100770000405be000200be00d9000700844f7500ca
:10078000000006000200be006450e10005003600d3
:100790006420e100020036000968a30001003a006d
:1007a0000800be000160a0004f0678004f05be00a3
:1007b0004f04be0000000600f0ff2f00f1ff2700ed
:1007c000f9ff370081002000618055000b003d00db
:1007d0000b00200061fe2f000100e1001d0034002d
:1007e00082817100610164008904d1000884d30012
:1007f0000000e800faff3a00710020006100640088
:10080000030070000200600009003200610444002f
:10081000e0844c000988a500050032008b05e80043
:100820006808e10002003a008904d1000884d3007e
:10083000f20f20000258e10005003d00c75ddd0019
:10084000f907b200898075000800780000000600f2
:100850000bf827008b00780000000500889fbe0081
:100860008a9fbe00841f7800beff07004f007800fb
:1008700011003300f0ff2f00838f6c0006003b0057
:10088000040565000a00a7000800370009f0a6006b
:100890001000200008003700820f5400838f5c0096
:1008a000030039001000200001003e00000020007d
:1008b00009f0a7000000ea004f05be004f04be008b
:1008c0000000e00000000600889fbe008a9fbe0076
:1008d0008c9fbe0097000700850478000005be00cd
:1008e0006420e10049003e006220e1000300320084
:1008f000090035000bf8a300440032000bf8a300f8
:10090000080032001002200000408800f0ff2f0095
:10091000f1ff27003d00370001f82f000000200004
:100920003a0037003d000700e4fe07000006be0065
:100930000a00be00324f200053f323003dff0700a2
:10094000060034000c00be0034000700dbfe070088
:100950000006be000a00be00020037008904e9005c
:100960000c00be002d000700a0fe07002b000700b2
:10097000d3fe07000001be000c00be0035ff0700db
:100980000005be000001be0098fe07000006be0084
:10099000a2f32300430d2c00c9fe0700809fbe0078
:1009a0000c00be00d2e32700d3f02b008ffe07001f
:1009b0004f01be0027ff07000006be000a01be006f
:1009c0008afe07000a01be00bdfe07000006be0049
:1009d0006148b900640007000005be003208280025
:1009e000e3952b0081fe07000c01be00b4fe07005a
:1009f0000006be000a00be000200280013f3230018
:100a00007afe07000c01be00adfe07004f06be00d7
:100a10004f05be004f04be000000060003f0230097
:100a200002000500889fbe008a9fbe000082700001
:100a30000402710004827100260032000004be002e
:100a40000200be006011b8006b0920009502200072
:100a50000182cf000a0039000541b1000082cf00b9
:100a6000070039000541b1000982cf0004003900b8
:100a70000541b1000882cf00010039000541b100f5
:100a800005425200120032000a003b0082817100d0
:100a9000610164008100d1000080d3008984d3000b
:100aa0000884d3008b05e8000442e800f7ff3a0011
:100ab000070037000804440089844c000000480007
:100ac000818048008b05e9000442e900f9ff3a0003
:100ad0003cff07004f05be004f04be0000000600ab
:100ae000c70ade00f107b200f50fb20008003200bd
:100af000e1cf4200020032000170a0002400050096
:100b0000810f700001003200040805004400050058
:100b1000810f700002003a00140005008502e90010
:100b20000000400081c04800fcff3b000170a000b5
:100b3000240005000003be00e9ff07006220e10079
:100b4000020032000600be0005000500e507b10006
:100b5000f107b20004f023008480700007f0a700c2
:100b600001f0a000240005004f89de00820178001a
:100b700000003700881f7800030478000300e000bd
:100b800007003d0060001000e080180060011900bf
:100b9000e081190002003b0001f02d000300370046
:100ba000a0ff070008f0a70001f0a0004f047800a4
:100bb000000006002800fa00889fbe008a9fbe0041
:100bc0008c9fbe0003866b00270307000028a3004c
:100bd00064003a000128a30067003a000008a3005f
:100be00062003a000108a30065003a001e00900070
:100bf000be08900081064000ed3fb100f480570030
:100c0000ee019000111ab8008e099000311bb80057
:100c10009e099000311cb800511db800f4855700a2
:100c200046000700fe0190003a0007008b85e800af
:100c30003e0007008e09900040000700ee01900082
:100c4000340007008b85e800380007008e0990000b
:100c5000400007009e0990001b18b800890440005e
:100c60000a854800fe019000340007008b85e800eb
:100c700038000700ee019000300007008e09900058
:100c80001b18b800890440000a8548000a98a30090
:100c900008003a000402420085824a0006034b0025
:100ca00087834b0008044c0089844c000a054d00e2
:100cb0008d06e90084827200850273004c3add00e3
:100cc000850272000100320015002000443ade0067
:100cd0001400b2004538de00cb45dd000b0070008b
:100ce000c540de00cb4ddd008b8070004549de0045
:100cf000cb55dd000b017100c551de000d037800fe
:100d0000f202070003f0a1000cf0a70003f0a0001e
:100d1000e90237001b18b80085024000068348002e
:100d2000e0834b0060044c00070037001b18b8003c
:100d30000603400087834800faff37001b18b800fd
:100d40008703400008844800e0844c0060054d00a3
:100d5000000006001b18b800080440008984480001
:100d6000faff37000108a300d0023a005800be0085
:100d70005801be00e3ff37000008a300cb023a0091
:100d800009047800f9ff37008103780054ff070059
:100d90000001be006000b8000478a30013003a0010
:100da0006220e10015003e000d0039008301d100f2
:100db0000281d3008180d3008301d1000281d3005e
:100dc0008180d3008301d1000281d3008180d300d0
:100dd0000538b000c42add00f300b2008381720040
:100de00007f0a70003f0a00000000600f3ff2700b3
:100df000f2ff2f006110b900fbff370003ff27004f
:100e0000f7ff37008f1fd100dc0207008f87e90052
:100e10000000e00000000600801feb00d702070082
:100e20008f87e9000000e000000006001400fa00cf
:100e3000889fbe008a9fbe008c9fbe000005be003a
:100e40000206be00680047000c90be000a90be007b
:100e5000f30207006400e1001a00320016003e00b1
:100e60006100e1001a0032006e049000fe04900060
:100e70000e0b90009e0b90006011b8009e05900034
:100e80000b38b100d501200082817100610164003e
:100e90008703d1000683d3008984d3000884d3005c
:100ea0008502e900f8ff3a0046fe07000df0a700b2
:100eb00001f0a00080023700f1ff2700f0ff2f00b3
:100ec0007d02370001f8270000002000f7ff3700ff
:100ed0006000b800f5ff370016ff0700050978002d
:100ee00000000600809feb00a40207008f87e90046
:100ef0000000e000000006002800fa00889fbe0005
:100f00008a9fbe008c9fbe00070678008786690016
:100f10000c003b00030478008704780008f0a1006f
:100f200009f0a100840f5000858f5800860f5900ea
:100f3000890f5c00030033000cf0a20001003a00ae
:100f40000cf0a100480207006400e1005f003200dd
:100f5000780147006408e100610032006c0147003d
:100f6000748557003200be001201be003a04be0074
:100f70001a05be001e039000be0a900085035300b0
:100f800006003d000004fd008104fd000205fd0097
:100f90008305fd008703ea00050378000df8a30030
:100fa0000400320060041400e0841c0060051d0091
:100fb000e0851d006022b8007d0320000d38e100af
:100fc0008006eb000b0039004433dd00f300b20073
:100fd0008301730039003700848272000d027800ab
:100fe000e10664008b85d1000a85d3008984d30093
:100ff0000884d3008703e900f7ff3b0008004000a6
:10100000898048000a0149008b81490004003b00a7
:1010100060001000e080180060011900e0811900f4
:101020000358a300090032008d827200848272008e
:10103000610260008301d1000281d3008180d3006e
:101040000080d3000603e8001b0037000348a3001c
:1010500017003a000600e000170034000603e9001c
:101060000d00a300000048008180480002014900f3
:10107000838149000348a3000f003a000600e00006
:10108000090034000603e9000000400081804800a8
:10109000020149008381490001003a000003eb008e
:1010a0000348a300f5ff32006022b80002003700b9
:1010b00084827200618266000402070003f0a100ce
:1010c0000cf0a70003f0a000fb013700640147000b
:1010d0006408e10002003a000df8a300f3013a00b1
:1010e0003200be001201be00f30137001400fa0006
:1010f000889fbe008a9fbe008c9fbe000004be0079
:101100000205be00680047000a90be000890be00bd
:10111000430207000070a7000bf0a1000bf8a3002a
:1011200020003a009e0990000e099000fe009000f9
:101130006e0090009e029000344320008482520092
:10114000dd0132000a003c00b4fc2f000428e1005d
:10115000140034008301d1000281d3008180d300c8
:101160000080d3008502e800faff3a00d201370080
:10117000b40020000428e10007003c00000040000b
:101180008180480002014900838149008502e9000d
:10119000faff3a00c80137000300280002002000cf
:1011a000010037006011b8006000b800c2013700cc
:1011b0002800fa00889fbe008a9fbe008c9fbe0058
:1011c00003866b00a80107006400e10044003200c0
:1011d0006408e1004a0032006100e100460032008c
:1011e0006108e10049003200ec0647006000b800e9
:1011f0003d02be003d03be00f48657006011b800fa
:101200003d04be003d05be007d0320000b003700fd
:101210000000a0008d06e900130032000402420025
:1012200085824a0006034b0087834b000000400084
:101230008180480002014900838149000802520070
:1012400089825a000a035b008b835b00f0ff3b003e
:101250000802420089824a000a034b008b834b003c
:101260008d06e900edff3a008482720086827200ea
:10127000f707b200878272000100320015002000db
:101280001e0490003e0b900006035400e63fb000a1
:101290000368a300070032000000a7000500a000bb
:1012a0008301d1000281d3008180d3000080d3006c
:1012b0000603e8008301d1000281d3008180d300be
:1012c0000080d3000002eb000482d2007f010700ff
:1012d00003f0a1000cf0a70003f0a0007601370096
:1012e000640247006408e100700132003400be006f
:1012f0003401be00f6ff37006108e1006b013200e7
:101300006011b8006000b800f1ff370003ff27004c
:1013100002002000fbff3700889fbe0000827000a3
:101320000402710004827100240032003643200060
:10133000c50020008383cf000a0039000541b100b9
:101340008283cf00070039000541b1008183cf00bf
:10135000040039000541b1008083cf00010039004d
:101360000541b10085c353006022b800120032006d
:101370000a003b0084827200610260008301d10098
:101380000281d3008180d3000080d3000603e800ef
:101390008743e800f7ff3a000700370000004000ed
:1013a0008180480002014900838149000603e90069
:1013b0008743e900f9ff3a00440107004f04be00eb
:1013c0000000060007f0a200cbfe3700889fbe0099
:1013d0008a9fbe003004be002005be000404440005
:1013e00085844c0006054d0087854d000898be0099
:1013f0000a90be009500070002003100680040001e
:101400001008e8004f05be004f04be0000000600b3
:10141000889fbe008a9fbe008c1f7800000678005f
:101420003c04be002c05be000400540085805c0016
:1014300006015d0087815d00009ebe00029ebe0029
:101440001000200081000700010039000000eb00bf
:101450001c0e10004f0678004f05be004f04be0062
:10146000000006001200fa00889fbe008a9fbe009e
:101470008c9fbe000205be000004be00e4b79f00c2
:10148000f5b79f0086bf9f0097bf9f000000eb004d
:10149000d0b79f00c0b79f00b0b79f00a0b79f0014
:1014a00090b79f0000067800fd032000dfb1970091
:1014b0004fb0970003814100bfb09700e08f51000b
:1014c00004003d00660007007e805700bfff070054
:1014d00003003700620007007e805700ccff070042
:1014e000dfb09700e08f50000700350014002000a7
:1014f000050020006033b80008047200898472007f
:101500000a0573008b8573000c06e8008d0f5600ea
:10151000e6ff3400e08f500006003d006fb29700f8
:10152000ffb297000fbb97009fbb97007e805700cc
:10153000a6ff07005fa89700e00f500004003a00e4
:101540001fb49700afb497003fb59700cfb5970091
:101550000800be000a01be004f06be004f05be00d7
:101560004f04be000080fa0000000600881f7800cb
:1015700018002000881f7800baff07008f87e90055
:101580004f04780000000600801feb00b5ff070045
:101590008f87e90000000600889fbe008a9fbe007a
:1015a0008c1f78004e00070005003d005100070029
:1015b00009003d005b0007000006eb000600370055
:1015c0005d00070004003d006044b8006055b800ad
:1015d000540007001c002000e4ff0700e00f560045
:1015e000010032005a0007004f0678004f05be0088
:1015f0004f04be0000000600889fbe008a9fbe0008
:101600008c1f78003600070003003d0039000700fa
:1016100006003d00040037004700070003003d00be
:101620006044b8006055b8003e000700d6ff0700d0
:10163000e00f560001003200450007004f06780019
:101640004f05be004f04be00000006000440e1004c
:1016500005c8e10006d0e10007d8e100000006005f
:10166000cf01de0002817100b2b79f004f09de009a
:101670000000400000007100a0b79f000fb097006d
:101680004f01de00818040008100710091b79f0012
:101690007faa9700cf20de0000004000008070008d
:1016a00080b79f000800be000a01be004f18de0090
:1016b0000402420000027200f4af9f0008044400dc
:1016c00089844c000a054d008b854d004fb2970070
:1016d000dfb297006fb39700ffb3970000000600da
:1016e000e00f5000e08f5800e00f5900e08f5900e4
:1016f000000006006044b8006055b80000005400c7
:1017000081805c0002015d0083815d001c0020007f
:101710000820e10009a8e1000ab0e1000bb8e100ef
:10172000000006000402540085825c0006035d0090
:1017300087835d00000006000006eb00e00f52000a
:10174000e08f5a00e00f5b00e08f5b0000000600b6
:101750006022b8006033b8000000520081805a0057
:1017600002015b0083815b0000000600889fbe00d1
:101770008a9fbe008c1f78000006eb00e00f50002f
:10178000e08f5800e00f5900e08f590007003d003e
:101790006044b8006055b8000000540081805c00cf
:1017a00002015d0083815d001c002000e00f5200fb
:1017b000e08f5a00e00f5b00e08f5b0007003d0008
:1017c0006044b8006055b8000402540085825c0093
:1017d00006035d0087835d000c00a200b7000700d0
:1017e000e00f5600060032006022b8006033b800f7
:1017f0000000520081805a0002015b0083815b007f
:101800004f0678004f05be004f04be0000000600e2
:101810006022b800060220000000d0008180d200c3
:101820000482d2008582d2000000a0000202520091
:1018300083825a00030031000202420083824a0080
:101840000000a1000603e900f3ff3a0000000600d3
:10185000020ab900001bb9000200b8008100420072
:101860008100430000000600680447000294be00a7
:101870000094be00fc0447008694be008494be0021
:10188000090078006600070008007800640007007f
:1018900099007800814f70000b003b000800be00eb
:1018a000a80007004f00b10003003700f3ff270036
:1018b000f2ff2f006110b9004f06be004f05be00b9
:1018c0004f04be000080fa0000000600180020004f
:1018d00057002000080453000d003d0006002000c2
:1018e00097fc2f000740e1001e0034008482720044
:1018f000610260008301d1000281d3008180d300a6
:101900000080d3000804e800f8ff3a0047002000f8
:101910006104600005047400040464000d003200da
:1019200061004000e080480060014900e08149001a
:1019300003b8a500070032000603e8006538e1009f
:1019400004003a008301d1000281d3008180d300da
:101950000080d300f87f20000830e100030035004c
:10196000080378006000b8006011b8004433dd005f
:10197000f300b2008301730000000600889fbe00e0
:101980008a9fbe008c9fbe000404be000605be00f8
:10199000809fbe00829fbe0078000700040678008a
:1019a0000800be000a01be0074000700840678002b
:1019b0004f03be004f02be008d4f76007fb09700f0
:1019c00013003300f0ff2f008b8f6b0006003b00ed
:1019d0000d0666000c00a7000a00370007f0a600fd
:1019e000100020000a003700880f5200898f5a002b
:1019f0008a0f5b008b8f5b00030039001000200012
:101a000001003e000000200007f0a7000000ea00ef
:101a10004f06be004f05be004f04be00000006008a
:101a2000800078005002be005003be004439de0042
:101a3000f700b200f37f20000301610009003200cb
:101a40000218e10016003a0085017200830173005c
:101a5000838173000008200015003a004000200038
:101a600013003700850172008301730083817300c6
:101a700005003a0004a8be0006a8be001000200021
:101a80000b0037000201e9000402420085824a008f
:101a900006034b0087834b000748a300f9ff320081
:101aa0000740a00004a8be0006a8be002000200039
:101ab000800098009200980000000600889fbe00f9
:101ac0008a9fbe008c9fbe000404b8000506b800c3
:101ad0008904460060854e000606b8000a054600e7
:101ae000e0854e000706b8008b054600040eb800de
:101af000890446000a854e00e0854d00050eb800b9
:101b00000a0546008b854e00060eb8008b05460080
:101b10000416b8000a0546008b854e000516b8006d
:101b20008b054600041eb8008b0546000800be0069
:101b30000a01be004f06be004f05be004f04be00a6
:101b400000000600e48240001078a3000700320085
:101b5000640240001178a3003400be001401be00ee
:101b6000040032000330a700000006003500be006c
:101b70001501be000330a0000000060005ff27008d
:101b800005826100070032000428e10001003200f4
:101b9000240005000600070001003a00440005008b
:101ba0000408050002000700f9ff3a0014000500d0
:101bb0006f826100810270008502710085027200ef
:101bc000000006008520a9008540a900670160008b
:101bd0004411dd00c3048000f1f82f008180610012
:101be00082807000c1048800000178000207b20002
:101bf0004411dd00c3048000f18f2f00818061005b
:101c000082807000c1048800680160004311de001a
:101c1000610161004911dd00610480000190a100b3
:101c200082807000610488000008b2004700de0076
:101c3000610060004a00dd006104800001a0a10095
:101c4000808070006104880000000600a2108800f7
:101c5000601088007110880000000600889fbe0098
:101c60000004be00060037000000fb008900780079
:101c70001a000700e10f4000050032000804e800e8
:101c800018407800e04f5000f7ff3a000000eb00ea
:101c90004f04be0000000600881f7800e1a020006d
:101ca000eeff070000047800e1a02000a000200063
:101cb0000a000700080078004f04780000000600c2
:101cc0000000fa0068815700cfb89700e0a020001c
:101cd000eb0007000080fa0000000600889fbe00ad
:101ce00001047800b8009000628160008084eb00fd
:101cf0003c003200810178000320b20018019000fe
:101d000002003a00e00f510036003a000190a000b6
:101d10003104980080047800f90fb200e00f510000
:101d200002003a0028009000000c7800ea8f54006e
:101d300006003a00010078000008b20003003a00f3
:101d400088007800d0002000e4ff07001800900011
:101d5000d8009000810f50000b0032000000e80016
:101d6000100498001800780009487800000ce8007a
:101d700010c0b30001a4200080487800ea8f54000e
:101d800018003a0005003700880078000940780004
:101d90009d0607008004780012003700380090008c
:101da0000010b2000f00320018019000a80090004f
:101db000480090005ef9070098009000810f5000e5
:101dc00004003200380090000003b3003004980093
:101dd0008084eb000000eb001004980028009000c5
:101de000000c7800090078004f04be0000000600d7
:101df000889fbe008a9fbe000084fb00d1c6b3004e
:101e0000814f5000210036004b06200011000900d0
:101e10000b84d80081057800720040004300dd008b
:101e2000298b2000008044006022b80006002000ba
:101e300007fe23005001be004000be005dfb07000e
:101e4000aa00200000027800811f7800110009001c
:101e50008a85d8000002fd00cf00780069024200a8
:101e60004322dd00048244005403be004402be004d
:101e700050fb0700809fbe00110009000a84d800b3
:101e8000010478004f00be0010003700ea4f5000f8
:101e900013003600a9002000110009000984d800b1
:101ea00001047800690040004300dd00298b200018
:101eb000008044006022b8000600200007fe2300d6
:101ec0005001be004000be003afb07004344dd0065
:101ed000888444003902be002903be000800370090
:101ee0004344dd00208b2000080440006022b8003d
:101ef0000600200007fe23003800be002801be00b7
:101f00002cfb07004f05be004f04be00000006007a
:101f1000889fbe008a9fbe00d1c6b300e04f50002c
:101f200025003d000040ea000004fb00814f500006
:101f30000b00340042062000110009000204d80002
:101f400001007800a9002000110009000900d80054
:101f5000690040004300dd002a8b20002300370089
:101f6000ea4f500011003400a200200011000900c7
:101f70000204d8000104780080007800e980400065
:101f8000c308dd00208b2000810040004344dd00b9
:101f9000080040003002be002003be005101be0018
:101fa0004100be0003fb0700320037004344dd0060
:101fb000208b20002c0037000004fb00814f5000d4
:101fc0001c00340042062000110009000204d80061
:101fd00001007800a9002000110009000900d800c4
:101fe000690040004300dd002a8020000000450019
:101ff0003002be002003be008b0920008a85450008
:102000003b00be002b01be00eafa0700809fbe0025
:10201000110009000904d800010478004f00be0037
:102020004344dd00080545003a02be002a03be0015
:10203000dcff3700ea4f500009003400a200200006
:10204000110009000204d800010478008000780023
:10205000e9804000c308dd0020802000caff37006f
:102060004344dd0020802000080440003800be000a
:102070002801be004f05be004f04be000000060050
:10208000ef04b000889fbe008a9fbe008c9fbe00f8
:102090008e1f780000037800d1a79f00c2a79f0081
:1020a0000000eb00f0b79f0006077800ca05370074
:1020b000dfa097008100e800d1a79f0052c2b300c3
:1020c00082cf520006003a000004eb0006c3b300c2
:1020d00003c2b300b1c2b3005fa097001200370083
:1020e0003e0190000204b200040032009e0178001c
:1020f00085497800030fe800070037000501fb0061
:102100008e00780002007800f4fe070000017800dd
:10211000e10f4100b00532007fb197000201e800f5
:10212000f2b79f00ac05370090427800d4c2b300ec
:1021300084cf52000b0032000001e80084cf52002f
:1021400005003c0083cf52000900320081cf5200cd
:102150000e003a000800370086cf52000b003a000c
:10216000070037000830a0000000e800eeff37004d
:102170000800a000030037000810a000010037008d
:102180000820a00002007800e7ff3700d0a79f00da
:10219000e2016400010032000800a100e8016400cf
:1021a000010032000820a1008501fb000303b100fb
:1021b000e98f51000d003e00000020005fa1970054
:1021c0006a00b9000003b1009200fb00010040006a
:1021d000d200fb000103b100e98f5000f8ff360088
:1021e000e0af9f00d2a79f000c0037000003eb0078
:1021f000e6af9f00a3c2b30083cf520007003a00ae
:10220000cfa39700c7047800c7a79f00e9af9f003e
:102210005fa597000a05e800daa79f00e3c2b300b4
:10222000dfa597009bcf110021003a0088007800bd
:1022300001e0a000e4c151008b05e800dba79f008e
:102240001b407800834f5000040032000000200043
:10225000810278000b0278000c003700cfa19700b4
:1022600043027800c3a79f00a4af9f00dfa297009e
:102270008502e800d5a79f00110037006a00b90069
:102280000003b100030040000402e8009401fb00d9
:1022900002fd2f0003014100e90f5100f7ff360056
:1022a000a0af9f0085007800d4a79f0004003700ee
:1022b0008800780001c0a0000003eb00a6af9f00db
:1022c000ccc6b300dfa1970033447800e8679f00d5
:1022d0008c4f540017003200d3a79f00c3c6b30031
:1022e000834f540009003c00e9c15100834f540062
:1022f0009b003200e3c14100834f540013003200c1
:10230000e04f540039053200b900370053c7b3001d
:10231000834f5400bc003200e3c14100834f54009e
:102320000c003200e5c15100834f5400b0003a0068
:102330000a003700708060000200280001003a00a7
:102340000201200082807000dfff370001a0a000a2
:10235000ae0037000170a000ac003700cfa397009b
:1023600047047800c7a79f00b8b79f00e00f54004c
:1023700002003a008aa22000bab79f008005eb0055
:10238000cbb79f00010378003fb09700cfb0970014
:102390005fb19700efb19700010037008500e800ba
:1023a0008102780061427800e04f5200fbff3a0062
:1023b000b0b79f00c1b79f00d2b79f00e3b79f009f
:1023c00086007800afac9700e08f54000500320023
:1023d0004fb597008a8f54000200310089057800bc
:1023e000cbb79f00cfb297000006eb006fa8970015
:1023f000850f50000100360005065000688460001b
:102400002e003a008c0178000dc2b3001000370096
:102410003e0090000004b200040032001e0078006c
:102420000d487800000fe800050037008e007800a6
:102430000002200029fe0700e10f400003003200e7
:10244000ffb097008100e800f1b79f008c01780091
:102450000c06e900e08f5100edff3a00170037004d
:102460003e0090000004b200090032009e01780096
:10247000080178003240780080497800030fe800b6
:1024800002047800e04f50000a003a0011003700c3
:10249000080178003200fb00020478008e0078000a
:1024a00086bf9f000dfe07000fbb9700e10f4000a5
:1024b000080032008d06e80006003700ffb69700de
:1024c000080378003fb49700cfb497005fb597003a
:1024d000efb59700090078008004e900e00f500094
:1024e000dfff3a00fdb79f00b8b79f00c9b79f0054
:1024f000dab79f00ebb79f0006047800e00f5400a6
:10250000b5043200110037003e0090000004b20014
:10251000040032001e0078000d487800000fe8002b
:10252000050037008e00780000022000ebfd070058
:10253000e10f400003003200ffb097008100e80087
:10254000f1b79f0008067800010037000dc2b30004
:102550000c04e900e00f5600ebff3a009e04370040
:102560004fa1970042047800c2a79f00080278009c
:10257000cfa2de000503780086037800f4af9f0049
:1025800085b79f0096b79f00a7b79f000605be00be
:102590000404be004844de00c84add00088472001e
:1025a000e8679f007086600009003200e04f540029
:1025b00007003200e14f440005003200f8679f0039
:1025c000846f9f0026002000c6b79f0004003700dc
:1025d000efdb9700f7679f0018002000c8b79f0047
:1025e00079fa2f0089844700b9b79f0075ff37003b
:1025f0006afa2f000a854700bab79f001b00200027
:10260000cbb79f006fff3700010cb300f1af9f0005
:10261000087020007fa89700080460009102320033
:102620000800210008046000020032006100200060
:10263000a1af9f007fa997007004610005003200e0
:102640004fa497004803be004802be00c8a79f00e1
:1026500006003700cfa497004900be00c9a79f001d
:10266000c9f907000002be000203be00e4a79f00f4
:10267000f5a79f0086af9f0097af9f006022b8002c
:102680006033b8006fa09700ffa097000fa99700d4
:102690009fa99700dbf9070080027800e08f5200c5
:1026a0000c003d006fa49700ffa497000fad9700aa
:1026b0009fad97000bf0a200e8a79f00f9a79f002d
:1026c0008aaf9f009baf9f00ffac97003900b3001b
:1026d000f9af9f000004eb00d8979f006022b8007c
:1026e0006033b8006fa09700ffa097000fa9970074
:1026f0009fa99700c8f9070080027800888f5200d0
:102700003b0032006fa09700ffa097000fa9970031
:102710009fa99700c5f90700a2fa2f000f014100f9
:10272000edf907005f9397000603e9006333b900f2
:10273000a8002000809fbe00110009000803d800f7
:10274000000378004f00be00d6979f00e00f5300b3
:1027500002003d000603e900d6979f005f969700b0
:102760008c41ea0003407800e9fd07006fa2970062
:10277000ffa297000fab97009fab97000df90700e2
:102780000002be000203be0084a79f0095a79f0021
:10279000a6a79f00b7a79f006022b80006002000f0
:1027a00007ff230097f9070080027800e08f5200ae
:1027b00002003d000c04e9000c0037006022b80064
:1027c00006002000470224000fa097009fa097005a
:1027d0002fa19700bfa19700c2f9070080027800df
:1027e000e08f5200020035000c04e800d8979f00eb
:1027f000afaa9700f88f52000f003c000540780008
:102800007bfd07000002be000203be006fa0970020
:10281000ffa097000fa997009fa99700b6f907009e
:102820000004be000205be00e8a79f00f9a79f00b4
:102830008aaf9f009baf9f005f969700e90f5600fd
:1028400016003c006022b8006033b8006fa097000b
:10285000ffa097000fa997009fa997006ef90700a6
:1028600080027800e08f5200350032006fa09700a0
:10287000ffa097000fa997009fa997001bfa0700d8
:10288000e00f5000e08f5800e00f5900e08f590032
:102890002b003a00e10f560029003400040020000c
:1028a00005002e00b6e02200170124000fa09700bb
:1028b0009fa097002fa19700bfa1970051f9070093
:1028c00080027800e08f520002003d007304560041
:1028d0000100370072045600d8979f002f689700b8
:1028e0008bfd07000002be000203be0084a79f000c
:1028f00095a79f00a6a79f00b7a79f006fa097006e
:10290000ffa097000fa997009fa9970028fa07003a
:10291000f6f90700b0b79f00c1b79f00d2b79f007c
:10292000e3b79f006000b8006011b800e0a79f0007
:10293000f1a79f0082af9f0093af9f00190037005f
:102940006fa09700ffa097000fa997009fa997007d
:10295000e6f90700b0b79f00c1b79f00d2b79f004c
:10296000e3b79f006cfa07000002be000203be003e
:102970006fa09700ffa097000fa997009fa997004d
:1029800090fa07000004be000205be00e8a79f0001
:10299000f9a79f008aaf9f009baf9f000004eb0048
:1029a000d8979f0013c0b300e3679f002c962000c8
:1029b000100037000600fb004300dd000000460069
:1029c0005001be004000be003fb49700cfb4970056
:1029d0005fb59700efb597000040e10001c8e10046
:1029e00002d0e10003d8e100050039000643e80009
:1029f000e6679f006f639700f44f5300edff3a00c6
:102a0000df939700efac9700878354002fad9700ba
:102a10008a8353000603fb0006835300e6af9f0042
:102a2000e00f5500020032000603e900e6af9f0008
:102a3000ffad970063836500030032006fa8970025
:102a40000000e900e0af9f00ffa8970064836000ea
:102a5000480032006284600061866000e00f54002c
:102a6000190032003e0390000604b2000800320054
:102a70009e067800b8c2b300e00f56000100320095
:102a800008c4e800884e78000d0fe8000a003700ff
:102a9000d8022000e00f560001003a000884e90047
:102aa0008e007800080078008cfc07008002780017
:102ab000e18f4200270032007fb197000201e80059
:102ac000f2b79f0023003700e00f560021003200cc
:102ad0003e0390000604b200050032001e04780098
:102ae00003c2b300034c7800080fe800060037006b
:102af0008e0078000002200078fc07008002780039
:102b0000e18f420013003200ffb197008301e8001b
:102b1000f3b79f000f0037003e0090000004b200a2
:102b2000040032001e0078000c487800000fe80016
:102b3000050037008e0078000003200067fc0700c6
:102b4000e10f4000010032008d06e8000804e900b2
:102b5000030037000cc3b3006fac9700ffb69700bb
:102b6000e00f5400ecff3c00e8af9f00fdb79f0072
:102b70007a0037007faa97006803620017003a00c6
:102b80000f0037003e0090000004b2000400320045
:102b90001e0078000c487800000fe80005003700a0
:102ba0008e007800000220004cfc0700e10f40007e
:102bb000010032008d06e8000804e9000300370038
:102bc0000cc2b3006fac9700ffb69700e00f540043
:102bd000ecff3c00e8af9f00fdb79f00ffaa970005
:102be0006284620061866200e00f540019003200c6
:102bf0003e0390000604b200080032009e067800f2
:102c0000b8c2b300e00f56000100320008c4e8006b
:102c1000884e78000d0fe8000a003700d802200027
:102c2000e00f560001003a000884e9008e007800a9
:102c30000800780029fc070080027800e18f42003c
:102c4000460032007fb397000603e800f6b79f0006
:102c500042003700e00f5600400032003e03900073
:102c60000604b200050032001e04780003c2b3005f
:102c7000034c7800080fe800060037008e0078004b
:102c80000002200015fc070080027800e18f42005e
:102c900032003200ffb397008703e800f7b79f00c8
:102ca0002e0037003e0190000204b2000300fb003a
:102cb000e00f5100120032001e0678004300dd00d4
:102cc000008046003002be002003be000800be00a7
:102cd0000a01be0025fa0700a4002000050020001c
:102ce0006033b80028fa07000203be000002be00ed
:102cf00000c3b300004e42000c0fe8001300370081
:102d00004300dd00008046003002be002003be000c
:102d10000800be000a01be0014fa0700a40020004b
:102d2000050020006033b80017fa07000203be0058
:102d30000002be000403b0008e007800040078009a
:102d4000e6fb0700e10f400009003200ffb09700ea
:102d50008100e800f1b79f00050037002d962000a4
:102d60003fb49700cfb497005fb59700efb59700d9
:102d70006f6097008041e900e3679f00e04f5000db
:102d8000c8ff3a00110037003e0090000004b20076
:102d9000040032001e0078000c487800000fe800a4
:102da000050037008e00780000032000cbfb0700f1
:102db000e10f4000010032000804e8005f90970036
:102dc0000000e900d0979f00020037000cc3b30059
:102dd0007fb497005f909700e00f5000eaff3c003f
:102de000f8b79f002fa9970023c1b300f20f51003d
:102df00001003c00cfd19700e3679f006f6497000c
:102e00008802fb002faa970085025200a5af9f0001
:102e1000e04f540011003200be0290000504b200e1
:102e2000050032001e047800e3c2b300034c7800b2
:102e3000080fe800060037008e007800e00220004e
:102e4000a6fb070080027800e18f420003003200f9
:102e5000ffb297008502e800f5b79f006f6097000a
:102e60002bfc07000002be000203be006fa097000b
:102e7000ffa097000fa997009fa997004df70700a3
:102e80009af80700b0b79f00c1b79f00d2b79f0064
:102e9000e3b79f002d9620003f003700be01900051
:102ea0000304b2000401fb00e08f51001200320065
:102eb0001e0678004311dd00028146003202be008a
:102ec0002203be003fb09700cfb097005fb19700dc
:102ed000efb19700a5f90700a4002000050020002d
:102ee0006033b800a8f9070009c3b300094e4000d9
:102ef0000c0fe800160037004311dd000281460088
:102f00003202be002203be003fb09700cfb0970050
:102f10005fb19700efb1970094f90700a40020007b
:102f2000050020006033b80097f907000203be00d7
:102f30000002be000403b0008e0078000400780098
:102f400066fb070000017800e10f4100030032003a
:102f50007fb597000a05e800fab79f00ef65970074
:102f60000b01fb004311dd00028146003202be006e
:102f70002203be003fb09700cfb097005fb197002b
:102f8000efb1970080f90700b0b79f00c1b79f006d
:102f9000d2b79f00e3b79f006f6197000242e9003c
:102fa000e4679f00e04f5100bcff3a000f0037007c
:102fb0003e0090000004b200040032001e007800c1
:102fc0000c487800000fe800050037008e007800fc
:102fd0000003200041fb0700e10f40000100320028
:102fe0008d06e8000804e900030037000cc3b300b5
:102ff0002fac9700ffb69700e00f5400ecff3a00ab
:10300000fdb79f00ffaa970068816200f2013200bd
:103010006fab9700e00f5300ef01340008c2b3001c
:10302000060678003e0090000004b2000400320062
:103030001e00780008487800000fe80005003700ff
:103040008e0078000002200024fb0700e10f400002
:10305000010032008d06e8000c06e900f1ff3a009d
:10306000dc013700ffab9700e08f530005003d0007
:103070004fa097004005be004004be00c0a79f00bf
:103080000e003700ffa89700f082600010003200a9
:103090004fa297004401be00c4a79f00f2979f0073
:1030a000839f9f00989f9f00a89f9f007f949700f9
:1030b0008f9c97001f9d9700af9d9700b8b79f000a
:1030c000c9b79f00dab79f00ebb79f000b0037002e
:1030d000cfa49700c9027800c9a79f000500780017
:1030e000010020000200200003002000b0b79f0074
:1030f000c1b79f00d2b79f00e3b79f00afa897006a
:10310000e08f50000d003a0012002000a2af9f0097
:103110003fb29700cfb297005fb39700efb397002d
:10312000e00f5200e08f5a00e00f5b00e08f5b0081
:10313000020032008002eb00a5af9f007fab97003a
:10314000060cb200f69f9f0005082000850f530073
:103150001b003200050c2000850f530033003a009d
:1031600013c0b300e3679f002c96200010003700c7
:103170000400fb004300dd00000046005001be00db
:103180004000be003fb49700cfb497005fb59700f2
:10319000efb597000040e10001c8e10002d0e10076
:1031a00003d8e100210039000442e800e4679f00f1
:1031b0006f629700f44f5200edff3a001b0037009a
:1031c00013c0b300e3679f0008012000090020003e
:1031d0006055b800120037003fb29700cfb2970099
:1031e0005fb39700efb397000820e10009a8e10062
:1031f0000ab0e1000bb8e1000c00390045002000e6
:103200000804d0008984d2000a85d2008b85d200c0
:103210008502e900faff3a000040e800e0679f00fd
:103220006f609700f04f5000ebff3a006f6397001c
:103230000604fb00afab9700870f540002003d006f
:10324000e7679f0004003700afac9700888f5400f9
:1032500001003d00a8af9f006fad9700e00f550043
:1032600005003200ffad9700e382650002003200e6
:103270000a05e900eaaf9f00050024007fa8970037
:103280008502600009003200efa897002fa997007f
:10329000828f50000300340082805000e1af9f0015
:1032a000020037008001eb00e3af9f006f629700e0
:1032b0000404fb008002eb00e5a79f006fab9700c2
:1032c000880f53000200340008045300e8a79f0051
:1032d000ffab9700e4826300490032006283630021
:1032e00007047800e1036400e00f53001900320086
:1032f000be0290000504b200080032001e067800ed
:10330000d6c2b300e08f530001003a0006c3e900c3
:10331000064e78000c0fe8000a003700d6022000a5
:10332000e08f530001003a000683e9008e00780028
:103330000600780069fa070080027800e18f4200f9
:1033400017003200ffb497008904e800f9b79f0026
:1033500013003700e08f530011003200be029000ce
:103360000504b200050032001e03780003c2b3005a
:10337000034b7800060fe800060037008e00780047
:103380000002200055fa070080027800e18f420019
:10339000030032007fb597000a05e800fab79f00e6
:1033a000efa59700e08f5500e90032000cc3b30091
:1033b0000b047800ffb697003e0090000004b200b6
:1033c000040032001e0078000c487800000fe8006e
:1033d000050037008e007800000320003ffa070048
:1033e000e10f4000010032008d06e8000804e9000a
:1033f000f1ff3a00e8a79f00fdb79f00d400370017
:103400006fa09700e00f500017003200ffa8970050
:10341000e882600014003a000cc2b3000004780097
:10342000ffb697003e0090000004b2000400320096
:103430001e0078000c487800000fe80005003700f7
:103440008e0078000002200024fa0700e10f4000ff
:10345000010032008d06e8000804e900f1ff3a009f
:10346000e8a79f00fdb79f007fa997006203610056
:10347000e1036100e00f530019003200be0290002a
:103480000504b200080032001e067800d6c2b30060
:10349000e08f530001003a0006c3e900064e7800b1
:1034a0000c0fe8000a003700d6022000e08f53001e
:1034b00001003a000683e9008e00780006007800db
:1034c00006fa070080027800e18f4200a000320077
:1034d000ffb197008301e800f3b79f009c0037001d
:1034e000e08f53009a003200be0290000504b20043
:1034f000050032001e03780003c2b300034b7800be
:10350000060fe800060037008e0078000002200059
:10351000f2f9070080027800e18f42008c0032004f
:103520007fb297000402e800f4b79f0088003700dc
:103530000e07e900ff9a970006082000868f5200c8
:103540005d003200070c2000878f52006b003a00ac
:103550004370dd007fac9700e00f540022003d0077
:1035600029962000008044003002be002003be00e7
:10357000a4af9f00b5af9f00c6af9f00d7af9f001d
:103580003fb09700cfb097005fb19700efb19700c1
:10359000f6f70700e0679f000004fb00cfc4de00e1
:1035a000090578008a0578002faa9700bfaa97001e
:1035b0004fab9700dfab97000800be000a01be00ca
:1035c0006af807003fb49700cfb497005fb5970043
:1035d000efb597000004540081845c0002055d0093
:1035e00083855d001d003700ef949700e08f540045
:1035f0001f0032003fb69700cfb697002a962000f2
:10360000000045003004be002005be000801be00d9
:103610000c00be007ef80700e0679f000000fb0082
:10362000cf80de000801be0089f8070000015600c7
:1036300081815e00b29f9f00c39f9f008001eb00cd
:10364000d39f9f000002eb00e49f9f003f9c9700e8
:10365000cf9c97005f9d9700ef9d9700b8b79f00a4
:10366000c9b79f00dab79f00ebb79f000e00370085
:1036700029962000690178003fb59700811f7800e6
:10368000110009000285d800cf007800a2002000b8
:10369000811f7800110009000280d8000100780025
:1036a000cf007800e0679f00ef6597000b43b00004
:1036b000eb679f00110037004270dd003fb29700ba
:1036c000cfb297005fb39700efb397000004780084
:1036d0000804e900050033008703d1000683d30006
:1036e0008582d3000482d300f9ff37006f006200a7
:1036f000f9a2200069407800e0679f006fad970055
:103700003a0090000004b200070032001a0178006d
:103710006f60970000497800020de800e04f50000c
:1037200007003a0010003700ef6597000b00fb0020
:10373000efa8970069f90700e10f40000a00320086
:103740007fb097000000e800f0b79f000600370048
:10375000ffa89700f0806000e1979f000e017800bd
:10376000e2af9f002faf9700e00f570070ff3a00c5
:103770006faf9700ffa997006881610016003200c3
:103780006fa29700e00f52001300340008c2b3008c
:1037900004067800ffb697003e0090000004b200d7
:1037a000040032001e00780008487800000fe8008e
:1037b000050037008e0078000002200047f907005e
:1037c000e10f4000010032008d06e8000c06e90020
:1037d000f1ff3a00fdb79f005fa397009642780083
:1037e000e5679f00e0cf520031fa3a007fb09700c2
:1037f0004f0778004f06be004f05be004f04be00c5
:10380000ef04b100000006000200fa00889fbe002d
:10381000a0ff9f000104780038009000800078002d
:103820000104b20033003a00e200600005003a00f3
:103830000003b30030049800110498000080eb00ee
:103840002e003700d8049000e08f540006003a00a4
:1038500012002000e680570048009000b4f20700f4
:103860001904980023003700a8009000e08f500052
:1038700008003a0031a4200021049800010c7800cf
:103880002100200051049800110498000030a0008d
:103890003004980018019000a800900048009000a3
:1038a000a3f20700280090008080eb00110498002c
:1038b000aff8970001487800000ce8002ff8970057
:1038c000ea4f50000b003a00380090000010b200a0
:1038d0000800320018019000a800900048009000f5
:1038e00093f207000000eb0010049800a80090007d
:1038f000010c7800aff897000100fb004f04be00f8
:083900000080fa00000006003f
:020000040000fa
:0200000401f009
:04000000fdbf000040
:020000040000fa
:0200000401f009
:04000400ff7f00007a
:020000040000fa
:1000080090010000900100009001000090010000a4
:100018009001000090010000900100009001000094
:100028009001000090010000900100009001000084
:100038009001000090010000900100009001000074
:100048009001000090010000961e00009001000041
:100058009001000090010000900100009001000054
:100068009001000090010000900100009001000044
:100078009001000090010000900100009001000034
:100088009001000090010000900100009001000024
:100098009001000090010000900100009001000014
:1000a8009001000090010000900100009001000004
:1000b80090010000900100009001000090010000f4
:1000c80090010000900100009001000090010000e4
:1000d80090010000900100009001000090010000d4
:1000e80090010000900100009001000090010000c4
:0800f8009001000090010000de
:020000040000fa
:1001080090010000900100009001000090010000a3
:100118009001000090010000900100009001000093
:100128009001000090010000900100009001000083
:100138009001000090010000900100009001000073
:100148009001000090010000961e00009001000040
:100158009001000090010000900100009001000053
:100168009001000090010000900100009001000043
:100178009001000090010000900100009001000033
:100188009001000090010000900100009001000023
:100198009001000090010000900100009001000013
:1001a8009001000090010000900100009001000003
:1001b80090010000900100009001000090010000f3
:1001c80090010000900100009001000090010000e3
:1001d80090010000900100009001000090010000d3
:1001e80090010000900100009001000090010000c3
:0801f8009001000090010000dd
:020000040000fa
:10390800735f00007772000069740000655f000053
:103918006279000074650000282900005f650000d6
:10392800727200006f7200000d000000735f0000eb
:103938006d65000061730000757200006528000065
:10394800295f000065720000726f0000720d0000b0
:10395800006d0000616900006e280000295f00000a
:1039680065720000726f0000720d000000740000a4
:10397800656d0000703a0000253500002e3100000a
:103988006643000020680000756d0000693a000079
:10399800253500002e310000662500002520000096
:1039a8006465000077200000706f0000696e0000f9
:1039b800743a0000253500002e31000066430000ef
:0839c800200d00000a000000c0
:020000040000fa
:1039d0000200fa00881f7800004f78000044eb00d6
:1039e0000900370000000000000000000000000097
:1039f00000000000000000000000000000000000c7
:103a0000000000000844e8009e4f5400f5ff390014
:103a10004f0478000080fa00000006000200fa005f
:103a2000881f7800000f78000004eb0009003700c1
:103a3000a0cfb300e6ff0700a0cfb300e4ff07006c
:103a4000a0cfb300e2ff0700a0cfb300e0ff070064
:103a50000804e8009e0f5400f5ff39004f04780079
:103a60000080fa00000006000200fa00004f780013
:103a7000e0c1b300d6ff07009e4078000180fb0044
:103a80004400de00004078000080fb006f00600012
:103a900050168800dc82a900dca2a900ca82a80016
:103aa000ca82a9009e4078000180fb006f00600080
:103ab00050168800dc82a900dca2a900ca82a800f6
:103ac000ca82a900e0c1b300c1ff07000080fa006c
:103ad000000006000200fa00004f7800e0c1b300c9
:103ae000bbff07009e4078000180fb004400de0021
:103af000004078000080fb006f00600050168800d6
:103b0000dc82a800dca2a900ca82a800ca82a9009f
:103b10009e4078000180fb006f0060005016880016
:103b2000dc82a800dca2a900ca82a800ca82a9007f
:103b3000e0c1b300a6ff07000080fa000000060005
:103b40000000fa00e0012000b4ff0700ca82a900cb
:103b500000c2b300c4ff070020c3b3009cff0700ee
:103b600000c2b300c0ff070020c3b30098ff0700e6
:103b700000c2b300bcff070080c2b300baff070059
:103b800020c3b30092ff0700c0c0b300b6ff070018
:103b900020c3b3008eff070010c0b300b2ff0700c0
:103ba00020c3b3008aff070060c0b300aeff070068
:103bb0002003200099ff07000080fa0000000600a3
:103bc0000000fa0010c0b300a7ff07000080fa0051
:103bd000000006000400fa00004f7800114798002a
:103be000120798009e4090001e4078000d000700cc
:103bf000060037001e009000104078009e009000e4
:103c00008100e80011079800b2ff07001e00900035
:103c100010407800e04f5000f6ff3a000080fa00b4
:103c2000000006000400fa00204798003147980081
:103c30003e409000e14f50000200340010c0b3003d
:103c4000304798002e409000ef4f500002003400a3
:103c5000f0c0b300204798003e409000e14f500074
:103c600004003a00ae40900000ccb30000c0400019
:103c700003003700ae40900000c8b30000c0400011
:103c8000004f78001e40780077ff07000080fa00a0
:103c9000000006000400fa00004f78001147980069
:103ca00022479800334798009e4090001e407800bd
:103cb000dcff07002e409000e04f500003003a0068
:103cc0003e40900083ff0700160037002e40900012
:103cd000e14f500013003a003e4090008080fb000e
:103ce000a000200000017800110009008280d800a7
:103cf000004078000043b00076ff07003e4090008f
:103d00008080fb00a0002000000178001100090065
:103d10008280d8008000fd00004078000043b000a1
:103d20006cff07000080fa00000006003400f80075
:103d3000881f780008002000a80188004f04780040
:103d40000000fa008540a9000080fa003400f90064
:103d5000004006000400fa00204798000040eb00f5
:103d60001047980000c8b300004f780010003700db
:103d70002e4090001e406000e04f500002003200d4
:103d8000d402a80001003700d402a900c8a2a800ec
:103d9000000000000000000000000000c8a2a90010
:103da0009e4078000180fb000000d100004f7800a9
:103db0001e407800e04f5000edff3a00d402a8000a
:103dc000d202a800c8a2a800a01680000040780077
:103dd0006140600010479800c8a2a900d202a90063
:103de0001e409000e14f500002003a0040c82900f8
:103df000a9f707001e4090000080fa0000000600ae
:103e00000400fa00204798000040eb00104798009b
:103e1000d402a800d202a80000c8b300004f780066
:103e20000d003700c8a2a800a01680006100600045
:103e3000e00f5000030032001e4090001e40700052
:103e400010479800c8a2a9009e4078000180fb009e
:103e50000000d100004f78001e407800e04f500075
:103e6000f0ff3a00d202a9002e4090000080fb0033
:103e70000000e9004f00de00004078000080fb00f9
:103e800061006000a2168000e1ff2f008100610048
:103e900000807000a0168800c8a2a80000000000e2
:103ea0000000000000000000c8a2a900d402a80081
:103eb0001e4090000080fa00000006000000fa009a
:103ec000d402a800c8a2a90000000000c8a2a8004f
:103ed00000000000d402a90000000000c8a2a90050
:103ee00000000000c8a2a80000000000d402a80042
:103ef00000000000c8a2a9000080fa00000006002f
:103f00000200fa00d402a800c8a2a9000040eb00f9
:103f1000004f780003003700c8a2a800c8a2a9007b
:103f20001e4fe8001e407800e84f5000faff3600b0
:103f3000e2ff07000080fa00000006000200fa001d
:103f40000040eb00004f7800edff0700e0c1b30038
:103f500080ff07001e4f40001e4078000080fa00de
:103f6000000006000600fa001007980021079800dc
:103f70000040eb00004f7800d0ff070070c0b30096
:103f800074ff0700004f780010c0b3009cff0700cb
:103f90009e009000804878000040eb0098ff0700ea
:103fa000ae009000804878001e4078000080fa0043
:103fb000000006000400fa00100798000040eb0023
:103fc000004f7800bdff070060c0b30061ff07002d
:103fd0001e4f40001e009000104078005dff07005b
:103fe0001e4f40001e4078000080fa0000000600ce
:103ff0001000fa00400798005107980062079800e7
:10400000634f98000000eb00000f78000000eb0009
:10401000300798006000b80010079800210798004a
:10402000a6ff07006e4890000080fb00e00f5000e4
:1040300003003200e10f5000060032000a00370092
:1040400030c0b30043ff07000000fb001e0f40001c
:104050000500370050c0b3003eff07000000fb0022
:104060001e0f400000000000d202a800010037002f
:10407000000000001e009000ae00900061004000b3
:10408000e08048001007980021079800a0168000e3
:1040900061006000e00f5000090032001e01900036
:1040a000ae019000f0112a0071002000800f510035
:1040b000818f5900eeff3600a0ff07000100370096
:1040c00000000000a016800061006000e00f5000ba
:1040d00003003200a0c92900eff607001e0fe80018
:1040e000d202a90010c0b30045ff0700ce00900027
:1040f0008048780010c0b30041ff0700de00900048
:10410000804878000040eb003dff0700ee00900083
:10411000804878001e007800004078000080fa0097
:10412000000006002c00fa00889fbe00401798008f
:10413000511798000000200001082c00200798006b
:104140003107980040352e0051d2230040079800d7
:1041500051079800207a2e00b1632b006007980069
:1041600071079800a0702d0031c22300000f980045
:10417000110f9800c05a2c00718a2300200f98005c
:10418000310f98004e1090001001be00420f9800b1
:10419000530f98005e1090001001be00620f98004f
:1041a000730f9800a2702d0033c223006e08900098
:1041b000fe0890008df0070002002000032224007a
:1041c000bef0070000179800111798004e099000e4
:1041d000de0990006e009000fe00900083f0070062
:1041e0004e099000de09900080f007000004be0038
:1041f0004e099000de0990004e009000de00900015
:104200007af007000001be000800be00acf0070015
:104210002e019000be019000a9f007002017980021
:104220003117980002002000831c24000e1090001b
:104230009e109000a1f007000004be004e099000ff
:10424000de0990002e089000be08900067f007007d
:104250000e0990009e09900099f007000001be0031
:104260000800be0061f007002e119000be11900002
:1042700093f00700008fbe0018c0b30002002000ba
:10428000832c24001e00be00eaf00700e00f50005f
:1042900001003c000044eb00e04f540003003200fa
:1042a00000002000812c2400008fbe0018c0b30045
:1042b000d2cc2c00c3dc23001e00be00dff00700c0
:1042c000e00f5000010035000044eb00e04f5400c7
:1042d00003003200d0cc2c00c1dc2300008fbe00d4
:1042e0005e1090000e1190009e1190000288be009a
:1042f0004e1090003e1878002e1078004f04be003b
:104300000080fa00000006001000fa00889fbe003e
:104310008a9fbe00400798005107980062079800e6
:10432000730798004e009000de009000c5f0070073
:10433000020020000300240060f0070022c92500cd
:10434000e3ed2300c3f007000004be00325c2f0041
:10435000c31824006e009000fe00900023f00700b8
:104360000005be0082eb2100333724006e00900070
:10437000fe00900052f007000001be000a00be00df
:10438000b4f007000001be000800be004cf00700ba
:10439000008fbe0082eb2100333724001e00be00d8
:1043a00012f007000004be001e01be00305c2f00aa
:1043b000c118240041f007000001be000800be0043
:1043c000a4f0070020079800310798002e00900005
:1043d000be0090004f05be004f04be000080fa00f2
:1043e000000006001c00fa00e0fb2f00f5f50700b6
:1043f00092012000d175270000fa2d0013f6070066
:10440000c6a2a900d202a9000000eb001007980084
:104410000000eb00000f7800010037001e0fe800dd
:10442000f07022009e007800808f5000fbff360065
:10443000b3fe07000040eb00404798007a014700b8
:10444000f10047007000470013c0b300e8fe07000a
:10445000ce40900000c04000404798007a014700dd
:10446000ef0047006e0047008041eb00e0fe0700d0
:10447000ce40900000c04000404798004e40900061
:10448000e04f500004003200d0ca290002f60700b5
:104490009bfe0700390037006e4890000080fb004b
:1044a000300798003e0090004800dd00300798007b
:1044b0007e4890000080fb00be00900000807000ed
:1044c000300798000e5090000080fb0040079800d5
:1044d0004e0090004800dd00400798001e509000fc
:1044e0000080fb00ce009000008070004007980024
:1044f0004e0090000100200098f00700300f980057
:10450000410f98003e0090000100200093f007004a
:10451000100f9800210f9800f20047007600470026
:1045200000ff07001e089000ae0890003e0a9000b1
:10453000ce0a90000001be000400be0072ff07001a
:1045400050079800610798003e099000ce0990003e
:104550001e089000ae0890005e029000ee029000ef
:10456000849fbe00829fbe00809fbe00b0cb29000a
:10457000801f7800d2f50700ee8757000000eb009f
:10458000000f7800010037001e0fe800f0a52e0094
:104590009e007800808f5000fbff36000000eb008b
:1045a000000f7800010037001e0fe800f0a52e0074
:1045b0009e007800808f5000fbff36000000eb006b
:1045c000000f7800010037001e0fe800f0a52e0054
:1045d0009e007800808f5000fbff360095ff37006b
:020000040000fa
:1045e000000800000200000000000000400a000077
:1045f0000600000000000000020a00002600000083
:1046000002000000410a000000410a000900000009
:1046100000020000430a000000430a000e020100ed
:104620000000000000000000000000000602020080
:1046300000000000020a0000280a00001800000024
:1046400002000000286e75006c6c290000303100fb
:104650003233340035363700383961006263640024
:104660006566000062090000a00000000200000072
:10467000010000000000000000000a00000000002f
:1046800000000000006400000000000000000000c6
:10469000e8030000000000000000100027000000f8
:1046a0000000000000a086000100000000000000e3
:1046b00040420f00000000000000800096980000bb
:1046c000000000000000e100f5050000000000000f
:1046d00000ca9a003b00000000000000e40b5400f8
:1046e000020000000000e80076481700000000000b
:1046f0000010a500d4e8000000000000a0724e00e9
:1047000018090000000040007a10f3005a00000071
:104710000080c600a47e8d000300000000c16f0071
:10472000f2862300000000008a5d780045630100e6
:1047300000006400a7b3b600e00d000000e88900a7
:104740000423c7008a000000020800006001000086
:10475000020000000000000000000000f03f000028
:1047600000000000000024004000000000000000e5
:104770000059400000000000000040008f40000091
:10478000000000000088c30040000000000000009e
:104790006af8400000000000008084002e41000004
:1047a00000000000d01263004100000000008400ff
:1047b000d7974100000000000065cd00cd4100000a
:1047c000000020005fa002004200000000801d00e9
:1047d000af1544000000000040593e00294600008b
:1047e000000000000000f0007f000000000000005a
:1047f00000f07f000000000000000000f07f0000db
:10480000000000000000f0007f0000000000000039
:1048100000f07f000000000000000000f07f0000ba
:10482000000000000000f0007f0000000000000019
:1048300000f07f000000000000000000f07f00009a
:10484000000000000000f0003f00000000a0990000
:1048500099b93f000000000040e17a00843f000069
:104860000000e0004d6250003f00000000e0e20068
:10487000361a3f000000000080b5f800e43e00005a
:104880000000a000f7c6b0003e00000000a0f2004b
:10489000d77a3e0000000000e08e7900453e00001f
:1048a0000000e0000b2e11003e00000000e0df00e1
:1048b0007cdb3d000000000000a19c00c73b000025
:1048c000000000004c48b400390000000000200047
:1048d0006ca1370000000000000000000000000094
:1048e00000000000000000000000000000000000c8
:1048f00000000000000000000000000000000000b8
:1049000000000000000000000000000000000000a7
:104910000000000000000000000000000000000097
:10492000000000000000000000000000460a000037
:104930000200000002000000010000000000000072
:00000001FF
