:020000040000fa
:080000000001040000000000f3
:020000040000fa
:100200004f9220000eff20000e0188000000000029
:100210000c00070080a12000010020001100070051
:10022000000020000000e000020032000000020098
:1002300000000000b6080200000000000040da00e4
:100240000000fe004440a900000020000000e00083
:100250000300320000002000a00188004440a800f4
:100260000000060091018800800078000000eb008b
:1002700015003700e280400032a0b4009101ba00be
:10028000e280400032a0b4009102ba00e280400057
:1002900032a0b4000002eb00472bde00f507b200ed
:1002a000602ce10004003a000059eb008301e900f2
:1002b000fdff3e00040037006128e100010032002c
:1002c0000082eb00040007001101ba000200e00008
:1002d000e8ff3a00000006003159ba008301e90046
:1002e0000c0032002159ba008301e90008003200f5
:1002f0000400e00003003a00e280400032a0b400b5
:10030000f5ff370011d9ba008301e900faff3a007e
:100310008100e800e180400032a0b4000000060047
:100320000040da000000fe003200f8009101880071
:100330008002780062004000e08048003549ba0041
:100340003204e0000410a700100032008301e9002d
:100350000e0032002549ba003204e0000410a70064
:100360000a0032008301e900080032000408a300fb
:10037000eeff320015c9ba003204e0000410a700f5
:10038000020032008301e900e8ff3a003200f90080
:10039000000006003200f800910188000008bb0050
:1003a000410424006210e100040032000002200039
:1003b0000010e1000a003a0051042400013b8800cb
:1003c0000500fc0051052000313b8800a10a2000f7
:1003d000313b880061e7a800000000000000000039
:1003e0003200f900000006003200f800600424002a
:1003f000003b8800f2ff37003200f80091018800ce
:1004000041002400013b88000208bb00ecff3700dc
:100410003200f8009101880051002400013b88005f
:10042000030120003218bb008301e900fdff3a0000
:10043000e3ff370050088800000006008520a9006f
:100440008540a900670160004411dd00c3048000fd
:10045000f1f82f008180610082807000c104880063
:10046000000178000207b2004411dd00c3048000df
:10047000f18f2f008180610082807000c1048800ac
:10048000680160004311de00610161004911dd0077
:10049000610480000190a1008280700061048800e6
:1004a0000008b2004700de00610060004a00dd0085
:1004b0006104800001a0a1008080700061048800b8
:1004c00000000600a21088006010880071108800eb
:1004d0000000060084e0a900670160004c11dd0007
:1004e000b3048000f1ff28008180610082807000e9
:1004f000b104880068006000c300de00e180600095
:10050000c708dd00600480000070a10001007000d9
:1005100060048800000006000a21ef0071088800ce
:1005200090088800000006008440a9006701600070
:100530004811dd00a3048000f18f2f00818061004d
:1005400082807000a104880068006000c300de00a3
:10055000e1806000c208dd00600480000020a1008e
:1005600001007000600488000000060083ff2f0077
:100570008001fd008421b6008001fd00010c88008f
:10058000120c8800200c88000000060084c0a9001e
:10059000670160004811dd00b3048000f18f2f0077
:1005a0008180610082807000b10488006800600072
:1005b000c300de00e1806000c608dd00600480004a
:1005c0000060a100010070006004880000000600c7
:1005d00030088800000006000621ef00610888004e
:0c05e000800888001061a90000000600df
:020000040000fa
:0200000401f009
:04000000eebf00004f
:020000040000fa
:0200000401f009
:04000400ff7f00007a
:020000040000fa
:0200000401f009
:04000800fcff0000f9
:020000040000fa
:0200000401f009
:04001400ffff0000ea
:020000040000fa
:1000080090010000900100009001000090010000a4
:100018009001000090010000900100009001000094
:100028009001000090010000a2080000900100006b
:100038009001000090010000900100003e080000bf
:10004800900100002c080000180800009001000032
:100058009001000090010000900100009001000054
:100068009001000090010000900100009001000044
:100078009001000090010000900100009001000034
:100088009001000090010000900100009001000024
:100098009001000090010000900100009001000014
:1000a8009001000090010000900100009001000004
:1000b80090010000900100009001000090010000f4
:1000c80090010000900100009001000090010000e4
:1000d80090010000900100009001000090010000d4
:1000e80090010000900100009001000090010000c4
:0800f8009001000090010000de
:020000040000fa
:1001080090010000900100009001000090010000a3
:100118009001000090010000900100009001000093
:100128009001000090010000a2080000900100006a
:100138009001000090010000900100003e080000be
:10014800900100002c080000180800009001000031
:100158009001000090010000900100009001000053
:100168009001000090010000900100009001000043
:100178009001000090010000900100009001000033
:100188009001000090010000900100009001000023
:100198009001000090010000900100009001000013
:1001a8009001000090010000900100009001000003
:1001b80090010000900100009001000090010000f3
:1001c80090010000900100009001000090010000e3
:1001d80090010000900100009001000090010000d3
:1001e80090010000900100009001000090010000c3
:0801f8009001000090010000dd
:020000040000fa
:1005ec000200fa00000f78000040eb0050e8b70062
:1005fc000040eb0051e8b7000040eb0052e8b700b8
:10060c000040eb0053e8b7006500370030332000a2
:10061c009e007800808f50000600360050c8bf0046
:10062c000040e80050e8b700c0cc2f001e0f40007f
:10063c005b003700100520009e007800808f500072
:10064c0013003600303320009e007800808f50005d
:10065c000f003e0051c8bf00e84f500004003c00a2
:10066c0051c8bf000040e80051e8b7000500370052
:10067c0050c8bf000040e80050e8b7000040eb0055
:10068c0051e8b700e0fa2f001e0f4000440037007d
:10069c001e007800e80f50001c00360010052000ea
:1006ac009e007800808f500018003e0052c8bf009a
:1006bc00e84f500004003c0052c8bf000040e80066
:1006cc0052e8b7000e0037000040eb0052e8b700cc
:1006dc0051c8bf00e84f500004003c0051c8bf0097
:1006ec000040e80051e8b7000500370050c8bf00d3
:1006fc000040e80050e8b7000040eb0051e8b700bc
:10070c001e007800690f5000250037001e0078008d
:10071c00e00f5000220032001e007800e80f50005d
:10072c001f003e0053c8bf00e84f500004003c00bf
:10073c0053c8bf000040e80053e8b700170037006b
:10074c000040eb0053e8b70052c8bf00e84f500020
:10075c0004003c0052c8bf000040e80052e8b7005b
:10076c000e0037000040eb0052e8b70051c8bf0044
:10077c00e84f500004003c0051c8bf000040e800a6
:10078c0051e8b7000500370050c8bf000040e80032
:10079c0050e8b7000040eb0051e8b7001e0fe9002d
:1007ac001e007800e00f500098ff3a0050c8bf00c0
:1007bc000043b00050e8b70051c8bf000043b00080
:1007cc0051e8b70052c8bf000043b00052e8b70070
:1007dc0053c8bf000043b00053e8b7000080fa00d4
:1007ec00000006000400fa00008fbe000040eb0081
:1007fc0054e8b7000040eb0055e8b7000040eb00b0
:10080c0056e8b7000040eb0057e8b7000040eb009b
:10081c0058e8b700b5003700f07022000100200046
:10082c001e01be00800f5100818f59000800360058
:10083c0054c8bf000040e80054e8b700008f2d00fa
:10084c00f1ff2f001e0f40005e974800a7003700f5
:10085c00703e2000010020001e01be00800f5100e0
:10086c00818f590017003600f07022000100200023
:10087c001e01be00800f5100818f590011003e00f7
:10088c0055c8bf00e84f500004003c0055c8bf00dd
:10089c000040e80055e8b7000500370054c8bf0019
:1008ac000040e80054e8b7000040eb0055e8b70002
:1008bc0080c12f00f1ff2f001e0f40005e974800f3
:1008cc008a00370030062000010020001e01be0007
:1008dc00800f5100818f590020003600703e20009f
:1008ec00010020001e01be00800f5100818f5900b5
:1008fc001a003e0056c8bf00e84f500004003c00f0
:10090c0056c8bf000040e80056e8b7000e0037009c
:10091c000040eb0056e8b70055c8bf00e84f500048
:10092c0004003c0055c8bf000040e80055e8b70083
:10093c000500370054c8bf000040e80054e8b70079
:10094c000040eb0055e8b700c0f92f00f1ff2f0075
:10095c001e0f40005e974800640037001e01be0069
:10096c009000200001002000800f5100818f590061
:10097c002900360030062000010020001e01be00b8
:10098c00800f5100818f590023003e0057c8bf00d3
:10099c00e84f500004003c0057c8bf000040e8007e
:1009ac0057e8b700170037000040eb0057e8b700d6
:1009bc0056c8bf00e84f500004003c0056c8bf00aa
:1009cc000040e80056e8b7000e0037000040eb008e
:1009dc0056e8b70055c8bf00e84f500004003c0073
:1009ec0055c8bf000040e80055e8b70005003700c7
:1009fc0054c8bf000040e80054e8b7000040eb00ca
:100a0c0055e8b70060ff2f00f1ff2f001e0f4000cc
:100a1c005e974800350037001e00be00e00f500006
:100a2c00e08f5800310032001e01be009000200003
:100a3c0001002000800f5100818f59002b003e00d7
:100a4c0058c8bf00e84f500004003c0058c8bf0015
:100a5c000040e80058e8b700200037000040eb00e9
:100a6c0058e8b70057c8bf00e84f500004003c00de
:100a7c0057c8bf000040e80057e8b7001700370020
:100a8c000040eb0057e8b70056c8bf00e84f5000d5
:100a9c0004003c0056c8bf000040e80056e8b70010
:100aac000e0037000040eb0056e8b70055c8bf00f9
:100abc00e84f500004003c0055c8bf000040e8005f
:100acc0055e8b7000500370054c8bf000040e800e7
:100adc0054e8b7000040eb0055e8b7000080eb008d
:100aec008080eb001e0f40005e9748001e00be0089
:100afc00e00f5000e08f580047ff3a0054c8bf0089
:100b0c000043b00054e8b70055c8bf000043b00024
:100b1c0055e8b70056c8bf000043b00056e8b70010
:100b2c0057c8bf000043b00057e8b70058c8bf0013
:100b3c000043b00058e8b7000080fa00000006003f
:100b4c000400fa00204798002e409000004f7800d7
:100b5c0051168000f0c32f00808060001e41780089
:100b6c000280fb004400de00004078000080fb00a7
:100b7c006f0060004600dd00008070005016880099
:100b8c00ca22a900ca42a80050002000010020007f
:100b9c00ed000700ca42a90050002000010020000f
:100bac00e900070051168000f0c32f008080600020
:100bbc002e4090000080fb006f0060004600dd00be
:100bcc000080700050168800ca22a900ca42a800f2
:100bdc005000200001002000db000700ca42a900e1
:100bec000080fa00000006000200fa00004f7800b6
:100bfc00803e200001002000d3000700ca02a9009b
:100c0c001e407800ceff07000080fa0000000600ae
:100c1c000200fa00004f7800803e20000100200006
:100c2c00c9000700ca02a8001e407800c4ff0700d4
:100c3c000080fa00000006000200fa00004f780065
:100c4c001e407800f2ff07000080fa00000006004a
:100c5c000200fa00004f78001147980000c8b3005a
:100c6c001e407000804078001e4090000080fb0009
:100c7c004600dd000040780000c07000daff07007d
:100c8c000080fa00000006000a00fa003007980005
:100c9c00014f9800124f9800a0852000000f78009b
:100cac009e0078003e009000c20107009e48900014
:100cbc000e489000e6ff07000000eb0010079800bc
:100ccc000d0037001e007800900078002107980076
:100cdc001e8fe8001e009000e10f5000030034004e
:100cec002e00900000407800d3ff07001e009000fb
:100cfc000000e800100798001e009000e30f500061
:100d0c00f0ff34000080fa00000006000600fa0034
:100d1c001007980041479800524798000040eb009c
:100d2c00004f7800de4090004e409000c8ff070056
:100d3c00070037009e4078000180fb009e00900069
:100d4c000080400010407800bbff07001e4fe800f9
:100d5c009e4078000180fb009e00900000804000c7
:100d6c0010407800e04f5000f2ff3a000080fa008b
:100d7c00000006000400fa00000f780021479800dc
:100d8c00324798001e007800e00f500001003d0033
:100d9c001e0fea001e007800cf80de0091fe0700d7
:100dac0055c8bf00a4ff070056c8bf00a2ff07002c
:100dbc0057c8bf00a0ff070058c8bf009eff070020
:100dcc000080fa00000006000000fa00f0ff2f007f
:100ddc00010020005c000700f0ff2f000100200044
:100dec0059000700f0ff2f000100200056000700fb
:100dfc00f0ff2f0001002000530007005116800067
:100e0c00f0c32f0080806000000c20000080700078
:100e1c005016880031168000f0c32f00008060004f
:100e2c0030168800ca22a900ca42a800500020002f
:100e3c000100200044000700ca42a900f0ff2f0067
:100e4c00010020004000070051168000f0c32f0065
:100e5c0080806000000c200000807000501688001c
:100e6c00ca42a800500020000100200036000700f4
:100e7c00ca42a90051168000f0c32f008080600088
:100e8c00000c20000080700050168800ca22a900b7
:100e9c0050002000010020002b000700ca42a800cf
:100eac00500020000100200027000700ca42a900c2
:100ebc00400620000100200023000700511680008e
:100ecc00f0c32f00808060000008200000807000bc
:100edc0050168800ca42a8005000200001002000d3
:100eec0019000700ca42a90080c2b3003eff0700e8
:100efc0060c0b3003cff0700c0c0b3003aff07005e
:100f0c0010c0b30038ff070000c8b30036ff07005d
:100f1c000080fa00000006000000fa0020c0b300b8
:100f2c0031ff07000080fa00000006000000fa0004
:100f3c0020c0b3002cff070010c0b3002aff07002d
:100f4c000080fa00000006000400fa00008fbe00ca
:100f5c00000000001e0090001e0070008000ea00df
:100f6c00008070004f00de00004078000081eb0034
:100f7c008081eb001e0f41005e974900e04f50004e
:100f8c00f4ff3a000080fa00000006000200fa00ac
:100f9c00881f7800004f78000044eb0009003700f0
:100fac000000000000000000000000000000000035
:100fbc000000000000000000000000000000000025
:100fcc000844e8009e4f5400f5ff39004f047800a8
:100fdc000080fa00000006000200fa00881f78006a
:100fec00000f78000004eb0009003700a0cfb3001d
:100ffc00e6ff0700a0cfb300e4ff0700a0cfb300cb
:10100c00e2ff0700a0cfb300e0ff07000804e800f0
:10101c009e0f5400f5ff39004f0478000080fa0051
:10102c00000006003400f800881f7800080020003b
:10103c00a80188004f0478000000fa008540a90040
:10104c000080fa003400f900004006003400f8007b
:10105c00881f780008002000a80188004f04780041
:10106c000000fa000080fa003400f900004006008d
:10107c003600f800809fbe00829fbe00849fbe0099
:10108c00869fbe003400f80000002000a0018800fc
:10109c000000fa000000eb00e3fc070084e0a9006c
:1010ac00a04780000000e800a0478800a016800040
:1010bc004900de006140600000c0ea006140600051
:1010cc000080fb00610060004900dd00a21680007a
:1010dc00f1df2f008100610000807000a0168800f5
:1010ec00a1478000703e2000808f50000a0036001f
:1010fc000000eb00a0478800b11680000010200013
:10110c0000806000e00f500002003a00d502a800f9
:10111c0001003700d502a9000080fa003400f90064
:10112c004f03be004f02be004f01be004f00be0079
:10113c003600f900004006003400f800881f7800e3
:10114c0008002000a80188004f0478000000fa0075
:10115c008440a9000080fa003400f9000040060029
:10116c000600fa000000eb00000f780000c02f0012
:10117c00f107200010079800210798000002eb00ef
:10118c0003022000e28a20001e009000ae009000b6
:10119c0062fc070071458000a0a52500808f5000df
:1011ac0002003a00a0a52500e048880002022000b9
:1011bc001e009000ae00900073fc0700013b800005
:1011cc000000280000806000e00f5000fbff3a0098
:1011dc00029020001e009000ae00900089fc0700d9
:1011ec00013b80000000280000806000e00f5000f0
:1011fc00fbff3a000002eb0003022000e28c20000f
:10120c001e009000ae00900044fc0700013b8000e3
:10121c000000280000806000e00f5000fbff3a0047
:10122c00a0a5250000488800200020001048880058
:10123c003000200020488800a0aa2a0030488800ee
:10124c00f00f200040488800001020005048880013
:10125c0080672500f0488800020220001e009000e4
:10126c00ae00900048fc0700013b80000000280005
:10127c0000806000e00f5000fbff3a00029020005d
:10128c001e009000ae0090005efc0700013b800049
:10129c000000280000806000e00f5000fbff3a00c7
:1012ac000002eb0003022000e28c20001e009000e4
:1012bc00ae00900019fc0700013b800000002800e4
:1012cc0000806000e00f5000fbff3a00ffff37008a
:1012dc000000fa00d302a900d322a900d502a9006c
:1012ec00d522a900c6c2a900c6e2a900c702a9005e
:1012fc00c722a900c602a900c622a900c642a9009d
:10130c00cda2a900cdc2a800c662a900c682a900c0
:10131c00c6a2a900de82a900dea2a800dec2a80037
:10132c000080fa00000006000000fa00e0fb2f002d
:10133c003ffc070072062000d175270000fa2d0033
:10134c005dfc07000080fa00000006000000fa00b7
:10135c00b0ff2f005cfc07000000eb0032fc070024
:10136c0001f42100d0f82f0068fc07000080fa007f
:10137c00000006000000fa0050ff2f0067fc070079
:10138c0002fa200001fa200060ff2d0074fc070017
:10139c0040ff2f007afc07000000eb0089fc0700df
:1013ac0001f42100d0fb2f0088fc07000080fa001c
:1013bc0000000600829fbe00849fbe00869fbe0078
:1013cc000603200045002000f2002000820160008e
:1013dc004400de006918e10001003400e78141009f
:1013ec0006824100841f78008502e900f7ff3a006d
:1013fc004f007800801878004f0078008018780033
:10140c004f007800801878004f0078008018780022
:10141c008100b1004f03be004f02be004f01be0061
:04142c0000000600b6
:020000040000fa
:1014300050080000a400000000000000f4080000b4
:10144000300000000200000000000000000000006a
:101450006208000000000000aaaabb00bbcccc00c0
:10146000ddddee00eeffff00cdabde00bcefcd001a
:10147000fade000000111100222233003344440040
:0c148000555500000000000000000000b6
:020000040000fa
:0200000400fffb
:10f8000000000000010000000200000003000000f2
:10f8100004000000050000000600000007000000d2
:10f8200008000000090000000a0000000b000000b2
:10f830000c0000000d0000000e0000000f00000092
:020000040000fa
:0200000400fffb
:08f8400010000000110000009f
:00000001FF
