:020000040000fa
:080000000001040000000000f3
:020000040000fa
:10020000efa220000eff20000e0188000000000079
:100210000c000700a00e22000100200011000700c2
:10022000000020000000e000020032000000020098
:100230000000000078150200000000000040da0015
:100240000000fe004440a900c00320000000e000c0
:100250000300320000002000a00188004440a800f4
:100260000000060091018800800078000000eb008b
:1002700015003700e280400032a0b4009101ba00be
:10028000e280400032a0b4009102ba00e280400057
:1002900032a0b4000002eb00472bde00f507b200ed
:1002a000602ce10004003a000059eb008301e900f2
:1002b000fdff3e00040037006128e100010032002c
:1002c0000082eb00040007001101ba000200e00008
:1002d000e8ff3a00000006003159ba008301e90046
:1002e0000c0032002159ba008301e90008003200f5
:1002f0000400e00003003a00e280400032a0b400b5
:10030000f5ff370011d9ba008301e900faff3a007e
:100310008100e800e180400032a0b4000000060047
:100320000040da000000fe003200f8009101880071
:100330000008bb00410424006210e1000400320008
:10034000000220000010e1000a003a0051042400dd
:10035000013b88000500fc0051052000313b88006e
:10036000a10a2000313b880061e7a80000000000de
:10037000000000003200f900000006003200f80022
:1003800060042400003b8800f2ff37003200f800d0
:100390009101880041002400013b88000208bb0055
:1003a000ecff37003200f800910188005100240072
:1003b000013b8800030120003218bb008301e900e3
:1003c000fdff3a00e3ff37003200f800910188009a
:1003d0008002780062004000e08048003549ba00a1
:1003e0003204e0000410a700100032008301e9008d
:1003f0000e0032002549ba003204e0000410a700c4
:100400000a0032008301e900080032000408a3005a
:10041000eeff320015c9ba003204e0000410a70054
:10042000020032008301e900e8ff3a003200f900df
:100430000000060000c0da00000006000a00fa0012
:10044000e20f500021003e0060518000e10f50009b
:1004500006003200e5212000a42120008321200095
:1004600060212000e08f520004003a004521200066
:1004700004212000e3202000c020200006002800e6
:100480009003630002003a00870a780010087300a6
:10049000004020001300600001003a0013a0a000fb
:1004a0000200780006003700930278000510b200c1
:1004b000fdff3200b102fb00050a78000000e900f0
:1004c000e00f5000f8ff3a0008003700330020002a
:1004d000b3bf9f00c0bf9f00d1bf9f00e2bf9f007e
:1004e0006a805700d3ff07006fb9970002007800b9
:1004f0000080fa00000006006022b800060220001a
:100500000000d0008180d2000482d2008582d20017
:100510000000a0000202520083825a000300310052
:100520000202420083824a000000a1000603e900a3
:10053000f3ff3a0000000600efff07000400be00d2
:1005400000000600889fbe008a9fbe003004be00e7
:100550002005be000404440085844c0006054d00bf
:1005600087854d000898be000a90be0095000700e0
:1005700002003100680040001008e8004f05be008e
:100580004f04be0000000600889fbe008a9fbe0088
:100590008c1f7800000678003c04be002c05be00cd
:1005a0000400540085805c0006015d0087815d00c9
:1005b000009ebe00029ebe001000200081000700c9
:1005c000010039000000eb001c0e10004f067800ff
:1005d0004f05be004f04be00000006001200fa00e6
:1005e000889fbe008a9fbe008c9fbe000205be0091
:1005f0000004be00e4b79f00f5b79f0086bf9f00d0
:1006000097bf9f000000eb00d0b79f00c0b79f00ce
:10061000b0b79f00a0b79f0090b79f00000678007a
:10062000fd032000dfb197004fb097000381410028
:10063000bfb09700e08f510004003d006600070046
:100640007e805700bfff07000300370062000700ed
:100650007e805700ccff0700dfb09700e08f50008e
:100660000700350014002000050020006033b800aa
:1006700008047200898472000a0573008b85730078
:100680000c06e8008d0f5600e6ff3400e08f5000a6
:1006900006003d006fb29700ffb297000fbb9700b6
:1006a0009fbb97007e805700a6ff07005fa89700ba
:1006b000e00f500004003a001fb49700afb4970059
:1006c0003fb59700cfb597000800be000a01be00f5
:1006d0004f06be004f05be004f04be000080fa006a
:1006e00000000600881f780018002000881f78008e
:1006f000baff07008f87e9004f047800000006006a
:10070000801feb00b5ff07008f87e900000006009f
:10071000889fbe008a9fbe008c1f78004e00070095
:1007200005003d005100070009003d005b00070087
:100730000006eb00060037005d00070004003d00e6
:100740006044b8006055b800540007001c00200049
:10075000e4ff0700e00f5600010032005a000700d6
:100760004f0678004f05be004f04be000000060093
:10077000889fbe008a9fbe008c1f7800360007004d
:1007800003003d003900070006003d00040037006b
:100790004700070003003d006044b8006055b80002
:1007a0003e000700d6ff0700e00f560001003200b0
:1007b000450007004f0678004f05be004f04be00fd
:1007c000000006000440e10005c8e10006d0e10099
:1007d00007d8e10000000600cf01de0002817100b1
:1007e000b2b79f004f09de0000004000000071001a
:1007f000a0b79f000fb097004f01de00818040003e
:100800008100710091b79f007faa9700cf20de0082
:10081000000040000080700080b79f000800be000c
:100820000a01be004f18de000402420000027200fe
:10083000f4af9f000804440089844c000a054d0071
:100840008b854d004fb29700dfb297006fb39700d2
:10085000ffb3970000000600e00f5000e08f580043
:10086000e00f5900e08f5900000006006044b80016
:100870006055b8000000540081805c0002015d00fa
:1008800083815d001c0020000820e10009a8e10030
:100890000ab0e1000bb8e1000000060004025400b9
:1008a00085825c0006035d0087835d000000060012
:1008b0000006eb00e00f5200e08f5a00e00f5b00f3
:1008c000e08f5b00000006006022b8006033b800d3
:1008d0000000520081805a0002015b0083815b00ae
:1008e00000000600889fbe008a9fbe008c1f780013
:1008f0000006eb00e00f5000e08f5800e00f5900b9
:10090000e08f590007003d006044b8006055b80012
:100910000000540081805c0002015d0083815d0065
:100920001c002000e00f5200e08f5a00e00f5b0037
:10093000e08f5b0007003d006044b8006055b800e0
:100940000402540085825c0006035d0087835d001d
:100950000c00a20012000700e00f56000600320053
:100960006022b8006033b8000000520081805a0055
:1009700002015b0083815b004f0678004f05be00db
:100980004f04be0000000600020ab900001bb900b7
:100990000200b80081004200810043000000060010
:1009a000889fbe008a9fbe008c9fbe000404b800d2
:1009b0000506b8008904460060854e000606b800aa
:1009c0000a054600e0854e000706b8008b05460084
:1009d000040eb800890446000a854e00e0854d00eb
:1009e000050eb8000a0546008b854e00060eb800bd
:1009f0008b0546000416b8000a0546008b854e009c
:100a00000516b8008b054600041eb8008b0546008d
:100a10000800be000a01be004f06be004f05be0022
:100a20004f04be00000006005008880000000600c9
:100a30008520a9008540a900670160004411dd0000
:100a4000c3048000f1f82f00818061008280700073
:100a5000c1048800000178000207b2004411dd00e3
:100a6000c3048000f18f2f008180610082807000bc
:100a7000c1048800680160004311de00610161006b
:100a80004911dd00610480000190a10082807000a6
:100a9000610488000008b2004700de0061006000c9
:100aa0004a00dd006104800001a0a1008080700088
:100ab0006104880000000600a21088006010880011
:100ac000711088000000060084e0a9006701600042
:100ad0004c11dd00b3048000f1ff2800818061002b
:100ae00082807000b104880068006000c300de00ee
:100af000e1806000c708dd00600480000070a10094
:100b00000100700060048800000006000a21ef0068
:100b10007108880090088800000006008440a90041
:100b2000670160004811dd00a3048000f18f2f00f1
:100b30008180610082807000a104880068006000ec
:100b4000c300de00e1806000c208dd0060048000b8
:100b50000020a10001007000600488000000060071
:100b600083ff2f008001fd008421b6008001fd007d
:100b7000010c8800120c8800200c88000000060080
:100b800084c0a900670160004811dd00b304800043
:100b9000f18f2f008180610082807000b104880095
:100ba00068006000c300de00e1806000c608dd0070
:100bb000600480000060a1000100700060048800f3
:100bc0000000060030088800000006000621ef0043
:100bd00061088800800888001061a90000000600f4
:100be000889fbe000004be00060037000000fb0026
:100bf000890078001a000700e10f4000050032006c
:100c00000804e80018407800e04f5000f7ff3a0071
:100c10000000eb004f04be0000000600881f7800b3
:100c2000c1a02000eeff070000047800c1a0200052
:100c3000a00020000a000700080078004f04780098
:100c4000000006000000fa0068815700cfb8970046
:100c5000c0a02000470007000080fa000000060046
:100c6000889fbe0001047800b80090006281600097
:100c70008084eb003c003200810178000320b20048
:100c80001801900002003a00e00f510036003a00cf
:100c90000190a0003104980080047800f90fb200a0
:100ca000e00f510002003a0028009000000c78008c
:100cb000ea8f540006003a00010078000008b200f4
:100cc00003003a0088007800d0002000e4ff07000d
:100cd00018009000d8009000810f50000b003200e7
:100ce0000000e80010049800180078000948780017
:100cf000000ce80010c0b30061a22000804878001a
:100d0000ea8f540018003a00050037008800780088
:100d100009407800ee0307008004780012003700d5
:100d2000380090000010b2000f003200180190004f
:100d3000a800900048009000c0fd070098009000b7
:100d4000810f500004003200380090000003b3000f
:100d5000300498008084eb000000eb001004980041
:100d600028009000000c7800090078004f04be00b5
:100d7000000006000f04b000889fbe008a9fbe00de
:100d80008c9fbe008e1f7800c0b79f00d1af9f0020
:100d9000a2b79f000000eb00c0033700dfa8970058
:100da0008100e800d1af9f0052c2b30082cf520051
:100db00006003a000007eb0006c3b30003c2b3000d
:100dc000b1c2b3005fa8970014003700cfb19700fd
:100dd000330190000204b2000500320003027800e3
:100de0009401780085497800030ae800070037007d
:100df0000501fb00cfb097000200780098ff0700c4
:100e000000017800e10f4100a5033200bfb2970056
:100e10008502e800b5b79f00a10337009042780033
:100e2000d7c2b30087cf52000b0032000001e800a8
:100e300087cf520005003c0083cf520009003200ea
:100e400081cf52000e003a000800370086cf5200d2
:100e50000b003a00070037000e30a0000000e80049
:100e6000eeff37000e00a000030037000e10a000b8
:100e7000010037000e20a00002007800e7ff3700d5
:100e8000d0af9f00e2016700010032000e00a10018
:100e9000e8016700010032000e20a1008501fb007f
:100ea0000303b100e98f51000d003e000000200057
:100eb0005fa997006a00b9000003b1009200fb002f
:100ec00001004000d200fb000103b100e98f500097
:100ed000f8ff3600c0af9f00d2af9f000c00370074
:100ee0008004eb00c9af9f00a3c2b30083cf5200c0
:100ef00007003a002fb59700ca057800aab79f00ef
:100f0000cbaf9f005fa897000000e800d0af9f0024
:100f10008000eb00e1af9f00e3c2b3005fa9970040
:100f200092cf11001e003a000ee0a000e4c1510073
:100f30000201e800d2af9f0012427800834f5200b6
:100f40000d003a00afb2970045037800a5b79f00a7
:100f5000e6af9f00820378008703e800070178006e
:100f6000100037006a00b9000003b1000200400021
:100f70008301e800020037006fa89700dfa99700ff
:100f80001301fb0001fd2f0082804000e98f50001b
:100f9000f4ff3600e0af9f00030178000100370046
:100fa0005fa9970032427800c4779f00c8c6b3009b
:100fb000884f520023003200d2af9f000f003c0048
:100fc00035c6b300854f5200a700320004003c0034
:100fd000e04f52003703320083c5b3000f003700e3
:100fe00043c6b300834f5200c4003200e5c1410044
:100ff000834f5200ba003a00c000370035c7b30033
:10100000854f52001a00320007003c00f3c6b300bf
:10101000834f5200110032008341e800834f520099
:10102000af003a000f00370053c7b300834f5200a0
:10103000b1003200e3c14100834f5200a8003a00e2
:1010400009003700700067000100280001003a0025
:101050000101200001077700d2ff37000e60a000d9
:10106000a60037000e50a0000e70a000a3003700ad
:10107000afb49700c9027800a9b79f00d5b79f0009
:10108000e08f520002003a008b9f2000dbb79f00e8
:101090000000eb00e0b79f005fb09700efb0970053
:1010a0007fb197008fb99700010037008500e800f5
:1010b0008102780061427800e04f5200fbff3a0065
:1010c000d0b79f00e1b79f00f2b79f0083bf9f009a
:1010d000efaa9700e08f5200050032006fb397002f
:1010e000868f52000200310085037800e7b79f0029
:1010f000efb297000006eb004fac9700850f54004d
:101100000100360005065400680767002f003a000a
:101110008c01780008c2b300cfb6970010003700ea
:101120003d0090000004b200040032001d00780071
:1011300008487800800ee800050037008d00780030
:1011400000022000c6fe0700e10f4000030032004d
:10115000bfb497008904e800b9b79f008c017800fc
:101160000c06e900e08f5100edff3a001700370050
:101170003d0090000004b200090032009d0178009b
:10118000080178003240780080497800830ee8003a
:1011900002047800e04f500008003a0010003700c9
:1011a000080178003200fb00020478008d0078000e
:1011b000abfe0700e10f4000090032003fb097008e
:1011c0000000e800b0b79f00050037005fb497004b
:1011d000efb497007fb597008fbd9700cfb697000b
:1011e000090078008004e900e00f5000e0ff3a00b9
:1011f000d8b79f00e9b79f00fab79f008bbf9f0049
:10120000e00f5700a60232001100370038009000ae
:101210000004b20004003200180078000d48780085
:10122000000ce8000500370088007800000220006c
:101230008bfe0700e10f400003003200bfb29700b1
:101240008502e800b5b79f000e067800020037005f
:101250000dc2b3004fb497000c07e900e00f560031
:10126000eaff3a008e0237002fb397004604780059
:10127000a6b79f00cfc4de00090578008a05780074
:101280000802be000a03be004822de004828dd0036
:1012900004027000c4779f007006670009003200e6
:1012a000e04f520007003200e14f420005003200db
:1012b000d4779f00e8779f0021002000e1b79f00ce
:1012c00003003700d8779f0012002000e2b79f008c
:1012d00053fb2f0083814700d3b79f007cff37006b
:1012e00044fb2f0004824700d4b79f001500200064
:1012f000e5b79f0076ff37000e0cb3000e007800b4
:10130000000cb2003b003a00e00f570005003d0022
:101310002fb097004005be004004be00a0b79f005c
:101320000f00370070006700120032002fb29700e4
:101330004401be00a4b79f00e29f9f00f39f9f005f
:10134000140090004f80de0080a79f0090a79f00b0
:101350006f9c9700ff9c97000fa597009fa5970093
:10136000d8b79f00e9b79f00fab79f008bbf9f00d7
:101370000b003700afb4970049027800a9b79f006f
:1013800004007800cf80de0001017800820178003f
:10139000d0b79f00e1b79f00f2b79f0083bf9f00c7
:1013a0005fb29700efb297007fb397008fbb9700b3
:1013b000e00f5200e08f5a00e00f5b00e08f5b000f
:1013c00032003d003e00b3006022b8006033b80038
:1013d0005fb49700efb497007fb597008fbd97007b
:1013e0000804520089845a000a055b008b855b0063
:1013f00022003700e00f570005003d002fb2970094
:101400004401be004400be00a4b79f000f00370097
:1014100070006700120032002fb497004803be002e
:10142000a8b79f00e6a79f00f7a79f008004eb00e6
:1014300089af9f000005eb009aaf9f006fa0970057
:10144000ffa097000fa997009fa99700d0b79f0012
:10145000e1b79f00f2b79f0083bf9f000b003700ea
:10146000afb0970041027800a1b79f000404780054
:10147000090020000a0020000b002000d8b79f00c0
:10148000e9b79f00fab79f008bbf9f00efac9700b2
:10149000e08f54000d003a001a002000eaaf9f00d0
:1014a0005fb09700efb097007fb197008fb99700ba
:1014b000e00f5000e08f5800e00f5900e08f590016
:1014c000020032008000eb00e1af9f000e017800c7
:1014d000020cb200b2af9f0005042000850f51003e
:1014e0003f00320003003c00e00f510008003200d2
:1014f0005600370004082000bfa99700848f5100d0
:101500001b003200040c2000848f51004f003a0071
:1015100013c0b300c3779f00619320001000370011
:101520000200fb004300dd00008040003002be00ee
:101530002003be005fb49700efb497007fb597001b
:101540008fbd97000440e10005c8e10006d0e1002e
:1015500007d8e1003d0039000241e800c2779f0052
:101560004f719700f44f5100edff3a0037003700fc
:1015700013c0b300c3779f000401200005002000c2
:101580006033b800120037005fb49700efb49700e3
:101590007fb597008fbd97000440e10005c8e100ca
:1015a00006d0e10007d8e1002800390049002000fa
:1015b0000402d0008582d2000683d2008783d20045
:1015c0008904e900faff3a000040e800c0779f0074
:1015d0004f709700f04f5000ebff3a001b003700b0
:1015e00013c0b300c3779f008400200005002000d3
:1015f0006033b800120037005fb49700efb4970073
:101600007fb597008fbd97000440e10005c8e10059
:1016100006d0e10007d8e1000c00390039002000b5
:101620000402d0008582d2000683d2008783d200d4
:101630008904e900faff3a000040e800c0779f0003
:101640004f709700f54f5000ebff3a004f75970031
:101650008a02fb00efad97008b8f520002003d0025
:10166000cb779f00040037006fa89700850f5000cc
:1016700001003d00e5af9f00cfa89700e08f50002c
:101680000400320063026700020032008100e900ba
:10169000c1af9f000400240004026700090032006b
:1016a0004fa99700efa99700830f51000300340062
:1016b00003015100c2af9f00020037000002eb009f
:1016c000c4af9f004f7397008602fb008003eb00be
:1016d000a7af9f004fac9700850f54000200340065
:1016e00085025400a5af9f00640267004c003200e1
:1016f000e202670061036700e08f52001b003200c6
:10170000cfb49700390290000404b20009003200ff
:1017100099037800b5c2b300e00f53000100320016
:1017200085c2e800854b78004fb59700070de800ab
:101730000a003700d5022000e00f530001003a00f4
:101740008582e900cfb097000500780044fd0700ce
:1017500000027800e10f420018003200bfb5970088
:101760008b05e800bbb79f0014003700e00f530063
:10177000120032004fb09700300290000404b20013
:10178000050032009002780003c2b300834a78005b
:101790000508e80006003700cfb0970000022000df
:1017a0002ffd070000027800e10f42000300320025
:1017b000bfb097008100e800b1b79f002fa9970044
:1017c000e00f51001101320008c3b3008206780017
:1017d0004fb697003c0090000004b20004003200b5
:1017e0001c00780008487800000ee800050037006b
:1017f0008c0078000003200019fd0700e10f400075
:1018000003003200bfb197008301e800b3b79f0027
:101810008d06e900efff3a00adaf9f00fb003700f7
:101820002faa9700e00f52001700320068026700ed
:1018300015003a0008c2b300afae97004fb697004c
:101840003c0090000004b200040032001c0078004c
:1018500008487800000ee800050037008c0078008a
:1018600000022000fefc0700e10f400003003200f0
:10187000bfb297008502e800b5b79f008d06e9006a
:10188000efff3a00adaf9f00e2026700610367001f
:10189000e08f52001c003200cfb397003702900057
:1018a0000404b2000a0032000704780098037800ac
:1018b000b5c2b300e00f53000100320085c2e8005a
:1018c000854b7800cfb49700870ce8000a003700fa
:1018d000d5022000e00f530001003a008582e900a4
:1018e000cfb0970005007800ddfc0700000278000b
:1018f000e10f4200c50032003fb597000a05e8003d
:10190000bab79f00c1003700e00f5300bf0032009c
:10191000cfb597003b0290000404b20005003200ee
:101920009b02780003c2b300834a7800850de8006b
:1019300006003700cfb0970000022000c8fc070067
:1019400000027800e10f4200b00032003fb0970083
:101950000000e800b0b79f00ac0037000e07e900b8
:1019600000042000bfa89700808f50008200320042
:1019700003003c00e08f5000080032008e0037006a
:10198000000820003fa99700800f51006500320039
:10199000000c2000800f510087003a004370dd00ea
:1019a000cfa99700e08f51002a003d0064932000ea
:1019b000000042003004be002005be00e8af9f00da
:1019c000f9af9f008ab79f009bb79f000802be0037
:1019d0000a03be005fb09700efb097007fb1970099
:1019e0008fb997003ffb0700c0779f000004fb0002
:1019f000cfc4de00090578008a0578006faa970039
:101a0000ffaa97000fb397009fb397000800be008e
:101a10000a01be00b3fb07000203be000002be00c5
:101a20005fb09700efb097007fb197008fb9970034
:101a30000400500085805800060159008781590034
:101a4000d0b79f00e1b79f00f2b79f0083bf9f0010
:101a500030003700df989700e08f50001f00320001
:101a60005fb69700efb69700629320000000410038
:101a70003004be002005be000801be000c00be0000
:101a80009dfa0700c0779f000000fb00cf80de00ba
:101a90000801be00bcfb07000002560081825e0008
:101aa000a4a79f00b5a79f008002eb00c5a79f00d9
:101ab0000003eb00d6a79f002fa49700bfa49700b8
:101ac0004fa59700dfa59700d8b79f00e9b79f0003
:101ad000fab79f008bbf9f000e003700699320006c
:101ae000690178005fb59700811f78001100090037
:101af0000285d800cf007800a2002000811f780066
:101b0000110009000280d80001007800cf007800a1
:101b1000c0779f00cf7597000b43b000cb779f0035
:101b200025003700649d20004f989700e00f50007b
:101b300001003a00749e20004270dd005fb49700ff
:101b4000efb497007fb597008fbd970080027800b3
:101b50008502e900050033008b05d1000a85d3001a
:101b60008984d3000884d300f9ff37006f00640034
:101b7000644078000f0037006370b9005fb49700cd
:101b8000efb497007fb597008fbd970000027800f3
:101b90000402e900050033008b05d1000a85d3005b
:101ba0008984d3000884d300f9ff370067406400bc
:101bb0000043b000c0779f00cfb29700350090007f
:101bc0000004b20007003200150178004f70970042
:101bd00000497800820ae800e04f500007003a0010
:101be000120037004f7397000600fb00cfb097003c
:101bf0001bfc0700e10f40000c003200bfb3970050
:101c00008703e800b7b79f0008003700700467003b
:101c1000d89f9f008e0478000902b200c99f9f00e0
:101c20000e057800caaf9f006faf9700e00f570016
:101c30004aff3a004faf9700680167001800320072
:101c4000afad9700e08f55001500340008c2b30017
:101c50008b0678003fb797004fb697003c00900086
:101c60000004b200040032001c007800084878002c
:101c7000000ee800050037008c007800000220000c
:101c8000f7fb0700e10f4000010032000e07e800fb
:101c90008d06e900f1ff3a000e007800b0b79f0012
:101ca000dfa8970091427800c5779f00e0cf5200ef
:101cb0003afc3a003fb097004f0778004f06be004d
:101cc0004f05be004f04be000f04b1000000060027
:101cd0000200fa00889fbe00a0ff9f000104780068
:101ce00038009000800078000104b20033003a0010
:101cf000e200600005003a000003b30030049800e1
:101d0000110498000080eb002e003700d8049000ea
:101d1000e08f540006003a0012002000e6805700d1
:101d200048009000c5f90700190498002300370007
:101d3000a8009000e08f500008003a0091a2200017
:101d400021049800010c7800210020005104980023
:101d5000110498000030a000300498001801900091
:101d6000a800900048009000b4f9070028009000f7
:101d70008080eb0011049800aff8970001487800cc
:101d8000000ce8002ff89700ea4f50000b003a00d3
:101d9000380090000010b2000800320018019000d6
:101da000a800900048009000a4f907000000eb0094
:101db00010049800a8009000010c7800aff897007c
:101dc0000100fb004f04be000080fa000000060086
:020000040000fa
:0200000401f009
:04000000eebf00004f
:020000040000fa
:0200000401f009
:04000400ff7f00007a
:020000040000fa
:0200000401f009
:04000800fcff0000f9
:020000040000fa
:0200000401f009
:04001400ffff0000ea
:020000040000fa
:1000080090010000900100009001000090010000a4
:100018009001000090010000900100009001000094
:10002800900100009001000064150000900100009c
:100038009001000090010000900100006c14000085
:10004800900100005a1400004614000090010000be
:100058009001000090010000900100009001000054
:100068009001000090010000900100009001000044
:100078009001000090010000900100009001000034
:100088009001000090010000900100009001000024
:100098009001000090010000900100009001000014
:1000a8009001000090010000900100009001000004
:1000b80090010000900100009001000090010000f4
:1000c80090010000900100009001000090010000e4
:1000d80090010000900100009001000090010000d4
:1000e80090010000900100009001000090010000c4
:0800f8009001000090010000de
:020000040000fa
:1001080090010000900100009001000090010000a3
:100118009001000090010000900100009001000093
:10012800900100009001000064150000900100009b
:100138009001000090010000900100006c14000084
:10014800900100005a1400004614000090010000bd
:100158009001000090010000900100009001000053
:100168009001000090010000900100009001000043
:100178009001000090010000900100009001000033
:100188009001000090010000900100009001000023
:100198009001000090010000900100009001000013
:1001a8009001000090010000900100009001000003
:1001b80090010000900100009001000090010000f3
:1001c80090010000900100009001000090010000e3
:1001d80090010000900100009001000090010000d3
:1001e80090010000900100009001000090010000c3
:0801f8009001000090010000dd
:020000040000fa
:101dd00052530000545f0000434e0000543a00008c
:101de000005200004553000045540000204300000d
:101df0004155000053450000204d000053420000b3
:101e00005b640000656300002e5d00000d000000b3
:101e1000257800000a0000005245000053450000ec
:101e200054200000434100005553000045200000ad
:101e30004c530000425b000064650000632e00000c
:081e40005d0d00000000000030
:020000040000fa
:101e48000200fa00000f78000040eb0000e8b7003d
:101e58000040eb0001e8b7000040eb0002e8b700e3
:101e68000040eb0003e8b70065003700303320007e
:101e78009e007800808f50000600360000c8bf0022
:101e88000040e80000e8b700c0cc2f001e0f40005b
:101e98005b003700100520009e007800808f5000fe
:101ea80013003600303320009e007800808f5000e9
:101eb8000f003e0001c8bf00e84f500004003c007e
:101ec80001c8bf000040e80001e8b700050037007e
:101ed80000c8bf000040e80000e8b7000040eb0081
:101ee80001e8b700e0fa2f001e0f40004400370059
:101ef8001e007800e80f50001c0036001005200076
:101f08009e007800808f500018003e0002c8bf0075
:101f1800e84f500004003c0002c8bf000040e80041
:101f280002e8b7000e0037000040eb0002e8b700f7
:101f380001c8bf00e84f500004003c0001c8bf00c2
:101f48000040e80001e8b7000500370000c8bf00fe
:101f58000040e80000e8b7000040eb0001e8b700e7
:101f68001e007800690f5000250037001e00780019
:101f7800e00f5000220032001e007800e80f5000e9
:101f88001f003e0003c8bf00e84f500004003c009b
:101f980003c8bf000040e80003e8b7001700370097
:101fa8000040eb0003e8b70002c8bf00e84f50004c
:101fb80004003c0002c8bf000040e80002e8b70087
:101fc8000e0037000040eb0002e8b70001c8bf0070
:101fd800e84f500004003c0001c8bf000040e80082
:101fe80001e8b7000500370000c8bf000040e8005e
:101ff80000e8b7000040eb0001e8b7001e0fe90059
:102008001e007800e00f500098ff3a0000c8bf009b
:102018000043b00000e8b70001c8bf000043b000ab
:1020280001e8b70002c8bf000043b00002e8b700eb
:1020380003c8bf000043b00003e8b7000080fa00ff
:10204800000006000400fa00008fbe000040eb000c
:1020580004e8b7000040eb0005e8b7000040eb00db
:1020680006e8b7000040eb0007e8b7000040eb00c7
:1020780008e8b700b5003700f07022000100200022
:102088001e01be00800f5100818f590008003600e4
:1020980004c8bf000040e80004e8b700008f2d0026
:1020a800f1ff2f001e0f40005e974800a700370081
:1020b800703e2000010020001e01be00800f51006c
:1020c800818f590017003600f070220001002000af
:1020d8001e01be00800f5100818f590011003e0083
:1020e80005c8bf00e84f500004003c0005c8bf0009
:1020f8000040e80005e8b7000500370004c8bf0045
:102108000040e80004e8b7000040eb0005e8b7002d
:1021180080c12f00f1ff2f001e0f40005e9748007e
:102128008a00370030062000010020001e01be0092
:10213800800f5100818f590020003600703e20002a
:10214800010020001e01be00800f5100818f590040
:102158001a003e0006c8bf00e84f500004003c00cb
:1021680006c8bf000040e80006e8b7000e003700c8
:102178000040eb0006e8b70005c8bf00e84f500074
:1021880004003c0005c8bf000040e80005e8b700af
:102198000500370004c8bf000040e80004e8b700a5
:1021a8000040eb0005e8b700c0f92f00f1ff2f0051
:1021b8001e0f40005e974800640037001e01be00f5
:1021c8009000200001002000800f5100818f5900ed
:1021d8002900360030062000010020001e01be0044
:1021e800800f5100818f590023003e0007c8bf00af
:1021f800e84f500004003c0007c8bf000040e8005a
:1022080007e8b700170037000040eb0007e8b70001
:1022180006c8bf00e84f500004003c0006c8bf00d5
:102228000040e80006e8b7000e0037000040eb0069
:1022380006e8b70005c8bf00e84f500004003c009e
:1022480005c8bf000040e80005e8b70005003700f2
:1022580004c8bf000040e80004e8b7000040eb00f5
:1022680005e8b70060ff2f00f1ff2f001e0f4000a8
:102278005e974800350037001e00be00e00f500092
:10228800e08f5800310032001e01be00900020008f
:1022980001002000800f5100818f59002b003e0063
:1022a80008c8bf00e84f500004003c0008c8bf0041
:1022b8000040e80008e8b700200037000040eb00c5
:1022c80008e8b70007c8bf00e84f500004003c000a
:1022d80007c8bf000040e80007e8b700170037004c
:1022e8000040eb0007e8b70006c8bf00e84f500001
:1022f80004003c0006c8bf000040e80006e8b7003c
:102308000e0037000040eb0006e8b70005c8bf0024
:10231800e84f500004003c0005c8bf000040e8003a
:1023280005e8b7000500370004c8bf000040e80012
:1023380004e8b7000040eb0005e8b7000080eb00b8
:102348008080eb001e0f40005e9748001e00be0014
:10235800e00f5000e08f580047ff3a0004c8bf0064
:102368000043b00004e8b70005c8bf000043b00050
:1023780005e8b70006c8bf000043b00006e8b7008c
:1023880007c8bf000043b00007e8b70008c8bf008f
:102398000043b00008e8b7000080fa00000006001b
:1023a8000400fa00204798002e409000004f780063
:1023b80051168000f0c32f00808060001e41780015
:1023c8000280fb004400de00004078000080fb0033
:1023d8006f0060004600dd00008070005016880025
:1023e800ca22a900ca42a80050002000010020000b
:1023f800ed000700ca42a90050002000010020009b
:10240800e900070051168000f0c32f0080806000ab
:102418002e4090000080fb006f0060004600dd0049
:102428000080700050168800ca22a900ca42a8007d
:102438005000200001002000db000700ca42a9006c
:102448000080fa00000006000200fa00004f780041
:10245800803e200001002000d3000700ca02a90026
:102468001e407800ceff07000080fa00000006003a
:102478000200fa00004f7800803e20000100200092
:10248800c9000700ca02a8001e407800c4ff070060
:102498000080fa00000006000200fa00004f7800f1
:1024a8001e407800f2ff07000080fa0000000600d6
:1024b8000200fa00004f78001147980000c8b300e6
:1024c8001e407000804078001e4090000080fb0095
:1024d8004600dd000040780000c07000daff070009
:1024e8000080fa00000006000a00fa003007980091
:1024f800014f9800124f9800a0802000000f78002c
:102508009e0078003e009000aa0707009e489000b1
:102518000e489000e6ff07000000eb001007980047
:102528000d0037001e007800900078002107980001
:102538001e8fe8001e009000e10f500003003400d9
:102548002e00900000407800d3ff07001e00900086
:102558000000e800100798001e009000e30f5000ec
:10256800f0ff34000080fa00000006000600fa00c0
:102578001007980041479800524798000040eb0028
:10258800004f7800de4090004e409000c8ff0700e2
:10259800070037009e4078000180fb009e009000f5
:1025a8000080400010407800bbff07001e4fe80085
:1025b8009e4078000180fb009e0090000080400053
:1025c80010407800e04f5000f2ff3a000080fa0017
:1025d800000006000400fa00000f78002147980068
:1025e800324798001e007800e00f500001003d00bf
:1025f8001e0fea001e007800cf80de0091fe070063
:1026080005c8bf00a4ff070006c8bf00a2ff070057
:1026180007c8bf00a0ff070008c8bf009eff07004b
:102628000080fa00000006000000fa00f0ff2f000a
:10263800010020005c000700f0ff2f0001002000cf
:1026480059000700f0ff2f00010020005600070086
:10265800f0ff2f00010020005300070051168000f2
:10266800f0c32f0080806000000c20000080700004
:102678005016880031168000f0c32f0000806000db
:1026880030168800ca22a900ca42a80050002000bb
:102698000100200044000700ca42a900f0ff2f00f3
:1026a800010020004000070051168000f0c32f00f1
:1026b80080806000000c20000080700050168800a8
:1026c800ca42a80050002000010020003600070080
:1026d800ca42a90051168000f0c32f008080600014
:1026e800000c20000080700050168800ca22a90043
:1026f80050002000010020002b000700ca42a8005b
:10270800500020000100200027000700ca42a9004d
:102718004006200001002000230007005116800019
:10272800f0c32f0080806000000820000080700047
:1027380050168800ca42a80050002000010020005e
:1027480019000700ca42a90080c2b3003eff070073
:1027580060c0b3003cff0700c0c0b3003aff0700e9
:1027680010c0b30038ff070000c8b30036ff0700e9
:102778000080fa00000006000000fa0020c0b30044
:1027880031ff07000080fa00000006000000fa0090
:1027980020c0b3002cff070010c0b3002aff0700b9
:1027a8000080fa00000006000400fa00008fbe0056
:1027b800000000001e0090001e0070008000ea006b
:1027c800008070004f00de00004078000081eb00c0
:1027d8008081eb001e0f41005e974900e04f5000da
:1027e800f4ff3a000080fa00000006000200fa0038
:1027f800881f7800004f78000044eb00090037007c
:1028080000000000000000000000000000000000c0
:1028180000000000000000000000000000000000b0
:102828000844e8009e4f5400f5ff39004f04780033
:102838000080fa00000006000200fa00881f7800f5
:10284800000f78000004eb0009003700a0cfb300a8
:10285800e6ff0700a0cfb300e4ff0700a0cfb30056
:10286800e2ff0700a0cfb300e0ff07000804e8007c
:102878009e0f5400f5ff39004f0478000080fa00dd
:10288800000006003400f800881f780008002000c7
:10289800a80188004f0478000000fa008540a900cc
:1028a8000080fa003400f900004006003400f80007
:1028b800881f780008002000a80188004f047800cd
:1028c8000000fa000080fa003400f9000040060019
:1028d8003600f800809fbe00829fbe00849fbe0025
:1028e800869fbe003400f80000002000a001880088
:1028f8000000fa000000eb0049f8070084e0a90096
:10290800104880000000e80010488800a0168000e9
:102918004900de006140600000c0ea0061406000dc
:102928000080fb00610060004900dd00a216800005
:10293800f1df2f008100610000807000a016880080
:1029480011488000703e2000808f50000f00360034
:102958000000eb0010488800b1168000001020002d
:1029680000806000e00f500002003a00d502a80085
:1029780001003700d502a90034c9bf00e14f50005b
:1029880002003a0010c0b30035e9b70020c9bf0003
:10299800e14f50002b003a00204880000000e8007a
:1029a8002048880021488000f0f92000808f5000de
:1029b800230036001000200070488800e082a8003c
:1029c80021488000f0f32100808f50001c00360061
:1029d8000000eb00204888000000eb0070488800e9
:1029e800e082a90080488000914880006100400092
:1029f800e08048008048880091488800e0488000ce
:102a0800f148800061004000e0804800e04888000c
:102a1800f1488800824880009348800000802200a6
:102a2800b1e62e00800f5100818f59000400390053
:102a3800f07f2200b1e62e00804888009148880087
:102a480044040700104980002149800061004000cb
:102a5800e080480010498800214988001249800018
:102a680023498000f04b2d0011002000800f5100f9
:102a7800818f5900030036006000b80010498800b3
:102a8800214988001404070030498000e00f5000f5
:102a980003003200304980000000e9003049880016
:102aa8000080fa003400f9004f03be004f02be0058
:102ab8004f01be004f00be003600f900004006007e
:102ac8003400f800881f780008002000a80188005a
:102ad8004f0478000000fa008440a9000080fa0042
:102ae8003400f900004006000000fa005d04070009
:102af8005f000700ccfe07007d00070023ff0700ea
:102b08003f0507000041eb008040eb0080ee280005
:102b180096fe070080498000914980001a0207004c
:102b280061e8b70080498000914980007f02070072
:102b380062e8b7008049800091498000ef020700f1
:102b480063e8b70080498000914980006a03070064
:102b580064e8b7000040eb0065e8b7000041eb000f
:102b680081c0b3001086200080fe0700ca82a8003a
:102b780016050700280407006000b80050488800c0
:102b88006148880052488000634880000080220025
:102b9800b1e62e00800f5100818f590004003900e2
:102ba800f07f2200b1e62e00504888006148880076
:102bb80080488000914880006700070056e8b70009
:102bc80080488000914880008700070057e8b700d8
:102bd8008048800091488000b500070058e8b70099
:102be8008048800091488000ee00070059e8b7004f
:102bf8008048800091488000320107005ae8b700f9
:102c08008048800091488000810107005be8b70098
:102c18008048800091488000db0107005ce8b7002d
:102c28008048800091488000400207005de8b700b6
:102c38008048800091488000b00207005ee8b70035
:102c480080488000914880002b0307005fe8b700a8
:102c58000040eb0060e8b70012c0b30061c0b300e9
:102c68006085200041fe070091040700c1ff37007e
:102c78000000fa00d302a900d322a900d502a900b6
:102c8800d522a900c6c2a900c6e2a900c702a900a8
:102c9800c722a900c602a900c622a900c642a900e7
:102ca800cda2a900cdc2a800c662a900c682a9000b
:102cb800c6a2a900de82a900dea2a800dec2a80082
:102cc800cde2a8000080fa00000006000000fa002b
:102cd800e0fb2f0054f7070072062000d17527008b
:102ce80000fa2d0072f707000080fa0000000600c5
:102cf8000000fa00b0ff2f0071f707000000eb009a
:102d080047f7070001f42100d0f82f007df70700ee
:102d18000080fa00000006000000fa0050ff2f00b3
:102d28007cf7070002fa200001fa200060ff2d005e
:102d380089f7070040ff2f008ff707000000eb001e
:102d48009ef7070001f42100d0fb2f009df7070034
:102d58000080fa00000006000a00fa003007980018
:102d6800410798003e009000ce009000008fbe0002
:102d780000802200b1e62e001e01be00800f510027
:102d8800818f590006003100f09f2c00a1b9230063
:102d98001e01be00800f5100818f590006003e00c1
:102da8000002200001002000008fbe001e007800f5
:102db800004078000a0037001e00be0002a02c0068
:102dc800a3b92300caf50700008fbe001e007800d3
:102dd800004078000043b000404798004e40900003
:102de8000080fa00000006000a00fa003007980088
:102df800410798003e009000ce009000008fbe0072
:102e0800f00f2e00515f20001e01be00800f510000
:102e1800818f590006003e000002200001002000ba
:102e2800008fbe001e007800004078001e003700aa
:102e3800f09f2c00a1b923001e01be00800f510095
:102e4800818f5900050036001e00be0002a02c002c
:102e5800a3b92300b6f50700008fbe00f00f2e00bf
:102e6800515f20001e01be00800f5100818f590064
:102e7800060036001e00be0002102e00535f200020
:102e88009bf50700008fbe00020037006000b80005
:102e9800008fbe001e007800004078000043b0009c
:102ea800404798004e4090000080fa00000006005d
:102eb8000a00fa0030079800410798003e00900089
:102ec800ce009000008fbe00f06729008109200025
:102ed8001e01be00800f5100818f590006003e0080
:102ee8000002200001002000008fbe001e007800b4
:102ef8000040780029003700f09f2c00a1b923007a
:102f08001e01be00800f5100818f59000500360058
:102f18001e00be0002a02c00a3b9230084f5070000
:102f2800008fbe00f00f2e00515f20001e01be0072
:102f3800800f5100818f5900050036001e00be0029
:102f480002102e00535f200079f50700008fbe00a5
:102f5800f0672900810920001e01be00800f510082
:102f6800818f5900060036001e00be000268290045
:102f7800830920005ef50700008fbe0002003700bd
:102f88006000b800008fbe001e0078000040780086
:102f98000043b000404798004e4090000080fa007f
:102fa800000006000a00fa00300798004107980060
:102fb8003e009000ce009000008fbe00f023240059
:102fc800f10020001e01be00800f5100818f5900c2
:102fd80006003e000002200001002000008fbe0015
:102fe8001e0078000040780034003700f09f2c0065
:102ff800a1b923001e01be00800f5100818f590026
:10300800050036001e00be0002a02c00a3b9230054
:1030180047f50700008fbe00f00f2e00515f20001b
:103028001e01be00800f5100818f59000500360037
:103038001e00be0002102e00535f20003cf5070062
:10304800008fbe00f0672900810920001e01be0024
:10305800800f5100818f5900050036001e00be0008
:10306800026829008309200031f50700008fbe009f
:10307800f0232400f10020001e01be00800f510043
:10308800818f5900060036001e00be00022424006d
:10309800f300200016f50700008fbe00020037007d
:1030a8006000b800008fbe001e0078000040780065
:1030b8000043b000404798004e4090000080fa005e
:1030c800000006000a00fa0030079800410798003f
:1030d8003e009000ce009000008fbe00f0692800ee
:1030e800110020001e01be00800f5100818f590081
:1030f80006003e000002200001002000008fbe00f4
:103108001e007800004078003f003700f09f2c0038
:10311800a1b923001e01be00800f5100818f590004
:10312800050036001e00be0002a02c00a3b9230033
:10313800fff40700008fbe00f00f2e00515f200043
:103148001e01be00800f5100818f59000500360016
:103158001e00be0002102e00535f2000f4f407008a
:10316800008fbe00f0672900810920001e01be0003
:10317800800f5100818f5900050036001e00be00e7
:103188000268290083092000e9f40700008fbe00c7
:10319800f0232400f10020001e01be00800f510022
:1031a800818f5900050036001e00be00022424004d
:1031b800f3002000def40700008fbe00f06928004d
:1031c800110020001e01be00800f5100818f5900a0
:1031d800060036001e00be00026a28001300200008
:1031e800c3f40700008fbe00020037006000b8007b
:1031f800008fbe001e007800004078000043b00039
:10320800404798004e4090000080fa0000000600f9
:103218000a00fa0030079800410798003e00900025
:10322800ce009000008fbe00f07022000100200048
:103238001e01be00800f5100818f590006003e001c
:103248000002200001002000008fbe001e00780050
:10325800004078004a003700f09f2c00a1b92300f5
:103268001e01be00800f5100818f590005003600f5
:103278001e00be0002a02c00a3b92300acf4070076
:10328800008fbe00f00f2e00515f20001e01be000f
:10329800800f5100818f5900050036001e00be00c6
:1032a80002102e00535f2000a1f40700008fbe001b
:1032b800f0672900810920001e01be00800f51001f
:1032c800818f5900050036001e00be0002682900e3
:1032d8008309200096f40700008fbe00f023240025
:1032e800f10020001e01be00800f5100818f59009f
:1032f800050036001e00be0002242400f300200052
:103308008bf40700008fbe00f06928001100200030
:103318001e01be00800f5100818f59000500360044
:103328001e00be00026a28001300200080f4070077
:10333800008fbe00f0702200010020001e01be00b8
:10334800800f5100818f5900060036001e00be0014
:10335800027122000300200065f40700008fbe0000
:10336800020037006000b800008fbe001e00780021
:10337800004078000043b000404798004e4090005d
:103388000080fa00000006000a00fa0030079800e2
:10339800410798003e009000ce009000008fbe00cc
:1033a800703e2000010020001e01be00800f510069
:1033b800818f590006003e00000220000100200015
:1033c800008fbe001e0078000040780055003700ce
:1033d800f09f2c00a1b923001e01be00800f5100f0
:1033e800818f5900050036001e00be0002a02c0087
:1033f800a3b923004ef40700008fbe00f00f2e0083
:10340800515f20001e01be00800f5100818f5900be
:10341800050036001e00be0002102e00535f20007b
:1034280043f40700008fbe00f067290081092000df
:103438001e01be00800f5100818f59000500360023
:103448001e00be00026829008309200038f4070026
:10345800008fbe00f0232400f10020001e01be00f2
:10346800800f5100818f5900050036001e00be00f4
:1034780002242400f30020002df40700008fbe0072
:10348800f0692800110020001e01be00800f5100c5
:10349800818f5900050036001e00be00026a280010
:1034a8001300200022f40700008fbe00f0702200f5
:1034b800010020001e01be00800f5100818f5900bd
:1034c800050036001e00be00027122000300200025
:1034d80017f40700008fbe00703e20000100200096
:1034e8001e01be00800f5100818f59000600360072
:1034f8001e00be00823e200003002000fcf30700ef
:10350800008fbe00020037006000b800008fbe00c8
:103518001e007800004078000043b0004047980043
:103528004e4090000080fa00000006000a00fa00f1
:1035380030079800410798003e009000ce009000a8
:10354800008fbe0030062000010020001e01be00d2
:10355800800f5100818f590006003e0000022000b4
:1035680001002000008fbe001e0078000040780097
:1035780060003700f09f2c00a1b923001e01be0097
:10358800800f5100818f5900050036001e00be00d3
:1035980002a02c00a3b92300e5f30700008fbe00aa
:1035a800f00f2e00515f20001e01be00800f510059
:1035b800818f5900050036001e00be0002102e0043
:1035c800535f2000daf30700008fbe00f067290080
:1035d800810920001e01be00800f5100818f590013
:1035e800050036001e00be0002682900830920007d
:1035f800cff30700008fbe00f0232400f100200065
:103608001e01be00800f5100818f59000500360051
:103618001e00be0002242400f3002000c4f30700ab
:10362800008fbe00f0692800110020001e01be00b6
:10363800800f5100818f5900050036001e00be0022
:10364800026a280013002000b9f30700008fbe00ab
:10365800f0702200010020001e01be00800f510002
:10366800818f5900050036001e00be00027122003d
:1036780003002000aef30700008fbe00703e20005c
:10368800010020001e01be00800f5100818f5900eb
:10369800050036001e00be00823e20000300200008
:1036a800a3f30700008fbe003006200001002000b1
:1036b8001e01be00800f5100818f590006003600a0
:1036c8001e00be00420620000300200088f3070009
:1036d800008fbe00020037006000b800008fbe00f7
:1036e8001e007800004078000043b0004047980072
:1036f8004e4090000080fa00000006000a00fa0020
:1037080030079800410798003e009000ce009000d6
:10371800008fbe001e01be009000200001002000a6
:10372800800f5100818f590006003e0000022000e2
:1037380001002000008fbe001e00780000407800c5
:103748006b003700f09f2c00a1b923001e01be00ba
:10375800800f5100818f5900050036001e00be0001
:1037680002a02c00a3b9230071f30700008fbe004c
:10377800f00f2e00515f20001e01be00800f510087
:10378800818f5900050036001e00be0002102e0071
:10379800535f200066f30700008fbe00f067290022
:1037a800810920001e01be00800f5100818f590041
:1037b800050036001e00be000268290083092000ab
:1037c8005bf30700008fbe00f0232400f100200007
:1037d8001e01be00800f5100818f59000500360080
:1037e8001e00be0002242400f300200050f307004e
:1037f800008fbe00f0692800110020001e01be00e5
:10380800800f5100818f5900050036001e00be0050
:10381800026a28001300200045f30700008fbe004d
:10382800f0702200010020001e01be00800f510030
:10383800818f5900050036001e00be00027122006b
:10384800030020003af30700008fbe00703e2000fe
:10385800010020001e01be00800f5100818f590019
:10386800050036001e00be00823e20000300200036
:103878002ff30700008fbe00300620000100200053
:103888001e01be00800f5100818f590005003600cf
:103898001e00be00420620000300200024f307009b
:1038a800008fbe001e01be00900020000100200015
:1038b800800f5100818f5900060036001e00be009f
:1038c800a20020000300200009f30700008fbe00bb
:1038d800020037006000b800008fbe001e007800ac
:1038e800004078000043b000404798004e409000e8
:1038f8000080fa00000006000a00fa00300798006d
:10390800410798003e009000ce009000008fbe0056
:10391800f09f2c00a1b923001e01be00800f5100aa
:10392800818f5900050036001e00be0002a02c0041
:10393800a3b92300fef20700008fbe00f00f2e008f
:10394800515f20001e01be00800f5100818f590079
:10395800050036001e00be0002102e00535f200036
:10396800f3f20700008fbe00f067290081092000ec
:103978001e01be00800f5100818f590005003600de
:103988001e00be000268290083092000e8f2070033
:10399800008fbe00f0232400f10020001e01be00ad
:1039a800800f5100818f5900050036001e00be00af
:1039b80002242400f3002000ddf20700008fbe007f
:1039c800f0692800110020001e01be00800f510080
:1039d800818f5900050036001e00be00026a2800cb
:1039e80013002000d2f20700008fbe00f070220002
:1039f800010020001e01be00800f5100818f590078
:103a0800050036001e00be000271220003002000df
:103a1800c7f20700008fbe00703e200001002000a2
:103a28001e01be00800f5100818f5900050036002d
:103a38001e00be00823e200003002000bcf20700ea
:103a4800008fbe0030062000010020001e01be00cd
:103a5800800f5100818f5900050036001e00be00fe
:103a68004206200003002000b1f20700008fbe00cc
:103a78001e01be009000200001002000800f5100b0
:103a8800818f5900050036001e00be00a2002000ec
:103a980003002000a6f20700008fbe001e00be0033
:103aa800e00f5000e08f580003003a006000b800b3
:103ab800008fbe0001003700000000001e007800e3
:103ac800004078000043b000404798004e40900006
:103ad8000080fa00000006000000fa0001178000cc
:103ae8000002200000806000e00f50000300320058
:103af80035c9bf00e14f500012003a000040eb000a
:103b080034e9b7000040eb0035e9b700d047800042
:103b1800e00f5000070035000000eb00d047880098
:103b280010c0b30020e9b7004006200030498800e3
:103b380006003700d04780000000e800d047880022
:103b4800020037000000eb00d04788000080fa0030
:103b5800000006000000fa000117800000042000a1
:103b680000806000e00f500015003a000000eb00f4
:103b7800a0478800b1478000f0db2500808f500007
:103b88000b0034000000eb00b04788000040eb0059
:103b980020e9b70010c0b30021e9b700e082a9000e
:103ba800ca82a900803e20003049880018003700ea
:103bb800b04780000000e800b047880014003700d4
:103bc8000000eb00b0478800a1478000f0db25002b
:103bd800808f50000b0034000000eb00a0478800e5
:103be8000040eb0020e9b70010c0b30021e9b7009e
:103bf800e082a900ca82a900803e200030498800de
:103c080003003700a04780000000e800a0478800b4
:103c18000080fa00000006000000fa0021c9bf0079
:103c2800e14f500007003a00124980002349800004
:103c3800f0ce2c0011002000800f5100818f590018
:103c480003003e0030498000e00f500002003200bf
:103c5800ca62a80001003700ca62a9000080fa0001
:103c6800000006000000fa000000eb004049880050
:103c7800003a800000407800614060000080fb004e
:103c880040498800003a80000000d100614060008f
:103c98000080fb0000004000800078004049800060
:103ca8000080700040498800003a80004200de0031
:103cb800614060000080fb004200dd008000780069
:103cc800404980000080700040498800003a800028
:103cd8004300de00614060000080fb004300dd001f
:103ce80080007800404980000080700040498800ca
:103cf800003a80004400de00614060000080fb0064
:103d08004400dd0080007800404980000080700099
:103d180040498800003a80004500de0061406000ac
:103d28000080fb004500dd008000780040498000ed
:103d38000080700040498800003a80004600de009c
:103d4800614060000080fb004600dd0080007800d4
:103d5800404980000080700040498800003a800097
:103d68004700de00614060000080fb004700dd0086
:103d78008000780040498000008070004049880039
:103d8800003a80004c00de00614060000080fb00cb
:103d98004c00dd0080007800404980000080700001
:103da80040498800003a80004d00de006140600014
:103db8000080fb004d00dd00800078004049800055
:103dc8000080700040498800003a80004e00de0004
:103dd800614060000080fb004e00dd00800078003c
:103de800404980000080700040498800003a800007
:103df8004f00de00004078000080fb004f00dd002f
:103e080080007800404980000080700040498800a8
:103e18004007a9004047a9004067a9004087a900ba
:103e280040a7a90040c7a90040e7a90041a7a900e9
:103e380041c7a90041e7a900404980000040780037
:103e480066e8b700404980004800de00004078007e
:103e58002ae9b7000080fa00000006000000fa0016
:103e680010ef28006bf307002ac9bf000080fb0091
:103e7800801f780080f02800801f78006ff307000b
:103e8800e4875700c0f0280062f3070066c8bf0047
:103e98000080fb00801f780080f02800801f7800d9
:103ea80066f30700e48757000080fa000000060068
:103eb8000000fa00e0488000f1488000e00f500060
:103ec800e08f58003f0032006000b800e0488800ea
:103ed800f148880080488000914880000000780000
:103ee800c044880080488000914880004008de0077
:103ef8000100200000007800b04488006043800082
:103f0800714380000202200005f10700013b800098
:103f18000000280000806000e00f5000fbff3a001e
:103f28004289200060438000714380001bf1070034
:103f3800013b80000000280000806000e00f500076
:103f4800fbff3a008048800091488000a048880024
:103f5800b1488800a0488000b1488000000078007f
:103f6800c0458800a0488000b14880004008de00b5
:103f78000100200000007800b045880080438000e0
:103f88009143800002022000e5f00700013b800019
:103f98000000280000806000e00f5000fbff3a009e
:103fa800428b20008043800091438000fbf0070093
:103fb800013b80000000280000806000e00f5000f6
:103fc800fbff3a000080fa00000006000000fa003b
:103fd800711680000000280000806000e00f50008b
:103fe80003003a0010c0b30034e9b70002003700fc
:103ff8000040eb0034e9b7000080fa00000006003a
:104008000000fa0000c02f00f1072000404388009c
:104018005143880000c22f00f10720006043880048
:104028007143880000c42f00f107200080438800f6
:104038009143880040438000514380000002eb0018
:104048000302200042872000ddf007006043800063
:10405800714380000002eb00030220004289200027
:10406800d7f0070080438000914380000002eb00f6
:1040780003022000428b2000d1f00700b0438000eb
:10408800010020008049880091498800c0448000d0
:10409800010020008048880091488800b0448000d2
:1040a80001002000c001dd000200200080488000df
:1040b800914880000000710081807100804888006c
:1040c80091488800c045800001002000a048880071
:1040d800b1488800b045800001002000c001dd0023
:1040e80002002000a0488000b14880000000710054
:1040f80081807100a0488800b1488800824880000b
:10410800934880000080eb008080eb00800f510016
:10411800818f590004003a00a0488000b14880000f
:104128008048880091488800804980009149800033
:1041380061004000e080480080498800914988007b
:104148008249800093498000f0702200010020001d
:10415800800f5100818f590004003600f070220052
:10416800010020008049880091498800804980002a
:104178009149800000007800b043880040438000e7
:10418800514380000202200065f00700013b8000d7
:104198000000280000806000e00f5000fbff3a009c
:1041a8004287200040438000514380007bf0070095
:1041b800013b80000000280000806000e00f5000f4
:0c41c800fbff3a000080fa000000060037
:020000040000fa
:1041d40000080000020100000000000002090000c5
:1041e4003400000002000000000000000000000095
:1041f400160800000000000000000000000000009d
:1042040000000000000000000000000000000000aa
:10421400000000000000000000000000000000009a
:10422400000000000000000000000000000000008a
:10423400260a00000600000000000000000a00003a
:104244002600000002000000270a000000270a00e0
:104254000900000000020000290a000000290a00e9
:104264000e02010000000000000000000000000039
:104274000602020000000000000a0000d609000047
:104284002a000000020000003031320033343500cf
:104294003637380039414200434445004600300077
:1042a4003132330034353600373839006162630007
:1042b4006465660000286e00756c6c0029000000bf
:1042c40036090000a0000000020000000100000008
:1042d4000000000000000a000000000000000000d0
:1042e400006400000000000000000000e80300007b
:1042f4000000000000001000270000000000000083
:1043040000a08600010000000000000040420f00f1
:1043140000000000000080009698000000000000eb
:104324000000e100f50500000000000000ca9a004a
:104334003b00000000000000e40b540002000000f9
:104344000000e80076481700000000000010a500f7
:10435400d4e8000000000000a0724e00180900001c
:10436400000040007a10f3005a0000000080c600ec
:10437400a47e8d000300000000c16f00f2862300bc
:10438400000000008a5d78004563010000006400bd
:10439400a7b3b600e00d000000e889000423c700bd
:1043a4008a0000002c0a0000020000000200000045
:0843b400010000000000000000
:020000040000fa
:1043bc00829fbe00849fbe00869fbe000603200025
:1043cc0045002000f2002000820160004400de0065
:1043dc006918e10001003400e781410006824100c8
:1043ec00841f78008502e900f7ff3a004f0078003f
:1043fc00801878004f007800801878004f00780003
:10440c00801878004f007800801878008100b10087
:10441c004f03be004f02be004f01be00000006005d
:020000040000fa
:0200000400fffb
:10f8000000000000000000000000000000000000f8
:10f8100000000000000000000000000000000000e8
:10f8200000000000000000000000000000000000d8
:10f8300000000000000000000000000000000000c8
:020000040000fa
:0200000400fffb
:10f8400000000000000000000000000000000000b8
:10f8500000000000000000000000000000000000a8
:10f860000000000000000000000000000000000098
:10f870000000000000000000000000000000000088
:020000040000fa
:0200000400fffb
:10f880000000000000000000000000000000000078
:10f890000000000000000000000000000000000068
:10f8a0000000000000000000000000000000000058
:10f8b0000000000000000000000000000000000048
:00000001FF
