:020000040000fa
:080000000001040000000000f3
:020000040000fa
:100200000f802000009f20000001880000000000f7
:100210000a00070011000700000020000000e000b5
:10022000020032000000020000000000880102000d
:10023000000000000040da000000fe004440a90079
:10024000000020000000e000030032000000200059
:10025000a00188004440a80000000600602420009f
:10026000010020001500370062004000e0804800d7
:10027000910188009001ba0062004000e0804800cf
:10028000910188009002ba0062004000e0804800be
:100290000002eb006028e10004003a000059eb0086
:1002a0008301e900fdff3e00040037006128e10002
:1002b000010032000082eb00050007009101880078
:1002c0001001ba000200e000e7ff3a00000005005c
:1002d000910188008002780062004000e0804800c0
:1002e0003559ba008301e900080032002559ba00e7
:1002f0008301e900050032000400e000f4ff320051
:1003000015d9ba008301e900f1ff3a0000000600a8
:020000040000fa
:1000080048020000480200004802000048020000c0
:1000180048020000480200004802000048020000b0
:1000280048020000480200004802000048020000a0
:100038004802000048020000480200004802000090
:100048004802000048020000480200004802000080
:100058004802000048020000480200004802000070
:100068004802000048020000480200004802000060
:100078004802000048020000480200004802000050
:100088004802000048020000480200004802000040
:100098004802000048020000480200004802000030
:1000a8004802000048020000480200004802000020
:1000b8004802000048020000480200004802000010
:1000c8004802000048020000480200004802000000
:1000d80048020000480200004802000048020000f0
:1000e80048020000480200004802000048020000e0
:0800f80048020000480200006c
:020000040000fa
:1001080048020000480200004802000048020000bf
:1001180048020000480200004802000048020000af
:10012800480200004802000048020000480200009f
:10013800480200004802000048020000480200008f
:10014800480200004802000048020000480200007f
:10015800480200004802000048020000480200006f
:10016800480200004802000048020000480200005f
:10017800480200004802000048020000480200004f
:10018800480200004802000048020000480200003f
:10019800480200004802000048020000480200002f
:1001a800480200004802000048020000480200001f
:1001b800480200004802000048020000480200000f
:1001c80048020000480200004802000048020000ff
:1001d80048020000480200004802000048020000ef
:1001e80048020000480200004802000048020000df
:0801f80048020000480200006b
:020000040000fa
:100310000800fa0000c02f002007980030012000dc
:10032000100798009e0090002e0090002500070006
:100330000000eb0002000700000f7800ffff37000d
:100340000200fa00000f7800f0c7b30032e0b700f7
:100350001e007800000088001002ba0040008000f3
:100360000080fa00000006000200fa00000f78008a
:10037000f0c7b30064e7b7001e007800103b8800a8
:1003800040042400003b88000500fc0050c5b30079
:1003900066e7b700a0cab30066e7b70061e7a80048
:1003a00061c7bf0001c8b300014060000004e00065
:1003b000fbff3a008580a90061c7a9000080fa0010
:1003c000000006000800fa00200798003107980096
:1003d0002e009000100798003e009000000f78005b
:1003e000f0c7b30064e7b7002e009000103b880010
:1003f00040042400003b88000500fc0050c5b30009
:1004000066e7b700a0cab30066e7b70061e7a800d7
:1004100061c7bf0001c8b300014060000004e000f4
:10042000fbff3a008580a90061c7a900f0c7b300af
:1004300032e0b7001e009000300088001e007800f7
:10044000400088008409bb0040002400003b880075
:100450000700fc0050c5b30066e7b700a0cab300b0
:1004600066e7b70061e7a80061c7bf0001c8b30035
:10047000014060000004e000fbff3a008580a90015
:0c04800061c7a9000080fa00000006001f
:020000040000fa
:04048c00000000006c
:020000040000fa
:040490000000fe006a
:00000001FF
