:020000040000fa
:080000000001040000000000f3
:020000040000fa
:100200008f8c20000eff20000e01880000000000ef
:100210000c000700401c2100010020001100070015
:10022000000020000000e000020032000000020098
:1002300000000000020c0200000000000040da0094
:100240000000fe004440a900200220000000e00061
:100250000300320000002000a00188004440a800f4
:100260000000060091018800800078000000eb008b
:1002700015003700e280400032a0b4009101ba00be
:10028000e280400032a0b4009102ba00e280400057
:1002900032a0b4000002eb00472bde00f507b200ed
:1002a000602ce10004003a000059eb008301e900f2
:1002b000fdff3e00040037006128e100010032002c
:1002c0000082eb00040007001101ba000200e00008
:1002d000e8ff3a00000006003159ba008301e90046
:1002e0000c0032002159ba008301e90008003200f5
:1002f0000400e00003003a00e280400032a0b400b5
:10030000f5ff370011d9ba008301e900faff3a007e
:100310008100e800e180400032a0b4000000060047
:100320000040da000000fe00f4ff2f00f400370068
:1003300014002000f20037004f89de0082017800af
:100340000a013700889fbe008a9fbe008c1f78007c
:10035000160107001d01330003866c006450e100a4
:100360002e0032006420e100330032006150e100d1
:100370002f0032006120e1003100320085855500f8
:10038000eb07b0000900200008042000050037003a
:100390000804440089844c000a003100060343002d
:1003a00087834b000001530081815b00f8ff33001d
:1003b0000203be000800a0000804440089844c0029
:1003c000f6ff3900c639dd008301730001003200f9
:1003d000130020008904d1000884d3000998a300e9
:1003e000050032000800a7000300a0008904d10026
:1003f0000884d3008b05e8008904d1000884d30069
:100400000001eb000281d2000001070001f0a10011
:100410000cf0a70001f0a000f50037006420e10017
:10042000f70032000801be000200be00f7ff3700ef
:100430006120e100f20032006000b800f3ff3700f5
:100440000000200001f82700f0ff3700889fbe0061
:100450008a9fbe008c1f7800d4000700db003300a9
:1004600003866c006450e100240032006420e10047
:10047000270032006150e100220032006120e100db
:10048000210032008b854200eb07b1000134b80037
:10049000003ab8000804420089844a00013ab800d2
:1004a0000030b8008880400009014a000400330091
:1004b0000000400081804800020149008b05e900ee
:1004c000c909dd0083017000010032001300200023
:1004d000c814de004814dd004709de001200b20037
:1004e000c808de0008847000c800070001f0a10001
:1004f0000cf0a70001f0a000bd0037006120e10072
:10050000bf0032000801be000200be00f7ff370046
:100510006150e100fcff3a00b900370003f0a2008f
:10052000889fbe008a9fbe008c1f78009f00070036
:10053000a60033006450e1004f0032006420e10067
:100540005200320003826c0007003b000905d00016
:100550000306d000820f54000c065d000200390033
:100560000200320089017800030678008582550078
:1005700004003d000003fd008103fd008502ea0048
:100580008b854200840f720002003b006000100067
:10059000e08018006011b8000005eb007a28e10047
:1005a0000a00390006007800c75ddd00f707b200d9
:1005b000878075002d003700828171000a01780064
:1005c000610560008180d1000080d3008502e900d0
:1005d000f9ff3b00060440008784480002003b000e
:1005e00060041400e0841c000988a30007003200a6
:1005f0008a81710082817100610164008904d100e7
:100600000884d3008b05e800170037000978a300a1
:1006100013003a000b00e000130034008b05e900e2
:100620000804440089844c000a4474000978a3003b
:100630000d003a000b00e000070034008b05e900d4
:100640000804440089844c0001003a000b0020009b
:100650000978a300f7ff32000001eb000200370029
:10066000828171000a017800680007000cf0a70081
:1006700001f0a0005e0037006420e10002003a00b3
:10068000838f6c005e0033000801be000200be00d4
:10069000570037000001be00820007000470a70069
:1006a00003f0a10003f8a30013003a006509b100ac
:1006b00010003200090035006928e1000200350011
:1006c0000100280000000500000040008180480073
:1006d0008502e900fcff3a0000000600f88f4200a6
:1006e000050035008100d1000080d3008502e800bc
:1006f000fcff3a00000006008000eb00000005004f
:10070000889fbe008a9fbe00841f780027000700d4
:100710004f00780011003300f0ff2f00838f6c0032
:1007200006003b00040565000a00a700080037002a
:1007300009f0a6001000200008003700820f5400c6
:10074000838f5c00030039001000200001003e0090
:100750000000200009f0a7000000ea004f05be00dd
:100760004f04be000000e00000000600881f780073
:10077000030478000300e00007003d006000100063
:10078000e080180060011900e081190002003b00c0
:1007900001f02d00030037005700070008f0a70004
:1007a00001f0a0004f047800000006000004be0025
:1007b0003c0007000003be000405be000200be00ae
:1007c00038000700844f7500000006000200be00dc
:1007d0006450e100050036006420e10002003600ac
:1007e0000968a30001003a000800be000160a000f3
:1007f0004f0678004f05be004f04be000000060003
:10080000f0ff2f00f1ff2700f9ff370081002000e3
:10081000618055000b003d000b00200061fe2f00a1
:100820000100e1001d00340082817100610164005b
:100830008904d1000884d3000000e800faff3a00e0
:10084000710020006100640003007000020060007d
:100850000900320061044400e0844c000988a500ce
:10086000050032008b05e8006808e10002003a004c
:100870008904d1000884d300f20f20000258e1005f
:1008800005003d00c75ddd00f907b20089807500f5
:1008900008007800000006000bf827008b007800a5
:1008a00000000500c70ade00f107b200f50fb20034
:1008b00008003200e1cf4200020032000170a000c7
:1008c00024000500810f70000100320004080500bb
:1008d00044000500810f700002003a00140005007a
:1008e0008502e9000000400081c04800fcff3b0099
:1008f0000170a00024000500889fbe008a9fbe00f2
:10090000008270000402710004827100260032002f
:100910000004be000200be006011b8006b09200098
:10092000950220000182cf000a0039000541b10084
:100930000082cf00070039000541b1000982cf00d5
:10094000040039000541b1000882cf0001003900e0
:100950000541b10005425200120032000a003b007e
:1009600082817100610164008100d1000080d300a8
:100970008984d3000884d3008b05e8000442e80092
:10098000f7ff3a00070037000804440089844c0050
:1009900000004800818048008b05e9000442e9001e
:1009a000f9ff3a0099ff07004f05be004f04be0053
:1009b000000006000080fb0000004000012820002d
:1009c00061007800000006000008880000000600b2
:1009d000500888000000060030158800000006005e
:1009e0008560a900670160004c11dd00c304800030
:1009f000f1ff28008180610082807000c1048800be
:100a000068006000c300de00e1806000cb08dd000c
:100a10006004800000b0a100010070006004880044
:100a20000000060043158800541588002215880030
:100a30001115880000158800620060000115800013
:100a40000110a100808070000115880000000600e0
:100a50008460a900670160004c11dd00a3048000e0
:100a6000f1ff28008180610082807000a10488006d
:100a700068006000610480000130a1008080700087
:100a800061048800000006000021ef0011088800c2
:100a9000200888000000060084e0a90067016000cb
:100aa0004c11dd00b3048000f1ff2800818061005b
:100ab00082807000b104880068006000c300de001e
:100ac000e1806000c708dd00600480000070a100c4
:100ad0000100700060048800000006000a21ef0099
:0c0ae000710888009008880000000600e3
:020000040000fa
:0200000401f009
:04000000febf00003f
:020000040000fa
:0200000401f009
:04000400ff7f00007a
:020000040000fa
:0200000401f009
:04000800fcff0000f9
:020000040000fa
:0200000401f009
:04001400ffff0000ea
:020000040000fa
:1000080090010000900100009001000090010000a4
:100018009001000090010000900100009001000094
:10002800900100009001000090010000160b0000f4
:100038009001000090010000900100003e0b0000bc
:10004800900100009001000090010000780a000073
:100058009001000090010000900100009001000054
:100068009001000090010000900100009001000044
:100078009001000090010000900100009001000034
:100088009001000090010000900100009001000024
:100098009001000090010000900100009001000014
:1000a8009001000090010000900100009001000004
:1000b80090010000900100009001000090010000f4
:1000c80090010000900100009001000090010000e4
:1000d80090010000900100009001000090010000d4
:1000e80090010000900100009001000090010000c4
:0800f8009001000090010000de
:020000040000fa
:1001080090010000900100009001000090010000a3
:100118009001000090010000900100009001000093
:10012800900100009001000090010000160b0000f3
:100138009001000090010000900100003e0b0000bb
:10014800900100009001000090010000780a000072
:100158009001000090010000900100009001000053
:100168009001000090010000900100009001000043
:100178009001000090010000900100009001000033
:100188009001000090010000900100009001000023
:100198009001000090010000900100009001000013
:1001a8009001000090010000900100009001000003
:1001b80090010000900100009001000090010000f3
:1001c80090010000900100009001000090010000e3
:1001d80090010000900100009001000090010000d3
:1001e80090010000900100009001000090010000c3
:0801f8009001000090010000dd
:020000040000fa
:100aec00303000002e3000005b5600005d2000000e
:100afc00302e0000305b0000415d00002d430000f3
:100b0c00003000002e3000005b4b0000575d0000f1
:100b1c0020300000303000005b5700005d2f0000db
:040b2c004400000081
:020000040000fa
:100b30000200fa00000f78000040eb0000e8b70068
:100b40000040eb0001e8b7000040eb0002e8b7000e
:100b50000040eb0003e8b7006500370030332000a9
:100b60009e007800808f50000600360000c8bf004d
:100b70000040e80000e8b700c0cc2f001e0f400086
:100b80005b003700100520009e007800808f500029
:100b900013003600303320009e007800808f500014
:100ba0000f003e0001c8bf00e84f500004003c00a9
:100bb00001c8bf000040e80001e8b70005003700a9
:100bc00000c8bf000040e80000e8b7000040eb00ac
:100bd00001e8b700e0fa2f001e0f40004400370084
:100be0001e007800e80f50001c00360010052000a1
:100bf0009e007800808f500018003e0002c8bf00a1
:100c0000e84f500004003c0002c8bf000040e8006c
:100c100002e8b7000e0037000040eb0002e8b70022
:100c200001c8bf00e84f500004003c0001c8bf00ed
:100c30000040e80001e8b7000500370000c8bf0029
:100c40000040e80000e8b7000040eb0001e8b70012
:100c50001e007800690f5000250037001e00780044
:100c6000e00f5000220032001e007800e80f500014
:100c70001f003e0003c8bf00e84f500004003c00c6
:100c800003c8bf000040e80003e8b70017003700c2
:100c90000040eb0003e8b70002c8bf00e84f500077
:100ca00004003c0002c8bf000040e80002e8b700b2
:100cb0000e0037000040eb0002e8b70001c8bf009b
:100cc000e84f500004003c0001c8bf000040e800ad
:100cd00001e8b7000500370000c8bf000040e80089
:100ce00000e8b7000040eb0001e8b7001e0fe90084
:100cf0001e007800e00f500098ff3a0000c8bf00c7
:100d00000043b00000e8b70001c8bf000043b000d6
:100d100001e8b70002c8bf000043b00002e8b70016
:100d200003c8bf000043b00003e8b7000080fa002a
:100d3000000006000400fa00008fbe000040eb0037
:100d400004e8b7000040eb0005e8b7000040eb0006
:100d500006e8b7000040eb0007e8b7000040eb00f2
:100d600008e8b700b5003700f0702200010020004d
:100d70001e01be00800f5100818f5900080036000f
:100d800004c8bf000040e80004e8b700008f2d0051
:100d9000f1ff2f001e0f40005e974800a7003700ac
:100da000703e2000010020001e01be00800f510097
:100db000818f590017003600f070220001002000da
:100dc0001e01be00800f5100818f590011003e00ae
:100dd00005c8bf00e84f500004003c0005c8bf0034
:100de0000040e80005e8b7000500370004c8bf0070
:100df0000040e80004e8b7000040eb0005e8b70059
:100e000080c12f00f1ff2f001e0f40005e974800a9
:100e10008a00370030062000010020001e01be00bd
:100e2000800f5100818f590020003600703e200055
:100e3000010020001e01be00800f5100818f59006b
:100e40001a003e0006c8bf00e84f500004003c00f6
:100e500006c8bf000040e80006e8b7000e003700f3
:100e60000040eb0006e8b70005c8bf00e84f50009f
:100e700004003c0005c8bf000040e80005e8b700da
:100e80000500370004c8bf000040e80004e8b700d0
:100e90000040eb0005e8b700c0f92f00f1ff2f007c
:100ea0001e0f40005e974800640037001e01be0020
:100eb0009000200001002000800f5100818f590018
:100ec0002900360030062000010020001e01be006f
:100ed000800f5100818f590023003e0007c8bf00da
:100ee000e84f500004003c0007c8bf000040e80085
:100ef00007e8b700170037000040eb0007e8b7002d
:100f000006c8bf00e84f500004003c0006c8bf0000
:100f10000040e80006e8b7000e0037000040eb0094
:100f200006e8b70005c8bf00e84f500004003c00c9
:100f300005c8bf000040e80005e8b700050037001d
:100f400004c8bf000040e80004e8b7000040eb0020
:100f500005e8b70060ff2f00f1ff2f001e0f4000d3
:100f60005e974800350037001e00be00e00f5000bd
:100f7000e08f5800310032001e01be0090002000ba
:100f800001002000800f5100818f59002b003e008e
:100f900008c8bf00e84f500004003c0008c8bf006c
:100fa0000040e80008e8b700200037000040eb00f0
:100fb00008e8b70007c8bf00e84f500004003c0035
:100fc00007c8bf000040e80007e8b7001700370077
:100fd0000040eb0007e8b70006c8bf00e84f50002c
:100fe00004003c0006c8bf000040e80006e8b70067
:100ff0000e0037000040eb0006e8b70005c8bf0050
:10100000e84f500004003c0005c8bf000040e80065
:1010100005e8b7000500370004c8bf000040e8003d
:1010200004e8b7000040eb0005e8b7000080eb00e3
:101030008080eb001e0f40005e9748001e00be003f
:10104000e00f5000e08f580047ff3a0004c8bf008f
:101050000043b00004e8b70005c8bf000043b0007b
:1010600005e8b70006c8bf000043b00006e8b700b7
:1010700007c8bf000043b00007e8b70008c8bf00ba
:101080000043b00008e8b7000080fa000000060046
:101090000400fa00204798002e409000004f78008e
:1010a000e116800000ff2f00808060001e41780064
:1010b0000280fb004400de00004078000080fb005e
:1010c0006f00600000807000e0168800c11680008c
:1010d00000ff2f0000806000c0168800ca82a900af
:1010e000caa2a8005000200001002000ef00070065
:1010f000caa2a9005000200001002000eb00070058
:10110000e116800000ff2f00808060002e409000dc
:101110000080fb006f00600000807000e016880017
:10112000ca82a900caa2a800500020000100200025
:10113000de000700caa2a900c0168000f000b300bc
:10114000c01688000080fa00000006000200fa00c5
:10115000004f7800803e200001002000d3000700ef
:10116000ca62a9001e407800c9ff07000080fa008b
:10117000000006000200fa00004f7800803e2000c8
:1011800001002000c9000700ca62a8001e407800c4
:10119000bfff07000080fa00000006000200fa000e
:1011a000004f78001e407800f2ff07000080fa0030
:1011b000000006000200fa00004f78001147980076
:1011c00000c8b3001e407000804078001e409000b0
:1011d0000080fb004600dd000040780000c0700089
:1011e000daff07000080fa00000006000a00fa009b
:1011f00030079800014f9800124f9800a0802000ff
:10120000000f78009e0078003e00900087040700e1
:101210009e4890000e489000e6ff07000000eb009b
:10122000100798000d0037001e007800900078002d
:10123000210798001e8fe8001e009000e10f50006b
:10124000030034002e00900000407800d3ff070018
:101250001e0090000000e800100798001e0090009b
:10126000e30f5000f0ff34000080fa000000060099
:101270000600fa001007980041479800524798006e
:101280000040eb00004f7800de4090004e409000a0
:10129000c8ff0700070037009e4078000180fb0070
:1012a0009e0090000080400010407800bbff0700c7
:1012b0001e4fe8009e4078000180fb009e009000d9
:1012c0000080400010407800e04f5000f2ff3a00ec
:1012d0000080fa00000006000400fa00000f780009
:1012e00021479800324798001e007800e00f500018
:1012f00001003d001e0fea001e007800cf80de00d6
:101300008cfe070005c8bf00a4ff070006c8bf0089
:10131000a2ff070007c8bf00a0ff070008c8bf0062
:101320009eff07000080fa00000006000000fa009f
:10133000f0ff2f00010020005c000700f0ff2f00ed
:101340000100200059000700f0ff2f0001002000dd
:1013500056000700f0ff2f00010020005300070097
:10136000e116800000ff2f00008060003000b30015
:10137000e0168800c116800000ff2f00008060008a
:10138000c0168800ca82a900caa2a8005000200086
:101390000100200045000700caa2a900f0ff2f00ad
:1013a0000100200041000700e116800000ff2f002f
:1013b000008060003000b300e0168800caa2a800d8
:1013c000500020000100200038000700caa2a90038
:1013d000e116800000ff2f00008060003000b300a5
:1013e000e0168800c116800000ff2f00008060001a
:1013f000c0168800ca82a900500020000100200009
:101400002a000700caa2a800500020000100200006
:1014100026000700caa2a900400620000100200003
:1014200022000700e116800000ff2f00008060000e
:101430000010a000e0168800caa2a80050002000fa
:101440000100200019000700caa2a90080c2b30051
:101450003eff070060c0b3003cff0700c0c0b30000
:101460003aff070010c0b30038ff070000c8b30000
:1014700036ff07000080fa00000006000000fa00b6
:1014800020c0b30031ff07000080fa000000060012
:101490000000fa0020c0b3002cff070010c0b3000a
:1014a0002aff07000080fa00000006000400fa008e
:1014b000008fbe00000000001e0090001e007000a3
:1014c0008000ea00008070004f00de0000407800dd
:1014d0000081eb008081eb001e0f41005e97490008
:1014e000e04f5000f4ff3a000080fa0000000600d0
:1014f0003600f800809fbe00829fbe00849fbe0021
:10150000869fbe003400f80000002000a001880083
:101510000000fa000040eb0026fd07003043880081
:1015200010c0b30023fd07004043880020c0b30073
:1015300020fd070050438800204380000000e800a1
:1015400020438800614380003043800000804000d9
:101550006043880071438000404380000080400069
:101560007043880081438000504380000080400029
:101570008043880020438000ea0f500022003a0098
:1015800061438000a00020000001780011000900e4
:101590008200d800cf80de0090438800a1438800fd
:1015a0000000eb006043880071438000a000200031
:1015b00000017800110009008200d800cf80de0011
:1015c000b0438800c14388000000eb0070438800ee
:1015d00081438000a0002000000178001100090074
:1015e0008200d800cf80de00d0438800e14388002d
:1015f0000000eb00804388000000eb0020438800df
:1016000010002000104488008560a9000080fa00c6
:101610003400f9004f03be004f02be004f01be0070
:101620004f00be003600f900004006003600f8000a
:10163000809fbe00829fbe00849fbe00869fbe002a
:101640003400f80000002000a00188000000fa002b
:101650000000eb00dcfc07008460a9000080fa00b9
:101660003400f9004f03be004f02be004f01be0020
:101670004f00be003600f900004006003600f800ba
:10168000809fbe00829fbe00849fbe00869fbe00da
:10169000881f78003400f80000002000a0018800b6
:1016a0000000fa000000eb00c9fc070084e0a9007c
:1016b000f04280000000e800f04288000043800013
:1016c0000000e80000438800104380000000e800ac
:1016d00010438800f1428000301f2000808f5000ae
:1016e0000a0036000000eb00f04288002ac8bf0064
:1016f000e04f500003003a0010c0b3002ae8b700e2
:10170000020037000040eb002ae8b70011438000d8
:10171000900f2000808f50000c0036000000eb007e
:1017200010438800a8c8bf00e04f500003003a00f3
:1017300010c0b300a8e8b700020037000040eb007b
:10174000a8e8b70010c0b300b4e8b70001438000b8
:1017500070252000808f5000210036000000eb0033
:1017600000438800604180000000e800604188007c
:10177000a0448000b144800018c0b30002002400df
:10178000e3642400e8fa0700e00f500001003d0088
:101790000044eb00e04f54000e0032005045800042
:1017a0000000e80050458800514580007025200069
:1017b000808f50000900360010c0b300ace8b700bd
:1017c0000000eb00504588000000eb0060418800fd
:1017d000020037000000eb0050458800a10207001e
:1017e0000080fa003400f9004f0478004f03be0077
:1017f0004f02be004f01be004f00be003600f90090
:10180000004006000000fa00490007003b00070006
:1018100055000700c5fe070000002000010a240053
:10182000d0408800e140880080382100a040880036
:10183000004020000044880015ff07000041eb0035
:101840008040eb006057280089fe070012c0b300fb
:101850008040eb007058280085fe0700010037002b
:1018600000000000f04380000000e800f043880022
:1018700010448000e10f500006003a000000eb0029
:1018800010448800bd0007009500070047000700ce
:1018900068010700b4c8bf00e14f5000f0ff3a00f4
:1018a0000040eb00b4e8b7000041eb008040eb00e3
:1018b000e08320006efe07000041eb0081c0b30012
:1018c000308420006afe07000041eb00f1c0b30045
:1018d0007084200066fe070012c0b3008040eb0059
:1018e0009084200062fe070012c0b30081c0b300e4
:1018f000d08420005efe0700daff37000000fa0007
:1019000000fe2f0034fc0700e0ff2f0034fc07002e
:101910000082eb0083ff2f00f2052e0081cc200017
:10192000f0cf2d003ffc07000080fa000000060009
:101930000000fa00d202a900d222a900d802a90010
:10194000d822a900d842a900d862a900c662a9007d
:10195000c682a900c6a2a900d402a900d422a90067
:101960000080fa00000006000000fa00b0ff2f001f
:1019700037fc07000000eb0013fc0700811a26006b
:1019800090f82f0040fc0700b0ff2f0042fc07003a
:101990000000eb000efc0700811a2600d0f82f0093
:1019a0004efc07000080fa00000006000000fa006c
:1019b000881f7800a0448000b144800018c0b300a4
:1019c00002002600a366240057fa0700e00f50002b
:1019d00001003d000044eb00e04f540023003200c2
:1019e000b0428000c142800061004000e0804800b9
:1019f000b0428800c1428800b2428000c3428000e9
:101a000070a9230001002000800f5100818f590030
:101a10003000360080a9230001002000b042880079
:101a2000c1428800006a280011002000d0428800ce
:101a3000e1428800d402a90000000000000000007c
:101a40002ac8bf00614060000080fb0061006000a8
:101a500000004000a2168000d1ff2f00810061002d
:101a600000807000a01688001a0037006000b800df
:101a7000b0428800c1428800d0428000e14280002c
:101a8000e00f5000e08f580011003200d04280007b
:101a9000e142800061005000e0805800d0428800a0
:101aa000e14288002ac8bf00614060000080fb005e
:101ab0006100600000004000a2168000d1ff2f00ee
:101ac0008100610000807000a016880001003700ce
:101ad0007d0007004f0478000080fa000000060037
:101ae0000000fa00881f780064448000754480007c
:101af000004580001145800018c0b3000001be0001
:101b00000400be000afa0700e00f50000100340094
:101b10000044eb00e04f54000400320060448000b9
:101b200071448000004588001145880064448000ad
:101b300075448000204580003145800018c0b30006
:101b40000001be000400be00f7f90700e00f5000de
:101b500001003d000044eb00e04f5400040032005f
:101b60006044800071448000204588003145880031
:101b70004f0478000080fa00000006000000fa0020
:101b800090438000a1438000ebf907000200200091
:101b900003482400ebf9070002002400c359240085
:101ba0002afa0700f040880001418800b043800015
:101bb000c1438000e0f90700020020000348240030
:101bc000e0f9070002002400c35924001ffa0700af
:101bd0001041880021418800d0438000e14380000b
:101be000d5f907000200200003482400d5f90700ba
:101bf00002002400c359240014fa07003041880071
:101c000041418800f0408000014180000200200036
:101c1000030a24000dfa070040448800514488005c
:101c2000104180002141800022e42e00a3092400fd
:101c300006fa070080448800914488003041800003
:101c4000414180000200200003f02300bdf907009d
:101c5000c0448800d1448800404480005144800042
:101c60007293280013f82300f8f907006266260033
:101c7000633024002afa0700604488007144880019
:101c80008044800091448000a20a2600c3f823000b
:101c9000eef90700e27a2400432a24001ffa070025
:101ca000a0448800b1448800c0448000d144800032
:101cb0006011b8001afa0700e0448800f144880077
:101cc0000080fa00000006000000fa00881f78007b
:101cd000a0448000b144800018c0b300020020007e
:101ce000a347240092f90700e00f500001003400e0
:101cf0000044eb00e04f54000d003200204480000f
:101d00003144800061004000e080480020448800a9
:101d100031448800d402a900000000000000000047
:101d2000d422a900000000000000000024003700b9
:101d3000a0448000b144800018c0b300020022001b
:101d4000b364240078f90700e00f500001003d0063
:101d50000044eb00e04f54000d00320020448000ae
:101d60003144800061004000e08048002044880049
:101d700031448800d402a9000000000000000000e7
:101d8000d422a90000000000000000000c00370071
:101d9000b0408000c140800061004000e080480009
:101da000b0408800c1408800d402a80000000000b4
:101db00000000000d422a800000000000000000085
:101dc0004f0478000080fa00000006000600fa00c8
:101dd000404798004e4090008080fb00a00020000b
:101de00000017800110009008280d800004f7800bf
:101df0001e4078006a00b900000078001047980083
:101e0000ce4090001e40900000c050002047980037
:101e10001e407800410020008100dd002e4090002f
:101e200000c04000104798001e4090000080fa005b
:101e3000000006000400fa00881f78006000b80067
:101e4000008fbe00e0448000f1448000008fbe009f
:101e50006044800071448000800007003ee8b700c5
:101e60006044800071448000a60007003fe8b7008e
:101e7000e0c2b30040e8b7006044800071448000d5
:101e8000c300070041e8b7000040eb0042e8b7009c
:101e900018c0b300a2702d0033c223001e00be0084
:101ea00021f90700e00f500001003d000044eb0065
:101eb000e04f54000300320030c4b30047e8b700dd
:101ec0001300370018c0b300a2702d0033c22b00de
:101ed0001e00be0016f90700e00f5000010034009c
:101ee0000044eb00e04f54000500320040c4b30052
:101ef00047e8b7006000b800008fbe00040037005c
:101f000020c5b30047e8b7006000b800008fbe00ee
:101f10000040eb0048e8b7001e00be007900070053
:101f200043e8b700e0c2b30044e8b7001e00be00bb
:101f30009700070045e8b7000040eb0046e8b7000f
:101f400070458000814580006e00070049e8b700b9
:101f5000e0c2b3004ae8b7007045800081458000c8
:101f60008b0007004be8b7000040eb004ce8b700df
:101f700090428000a14280000e0007004de8b700ab
:101f800090428000a1428000340007004ee8b70074
:101f900090428000a14280005a0007004fe8b7003d
:101fa0000040eb0050e8b7004f0478000080fa00d2
:101fb000000006000600fa00881f7800100798004d
:101fc0002107980018c0b30002002000a347240096
:101fd0001e009000ae009000d3f80700e00f500004
:101fe00001003d000044eb00e04f54000b003a00bc
:101ff00018c0b30002002000832c24001e009000b3
:10200000ae009000caf80700e00f50000100350054
:102010000044eb00e04f54000300320000c2b30064
:10202000004f78000900370002002000832c2400b4
:102030001e009000ae009000c2f8070095f907005e
:102040000040780001c3b300014f40001e407800fb
:102050004f0478000080fa00000006000800fa0033
:1020600020079800310798002e009000be009000d5
:1020700088f90700000f78001e007800e90f500073
:1020800005003e0000022000000f78001e007800ce
:102090000040780019003700300620009e007800cc
:1020a000808f5000070036009e0078004006200018
:1020b00000017800110009008280d8008000fd0036
:1020c000000f78001e007800e90f5000060036006f
:1020d0009e007800a0002000000178001100090097
:1020e0008280d800000f78001e0078000040780041
:1020f0000043b000204798002e4090000080fa0076
:10210000000006000800fa00200798003107980038
:102110002e009000be0090005ef90700000f7800ce
:10212000300620009e007800808f500007003600a7
:102130009e00780040062000000178001100090090
:102140008280d8008000fd00000f78001e0078001b
:10215000e90f5000070036009e007800a000200024
:1021600000017800110009008280d8008000fd0085
:10217000000f78001e007800004078000043b00097
:10218000204798002e4090000080fa0000000600d2
:102190000800fa002007980031079800020020008c
:1021a000031224002e009000be009000a7f8070044
:1021b00020079800310798002e009000be00900084
:1021c00034f90700000f7800703e20009e00780070
:1021d000808f5000070036009e007800803e20006f
:1021e00000017800110009008280d8008000fd0005
:1021f000000f7800300620009e007800808f50008d
:10220000070036009e00780040062000000178009c
:10221000110009008280d8008000fd00000f7800c6
:102220001e007800e90f5000070036009e0078007d
:10223000a000200000017800110009008280d80071
:102240008000fd00000f78001e007800004078003c
:102250000043b000204798002e4090000080fa0014
:10226000000006000000fa00881f7800e0448000ab
:10227000f144800018c0b300a2702d0033c22300c7
:1022800029f80700e00f500001003d000044eb007a
:10229000e04f540012003200444480005544800056
:1022a000e0448000f14480000001be000400be0054
:1022b00066f80700020020001356240021f80700ea
:1022c0000002be0090428000a14280000001be00da
:1022d0000400be0092f8070090428800a1428800e6
:1022e000904580000000e8009045880091458000fe
:1022f000f0e02000808f5000200036000000eb004e
:10230000904588006000b80090428800a142880093
:1023100090428000a142800002002000a3472400d8
:1023200008f807000002be0070458000814580006b
:102330000001be000400be0079f807007045880067
:1023400081458800704580008145800018c0b30039
:10235000a2702d00f3112400f3f70700e00f5000e6
:1023600001003d000044eb00e04f54000300320048
:102370006000b80070458800814588004f047800ef
:082380000080fa0000000600d5
:020000040000fa
:10238800000800006400000000000000640800006d
:1023980064000000020000000000000000000000cf
:1023a8000000000000000000000000000000000025
:1023b8000000000000000000000000000000000015
:1023c8000000000000000000000000000000000005
:1023d80000000000000000000000000000000000f5
:1023e800000000000000000000409c0046000000c3
:1023f80000000000000000000000000000000000d5
:1024080000000000009a9900114133003363410035
:102418009a9999003e00000000009b00010000000e
:0424280000000000b0
:020000040000fa
:10242c00829fbe00849fbe00869fbe0006032000d4
:10243c0045002000f2002000820160004400de0014
:10244c006918e10001003400e78141000682410077
:10245c00841f78008502e900f7ff3a004f007800ee
:10246c00801878004f007800801878004f007800b2
:10247c00801878004f007800801878008100b10037
:10248c004f03be004f02be004f01be00000006000d
:00000001FF
