:020000040000fa
:080000000001040000000000f3
:020000040000fa
:10020000af84200080ff2000000188000000000073
:10021000050007000c0007000e02020000000000ad
:100220000040da000000fe004440a9000000200069
:100230000000e0000300320000002000a001880060
:100240004440a800000006000050200001002000eb
:100250001600370062004000e080480091018800ed
:100260009001ba0062004000e080480091018800df
:100270009002ba0062004000e08048000002eb00fb
:100280006028e10005003a008301e900070033001f
:10029000038009000059eb00040037006128e100e9
:1002a000010032000082eb00050007009101880088
:1002b0001001ba000200e000e6ff3a00000005006d
:1002c000910188008002780062004000e0804800d0
:1002d0003559ba008301e900080032002559ba00f7
:1002e0008301e900050032000400e000f4ff320061
:1002f00015d9ba008301e900f1ff3a0000000600b9
:1003000061416100a31c2000934178000304a10017
:1003100082c171008001fd00cae1b7008001fd00cb
:100320000000d000421d20000200400001087800bb
:100330000000060088e0a9008960a900674160000c
:100340004411dd00710a200091407800f3c8b30029
:1003500083c0600082c070008000fd00a7e0b7008d
:100360008000fd0001c7b30001416000910a200038
:100370009140780083c0600082c070008000fd0062
:10038000a9e0b7008000fd00680160004311de00b5
:100390004711dd0001092000914078000174a1009f
:1003a00082c070008000fd0090e0b7008000fd007a
:1003b0004400de0068406000110920009140780090
:1003c0000134a10080c070000100780091e0b70006
:1003d00000000600200e8800310e8800430e8800c1
:1003e000540e8800020e880000000600801f78006e
:1003f0000000fa008520a9009010800001e8b700f5
:100400000080fa004f007800004006000000fa006b
:100410008540a9000080fa00004006000000fa00b4
:10042000d222a9000080eb00a01688000000eb009b
:10043000c0168800cde2a900aa00070094000700ba
:100440000041eb008000eb0010002000acff070033
:100450000041eb008000eb0020002000a8ff070017
:100460000148e2000f003a000041eb008000eb0081
:1004700010002000a2ff07000041eb008000eb000d
:10048000200020009eff0700f0ff2600104088009b
:100490000000eb002040880000c0eb0001e8b7003e
:1004a000720037001080200021c0b30090cf1000f0
:1004b0001d003a000041eb008000eb00100020001e
:1004c0008fff07000041eb008000eb0020002000c0
:1004d0008bff0700f0ff2600104088000000eb00b3
:1004e000204088000041eb001140800010002000f7
:1004f00083ff07000041eb00214080002000200026
:100500007fff0700200320008d0007000000eb00a4
:10051000104088000000eb002040880000c0eb0085
:1005200001e8b700510037001080200031c0b3004f
:1005300090cf10001d003a000041eb008000eb005e
:10054000100020006eff07000041eb008000eb0070
:10055000200020006aff07000000eb001040880028
:10056000f0ff2600204088000041eb001140800091
:100570001000200062ff07000041eb0021408000d6
:10058000200020005eff0700200320006c00070011
:100590000000eb00104088000000eb0020408800c5
:1005a00000c0eb0001e8b7003000370010802000e9
:1005b00011c0b30090cf10000f003a000041eb00d3
:1005c0008000eb00100020004dff07000041eb0011
:1005d0008000eb002000200049ff07000000eb0036
:1005e00010408800f0ff26002040880000c0eb008b
:1005f00001e8b7001d00370040c4b3000148e30024
:100600000f003a000041eb008000eb0010002000da
:100610003bff07000041eb008000eb0020002000c2
:1006200037ff07000000eb00104088000000eb00df
:100630002040880000c0eb0001e8b7000b00370045
:100640001080200081c0b30090cf100002003a005b
:100650004e000700050037001080200011c1b300d4
:1006600090cf100001003a00c90007000041eb00e4
:10067000114080001000200021ff07000041eb0026
:1006800021408000200020001dff070074ff37007c
:100690000a00fa0000f02f0026ff0700f0ff2700f5
:1006a000000f78000000eb00100798000000280001
:1006b00020079800f0cf200030079800200020008d
:1006c000400798004e029000be0190002e0190005d
:1006d0009e0090001e0078003eff07000080fa0098
:1006e000000006000000fa000c02a900c120200052
:1006f0009140780090cfb30000c060000ce2b700da
:100700000ca2a90070062000a01088000ec2bf0035
:10071000f043b2000ee2b7000fe2a8000d42a800bd
:100720000de2a8000f42a8008540a9008520a9007d
:100730008d40a8008d20a8000080fa00000006006f
:100740000400fa00000f78001e0fe9000080eb00a3
:100750009e0f10000b0032000000eb001007980005
:100760009e009000c0c72000808f5000f6ff3e0022
:100770000060fe001e0090000000e80010079800d6
:10078000f7ff37000080fa00000006000600fa00bc
:10079000f0ff2500000f7800f0ff220010079800fe
:1007a0000000eb00200798000041eb008000eb0008
:1007b00010002000d2fe07000041eb008000eb009b
:1007c00020002000cefe07000041eb009e009000bc
:1007d00010002000cafe07000041eb00ae009000b0
:1007e00020002000c6fe0700803e2000d4ff070046
:1007f0000041eb008000eb0010002000c0fe07006d
:100800000041eb008000eb0020002000bcfe070050
:100810000041eb009e00900010002000b8fe070091
:100820000041eb00ae00900020002000b4fe070065
:1008300040062000c2ff07000041eb008000eb00f3
:1008400010002000aefe07000041eb008000eb002e
:1008500020002000aafe07000041eb009e00780067
:1008600010002000a6fe07000041eb00ae00900043
:1008700020002000a2fe0700007d2000b0ff07003e
:100880000041eb008000eb00100020009cfe070000
:100890000041eb008000eb002000200098fe0700e4
:1008a0000041eb009e0090001000200094fe070025
:1008b0000041eb00ae0090002000200090fe0700f9
:1008c000400620009eff07000041eb008000eb0087
:1008d000100020008afe07000041eb008000eb00c2
:1008e0002000200086fe07000041eb009e009000e3
:1008f0001000200082fe07000041eb00ae009000d7
:10090000200020007efe0700007d20008cff0700f5
:1009100000c0eb0001e8b7000080fa00000006000c
:100920000a00fa0080912700000f780080af2200b3
:10093000100798000000eb0020079800809d25001c
:100940003007980080bb2000400798000041eb0072
:100950008000eb001000200069fe07000041eb0062
:100960008000eb002000200065fe07000041eb0046
:10097000be0090001000200061fe07000041eb0067
:10098000ae009000200020005dfe0700f7ff37005a
:100990000a00fa0080912700000f780080af220043
:1009a000100798000000eb0020079800809d2500ac
:1009b0003007980080bb2000400798000041eb0002
:1009c0008000eb00100020004dfe07000041eb000e
:1009d0008000eb002000200049fe07000041eb00f2
:1009e000ce0090001000200045fe07000041eb0003
:1009f000ae0090002000200041fe0700f7ff370006
:020000040000fa
:0200000401f009
:04000000feff0000ff
:020000040000fa
:0200000401f009
:04000400ff7f00007a
:020000040000fa
:0200000401f009
:04000800fcff0000f9
:020000040000fa
:0200000401f009
:04001400ffff0000ea
:020000040000fa
:10000800120500001205000012050000120500008c
:10001800120500001205000012050000120500007c
:10002800120500001205000012050000120500006c
:10003800120500001205000012050000120500005c
:1000480012050000f601000006020000120500007b
:10005800120500001205000012050000120500003c
:10006800120500001205000012050000120500002c
:10007800120500001205000012050000120500001c
:10008800120500001205000012050000120500000c
:1000980012050000120500001205000012050000fc
:1000a80012050000120500001205000012050000ec
:1000b80012050000120500001205000012050000dc
:1000c80012050000120500001205000012050000cc
:1000d80012050000120500001205000012050000bc
:1000e80012050000120500001205000012050000ac
:0800f8001205000012050000d2
:020000040000fa
:10010800120500001205000012050000120500008b
:10011800120500001205000012050000120500007b
:10012800120500001205000012050000120500006b
:10013800120500001205000012050000120500005b
:1001480012050000f601000006020000120500007a
:10015800120500001205000012050000120500003b
:10016800120500001205000012050000120500002b
:10017800120500001205000012050000120500001b
:10018800120500001205000012050000120500000b
:1001980012050000120500001205000012050000fb
:1001a80012050000120500001205000012050000eb
:1001b80012050000120500001205000012050000db
:1001c80012050000120500001205000012050000cb
:1001d80012050000120500001205000012050000bb
:1001e80012050000120500001205000012050000ab
:0801f8001205000012050000d1
:020000040000fa
:100a000000080000060000000200000000ff0000d7
:100a100000000000060800000400000000000000c4
:040a200000000000d2
:020000040000fa
:040a24000000fe00d0
:00000001FF
