:020000040000fa
:080000000001040000000000f3
:020000040000fa
:100200006f9120000eff20000e018800000000000a
:100210000c000700e0602100010020001100070031
:10022000000020000000e000020032000000020098
:1002300000000000680c0200000000000040da002e
:100240000000fe004440a900600420000000e0001f
:100250000300320000002000a00188004440a800f4
:100260000000060091018800800078000000eb008b
:1002700015003700e280400032a0b4009101ba00be
:10028000e280400032a0b4009102ba00e280400057
:1002900032a0b4000002eb00472bde00f507b200ed
:1002a000602ce10004003a000059eb008301e900f2
:1002b000fdff3e00040037006128e100010032002c
:1002c0000082eb00040007001101ba000200e00008
:1002d000e8ff3a00000006003159ba008301e90046
:1002e0000c0032002159ba008301e90008003200f5
:1002f0000400e00003003a00e280400032a0b400b5
:10030000f5ff370011d9ba008301e900faff3a007e
:100310008100e800e180400032a0b4000000060047
:100320000040da000000fe00f4ff2f000701370054
:1003300014002000050137004f89de00820178009b
:100340001d013700889fbe008a9fbe008c1f780069
:10035000290107003001330003866c006450e1007e
:100360002e0032006420e100330032006150e100d1
:100370002f0032006120e1003100320085855500f8
:10038000eb07b0000900200008042000050037003a
:100390000804440089844c000a003100060343002d
:1003a00087834b000001530081815b00f8ff33001d
:1003b0000203be000800a0000804440089844c0029
:1003c000f6ff3900c639dd008301730001003200f9
:1003d000130020008904d1000884d3000998a300e9
:1003e000050032000800a7000300a0008904d10026
:1003f0000884d3008b05e8008904d1000884d30069
:100400000001eb000281d2001301070001f0a100fe
:100410000cf0a70001f0a000080137006420e10003
:100420000a0132000801be000200be00f7ff3700db
:100430006120e100050132006000b800f3ff3700e1
:100440000000200001f82700f0ff3700889fbe0061
:100450008a9fbe008c1f7800e7000700ee00330083
:1004600003866c006450e100240032006420e10047
:10047000270032006150e100220032006120e100db
:10048000210032008b854200eb07b1000134b80037
:10049000003ab8000804420089844a00013ab800d2
:1004a0000030b8008880400009014a000400330091
:1004b0000000400081804800020149008b05e900ee
:1004c000c909dd0083017000010032001300200023
:1004d000c814de004814dd004709de001200b20037
:1004e000c808de0008847000db00070001f0a100ee
:1004f0000cf0a70001f0a000d00037006120e1005f
:10050000d20032000801be000200be00f7ff370033
:100510006150e100fcff3a00cc00370003f0a2007c
:10052000889fbe008a9fbe008c1f7800b200070023
:10053000b90033006450e1004f0032006420e10054
:100540005200320003826c0007003b000905d00016
:100550000306d000820f54000c065d000200390033
:100560000200320089017800030678008582550078
:1005700004003d000003fd008103fd008502ea0048
:100580008b854200840f720002003b006000100067
:10059000e08018006011b8000005eb007a28e10047
:1005a0000a00390006007800c75ddd00f707b200d9
:1005b000878075002d003700828171000a01780064
:1005c000610560008180d1000080d3008502e900d0
:1005d000f9ff3b00060440008784480002003b000e
:1005e00060041400e0841c000988a30007003200a6
:1005f0008a81710082817100610164008904d100e7
:100600000884d3008b05e800170037000978a300a1
:1006100013003a000b00e000130034008b05e900e2
:100620000804440089844c000a4474000978a3003b
:100630000d003a000b00e000070034008b05e900d4
:100640000804440089844c0001003a000b0020009b
:100650000978a300f7ff32000001eb000200370029
:10066000828171000a0178007b0007000cf0a7006e
:1006700001f0a000710037006420e10002003a00a0
:10068000838f6c00710033000801be000200be00c1
:100690006a0037000001be00950007000470a70043
:1006a00003f0a10003f8a30013003a006509b100ac
:1006b00010003200090035006928e1000200350011
:1006c0000100280000000500000040008180480073
:1006d0008502e900fcff3a0000000600f88f4200a6
:1006e000050035008100d1000080d3008502e800bc
:1006f000fcff3a00000006008000eb00000005004f
:100700006022b800060220000000d0008180d200e4
:100710000482d2008582d2000000a00002025200b2
:1007200083825a00030031000202420083824a00a1
:100730000000a1000603e900f3ff3a0000000600f4
:10074000efff07000400be0000000600889fbe0007
:100750008a9fbe00841f7800270007004f007800a2
:1007600011003300f0ff2f00838f6c0006003b0068
:10077000040565000a00a7000800370009f0a6007c
:100780001000200008003700820f5400838f5c00a7
:10079000030039001000200001003e00000020008e
:1007a00009f0a7000000ea004f05be004f04be009c
:1007b0000000e00000000600881f780003047800b5
:1007c0000300e00007003d0060001000e08018001a
:1007d00060011900e081190002003b0001f02d00ca
:1007e000030037005700070008f0a70001f0a00041
:1007f0004f047800000006000004be003c00070023
:100800000003be000405be000200be003800070061
:10081000844f7500000006000200be006450e10035
:10082000050036006420e100020036000968a300dc
:1008300001003a000800be000160a0004f067800e9
:100840004f05be004f04be0000000600f0ff2f0061
:10085000f1ff2700f9ff370081002000618055007b
:100860000b003d000b00200061fe2f000100e100a5
:100870001d00340082817100610164008904d1008f
:100880000884d3000000e800faff3a00710020005d
:100890006100640003007000020060000900320083
:1008a00061044400e0844c000988a5000500320082
:1008b0008b05e8006808e10002003a008904d100d5
:1008c0000884d300f20f20000258e10005003d002b
:1008d000c75ddd00f907b200898075000800780067
:1008e000000006000bf827008b00780000000500d0
:1008f000c70ade00f107b200f50fb20008003200af
:10090000e1cf4200020032000170a0002400050087
:10091000810f70000100320004080500440005004a
:10092000810f700002003a00140005008502e90002
:100930000000400081c04800fcff3b000170a000a7
:1009400024000500889fbe008a9fbe0000827000c0
:100950000402710004827100260032000004be000f
:100960000200be006011b8006b0920009502200053
:100970000182cf000a0039000541b1000082cf009a
:10098000070039000541b1000982cf000400390099
:100990000541b1000882cf00010039000541b100d6
:1009a00005425200120032000a003b0082817100b1
:1009b000610164008100d1000080d3008984d300ec
:1009c0000884d3008b05e8000442e800f7ff3a00f2
:1009d000070037000804440089844c0000004800e8
:1009e000818048008b05e9000442e900f9ff3a00e4
:1009f00099ff07004f05be004f04be00000006002f
:100a00000080fb0000004000012820006100780009
:100a1000000006000008880000000600500888005a
:100a20000000060030158800000006008560a9005f
:100a3000670160004c11dd00c3048000f1ff280055
:100a40008180610082807000c104880068006000bd
:100a5000c300de00e1806000cb08dd0060048000a0
:100a600000b0a100010070006004880000000600d2
:100a70004315880054158800221588001115880038
:100a80000015880062006000011580000110a100bf
:100a90008080700001158800000006008460a900b5
:100aa000670160004c11dd00a3048000f1ff280005
:100ab0008180610082807000a1048800680060006d
:100ac000610480000130a100808070006104880012
:100ad000000006000021ef001108880020088800af
:100ae0000000060084e0a900670160004c11dd00f1
:100af000b3048000f1ff28008180610082807000d3
:100b0000b104880068006000c300de00e18060007e
:100b1000c708dd00600480000070a10001007000c3
:100b200060048800000006000a21ef0071088800b8
:080b3000900888000000060097
:020000040000fa
:0200000401f009
:04000000febf00003f
:020000040000fa
:0200000401f009
:04000400ff7f00007a
:020000040000fa
:0200000401f009
:04000800fcff0000f9
:020000040000fa
:0200000401f009
:04001400ffff0000ea
:020000040000fa
:1000080090010000900100009001000090010000a4
:100018009001000090010000900100009001000094
:10002800900100009001000090010000600b0000aa
:10003800900100009001000090010000880b000072
:10004800900100009001000090010000c20a000029
:100058009001000090010000900100009001000054
:100068009001000090010000900100009001000044
:100078009001000090010000900100009001000034
:100088009001000090010000900100009001000024
:100098009001000090010000900100009001000014
:1000a8009001000090010000900100009001000004
:1000b80090010000900100009001000090010000f4
:1000c80090010000900100009001000090010000e4
:1000d80090010000900100009001000090010000d4
:1000e80090010000900100009001000090010000c4
:0800f8009001000090010000de
:020000040000fa
:1001080090010000900100009001000090010000a3
:100118009001000090010000900100009001000093
:10012800900100009001000090010000600b0000a9
:10013800900100009001000090010000880b000071
:10014800900100009001000090010000c20a000028
:100158009001000090010000900100009001000053
:100168009001000090010000900100009001000043
:100178009001000090010000900100009001000033
:100188009001000090010000900100009001000023
:100198009001000090010000900100009001000013
:1001a8009001000090010000900100009001000003
:1001b80090010000900100009001000090010000f3
:1001c80090010000900100009001000090010000e3
:1001d80090010000900100009001000090010000d3
:1001e80090010000900100009001000090010000c3
:0801f8009001000090010000dd
:020000040000fa
:100b3800303000002e3000005b5600005d200000c1
:100b4800302e0000305b0000415d00002d430000a6
:100b5800003000002e3000005b4b0000575d0000a5
:100b680020300000303000005b5700005d2f00008f
:100b78004400000045520000523a000020200000c6
:100b880020480000495f0000434e0000543a00002e
:100b980020200000200000004c4f00005f430000b0
:100ba8004e5400003a2000002020000020200000c1
:0c0bb80020200000202000002000000091
:020000040000fa
:100bc4000200fa00000f78000040eb00aae8b7002a
:100bd4000040eb00abe8b7000040eb00ace8b70026
:100be4000040eb00ade8b70065003700303320006b
:100bf4009e007800808f500006003600aac8bf000f
:100c04000040e800aae8b700c0cc2f001e0f400047
:100c14005b003700100520009e007800808f500094
:100c240013003600303320009e007800808f50007f
:100c34000f003e00abc8bf00e84f500004003c006a
:100c4400abc8bf000040e800abe8b70005003700c0
:100c5400aac8bf000040e800aae8b7000040eb00c3
:100c6400abe8b700e0fa2f001e0f40004400370045
:100c74001e007800e80f50001c003600100520000c
:100c84009e007800808f500018003e00acc8bf0062
:100c9400e84f500004003c00acc8bf000040e8002e
:100ca400ace8b7000e0037000040eb00ace8b7003a
:100cb400abc8bf00e84f500004003c00abc8bf0005
:100cc4000040e800abe8b70005003700aac8bf0041
:100cd4000040e800aae8b7000040eb00abe8b7002a
:100ce4001e007800690f5000250037001e007800b0
:100cf400e00f5000220032001e007800e80f500080
:100d04001f003e00adc8bf00e84f500004003c0087
:100d1400adc8bf000040e800ade8b70017003700d9
:100d24000040eb00ade8b700acc8bf00e84f50008e
:100d340004003c00acc8bf000040e800ace8b700c9
:100d44000e0037000040eb00ace8b700abc8bf00b2
:100d5400e84f500004003c00abc8bf000040e8006e
:100d6400abe8b70005003700aac8bf000040e800a0
:100d7400aae8b7000040eb00abe8b7001e0fe9009b
:100d84001e007800e00f500098ff3a00aac8bf0088
:100d94000043b000aae8b700abc8bf000043b000ee
:100da400abe8b700acc8bf000043b000ace8b70084
:100db400adc8bf000043b000ade8b7000080fa0042
:100dc400000006000400fa00008fbe000040eb00a3
:100dd400aee8b7000040eb00afe8b7000040eb001e
:100de400b0e8b7000040eb00b1e8b7000040eb000a
:100df400b2e8b700b5003700f0702200010020000f
:100e04001e01be00800f5100818f5900080036007a
:100e1400aec8bf000040e800aee8b700008f2d0068
:100e2400f1ff2f001e0f40005e974800a700370017
:100e3400703e2000010020001e01be00800f510002
:100e4400818f590017003600f07022000100200045
:100e54001e01be00800f5100818f590011003e0019
:100e6400afc8bf00e84f500004003c00afc8bf004b
:100e74000040e800afe8b70005003700aec8bf0087
:100e84000040e800aee8b7000040eb00afe8b70070
:100e940080c12f00f1ff2f001e0f40005e97480015
:100ea4008a00370030062000010020001e01be0029
:100eb400800f5100818f590020003600703e2000c1
:100ec400010020001e01be00800f5100818f5900d7
:100ed4001a003e00b0c8bf00e84f500004003c00b8
:100ee400b0c8bf000040e800b0e8b7000e0037000b
:100ef4000040eb00b0e8b700afc8bf00e84f5000b7
:100f040004003c00afc8bf000040e800afe8b700f1
:100f140005003700aec8bf000040e800aee8b700e7
:100f24000040eb00afe8b700c0f92f00f1ff2f003d
:100f34001e0f40005e974800640037001e01be008b
:100f44009000200001002000800f5100818f590083
:100f54002900360030062000010020001e01be00da
:100f6400800f5100818f590023003e00b1c8bf009b
:100f7400e84f500004003c00b1c8bf000040e80046
:100f8400b1e8b700170037000040eb00b1e8b70044
:100f9400b0c8bf00e84f500004003c00b0c8bf0018
:100fa4000040e800b0e8b7000e0037000040eb0056
:100fb400b0e8b700afc8bf00e84f500004003c00e1
:100fc400afc8bf000040e800afe8b7000500370035
:100fd400aec8bf000040e800aee8b7000040eb0038
:100fe400afe8b70060ff2f00f1ff2f001e0f400095
:100ff4005e974800350037001e00be00e00f500029
:10100400e08f5800310032001e01be009000200025
:1010140001002000800f5100818f59002b003e00f9
:10102400b2c8bf00e84f500004003c00b2c8bf0083
:101034000040e800b2e8b700200037000040eb00b1
:10104400b2e8b700b1c8bf00e84f500004003c004c
:10105400b1c8bf000040e800b1e8b700170037008e
:101064000040eb00b1e8b700b0c8bf00e84f500043
:1010740004003c00b0c8bf000040e800b0e8b7007e
:101084000e0037000040eb00b0e8b700afc8bf0067
:10109400e84f500004003c00afc8bf000040e80027
:1010a400afe8b70005003700aec8bf000040e80055
:1010b400aee8b7000040eb00afe8b7000080eb00fb
:1010c4008080eb001e0f40005e9748001e00be00ab
:1010d400e00f5000e08f580047ff3a00aec8bf0051
:1010e4000043b000aee8b700afc8bf000043b00093
:1010f400afe8b700b0c8bf000043b000b0e8b70025
:10110400b1c8bf000043b000b1e8b700b2c8bf0027
:101114000043b000b2e8b7000080fa000000060007
:101124000400fa00204798002e409000004f7800f9
:10113400e116800000ff2f00808060001e417800cf
:101144000280fb004400de00004078000080fb00c9
:101154006f00600000807000e0168800c1168000f7
:1011640000ff2f0000806000c0168800ca82a9001a
:10117400caa2a8005000200001002000ef000700d0
:10118400caa2a9005000200001002000eb000700c3
:10119400e116800000ff2f00808060002e40900048
:1011a4000080fb006f00600000807000e016880083
:1011b400ca82a900caa2a800500020000100200091
:1011c400de000700caa2a900c0168000f000b30028
:1011d400c01688000080fa00000006000200fa0031
:1011e400004f7800803e200001002000d30007005b
:1011f400ca62a9001e407800c9ff07000080fa00f7
:10120400000006000200fa00004f7800803e200033
:1012140001002000c9000700ca62a8001e4078002f
:10122400bfff07000080fa00000006000200fa0079
:10123400004f78001e407800f2ff07000080fa009b
:10124400000006000200fa00004f780011479800e1
:1012540000c8b3001e407000804078001e4090001b
:101264000080fb004600dd000040780000c07000f4
:10127400daff07000080fa00000006000a00fa0006
:1012840030079800014f9800124f9800408b2000bf
:10129400000f78009e0078003e0090009e06070034
:1012a4009e4890000e489000e6ff07000000eb0007
:1012b400100798000d0037001e0078009000780099
:1012c400210798001e8fe8001e009000e10f5000d7
:1012d400030034002e00900000407800d3ff070084
:1012e4001e0090000000e800100798001e00900007
:1012f400e30f5000f0ff34000080fa000000060005
:101304000600fa00100798004147980052479800d9
:101314000040eb00004f7800de4090004e4090000b
:10132400c8ff0700070037009e4078000180fb00db
:101334009e0090000080400010407800bbff070032
:101344001e4fe8009e4078000180fb009e00900044
:101354000080400010407800e04f5000f2ff3a0057
:101364000080fa00000006000400fa00000f780074
:1013740021479800324798001e007800e00f500083
:1013840001003d001e0fea001e007800cf80de0041
:101394008cfe0700afc8bf00a4ff0700b0c8bf00a1
:1013a400a2ff0700b1c8bf00a0ff0700b2c8bf007a
:1013b4009eff07000080fa00000006000000fa000b
:1013c400f0ff2f00010020005c000700f0ff2f0059
:1013d4000100200059000700f0ff2f000100200049
:1013e40056000700f0ff2f00010020005300070003
:1013f400e116800000ff2f00008060003000b30081
:10140400e0168800c116800000ff2f0000806000f5
:10141400c0168800ca82a900caa2a80050002000f1
:101424000100200045000700caa2a900f0ff2f0018
:101434000100200041000700e116800000ff2f009a
:10144400008060003000b300e0168800caa2a80043
:10145400500020000100200038000700caa2a900a3
:10146400e116800000ff2f00008060003000b30010
:10147400e0168800c116800000ff2f000080600085
:10148400c0168800ca82a900500020000100200074
:101494002a000700caa2a800500020000100200072
:1014a40026000700caa2a90040062000010020006f
:1014b40022000700e116800000ff2f00008060007a
:1014c4000010a000e0168800caa2a8005000200066
:1014d4000100200019000700caa2a90080c2b300bd
:1014e4003eff070060c0b3003cff0700c0c0b3006c
:1014f4003aff070010c0b30038ff070000c8b3006c
:1015040036ff07000080fa00000006000000fa0021
:1015140020c0b30031ff07000080fa00000006007d
:101524000000fa0020c0b3002cff070010c0b30075
:101534002aff07000080fa00000006000400fa00f9
:10154400008fbe00000000001e0090001e0070000e
:101554008000ea00008070004f00de000040780048
:101564000081eb008081eb001e0f41005e97490073
:10157400e04f5000f4ff3a000080fa00000006003b
:101584003600f800809fbe00829fbe00849fbe008c
:10159400869fbe003400f80000002000a0018800ef
:1015a4000000fa000040eb0014fd07001040880022
:1015b40010c0b30011fd07002040880020c0b30014
:1015c4000efd070030408800004080000000e80065
:1015d40000408800414080001040800000804000ae
:1015e400404088005140800020408000008040003e
:1015f40050408800614080003040800000804000fe
:101604006040880000408000ea0f500022003a0049
:1016140041408000a0002000000178001100090072
:101624008200d800cf80de007040880081408800ae
:101634000000eb004040880051408000a0002000e2
:1016440000017800110009008200d800cf80de007c
:1016540090408800a14088000000eb0050408800c2
:1016640061408000a0002000000178001100090002
:101674008200d800cf80de00b0408800c1408800de
:101684000000eb00604088000000eb000040880090
:1016940010002000f04088008560a9000080fa0056
:1016a4003400f9004f03be004f02be004f01be00dc
:1016b4004f00be003600f900004006003600f80076
:1016c400809fbe00829fbe00849fbe00869fbe0096
:1016d4003400f80000002000a00188000000fa0097
:1016e4000000eb00cafc07008460a9000080fa0037
:1016f4003400f9004f03be004f02be004f01be008c
:101704004f00be003600f900004006003600f80025
:10171400809fbe00829fbe00849fbe00869fbe0045
:10172400881f78003400f80000002000a001880021
:101734000000fa000000eb00b7fc070084e0a900f9
:10174400704880000000e8007048880080488000ed
:101754000000e80080488800904880000000e8000d
:1017640090488800a04880000000e800a048880055
:101774007148800010032000808f50000400360060
:101784000000eb007048880010c0b30051e8b700b7
:1017940081488000703e2000808f50000a0036008f
:1017a4000000eb0080488800d4c8bf00e04f500020
:1017b40003003a0010c0b300d4e8b70002003700b9
:1017c4000040eb00d4e8b700a1488000301f20009f
:1017d400808f50000c0036000000eb00a048880009
:1017e40044c8bf00e04f500003003a0010c0b300eb
:1017f40044e8b700020037000040eb0044e8b700bb
:1018040010c0b30050e8b70091488000703e20003b
:10181400808f5000240036000000eb0090488800c0
:10182400b04680000000e800b046880096c8bf00bb
:1018340000c0ea0096e8b700804180009141800032
:1018440018c0b30002002400e3642400b5fa0700c2
:10185400e00f500001003d000044eb00e04f540055
:101864000e003200304280000000e8003042880060
:101874003142800070252000808f5000090036001e
:1018840010c0b30048e8b7000000eb003042880005
:101894000000eb00b0468800020037000000eb00b7
:1018a400304288000e0307000080fa003400f9007b
:1018b4004f0478004f03be004f02be004f01be002c
:1018c4004f00be003600f900004006000000fa0098
:1018d400560007004800070065000700b7fe070030
:1018e40000002000010a24002046880031468800b8
:1018f40080382100f045880000402000e040880046
:1019040007ff07000041eb008040eb00c0592800ae
:101914007bfe070012c0b3008040eb00d05a2800c1
:1019240077fe07000100370000000000d04080006f
:101934000000e800d040880039030700a204070033
:10194400f0408000e10f500006003a000000eb0078
:10195400f0408800cb000700a300070055000700f3
:101964007601070051c8bf00e14f500002003a0061
:101974000040eb0051e8b7006504070050c8bf0001
:10198400e14f5000e8ff3a000040eb0050e8b70098
:1019940095c8bf00e14f500002003a0078030700e9
:1019a400e2ff37000041eb008040eb00808e200016
:1019b40053fe07000041eb0081c0b300d08e20002d
:1019c4004ffe07000041eb00f1c0b300108f200070
:1019d4004bfe070012c0b3008040eb00308f2000a4
:1019e40047fe070012c0b30081c0b300708f20000f
:1019f40043fe0700cdff37000000fa0000fe2f0071
:101a040007fc0700e0ff2f0007fc07000082eb0043
:101a140083ff2f00f2052e0081cc2000f0cf2d0093
:101a240012fc07000080fa00000006000000fa0023
:101a3400d202a900d222a900d802a900d822a90062
:101a4400d842a900d862a900c662a900c682a9002a
:101a5400c6a2a900d882a800d8a2a900d402a900cd
:101a6400d422a900daa2a9000080fa00000006002e
:101a74000000fa00b0ff2f0007fc07000000eb0095
:101a8400e3fb070001e8230090f82f0010fc070097
:101a9400b0ff2f0012fc07000000eb00defb070084
:101aa40001e82300d0f82f001efc07000080fa0094
:101ab400000006000000fa00881f780080418000c2
:101ac4009141800018c0b30002002600a3662400e0
:101ad40014fa0700e00f500001003d000044eb0041
:101ae400e04f540023003200304880004148800019
:101af40061004000e0804800304888004148880088
:101b0400324880004348800070a92300010020006f
:101b1400800f5100818f59003000360080a92300c6
:101b2400010020003048880041488800006a2800ed
:101b3400110020005048880061488800d402a900a0
:101b44000000000000000000d4c8bf006140600035
:101b54000080fb006100600000004000a2168000cd
:101b6400d1ff2f008100610000807000a016880062
:101b74001a0037006000b8003048880041488800e7
:101b84005048800061488000e00f5000e08f58000a
:101b9400110032005048800061488000610050000c
:101ba400e08058005048880061488800d4c8bf00cd
:101bb400614060000080fb006100600000004000a4
:101bc400a2168000d1ff2f00810061000080700008
:101bd400a0168800010037007d0007004f0478003c
:101be4000080fa00000006000000fa00881f780058
:101bf4004441800055418000e0418000f141800073
:101c040018c0b3000001be000400be00c7f90700fd
:101c1400e00f5000010034000044eb00e04f54009a
:101c2400040032004041800051418000e0418800be
:101c3400f141880044418000554180000042800009
:101c44001142800018c0b3000001be000400be00b1
:101c5400b4f90700e00f500001003d000044eb0020
:101c6400e04f5400040032004041800051418000a4
:101c740000428800114288004f0478000080fa0076
:101c8400000006000000fa007040800081408000df
:101c9400a8f907000200200003482400a8f907005f
:101ca40002002400c3592400e7f9070040468800d5
:101cb4005146880090408000a14080009df90700b3
:101cc40002002000034824009df9070002002400bc
:101cd400c3592400dcf90700604688007146880077
:101ce400b0408000c140800092f90700020020004b
:101cf4000348240092f9070002002400c359240079
:101d0400d1f907008046880091468800404680004b
:101d14005146800002002000030a2400caf907008b
:101d2400204188003141880060468000714680006f
:101d340022e42e00a3092400c3f9070060418800af
:101d4400714188008046800091468000a04188004f
:101d5400b141880020418000314180007293280005
:101d640013f82300b8f907006266260063302400e4
:101d7400eaf9070040418800514188006041800031
:101d840071418000a20a2600c3f82300aef90700bf
:101d9400e27a2400432a2400dff907008041880006
:101da40091418800a0418000b1418000323323007a
:101db40033f72300a4f907006011b800d7f907002e
:101dc400c0418800d14188000080fa00000006006c
:101dd4000000fa00881f7800804180009141800053
:101de40018c0b30002002000a34724004ff90700e5
:101df400e00f5000010034000044eb00e04f5400b9
:101e04000d0032000041800011418000610040005b
:101e1400e08048000041880011418800d402a900f4
:101e24000000000000000000d422a900000000000f
:101e340000000000240037008041800091418000b0
:101e440018c0b30002002200b364240035f907006f
:101e5400e00f500001003d000044eb00e04f54004f
:101e64000d003200004180001141800061004000fb
:101e7400e08048000041880011418800d402a90094
:101e84000000000000000000d422a90000000000af
:101e9400000000000c00370000468000114680005e
:101ea40061004000e0804800004688001146880038
:101eb400d402a8000000000000000000d422a80002
:101ec40000000000000000004f0478000080fa00c9
:101ed400000006000600fa00404798004e409000bb
:101ee4008080fb00a00020000001780011000900a0
:101ef4008280d800004f78001e4078006a00b90044
:101f04000000780010479800ce4090001e409000da
:101f140000c05000204798001e4078004100200077
:101f24008100dd002e40900000c040001047980062
:101f34001e4090000080fa00000006000600fa002f
:101f4400881f78006000b8001007980021079800e7
:101f5400c0418000d14180001007980021079800fb
:101f640090438000a1438000b0438800c1438800af
:101f7400704380008143800090438800a14388001f
:101f8400504380006143800070438800814388008f
:101f940030438000414380005043880061438800ff
:101fa400104380002143800030438800414388006f
:101fb400f0428000014380001043880021438800e0
:101fc400d0428000e1428000f04288000143880052
:101fd400b0428000c1428000d0428800e1428800c3
:101fe40090428000a1428000b0428800c142880033
:101ff4001e009000ae00900090428800a14288002c
:102004000040eb00004f78000d0037009e40780040
:102014000180fb00c200dd0020852000008040001c
:102024001000be000001be001e009000ae00900033
:102034003af9070010079800210798001e4fe8009e
:102044001e407800e94f5000f0ff360002002000e7
:10205400031224001e009000ae009000b8f80700a0
:1020640010079800210798001e009000ae00900011
:10207400d0438800e1438800404180005141800002
:10208400f226210033a82300eff80700920007008e
:10209400e8e8b7004041800051418000f226210069
:1020a40033a82300e8f80700b5000700e9e8b70003
:1020b400e0c2b300eae8b70040418000514180002b
:1020c400f226210033a82300dff80700cf00070021
:1020d400ebe8b7000040eb00ece8b700c04180003b
:1020e400d141800018c0b300020020000312240074
:1020f4008cf80700e00f500001003d000044eb00a5
:10210400e04f54000300320030c4b300f1e8b700dc
:1021140016003700c0418000d141800018c0b300d0
:102124000200200003122c0080f80700e00f50008a
:10213400010034000044eb00e04f5400060032007c
:1021440040c4b300f1e8b7006000b800d043880091
:10215400e14388000500370020c5b300f1e8b7006b
:102164006000b800d0438800e14388000040eb00e1
:10217400f2e8b700d0438000e1438000f22621005a
:1021840033a82300b0f807007d000700ede8b7008e
:10219400e0c2b300eee8b700d0438000e143800022
:1021a400f226210033a82300a7f8070097000700b0
:1021b400efe8b7000040eb00f0e8b70050428000c1
:1021c400614280006e000700f3e8b700e0c2b3008c
:1021d400f4e8b70050428000614280008b000700a1
:1021e400f5e8b7000040eb00f6e8b700e0478000f0
:1021f400f14780000e000700f7e8b700e0478000d1
:10220400f147800034000700f8e8b700e047800099
:10221400f14780005a000700f9e8b7000040eb00de
:10222400fae8b7004f0478000080fa0000000600c6
:102234000600fa00881f780010079800210798000c
:1022440018c0b30002002000a34724001e00900021
:10225400ae00900033f80700e00f500001003d008d
:102264000044eb00e04f54000b003a0018c0b300e8
:1022740002002000832c24001e009000ae00900079
:102284002af80700e00f5000010035000044eb007d
:10229400e04f54000300320000c2b300004f780046
:1022a4000900370002002000832c24001e00900047
:1022b400ae00900022f80700f5f80700004078000f
:1022c40001c3b300014f40001e4078004f04780062
:1022d4000080fa00000006000800fa0020079800b9
:1022e400310798002e009000be009000e8f8070027
:1022f400000f78001e007800e90f500005003e0032
:1023040000022000000f78001e00780000407800d2
:1023140019003700300620009e007800808f50009e
:10232400070036009e007800400620000001780077
:10233400110009008280d8008000fd00000f7800a1
:102344001e007800e90f5000060036009e00780059
:10235400a000200000017800110009008280d8004c
:10236400000f78001e007800004078000043b000a1
:10237400204798002e4090000080fa0000000600dc
:102384000800fa0020079800310798002e009000fa
:10239400be009000bef80700000f78003006200051
:1023a4009e007800808f5000070036009e00780061
:1023b4004006200000017800110009008280d80046
:1023c4008000fd00000f78001e007800e90f500027
:1023d400070036009e007800a0002000000178006d
:1023e400110009008280d8008000fd00000f7800f1
:1023f4001e007800004078000043b0002047980099
:102404002e4090000080fa00000006000800fa0048
:1024140020079800310798000200200003122400ce
:102424002e009000be00900007f8070020079800d7
:10243400310798002e009000be00900094f8070029
:10244400000f7800703e20009e007800808f5000be
:10245400070036009e007800803e200000017800ce
:10246400110009008280d8008000fd00000f780070
:10247400300620009e007800808f50000700360050
:102484009e00780040062000000178001100090039
:102494008280d8008000fd00000f78001e007800c4
:1024a400e90f5000070036009e007800a0002000cd
:1024b40000017800110009008280d8008000fd002e
:1024c400000f78001e007800004078000043b00040
:1024d400204798002e4090000080fa00000006007b
:1024e4000000fa00889fbe00c0418000d1418000f6
:1024f40018c0b300020020000312240089f707006b
:10250400e00f500001003d000044eb00e04f540098
:10251400190032004041800051418000f226210020
:1025240033a82300c8f707000004be00d04380008e
:10253400e1438000f226210033a82300c2f70700fc
:102544000001be000800be00bff707000200200023
:10255400135624007af707000002be00e04780000b
:10256400f14780000001be000400be00ebf7070045
:10257400e0478800f1478800704280000000e800ce
:10258400704288007142800000182500808f50003e
:10259400200039000000eb00704288006000b800a1
:1025a400e0478800f1478800e0478000f147800059
:1025b40002002000a347240061f707000002be00c8
:1025c40050428000614280000001be000400be0051
:1025d400d2f70700504288006142880050428000d0
:1025e4006142800018c0b300a2702d00f3112400d2
:1025f4004cf70700e00f500001003d000044eb00e1
:10260400e04f5400030032006000b80050428800dc
:10261400614288004f04be000080fa0000000600fa
:102624000000fa0012448000234480000080eb0084
:102634008080eb00800f5100818f59000a003a001e
:102644006000b800104488002144880000488000dd
:102654001148800061004000e08048000048880084
:10266400114888000600370010448000214480008f
:1026740061004000e0804800104488002144880044
:10268400314480004044800080804000f00f2000ee
:10269400008068008000ea00008070004f00de00c7
:1026a40080407800424480003044800000015100a2
:1026b40050052000000069000001ea0000007100dc
:1026c4004f00de000040780000c070000081fb0075
:1026d40031448000404480000088b90080007800c4
:1026e40020872300008068008000ea0000807000da
:1026f4004f00de00800071004244800030448000be
:1027040080017800811f7800110009000381d8003e
:1027140001017800cf0078000010a2000001ea0057
:10272400000071004f00de0000807000e00f5000d8
:1027340011003200f0438000014480006100400039
:10274400e0804800f043880001448800f2438000a0
:10275400034480002006200001002000800f510067
:10276400818f59000400360030062000010020004b
:10277400f0438800014488000080fa00000006004d
:102784000000fa00f04380000144800022c0b3003e
:1027940016000700a08820000041eb0041c0b300f0
:1027a400d7fa0700004880001148800022c0b30017
:1027b4000e000700a08820000041eb00e1c0b30038
:1027c400cffa07001044800021448000a2c0b30067
:1027d40006000700a088200012c0b30071c0b30037
:1027e400c7fa07000080fa00000006000600fa009d
:1027f400008fbe00424798001e00be0002a02c00bd
:10280400a3b92300bdf70700004078000043b000df
:102814008ae8b7001e00be0002a02c00a3b9230062
:10282400c6f70700008fbe001e00be0002102e0077
:10283400535f2000b1f70700004078000043b00068
:102844008be8b7001e00be0002102e00535f20006c
:10285400baf70700008fbe001e00be000268290000
:1028640083092000a5f70700004078000043b0006a
:102874008ce8b7001e00be0002682900830920000e
:10288400aef70700008fbe001e00be000224240025
:10289400f300200099f70700004078000043b000df
:1028a4008de8b7001e00be0002242400f3002000bf
:1028b400a2f70700008fbe001e00be00026a2800b7
:1028c400130020008df70700004078000043b0009b
:1028d4008ee8b7001e00be00026a28001300200024
:1028e40096f70700008fbe001e00be000271220092
:1028f4000300200081f70700004078000043b00087
:102904008fe8b7001e00be00027122000300200001
:102914008af70700008fbe001e00be00823e200022
:102924000300200075f70700004078000043b00062
:1029340090e8b7001e00be00823e20000300200085
:102944007ef70700008fbe001e00be004206200076
:102954000300200069f70700004078000043b0003e
:1029640091e8b7001e00be004206200003002000cc
:1029740072f70700008fbe001e00be00a2002000f8
:10298400030020005df70700004078000043b0001a
:1029940092e8b7001e00be00a20020000300200041
:1029a40066f70700008fbe001e0078000040780024
:1029b4000043b00093e8b7004e4090000080fb0055
:1029c4006101b9000080eb008080eb000200400050
:1029d400838048009200200003002000820f5000f2
:1029e400838f580047003e00006001000900370053
:1029f4000d003700130037001b0037001d0037009f
:102a04001f0037002100370023003700250037005e
:102a14003900370093c8bf008ae8b7000040eb00d4
:102a24008be8b7003800370092c8bf008ae8b700c7
:102a340093c8bf008be8b7000040eb008ce8b700f8
:102a44003100370091c8bf008ae8b70092c8bf00c0
:102a54008be8b70093c8bf008ce8b7000040eb00d8
:102a64008de8b700280037000040eb008ee8b7007f
:102a7400250037000040eb008fe8b7002200370044
:102a84000040eb0090e8b7001f0037000040eb0067
:102a940091e8b7001c0037000040eb0092e8b70053
:102aa400190037008bc8bf008ae8b7008cc8bf0084
:102ab4008be8b7008dc8bf008ce8b7008ec8bf0094
:102ac4008de8b7008fc8bf008ee8b70090c8bf007c
:102ad4008fe8b70091c8bf0090e8b70092c8bf0064
:102ae40091e8b70093c8bf0092e8b7000040eb003c
:102af40093e8b700040037000040eb0094e8b70007
:102b040001003700000000000080fa000000060009
:102b14000000fa00d016800070006000e00f500042
:102b240025003a0021488000b0122000808f500018
:102b34001d0036000000eb002048880095c8bf0047
:102b4400e04f50000c003a0010c0b30095e8b70005
:102b540073fa07000041eb008040eb00e05b2800c3
:102b6400e7f9070012c0b3008040eb00005d2800c5
:102b7400e3f90700120037000040eb0095e8b700c6
:102b840067fa07000041eb008040eb00c0592800c1
:102b9400dbf9070012c0b3008040eb00d05a2800d4
:102ba400d7f9070006003700204880000000e8003d
:102bb40020488800020037000000eb00204888000d
:102bc4000080fa00000006000000fa00f0438000d4
:102bd40001448000e00f5000e08f58000b003200e9
:102be40096c8bf00614060000080fb006100600087
:102bf4004500dd00d2168000f1fd2f008100610048
:102c040000807000d016880001003700daa2a90005
:082c14000080fa000000060038
:020000040000fa
:102c1c00aa0800006c000000000000000008000082
:102c2c00aa000000020000000000000000000000ec
:102c3c000000000000000000000000000000000088
:102c4c000000000000000000000000000000000078
:102c5c000000000000000000000000000000000068
:102c6c000000000000000000000000000000000058
:102c7c00000000000000000000409c004600000026
:102c8c000000000000000000000000000000000038
:102c9c000000000000000000000000000000000028
:102cac000000000000000000000000000000000018
:102cbc000000000000000000000000000000000008
:102ccc0000000000000000000000000000000000f8
:102cdc0000000000000000000000550000aa0000e9
:102cec0000000000000000000000000000000000d8
:102cfc0000009a009911410033336300419a990006
:102d0c00993e0000000000009b0100000000000044
:020000040000fa
:102d1c00829fbe00849fbe00869fbe0006032000db
:102d2c0045002000f2002000820160004400de001b
:102d3c006918e10001003400e7814100068241007e
:102d4c00841f78008502e900f7ff3a004f007800f5
:102d5c00801878004f007800801878004f007800b9
:102d6c00801878004f007800801878008100b1003e
:102d7c004f03be004f02be004f01be000000060014
:00000001FF
