:020000040000fa
:080000000001040000000000f3
:020000040000fa
:100200002f8020000eff20000e018800000000005b
:100210000c0007004028200001002000110007000a
:10022000000020000000e000020032000000020098
:1002300000000000ee010200000000000040da00b3
:100240000000fe004440a900000020000000e00083
:100250000300320000002000a00188004440a800f4
:100260000000060091018800800078000000eb008b
:1002700015003700e280400032a0b4009101ba00be
:10028000e280400032a0b4009102ba00e280400057
:1002900032a0b4000002eb00472bde00f507b200ed
:1002a000602ce10004003a000059eb008301e900f2
:1002b000fdff3e00040037006128e100010032002c
:1002c0000082eb00040007001101ba000200e00008
:1002d000e8ff3a00000006003159ba008301e90046
:1002e0000c0032002159ba008301e90008003200f5
:1002f0000400e00003003a00e280400032a0b400b5
:10030000f5ff370011d9ba008301e900faff3a007e
:100310008100e800e180400032a0b4000000060047
:100320003600f800809fbe00829fbe00849fbe0002
:10033000869fbe003400f80000002000a001880065
:100340000000fa00d01680000080ea00d016880075
:100350000000eb00410007008460a900d402a8005f
:100360000080fa003400f9004f03be004f02be00c7
:100370004f01be004f00be003600f90000400600ed
:100380003600f800809fbe00829fbe00849fbe00a2
:10039000869fbe003400f80000002000a001880005
:1003a0000000fa00d01680000080ea00d016880015
:1003b0000000eb002b00070084e0a9000080fa0099
:1003c0003400f9004f03be004f02be004f01be00d3
:1003d0004f00be003600f900004006000000fa00a1
:1003e0001300070001000700ffff37000000fa00bc
:1003f000b0ff2f001d0007000000eb0017000700f2
:10040000811a260090f82f0026000700b0ff2f0069
:10041000280007000000eb0012000700811a2600e8
:10042000d0f82f00340007000080fa00000006001a
:100430000000fa000000eb00c01688000000eb008e
:10044000d0168800d202a900d402a9000080fa00c8
:10045000000006000040da000000fe0000088800ee
:100460000000060050088800000006008460a90013
:10047000670160004c11dd00a3048000f1ff28003b
:100480008180610082807000a104880068006000a3
:10049000610480000130a100808070006104880048
:1004a000000006000021ef001108880020088800e5
:1004b0000000060084e0a900670160004c11dd0027
:1004c000b3048000f1ff2800818061008280700009
:1004d000b104880068006000c300de00e1806000b5
:1004e000c708dd00600480000070a10001007000fa
:1004f00060048800000006000a21ef0071088800ef
:080500009008880000000600cd
:020000040000fa
:0200000401f009
:04000000febf00003f
:020000040000fa
:0200000401f009
:04000400ff7f00007a
:020000040000fa
:0200000401f009
:04000800fcff0000f9
:020000040000fa
:0200000401f009
:04001400ffff0000ea
:020000040000fa
:100008002a0200002a0200002a0200002a02000038
:100018002a0200002a0200002a0200002a02000028
:100028002a0200002a0200002a02000090010000b3
:100038002a0200002a0200002a020000c001000073
:100048002a0200002a0200002a0200002a020000f8
:100058002a0200002a0200002a0200002a020000e8
:100068002a0200002a0200002a0200002a020000d8
:100078002a0200002a0200002a0200002a020000c8
:100088002a0200002a0200002a0200002a020000b8
:100098002a0200002a0200002a0200002a020000a8
:1000a8002a0200002a0200002a0200002a02000098
:1000b8002a0200002a0200002a0200002a02000088
:1000c8002a0200002a0200002a0200002a02000078
:1000d8002a0200002a0200002a0200002a02000068
:1000e8002a0200002a0200002a0200002a02000058
:0800f8002a0200002a020000a8
:020000040000fa
:100108002a0200002a0200002a0200002a02000037
:100118002a0200002a0200002a0200002a02000027
:100128002a0200002a0200002a02000090010000b2
:100138002a0200002a0200002a020000c001000072
:100148002a0200002a0200002a0200002a020000f7
:100158002a0200002a0200002a0200002a020000e7
:100168002a0200002a0200002a0200002a020000d7
:100178002a0200002a0200002a0200002a020000c7
:100188002a0200002a0200002a0200002a020000b7
:100198002a0200002a0200002a0200002a020000a7
:1001a8002a0200002a0200002a0200002a02000097
:1001b8002a0200002a0200002a0200002a02000087
:1001c8002a0200002a0200002a0200002a02000077
:1001d8002a0200002a0200002a0200002a02000067
:1001e8002a0200002a0200002a0200002a02000057
:0801f8002a0200002a020000a7
:020000040000fa
:1005080000080000020000000200000000000000d7
:0405180000000000df
:00000001FF
