:020000040000fa
:080000000001040000000000f3
:020000040000fa
:100200006f8420000eff20000e0188000000000017
:100210000c000700409b2000010020001100070097
:10022000000020000000e000020032000000020098
:10023000000000002c070200000000000040da006f
:100240000000fe004440a900000020000000e00083
:100250000300320000002000a00188004440a800f4
:100260000000060091018800800078000000eb008b
:1002700015003700e280400032a0b4009101ba00be
:10028000e280400032a0b4009102ba00e280400057
:1002900032a0b4000002eb00472bde00f507b200ed
:1002a000602ce10004003a000059eb008301e900f2
:1002b000fdff3e00040037006128e100010032002c
:1002c0000082eb00040007001101ba000200e00008
:1002d000e8ff3a00000006003159ba008301e90046
:1002e0000c0032002159ba008301e90008003200f5
:1002f0000400e00003003a00e280400032a0b400b5
:10030000f5ff370011d9ba008301e900faff3a007e
:100310008100e800e180400032a0b4000000060047
:100320000040da000000fe00839f68000100e0004a
:1003300002003d0060001000e08018000300e000b3
:1003400002003d0060011100e0811900f800070083
:100350004f00e00002003b0060001000e080180049
:10036000000006006011b80001013700889fbe0040
:100370008a9fbe008c1f78002c01070033013300d8
:1003800003866c006450e1002e0032006420e1001e
:10039000330032006150e1002f0032006120e100a3
:1003a0003100320085855500eb07b00009002000c0
:1003b00008042000050037000804440089844c002c
:1003c0000a0031000603430087834b0000015300fd
:1003d00081815b00f8ff33000203be000800a0002b
:1003e0000804440089844c00f6ff3900c639dd005a
:1003f0008301730001003200130020008904d10042
:100400000884d3000998a300050032000800a70063
:100410000300a0008904d1000884d3008b05e80004
:100420008904d1000884d3000001eb000281d200ce
:100430001601070001f0a1000cf0a70001f0a000d8
:100440000b0137006420e1000d0132000801be00fd
:100450000200be00f7ff37006120e1000801320012
:100460006000b800f3ff37000000200001f827000b
:10047000f0ff3700889fbe008a9fbe008c1f780067
:10048000ea000700f100330003866c006450e100cd
:10049000240032006420e100270032006150e100b6
:1004a000220032006120e100210032008b854200f1
:1004b000eb07b1000134b800003ab800080442006c
:1004c00089844a00013ab8000030b80088804000b2
:1004d00009014a0004003300000040008180480008
:1004e000020149008b05e900c909dd0083017000a4
:1004f0000100320013002000c814de004814dd00a3
:100500004709de001200b200c808de00088470004f
:10051000de00070001f0a1000cf0a70001f0a00030
:10052000d30037006120e100d50032000801be0091
:100530000200be00f7ff37006150e100fcff3a0007
:10054000cf003700f4ff2f00f600370003f0a200c1
:10055000889fbe008a9fbe008c1f7800b3000700f2
:10056000ba0033006450e1004f0032006420e10023
:100570005200320003826c0007003b000905d000e6
:100580000306d000820f54000c065d000200390003
:100590000200320089017800030678008582550048
:1005a00004003d000003fd008103fd008502ea0018
:1005b0008b854200840f720002003b006000100037
:1005c000e08018006011b8000005eb007a28e10017
:1005d0000a00390006007800c75ddd00f707b200a9
:1005e000878075002d003700828171000a01780034
:1005f000610560008180d1000080d3008502e900a0
:10060000f9ff3b00060440008784480002003b00dd
:1006100060041400e0841c000988a3000700320075
:100620008a81710082817100610164008904d100b6
:100630000884d3008b05e800170037000978a30071
:1006400013003a000b00e000130034008b05e900b2
:100650000804440089844c000a4474000978a3000b
:100660000d003a000b00e000070034008b05e900a4
:100670000804440089844c0001003a000b0020006b
:100680000978a300f7ff32000001eb0002003700f9
:10069000828171000a0178007c0007000cf0a7003d
:1006a00001f0a000720037006420e10002003a006f
:1006b000838f6c00720033000801be000200be0090
:1006c0006b0037000001be00b10007000470a700f6
:1006d00003f0a10003f8a30013003a006509b1007c
:1006e00010003200090035006928e10002003500e1
:1006f0000100280000000500000040008180480043
:100700008502e900fcff3a0000000600f88f420075
:10071000050035008100d1000080d3008502e8008b
:10072000fcff3a00000006008000eb00000005001e
:100730006022b800060220000000d0008180d200b4
:100740000482d2008582d2000000a0000202520082
:1007500083825a00030031000202420083824a0071
:100760000000a1000603e900f3ff3a0000000600c4
:10077000889fbe008a9fbe00008270000402710044
:1007800004827100260032000004be000200be0098
:100790006011b8006b092000950220000182cf0093
:1007a0000a0039000541b1000082cf00070039007e
:1007b0000541b1000982cf00040039000541b100b4
:1007c0000882cf00010039000541b1000542520006
:1007d000120032000a003b00828171006101640056
:1007e0008100d1000080d3008984d3000884d30025
:1007f0008b05e8000442e800f7ff3a0007003700e5
:100800000804440089844c000000480081804800ae
:100810008b05e9000442e900f9ff3a001b000700dc
:100820004f05be004f04be00000006000004be00dd
:10083000570007000003be000405be000200be0012
:1008400053000700844f7500000006000200be0040
:100850006450e100050036006420e100020036002b
:100860000968a30001003a000800be000160a00072
:100870004f0678004f05be004f04be000000060082
:10088000f0ff2f00f1ff2700f9ff37008100200063
:10089000618055000b003d000b00200061fe2f0021
:1008a0000100e1001d0034008281710061016400db
:1008b0008904d1000884d3000000e800faff3a0060
:1008c00071002000610064000300700002006000fd
:1008d0000900320061044400e0844c000988a5004e
:1008e000050032008b05e8006808e10002003a00cc
:1008f0008904d1000884d300f20f20000258e100df
:1009000005003d00c75ddd00f907b2008980750074
:1009100008007800000006000bf827008b00780024
:1009200000000500889fbe008a9fbe00841f7800db
:10093000beff07004f00780011003300f0ff2f00ca
:10094000838f6c0006003b00040565000a00a700c9
:100950000800370009f0a60010002000080037004a
:10096000820f5400838f5c000300390010002000c8
:1009700001003e000000200009f0a7000000ea008e
:100980004f05be004f04be000000e000000006005e
:10099000c70ade00f107b200f50fb200080032000e
:1009a000e1cf4200020032000170a00024000500e7
:1009b000810f7000010032000408050044000500aa
:1009c000810f700002003a00140005008502e90062
:1009d0000000400081c04800fcff3b000170a00007
:1009e0002400050050088800000006000080fb007d
:1009f000000040000128200061007800000006008f
:100a000084e0a900670160004c11dd00b3048000a0
:100a1000f1ff28008180610082807000b1048800ad
:100a200068006000c300de00e1806000c708dd00f0
:100a3000600480000070a100010070006004880064
:100a4000000006000a21ef00710888009008880065
:100a50000000060030158800000006008560a9002f
:100a6000670160004c11dd00c3048000f1ff280025
:100a70008180610082807000c1048800680060008d
:100a8000c300de00e1806000cb08dd006004800070
:100a900000b0a100010070006004880000000600a2
:100aa0004315880054158800221588001115880008
:100ab0000015880062006000011580000110a1008f
:0c0ac00080807000011588000000060016
:020000040000fa
:0200000401f009
:04000000eebf00004f
:020000040000fa
:0200000401f009
:04000400ff7f00007a
:020000040000fa
:0200000401f009
:04000800fcff0000f9
:020000040000fa
:0200000401f009
:04001400ffff0000ea
:020000040000fa
:1000080090010000900100009001000090010000a4
:100018009001000090010000900100009001000094
:100028009001000090010000900100009001000084
:10003800900100009001000090010000b20500004e
:100048009001000090010000900100007c06000073
:100058009001000090010000900100009001000054
:100068009001000090010000900100009001000044
:100078009001000090010000900100009001000034
:100088009001000090010000900100009001000024
:100098009001000090010000900100009001000014
:1000a8009001000090010000900100009001000004
:1000b80090010000900100009001000090010000f4
:1000c80090010000900100009001000090010000e4
:1000d80090010000900100009001000090010000d4
:1000e80090010000900100009001000090010000c4
:0800f8009001000090010000de
:020000040000fa
:1001080090010000900100009001000090010000a3
:100118009001000090010000900100009001000093
:100128009001000090010000900100009001000083
:10013800900100009001000090010000b20500004d
:100148009001000090010000900100007c06000072
:100158009001000090010000900100009001000053
:100168009001000090010000900100009001000043
:100178009001000090010000900100009001000033
:100188009001000090010000900100009001000023
:100198009001000090010000900100009001000013
:1001a8009001000090010000900100009001000003
:1001b80090010000900100009001000090010000f3
:1001c80090010000900100009001000090010000e3
:1001d80090010000900100009001000090010000d3
:1001e80090010000900100009001000090010000c3
:0801f8009001000090010000dd
:020000040000fa
:100acc000200fa00881f7800004f78000044eb0009
:100adc0009003700000000000000000000000000ca
:100aec0000000000000000000000000000000000fa
:100afc00000000000844e8009e4f5400f5ff390048
:100b0c004f0478000080fa00000006000200fa0092
:100b1c00881f7800000f78000004eb0009003700f4
:100b2c00a0cfb300e6ff0700a0cfb300e4ff07009f
:100b3c00a0cfb300e2ff0700a0cfb300e0ff070097
:100b4c000804e8009e0f5400f5ff39004f047800ac
:100b5c000080fa00000006003600f800809fbe00fe
:100b6c00829fbe00849fbe00869fbe003400f800aa
:100b7c0000002000a00188000000fa000000eb003b
:100b8c0095ff070084e0a900804180000000e80088
:100b9c008041880081418000703e2000808f500091
:100bac00120036000000eb008041880000408000fd
:100bbc000000e80000408800501680004600de006f
:100bcc006140600000c0ea00614060000080fb00f2
:100bdc00610060004600dd0052168000f1fb2f0022
:100bec008100610000807000501688000040800079
:100bfc00e00f500001003200250107003dc8bf0086
:100c0c00e14f50000e003a00204280000000e80046
:100c1c0020428800d502a8002142800070382100b3
:100c2c00808f5000290036000000eb002042880025
:100c3c00d502a9000040eb003de8b70023003700c7
:100c4c002ac8bf00e14f50000e003a00204280003d
:100c5c000000e80020428800d502a8002142800054
:100c6c00f07c2000808f5000180036000000eb0054
:100c7c0020428800d502a9000040eb002ae8b7000a
:100c8c00120037003cc8bf00e14f50000e003a0084
:100c9c00204280000000e80020428800d502a80015
:100cac0021428000301f2000808f5000070036004a
:100cbc000000eb0020428800d502a9000040eb00a8
:100ccc003ce8b70001003700d502a9000080fa000b
:100cdc003400f9004f03be004f02be004f01be00ae
:100cec004f00be003600f900004006003600f80048
:100cfc00809fbe00829fbe00849fbe00869fbe0068
:100d0c003400f80000002000a00188000000fa0068
:100d1c000040eb0032ff0700010020004280200061
:100d2c000089be0010c0b3002dff07000100200099
:100d3c004280200020019800310198001040800072
:100d4c000000e80010408800c08020001001be00a8
:100d5c00408020001000be0002004000838048004c
:100d6c00c28020000089be00c080200020019000bd
:100d7c00b001900040802000b00090002000900056
:100d8c000200400083804800c280200020019800af
:100d9c003101980010408000f40f500019003a0007
:100dac00c08020001000be00420120000300200083
:100dbc005afd0700428120000089be00c28020003d
:100dcc006000b8000089be00c0802000b000900018
:100ddc002000900042012000030020004ffd07007e
:100dec00428120002001980031019800c28020002f
:100dfc006000b80020019800310198000000eb0061
:100e0c0010408800408120001000be0000007800d7
:100e1c00e040880040812000b0009000200090004d
:100e2c0000007800904188008560a9000080fa00dd
:100e3c003400f9004f03be004f02be004f01be004c
:100e4c004f00be003600f900004006000000fa001a
:100e5c0006000700120007001b0007002d01070009
:100e6c00260007004a000700fdff37000000fa00cb
:100e7c00c6c2a900c6e2a900c702a900c722a900e0
:100e8c00d302a900d322a900c602a800c622a8003a
:100e9c00d502a900d522a9000080fa0000000600a6
:100eac000000fa00b0ff2f00d2fe07000000eb009c
:100ebc00c9fe070001f42100d0f82f00defe070068
:100ecc000080fa00000006000000fa0000fe2f006f
:100edc00ddfe0700e0ff2f00ddfe07000082eb00c7
:100eec00c3ff2f00f2052e0081fc2000f0cf2d0057
:100efc00e8fe07000080fa00000006000000fa007f
:100f0c009141800030a22000808f500006003600f6
:100f1c00cac2a900cae2a900cb02a80020c0b30033
:100f2c001ee8b7000f00370091418000704420008c
:100f3c00808f500006003600cac2a900cae2a80081
:100f4c00cb02a90010c0b3001ee8b70005003700a3
:100f5c00cac2a800cae2a900cb02a9000040eb005b
:100f6c001ee8b70031842000914078001ec8bf00f5
:100f7c0080cf50000400320010c0b3003ce8b70032
:100f8c001ec8bf0043e8b7000080fa00000006004e
:100f9c000000fa00881f7800e0408000010020006b
:100fac00edfc07000200200003582400ecfc0700b5
:100fbc0002002000030a24002bfd070000418800da
:100fcc0011418800004180001141800018c0b3001d
:100fdc0042e12a00f309240057fd0700e00f5000fe
:100fec0001003d000044eb00e04f540004003200cf
:100ffc0040e12a00f10924000041880011418800d9
:10100c0000418000114180000001be000000200062
:10101c00010a24004afd070002002400c3612400d9
:10102c0011fd07000002be0000418000114180004c
:10103c000001be000400be00c9fc0700a0418800ee
:10104c00b1418800c4418000d5418000a04180009e
:10105c00b14180000001be000400be0002fd07008b
:10106c000002be0020418000314180000001be0022
:10107c000400be0033fd07008ffd07000000780060
:10108c00404188004f0478000080fa000000060000
:10109c000000fa002bc8bf000080fb00cf80de00f0
:1010ac003200200003002000820f5000838f580074
:1010bc000b003e0000600100030037000400370005
:1010cc0005003700080037000a000700070037004a
:1010dc0025000700050037003f000700030037001c
:1010ec000000000001003700000000000080fa0042
:1010fc00000006000000fa006e000700414180006d
:10110c00810f50001200390042c8bf00e44f50005c
:10111c000b0036000040eb0042e8b70010c0b300f3
:10112c003ee8b70010c0b3002ae8b70010c0b30007
:10113c002be8b700d522a800cb22a9000800370065
:10114c0042c8bf000040e80042e8b7000400370086
:10115c000040eb0042e8b700d522a900cb22a80042
:10116c000080fa00000006000000fa0051000700a1
:10117c008080e80040418000808f500012003e00cb
:10118c0041c8bf00e44f50000b0036000040eb009c
:10119c0041e8b7000040eb003ee8b70020c0b300c8
:1011ac002be8b700d522a900cb22a80010c0b300b1
:1011bc003de8b7000600370041c8bf000040e8001a
:1011cc0041e8b700020037000040eb0041e8b700ef
:1011dc000080fa00000006000000fa00881f78006a
:1011ec003ec8bf00e04f500018003a00404180005c
:1011fc00650440002f000700800f540010003e00d3
:10120c003fc8bf00e44f5000090036000040eb001f
:10121c003fe8b70010c0b3003ee8b70010c0b30001
:10122c002ae8b700d522a800cb22a9001e0037005f
:10123c003fc8bf000040e8003fe8b7001a00370085
:10124c000040eb003fe8b70017003700190007001b
:10125c008080e80040418000808f500010003e00ec
:10126c0040c8bf00e44f5000090036000040eb00be
:10127c0040e8b7000040eb003ee8b700d522a900db
:10128c00cb22a80010c0b3003ce8b7000600370022
:10129c0040c8bf000040e80040e8b700020037003b
:1012ac000040eb0040e8b7004f0478000080fa00e3
:1012bc00000006000200fa000000eb00000f7800ae
:1012cc001ec8bf000080fb00e10f50000700320079
:1012dc00e20f500008003200e00f500009003a0005
:1012ec0040012000000f780007003700e0012000cb
:1012fc00000f78000400370060022000000f780017
:10130c0001003700000000001e0078000080fa0089
:10131c00000006000000fa001014200081b32b001e
:10132c00c0418800d1418800c0418000d14180007b
:10133c0001f0a20002002600f35924004afc070029
:10134c0062662600e32124007efc07002041880011
:0c135c00314188000080fa00000006000b
:020000040000fa
:101368002c0800001a00000000000000000800001f
:101378002c00000002000000000000000000000037
:101388000000000000000000000000000000000055
:101398000000000000000000000000000000000045
:1013a8000000000000000000000000000000000035
:0813b80000000000000000002d
:00000001FF
