:020000040000fa
:080000000001040000000000f3
:020000040000fa
:100200004f85200080ff20000001880000000000d2
:10021000050007000c0007008c060200000000002b
:100220000040da000000fe004440a900c0002000a9
:100230000000e0000300320000002000a001880060
:100240004440a80000000600406e2000010020008d
:100250001600370062004000e080480091018800ed
:100260009001ba0062004000e080480091018800df
:100270009002ba0062004000e08048000002eb00fb
:100280006028e10005003a008301e900070033001f
:10029000038009000059eb00040037006128e100e9
:1002a000010032000082eb00050007009101880088
:1002b0001001ba000200e000e6ff3a00000005006d
:1002c000910188008002780062004000e0804800d0
:1002d0003559ba008301e900080032002559ba00f7
:1002e0008301e900050032000400e000f4ff320061
:1002f00015d9ba008301e900f1ff3a0000000600b9
:10030000829fbe00849fbe00869fbe000603200021
:1003100045002000f2002000820160004400de0061
:100320006918e10001003400e781410006824100c4
:10033000841f78008502e900f7ff3a004f0078003b
:10034000801878004f007800801878004f007800ff
:10035000801878004f007800801878008100b10084
:100360004f03be004f02be004f01be00000006005a
:100370000200fa00000f78000040eb0000e8b70030
:100380000040eb0001e8b7000040eb0002e8b700d6
:100390000040eb0003e8b7001e00e00067003200f9
:1003a000303320009e0f10000600360000c8bf004a
:1003b0000040e80000e8b700c0cc2f001e0f40004e
:1003c000f5ff3700100520009e0f100013003600c7
:1003d000303320009e0f100010003e0010802000df
:1003e00081c0b30090cf100004003c0001c8bf00e2
:1003f0000040e80001e8b7000500370000c8bf0072
:100400000040e80000e8b7000040eb0001e8b7005a
:10041000e0fa2f001e0f4000dfff370081002000b0
:100420009e8f10001d003600100520009e0f10004a
:100430001a003e002080200081c0b30090cf100041
:1004400004003c0002c8bf000040e80002e8b7001a
:100450000f0037000040eb0002e8b70010802000da
:1004600081c0b30090cf100004003c0001c8bf0061
:100470000040e80001e8b7000500370000c8bf00f1
:100480000040e80000e8b7000040eb0001e8b700da
:100490001e007800690f5000bfff37001e00e0000b
:1004a000bdff3200810020009e8f1000baff3e0089
:1004b0003080200081c0b30090cf100004003c00c9
:1004c00003c8bf000040e80003e8b7001900370088
:1004d0000040eb0003e8b7002080200081c0b3009b
:1004e00090cf100004003c0002c8bf000040e800ac
:1004f00002e8b7000f0037000040eb0002e8b70049
:100500001080200081c0b30090cf100004003c0098
:1005100001c8bf000040e80001e8b700050037004f
:1005200000c8bf000040e80000e8b7000040eb0052
:1005300001e8b7001e0fe90097ff370000c8bf00b1
:100540000043b00000e8b70001c8bf000043b0009e
:1005500001e8b70002c8bf000043b00002e8b700de
:1005600003c8bf000043b00003e8b7000080fa00f2
:10057000000006000400fa00008fbe000040eb00ff
:1005800004e8b7000040eb0005e8b7000040eb00ce
:1005900006e8b7000040eb0007e8b7000040eb00ba
:1005a00008e8b7001e00be00e00f5000e08f5800c2
:1005b000b8003200f070220001002000be0f1000d1
:1005c000ae8f18000800360004c8bf000040e800e5
:1005d00004e8b700008f2d00f1ff2f001e0f400030
:1005e0005e974800efff3700703e200001002000ba
:1005f000be0f1000ae8f180017003600f0702200fa
:1006000001002000be0f1000ae8f180012003e0047
:100610005080200081c0b30090cf100004003c0047
:1006200005c8bf000040e80005e8b7000500370036
:1006300004c8bf000040e80004e8b7000040eb0039
:1006400005e8b70080c12f00f1ff2f001e0f40000a
:100650005e974800d3ff37003006200001002000dd
:10066000be0f1000ae8f180021003600703e200033
:1006700001002000be0f1000ae8f18001c003e00cd
:100680006080200081c0b30090cf100004003c00c7
:1006900006c8bf000040e80006e8b7000f003700ba
:1006a0000040eb0006e8b7005080200081c0b30096
:1006b00090cf100004003c0005c8bf000040e800d7
:1006c00005e8b7000500370004c8bf000040e80097
:1006d00004e8b7000040eb0005e8b700c0f92f00c0
:1006e000f1ff2f001e0f40005e974800adff37005e
:1006f0009000200001002000be0f1000ae8f1800f7
:100700002b0036003006200001002000be0f100034
:10071000ae8f180026003e007080200081c0b3001c
:1007200090cf100004003c0007c8bf000040e80064
:1007300007e8b700190037000040eb0007e8b700f2
:100740006080200081c0b30090cf100004003c0006
:1007500006c8bf000040e80006e8b7000f003700f9
:100760000040eb0006e8b7005080200081c0b300d5
:1007700090cf100004003c0005c8bf000040e80016
:1007800005e8b7000500370004c8bf000040e800d6
:1007900004e8b7000040eb0005e8b70060ff2f0059
:1007a000f1ff2f001e0f40005e9748007dff3700cd
:1007b0001e00be00e00f5000e08f580079ff3200ad
:1007c0009000200001002000be0f1000ae8f180026
:1007d00074ff3e008080200081c0b30090cf1000e5
:1007e00004003c0008c8bf000040e80008e8b7006b
:1007f000230037000040eb0008e8b70070802000bd
:1008000081c0b30090cf100004003c0007c8bf00b7
:100810000040e80007e8b700190037000040eb008f
:1008200007e8b7006080200081c0b30090cf1000bf
:1008300004003c0006c8bf000040e80006e8b7001e
:100840000f0037000040eb0006e8b70050802000a2
:1008500081c0b30090cf100004003c0005c8bf0069
:100860000040e80005e8b7000500370004c8bf00f5
:100870000040e80004e8b7000040eb0005e8b700de
:100880000080eb008080eb001e0f40005e97480068
:1008900044ff370004c8bf000043b00004e8b700bd
:1008a00005c8bf000043b00005e8b70006c8bf0098
:1008b0000043b00006e8b70007c8bf000043b0001f
:1008c00007e8b70008c8bf000043b00008e8b70059
:1008d0000080fa00000006000200fa00004f7800d5
:1008e0001e40780010479800e116800000ff2f009e
:1008f000808060001e4090000080fb004400de000d
:100900000080fb006f00600000807000e01688002f
:10091000c116800000ff2f0000806000c016880014
:10092000ca22a900ca42a8004001200001002000fc
:10093000ec000700ca42a90040012000010020008d
:10094000e8000700e116800000ff2f0080806000b3
:100950001e80fb006f00600000807000e0168800c1
:10096000ca22a900ca42a8004001200001002000bc
:10097000dc000700ca42a900c0168000f000b300e6
:10098000c01688000080fa00000006000200fa008d
:10099000004f78000071220001002000d100070004
:1009a000ca02a9001e407800cbff07000080fa00b1
:1009b000000006000200fa00004f780000712200db
:1009c00001002000c7000700ca02a8001e407800ee
:1009d000c1ff07000080fa00000006000200fa00d4
:1009e000004f78001e407800f2ff07000080fa00f8
:1009f000000006000200fa00004f7800114798003e
:100a00001e4090000080fb004600dd009e4070000c
:100a100000c8b30000c07000dcff07000080fa00cf
:100a2000000006000a00fa00000f78002147980035
:100a300032479800a080200020079800ae00900068
:100a40001e0078002efe0700be4090002e40900051
:100a5000e8ff07000000eb00300798003e00900020
:100a6000e30f500010003c006401470012007800c2
:100a70008000780091007800410798000080e8002d
:100a8000000978003e009000e10f500002003400a1
:100a90000e489000d1ff07003e0090000000e800e3
:100aa00030079800edff37000080fa0000000600d4
:100ab0000600fa00000f780021479800324798009e
:100ac0000040eb0040479800be4090002e40900050
:100ad000c8ff07004e4090000080fb001e00400051
:100ae0001004e000090032004e4090000080fb003e
:100af0001e00400010407800b8ff07004e409000f4
:100b00000040e80040479800f2ff37000080fa00fc
:100b1000000006000400fa00000f7800214798004a
:100b2000324798001e00e00001003d001e0fea0061
:100b30001e007800cf80de008efe070005c8bf00d3
:100b4000a6ff070006c8bf00a4ff070007c8bf0034
:100b5000a2ff070008c8bf00a0ff07000080fa003e
:100b6000000006000000fa00f0ff2f000100200046
:100b70005c000700f0ff2f00010020005900070073
:100b8000f0ff2f000100200056000700f0ff2f00ab
:100b90000100200053000700e116800000ff2f0035
:100ba000008060003000b300e0168800c1168000ad
:100bb00000ff2f0000806000c0168800ca22a90034
:100bc000ca42a800400120000100200045000700a3
:100bd000ca42a900f0ff2f000100200041000700d9
:100be000e116800000ff2f00008060003000b3009d
:100bf000e0168800ca42a800400120000100200041
:100c000038000700ca42a900e116800000ff2f004b
:100c1000008060003000b300e0168800c11680003c
:100c200000ff2f0000806000c0168800ca22a900c3
:100c300050002000010020002a000700ca42a8003e
:100c4000400120000100200026000700ca42a90040
:100c5000001920000100200022000700e11680009a
:100c600000ff2f00008060000010a000e016880048
:100c7000ca42a8004001200001002000190007001e
:100c8000ca42a90080c2b30040ff070060c0b300a1
:100c90003eff0700c0c0b3003cff070010c0b30018
:100ca0003aff070000c8b30038ff07000080fa00d1
:100cb000000006000000fa0020c0b30033ff070068
:100cc0000080fa00000006000000fa0020c0b30017
:100cd0002eff070010c0b3002cff07000080fa00b1
:100ce000000006000400fa00008fbe000080eb0048
:100cf0008080eb001e0f40005e9748000080eb00f4
:100d00008080eb00be0f1000ae8f1800f7ff3a0096
:100d10000080fa00000006000000fa000000eb006e
:100d2000c01688000000eb00301688000000eb00c1
:100d3000901688008bff07000041eb008040eb001d
:100d4000e06d28005aff0700400620000800070059
:100d500012c8bf000080fb0012c0b3008040eb004f
:100d600030ff07004006200001000700f2ff3700b7
:100d70000400fa00000f78001e0fe9000080eb006d
:100d80009e0f10000b0032000000eb0010079800cf
:100d90009e009000c0c72000808f5000f6ff3e00ec
:100da0000060fe001e0090000000e80010079800a0
:0c0db000f7ff37000080fa00000006008a
:020000040000fa
:10000800f4060000f4060000f4060000f406000000
:10001800f4060000f4060000f4060000f4060000f0
:10002800f4060000f4060000f4060000f4060000e0
:10003800f4060000f4060000f4060000f4060000d0
:10004800f4060000f4060000f4060000f4060000c0
:10005800f4060000f4060000f4060000f4060000b0
:10006800f4060000f4060000f4060000f4060000a0
:10007800f4060000f4060000f4060000f406000090
:10008800f4060000f4060000f4060000f406000080
:10009800f4060000f4060000f4060000f406000070
:1000a800f4060000f4060000f4060000f406000060
:1000b800f4060000f4060000f4060000f406000050
:1000c800f4060000f4060000f4060000f406000040
:1000d800f4060000f4060000f4060000f406000030
:1000e800f4060000f4060000f4060000f406000020
:0800f800f4060000f40600000c
:020000040000fa
:10010800f4060000f4060000f4060000f4060000ff
:10011800f4060000f4060000f4060000f4060000ef
:10012800f4060000f4060000f4060000f4060000df
:10013800f4060000f4060000f4060000f4060000cf
:10014800f4060000f4060000f4060000f4060000bf
:10015800f4060000f4060000f4060000f4060000af
:10016800f4060000f4060000f4060000f40600009f
:10017800f4060000f4060000f4060000f40600008f
:10018800f4060000f4060000f4060000f40600007f
:10019800f4060000f4060000f4060000f40600006f
:1001a800f4060000f4060000f4060000f40600005f
:1001b800f4060000f4060000f4060000f40600004f
:1001c800f4060000f4060000f4060000f40600003f
:1001d800f4060000f4060000f4060000f40600002f
:1001e800f4060000f4060000f4060000f40600001f
:0801f800f4060000f40600000b
:020000040000fa
:0c0dbc00544500005354000000000000eb
:020000040000fa
:100dc80012080000020000000200000059000000a4
:100dd80000080000120000000000000000000000f1
:020000040000fa
:040de8000000fe0009
:00000001FF
