:020000040000fa
:080000000001040000000000f3
:020000040000fa
:100200008f8720000eff20000e01880000000000f4
:100210000c000700c0c320000100200011000700ef
:10022000000020000000e000020032000000020098
:10023000000000001a080200000000000040da0080
:100240000000fe004440a900c00220000000e000c1
:100250000300320000002000a00188004440a800f4
:100260000000060091018800800078000000eb008b
:1002700015003700e280400032a0b4009101ba00be
:10028000e280400032a0b4009102ba00e280400057
:1002900032a0b4000002eb00472bde00f507b200ed
:1002a000602ce10004003a000059eb008301e900f2
:1002b000fdff3e00040037006128e100010032002c
:1002c0000082eb00040007001101ba000200e00008
:1002d000e8ff3a00000006003159ba008301e90046
:1002e0000c0032002159ba008301e90008003200f5
:1002f0000400e00003003a00e280400032a0b400b5
:10030000f5ff370011d9ba008301e900faff3a007e
:100310008100e800e180400032a0b4000000060047
:080320000040da000000fe00bd
:020000040000fa
:0200000401f009
:04000000ffbd000040
:020000040000fa
:0200000401f009
:04000400ff7f00007a
:020000040000fa
:0200000401f009
:04000800fcff0000f9
:020000040000fa
:0200000401f009
:04001400ffff0000ea
:020000040000fa
:1000080090010000900100009001000090010000a4
:100018009001000090010000900100009001000094
:100028009001000090010000900100009001000084
:100038009001000090010000900100009001000074
:1000480090010000ac070000c60700009001000006
:100058009001000090010000900100009001000054
:10006800a00600009001000090010000900100002f
:10007800900100009001000090010000240700009a
:100088009001000090010000900100009001000024
:100098009001000090010000900100009001000014
:1000a8009001000090010000900100009001000004
:1000b80090010000900100009001000090010000f4
:1000c80090010000900100009001000090010000e4
:1000d80090010000900100009001000090010000d4
:1000e80090010000900100009001000090010000c4
:0800f8009001000090010000de
:020000040000fa
:1001080090010000900100009001000090010000a3
:100118009001000090010000900100009001000093
:100128009001000090010000900100009001000083
:100138009001000090010000900100009001000073
:1001480090010000ac070000c60700009001000005
:100158009001000090010000900100009001000053
:10016800a00600009001000090010000900100002e
:100178009001000090010000900100002407000099
:100188009001000090010000900100009001000023
:100198009001000090010000900100009001000013
:1001a8009001000090010000900100009001000003
:1001b80090010000900100009001000090010000f3
:1001c80090010000900100009001000090010000e3
:1001d80090010000900100009001000090010000d3
:1001e80090010000900100009001000090010000c3
:0801f8009001000090010000dd
:020000040000fa
:1003280048480000204d00004d20000053530000b5
:1003380000200000203a0000202000003a200000a1
:1003480020000000202000004f4e00002020000068
:10035800202000004f46000046000000202000003a
:100368003a3000003020000020200000203a000031
:0803780030300000000000001d
:020000040000fa
:100380000200fa00000f78000040eb0050e8b700d0
:100390000040eb0051e8b7000040eb0052e8b70026
:1003a0000040eb0053e8b700650037003033200011
:1003b0009e007800808f50000600360050c8bf00b5
:1003c0000040e80050e8b700c0cc2f001e0f4000ee
:1003d0005b003700100520009e007800808f5000e1
:1003e00013003600303320009e007800808f5000cc
:1003f0000f003e0051c8bf00e84f500004003c0011
:1004000051c8bf000040e80051e8b70005003700c0
:1004100050c8bf000040e80050e8b7000040eb00c3
:1004200051e8b700e0fa2f001e0f400044003700eb
:100430001e007800e80f50001c0036001005200058
:100440009e007800808f500018003e0052c8bf0008
:10045000e84f500004003c0052c8bf000040e800d4
:1004600052e8b7000e0037000040eb0052e8b7003a
:1004700051c8bf00e84f500004003c0051c8bf0005
:100480000040e80051e8b7000500370050c8bf0041
:100490000040e80050e8b7000040eb0051e8b7002a
:1004a0001e007800690f5000250037001e007800fc
:1004b000e00f5000220032001e007800e80f5000cc
:1004c0001f003e0053c8bf00e84f500004003c002e
:1004d00053c8bf000040e80053e8b70017003700da
:1004e0000040eb0053e8b70052c8bf00e84f50008f
:1004f00004003c0052c8bf000040e80052e8b700ca
:100500000e0037000040eb0052e8b70051c8bf00b2
:10051000e84f500004003c0051c8bf000040e80014
:1005200051e8b7000500370050c8bf000040e800a0
:1005300050e8b7000040eb0051e8b7001e0fe9009b
:100540001e007800e00f500098ff3a0050c8bf002e
:100550000043b00050e8b70051c8bf000043b000ee
:1005600051e8b70052c8bf000043b00052e8b700de
:1005700053c8bf000043b00053e8b7000080fa0042
:10058000000006000400fa00008fbe000040eb00ef
:1005900054e8b7000040eb0055e8b7000040eb001e
:1005a00056e8b7000040eb0057e8b7000040eb000a
:1005b00058e8b700b5003700f070220001002000b5
:1005c0001e01be00800f5100818f590008003600c7
:1005d00054c8bf000040e80054e8b700008f2d0069
:1005e000f1ff2f001e0f40005e974800a700370064
:1005f000703e2000010020001e01be00800f51004f
:10060000818f590017003600f07022000100200091
:100610001e01be00800f5100818f590011003e0065
:1006200055c8bf00e84f500004003c0055c8bf004b
:100630000040e80055e8b7000500370054c8bf0087
:100640000040e80054e8b7000040eb0055e8b70070
:1006500080c12f00f1ff2f001e0f40005e97480061
:100660008a00370030062000010020001e01be0075
:10067000800f5100818f590020003600703e20000d
:10068000010020001e01be00800f5100818f590023
:100690001a003e0056c8bf00e84f500004003c005e
:1006a00056c8bf000040e80056e8b7000e0037000b
:1006b0000040eb0056e8b70055c8bf00e84f5000b7
:1006c00004003c0055c8bf000040e80055e8b700f2
:1006d0000500370054c8bf000040e80054e8b700e8
:1006e0000040eb0055e8b700c0f92f00f1ff2f00e4
:1006f0001e0f40005e974800640037001e01be00d8
:100700009000200001002000800f5100818f5900cf
:100710002900360030062000010020001e01be0026
:10072000800f5100818f590023003e0057c8bf0041
:10073000e84f500004003c0057c8bf000040e800ec
:1007400057e8b700170037000040eb0057e8b70044
:1007500056c8bf00e84f500004003c0056c8bf0018
:100760000040e80056e8b7000e0037000040eb00fc
:1007700056e8b70055c8bf00e84f500004003c00e1
:1007800055c8bf000040e80055e8b7000500370035
:1007900054c8bf000040e80054e8b7000040eb0038
:1007a00055e8b70060ff2f00f1ff2f001e0f40003b
:1007b0005e974800350037001e00be00e00f500075
:1007c000e08f5800310032001e01be009000200072
:1007d00001002000800f5100818f59002b003e0046
:1007e00058c8bf00e84f500004003c0058c8bf0084
:1007f0000040e80058e8b700200037000040eb0058
:1008000058e8b70057c8bf00e84f500004003c004c
:1008100057c8bf000040e80057e8b700170037008e
:100820000040eb0057e8b70056c8bf00e84f500043
:1008300004003c0056c8bf000040e80056e8b7007e
:100840000e0037000040eb0056e8b70055c8bf0067
:10085000e84f500004003c0055c8bf000040e800cd
:1008600055e8b7000500370054c8bf000040e80055
:1008700054e8b7000040eb0055e8b7000080eb00fb
:100880008080eb001e0f40005e9748001e00be00f7
:10089000e00f5000e08f580047ff3a0054c8bf00f7
:1008a0000043b00054e8b70055c8bf000043b00093
:1008b00055e8b70056c8bf000043b00056e8b7007f
:1008c00057c8bf000043b00057e8b70058c8bf0082
:1008d0000043b00058e8b7000080fa0000000600ae
:1008e0000400fa00204798002e409000004f780046
:1008f000e116800000ff2f00808060001e4178001c
:100900000280fb004400de00004078000080fb0015
:100910006f00600000807000e0168800c116800043
:1009200000ff2f0000806000c0168800ca22a900c6
:10093000ca42a8004001200001002000ef0007008b
:10094000ca42a9004001200001002000eb0007007e
:10095000e116800000ff2f00808060002e40900094
:100960000080fb006f00600000807000e0168800cf
:10097000ca22a900ca42a8004001200001002000ac
:10098000de000700ca42a900c0168000f000b300d4
:10099000c01688000080fa00000006000200fa007d
:1009a000004f78000071220001002000d3000700f2
:1009b000ca02a9001e407800c9ff07000080fa00a3
:1009c000000006000200fa00004f780000712200cb
:1009d00001002000c9000700ca02a8001e407800dc
:1009e000bfff07000080fa00000006000200fa00c6
:1009f000004f78001e407800f2ff07000080fa00e8
:100a0000000006000200fa00004f7800114798002d
:100a100000c8b3001e407000804078001e40900067
:100a20000080fb004600dd000040780000c0700040
:100a3000daff07000080fa00000006000a00fa0052
:100a400030079800014f9800124f9800a0852000b1
:100a5000000f78009e0078003e0090006a030700b7
:100a60009e4890000e489000e6ff07000000eb0053
:100a7000100798000d0037001e00780090007800e5
:100a8000210798001e8fe8001e009000e10f500023
:100a9000030034002e00900000407800d3ff0700d0
:100aa0001e0090000000e800100798001e00900053
:100ab000e30f5000f0ff34000080fa000000060051
:100ac0000600fa0010079800414798005247980026
:100ad0000040eb00004f7800de4090004e40900058
:100ae000c8ff0700070037009e4078000180fb0028
:100af0009e0090000080400010407800bbff07007f
:100b00001e4fe8009e4078000180fb009e00900090
:100b10000080400010407800e04f5000f2ff3a00a3
:100b20000080fa00000006000400fa00000f7800c0
:100b300021479800324798001e007800e00f5000cf
:100b400001003d001e0fea001e007800cf80de008d
:100b50008cfe070055c8bf00a4ff070056c8bf00a1
:100b6000a2ff070057c8bf00a0ff070058c8bf007a
:100b70009eff07000080fa00000006000000fa0057
:100b8000f0ff2f00010020005c000700f0ff2f00a5
:100b90000100200059000700f0ff2f000100200095
:100ba00056000700f0ff2f0001002000530007004f
:100bb000e116800000ff2f00008060003000b300cd
:100bc000e0168800c116800000ff2f000080600042
:100bd000c0168800ca22a900ca42a800400120000d
:100be0000100200045000700ca42a900f0ff2f00c5
:100bf0000100200041000700e116800000ff2f00e7
:100c0000008060003000b300e0168800ca42a800ef
:100c1000400120000100200038000700ca42a9005e
:100c2000e116800000ff2f00008060003000b3005c
:100c3000e0168800c116800000ff2f0000806000d1
:100c4000c0168800ca22a900500020000100200020
:100c50002a000700ca42a80040012000010020002d
:100c600026000700ca42a900001920000100200048
:100c700022000700e116800000ff2f0000806000c6
:100c80000010a000e0168800ca42a8004001200021
:100c90000100200019000700ca42a90080c2b30069
:100ca0003eff070060c0b3003cff0700c0c0b300b8
:100cb0003aff070010c0b30038ff070000c8b300b8
:100cc00036ff07000080fa00000006000000fa006e
:100cd00020c0b30031ff07000080fa0000000600ca
:100ce0000000fa0020c0b3002cff070010c0b300c2
:100cf0002aff07000080fa00000006000400fa0046
:100d0000008fbe00000000001e0090001e0070005a
:100d10008000ea00008070004f00de000040780094
:100d20000081eb008081eb001e0f41005e974900bf
:100d3000e04f5000f4ff3a000080fa000000060087
:100d40003600f800809fbe00829fbe00849fbe00d8
:100d5000869fbe003400f80000002000a00188003b
:100d60000400fa008600a90071c8bf00e04f5000df
:100d700025003a0063c8bf00304798003e4090000d
:100d80006f4f60003e4090000080fb004400de009a
:100d9000104798001e407800e94f500006003600ca
:100da0001e4090000040e800104798000040eb0013
:100db000004f7800010037001e4fe8001e409000f1
:100dc0006a00b90000007800004078001e40400032
:100dd00020479800ae409000b0c3b30080cf5000d1
:100de000040036000040eb0063e8b7000040eb0071
:100df000204798002e4090000d0207000040eb00b5
:100e0000f00107000800370073c8bf000040e80089
:100e100073e8b70073c8bf00f74f500002003600f8
:100e20000040eb0073e8b7000080fa003400f900de
:100e30004f03be004f02be004f01be004f00be0078
:100e40003600f900004006003600f800809fbe0022
:100e5000829fbe00849fbe00869fbe003400f800c3
:100e600000002000a00188000400fa0086e0a9002c
:100e700071c8bf00e04f500027003a0064c8bf00af
:100e8000304798003e4090006f4f60003e40900019
:100e90000080fb004400de000040780063406000fa
:100ea000104798001e407800e94f500006003600b9
:100eb0001e4090000040e800104798000040eb0002
:100ec000004f7800010037001e4fe8001e409000e0
:100ed0006a00b90000007800004078001e40400021
:100ee000204798002e409000f74f50000200360037
:100ef0000040eb0020479800918620009140780048
:100f000068c8bf0001417800804078002e40900002
:100f1000e20107000800370072c8bf000040e80087
:100f200072e8b70072c8bf00f74f500002003600e9
:100f30000040eb0072e8b7000080fa003400f900ce
:100f40004f03be004f02be004f01be004f00be0067
:100f50003600f90000400600801f78003400f800d9
:100f600000002000a00188000000fa008520a900f0
:100f7000901080000040780070e8b7000080fa0010
:100f80003400f9004f007800004006003400f800fb
:100f9000881f780008002000a80188004f0478000e
:100fa0000000fa008540a9000080fa003400f90032
:100fb000004006000400fa0000c8b3005901070011
:100fc0000074a10062e8b70020c8b3005501070013
:100fd0000074a10063e8b70040c8b30051010700e6
:100fe000004f78001e407800104798009e40900007
:100ff000214798009e4078000180fb004700de00fa
:101000000040780069e8b7002e4090000080fb00a7
:101010004500de00004078006140600068e8b700ed
:101020001e409000f043b20064e8b7000080fa0070
:10103000000006000000fa00881f78000001200070
:10104000c01688000000eb00301688003000200039
:10105000901688000080eb00401588006c000700a7
:1010600082000700c5fe07003a0107001cff0700c9
:101070000041eb008040eb004019280090fe070083
:1010800012c0b3008040eb00d01928008cfe07008e
:10109000dd02a9000100370000000000b04380001d
:1010a0000000e800b0438800d016800070006000a7
:1010b000e00f500022003200a04380000000e80052
:1010c000a0438800a0438000e20f50001e003600bd
:1010d0000000eb00a043880001ff070071c8bf00bb
:1010e000e04f50000b003a0010c0b30071e8b700a9
:1010f0000041eb008040eb00601a280070fe070002
:1011000012c0b3008040eb00201b28006cfe0700db
:101110000d0037000040eb0071e8b7000041eb0024
:101120008040eb004019280065fe070012c0b300a4
:101130008040eb00d019280061fe07000200370054
:101140000000eb00a043880071c8bf00e04f5000d2
:1011500022003a0097ff070064c8bf000080fb0030
:1011600012c0b3008040eb0034fe070063c8bf002c
:101170000080fb0012c0b30031c0b3002ffe070097
:1011800062c8bf000080fb0012c0b30061c0b300a2
:101190002afe0700100020004800070048862000b3
:1011a0001844780072c8bf005d000700804f5400eb
:1011b00002003a00dd02a800b8ff37004886200090
:1011c0001844780073c8bf0055000700804f5400d2
:1011d000b1ff3a00dd02a900b0ff370072c8bf00be
:1011e0004f0007000080fb0012c0b3008040eb00fe
:1011f00012fe070073c8bf00490007000080fb0013
:1012000012c0b30071c0b3000cfe0700a3ff37008b
:101210000000fa000c02a9006110800090ff2f006e
:1012200000806000601088000ca2a90070062000f9
:10123000a010880071108000f0f32f000080600083
:10124000701088000fe2a8000d42a8000de2a8006f
:101250000f42a8008540a9008520a9008d40a80064
:101260008d20a8000080fa00000006000000fa00af
:101270008e00a800e104800080ff2f000080600045
:101280003000b300e00488008600a9008220a90095
:101290008ee0a800f1048000f0ff2800808060004c
:1012a0000000240000807000f004880086e0a9009f
:1012b0008220a9000080fa00000006000400fa0065
:1012c00010079800090037000000eb00000f7800bd
:1012d000020037000060fe001e0fe800e01320004f
:1012e0009e007800808f5000faff36001e009000ac
:1012f0008000ea001e009000008070004f00de00b9
:10130000004078009e0090008100e90011079800dd
:10131000e04f5000ecff3a000080fa0000000600a9
:101320000600fa00404798004e4090008080fb0085
:10133000a000200000017800110009008280d80080
:10134000004f78001e4078006a00b9000000780065
:1013500010479800ce4090001e40900000c0500002
:10136000204798001e407800410020008100dd00e9
:101370002e40900000c04000104798001e40900092
:101380000080fa00000006000200fa00000f78005a
:10139000000000001e00ea001e0070004f00de008a
:1013a000004078001e0fe900e04f5000f9ff3a00be
:1013b0000080fa00000006000200fa000040eb0086
:1013c000004f78000040eb001047980016003700ef
:1013d000c682a8004016800070006000e00f500038
:1013e0000300320000c8b3001e4f70000100370038
:1013f0001e74a1009e4078000180fb000000d10017
:10140000004f7800c682a900ca62a800200320000d
:10141000ddff0700ca62a900ca82a8001e40900032
:101420000040e800104798001e409000e74f500031
:10143000e7ff34001e4078000080fa00000006003c
:101440000000fa00ca62a900caa2a900caa2a800a4
:1014500020032000ccff07000080fa0000000600f7
:101460000000fa0020032000c7ff0700ca62a9009d
:10147000caa2a900caa2a8000080fa0000000600c3
:101480000400fa00204798000040eb00004f78006d
:1014900013003700ca82a9002e4090000080fb0094
:1014a0006100600000407800e04f50000200320010
:1014b000ca82a80001003700ca82a9002e4090000d
:1014c0000080fb000000d10020479800ca62a900fc
:1014d00020032000acff0700ca62a8001e4fe800ee
:1014e0001e407800e74f5000eaff36000080fa0007
:1014f000000006000200fa00004f78001147980033
:10150000cfff0700e0cfb3001e406000dcff070004
:101510001e409000daff0700d1ff07000080fa00ac
:10152000000006000400fa0020479800c4ff0700ee
:101530002e4090000004a000d1ff07009eff07008e
:10154000004f7800c6ff07001e4078000080fa00b8
:10155000000006000200fa008040eb00e0c8b30083
:10156000e4ff070051cab30000c9b300e1ff070060
:1015700000c8b300ebff0700004f78001e40780062
:101580000074a1008040780000c8b300d9ff0700b4
:101590000080fa00000006000000fa000040eb00a6
:1015a000080007000040eb002100070012c0b30054
:1015b0008040eb00c0c0b300380007000080fa0094
:1015c000000006000600fa00404798004e409000d8
:1015d0008080fb00a00020000001780011000900bd
:1015e0008280d800004f78001e4078006a00b90061
:1015f0000000780010479800ce4090001e409000f8
:1016000000c05000204798001e4078004100200094
:101610008100dd002e40900000c040008040780036
:1016200000c8b300b3ff07000080fa000000060006
:101630000600fa00404798004e4090008080fb0072
:10164000a000200000017800110009008280d8006d
:10165000004f78001e4078006a00b9000000780052
:1016600010479800ce4090001e40900000c05000ef
:10167000204798001e407800410020008100dd00d6
:101680002e40900000c040008040780020c8b30089
:1016900098ff07000080fa00000006000800fa002a
:1016a0004047980051479800624798004e4090008c
:1016b0008080fb00a00020000001780011000900dc
:1016c0008280d800004f78001e4078006a00b90080
:1016d0000000780010479800ce4090001e40900017
:1016e00000c05000204798001e40780041002000b4
:1016f0008100dd002e40900000c04000104798009f
:101700009e40900040c8b3007aff07000080fa00b6
:10171000000006000600fa00404798004e40900086
:101720008080fb00a000200000017800110009006b
:101730008280d800004f78001e4078006a00b9000f
:101740000000780010479800ce4090001e409000a6
:1017500000c05000204798001e4078004100200043
:101760008100dd002e40900000c04000104798002e
:101770009e40900040c8b3005eff07000080fa0062
:10178000000006000000fa000040eb0062e8b7002d
:101790000040eb0063e8b7000040eb0064e8b700ee
:1017a0000040eb0068e8b7000040eb0069e8b700d4
:1017b00062c8bf0083ff070063c8bf009cff07002b
:1017c00092862000124178008186200091407800a6
:1017d00064c8bf00b1ff07000080fa0000000600e7
:1017e0000200fa0016ff070010c8b30024ff07002c
:1017f000f1fe0700004f780019ff07001e40780037
:101800000080fa0000000600829fbe00849fbe0098
:10181000869fbe000603200045002000f200200045
:10182000820160004400de006918e100010034001c
:10183000e781410006824100841f78008502e900ab
:10184000f7ff3a004f007800801878004f007800ca
:10185000801878004f007800801878004f007800da
:10186000801878008100b1004f03be004f02be0017
:081870004f01be00000006005c
:020000040000fa
:101878005008000020000000000000007008000070
:101888000800000002000000ff0001000200000044
:08189800000000000000000048
:00000001FF
